{
	"contracts/14_Enum.sol": {
		"Enum": {
			"abi": [
				{
					"inputs": [
						{
							"internalType": "uint256",
							"name": "val",
							"type": "uint256"
						}
					],
					"name": "change_user_permission",
					"outputs": [
						{
							"internalType": "string",
							"name": "",
							"type": "string"
						}
					],
					"stateMutability": "nonpayable",
					"type": "function"
				},
				{
					"inputs": [],
					"name": "get_lottery",
					"outputs": [
						{
							"internalType": "string",
							"name": "",
							"type": "string"
						}
					],
					"stateMutability": "nonpayable",
					"type": "function"
				},
				{
					"inputs": [],
					"name": "lottery",
					"outputs": [
						{
							"internalType": "uint256",
							"name": "",
							"type": "uint256"
						}
					],
					"stateMutability": "view",
					"type": "function"
				},
				{
					"inputs": [],
					"name": "user",
					"outputs": [
						{
							"internalType": "enum Enum.permission",
							"name": "",
							"type": "uint8"
						}
					],
					"stateMutability": "view",
					"type": "function"
				}
			],
			"devdoc": {
				"kind": "dev",
				"methods": {},
				"version": 1
			},
			"evm": {
				"assembly": "    /* \"contracts/14_Enum.sol\":79:1335  contract Enum\r... */\n  mstore(0x40, 0x80)\n    /* \"contracts/14_Enum.sol\":277:299  permission.not_allowed */\n  0x00\n    /* \"contracts/14_Enum.sol\":252:299  permission public user = permission.not_allowed */\n  dup1\n  exp(0x0100, 0x00)\n  dup2\n  sload\n  dup2\n  0xff\n  mul\n  not\n  and\n  swap1\n  dup4\n  0x02\n  dup2\n  gt\n  iszero\n  tag_1\n  jumpi\n  tag_2\n  tag_3\n  jump\t// in\ntag_2:\ntag_1:\n  mul\n  or\n  swap1\n  sstore\n  pop\n    /* \"contracts/14_Enum.sol\":334:338  1000 */\n  0x03e8\n    /* \"contracts/14_Enum.sol\":312:338  uint public lottery = 1000 */\n  0x01\n  sstore\n    /* \"contracts/14_Enum.sol\":79:1335  contract Enum\r... */\n  callvalue\n  dup1\n  iszero\n  tag_4\n  jumpi\n  0x00\n  dup1\n  revert\ntag_4:\n  pop\n  jump(tag_5)\n    /* \"#utility.yul\":7:187   */\ntag_3:\n    /* \"#utility.yul\":55:132   */\n  0x4e487b7100000000000000000000000000000000000000000000000000000000\n    /* \"#utility.yul\":52:53   */\n  0x00\n    /* \"#utility.yul\":45:133   */\n  mstore\n    /* \"#utility.yul\":152:156   */\n  0x21\n    /* \"#utility.yul\":149:150   */\n  0x04\n    /* \"#utility.yul\":142:157   */\n  mstore\n    /* \"#utility.yul\":176:180   */\n  0x24\n    /* \"#utility.yul\":173:174   */\n  0x00\n    /* \"#utility.yul\":166:181   */\n  revert\n    /* \"contracts/14_Enum.sol\":79:1335  contract Enum\r... */\ntag_5:\n  dataSize(sub_0)\n  dup1\n  dataOffset(sub_0)\n  0x00\n  codecopy\n  0x00\n  return\nstop\n\nsub_0: assembly {\n        /* \"contracts/14_Enum.sol\":79:1335  contract Enum\r... */\n      mstore(0x40, 0x80)\n      callvalue\n      dup1\n      iszero\n      tag_1\n      jumpi\n      0x00\n      dup1\n      revert\n    tag_1:\n      pop\n      jumpi(tag_2, lt(calldatasize, 0x04))\n      shr(0xe0, calldataload(0x00))\n      dup1\n      0x4f8632ba\n      eq\n      tag_3\n      jumpi\n      dup1\n      0x57bcafc4\n      eq\n      tag_4\n      jumpi\n      dup1\n      0xba13a572\n      eq\n      tag_5\n      jumpi\n      dup1\n      0xc7304d07\n      eq\n      tag_6\n      jumpi\n    tag_2:\n      0x00\n      dup1\n      revert\n        /* \"contracts/14_Enum.sol\":252:299  permission public user = permission.not_allowed */\n    tag_3:\n      tag_7\n      tag_8\n      jump\t// in\n    tag_7:\n      mload(0x40)\n      tag_9\n      swap2\n      swap1\n      tag_10\n      jump\t// in\n    tag_9:\n      mload(0x40)\n      dup1\n      swap2\n      sub\n      swap1\n      return\n        /* \"contracts/14_Enum.sol\":896:1328  function get_lottery() public returns(string memory)\r... */\n    tag_4:\n      tag_11\n      tag_12\n      jump\t// in\n    tag_11:\n      mload(0x40)\n      tag_13\n      swap2\n      swap1\n      tag_14\n      jump\t// in\n    tag_13:\n      mload(0x40)\n      dup1\n      swap2\n      sub\n      swap1\n      return\n        /* \"contracts/14_Enum.sol\":312:338  uint public lottery = 1000 */\n    tag_5:\n      tag_15\n      tag_16\n      jump\t// in\n    tag_15:\n      mload(0x40)\n      tag_17\n      swap2\n      swap1\n      tag_18\n      jump\t// in\n    tag_17:\n      mload(0x40)\n      dup1\n      swap2\n      sub\n      swap1\n      return\n        /* \"contracts/14_Enum.sol\":347:888  function change_user_permission(uint val) public returns(string memory)\r... */\n    tag_6:\n      tag_19\n      0x04\n      dup1\n      calldatasize\n      sub\n      dup2\n      add\n      swap1\n      tag_20\n      swap2\n      swap1\n      tag_21\n      jump\t// in\n    tag_20:\n      tag_22\n      jump\t// in\n    tag_19:\n      mload(0x40)\n      tag_23\n      swap2\n      swap1\n      tag_14\n      jump\t// in\n    tag_23:\n      mload(0x40)\n      dup1\n      swap2\n      sub\n      swap1\n      return\n        /* \"contracts/14_Enum.sol\":252:299  permission public user = permission.not_allowed */\n    tag_8:\n      0x00\n      dup1\n      sload\n      swap1\n      0x0100\n      exp\n      swap1\n      div\n      0xff\n      and\n      dup2\n      jump\t// out\n        /* \"contracts/14_Enum.sol\":896:1328  function get_lottery() public returns(string memory)\r... */\n    tag_12:\n        /* \"contracts/14_Enum.sol\":934:947  string memory */\n      0x60\n        /* \"contracts/14_Enum.sol\":965:986  string memory message */\n      0x00\n        /* \"contracts/14_Enum.sol\":965:1006  string memory message = \"Lottery granted\" */\n      mload(0x40)\n      dup1\n      0x40\n      add\n      0x40\n      mstore\n      dup1\n      0x0f\n      dup2\n      mstore\n      0x20\n      add\n      0x4c6f7474657279206772616e7465640000000000000000000000000000000000\n      dup2\n      mstore\n      pop\n      swap1\n      pop\n        /* \"contracts/14_Enum.sol\":1030:1055  permission.always_allowed */\n      0x02\n        /* \"contracts/14_Enum.sol\":1022:1055  user == permission.always_allowed */\n      dup1\n      dup2\n      gt\n      iszero\n      tag_25\n      jumpi\n      tag_26\n      tag_27\n      jump\t// in\n    tag_26:\n    tag_25:\n        /* \"contracts/14_Enum.sol\":1022:1026  user */\n      0x00\n      dup1\n      sload\n      swap1\n      0x0100\n      exp\n      swap1\n      div\n      0xff\n      and\n        /* \"contracts/14_Enum.sol\":1022:1055  user == permission.always_allowed */\n      0x02\n      dup2\n      gt\n      iszero\n      tag_28\n      jumpi\n      tag_29\n      tag_27\n      jump\t// in\n    tag_29:\n    tag_28:\n      eq\n        /* \"contracts/14_Enum.sol\":1019:1294  if(user == permission.always_allowed)\r... */\n      iszero\n      tag_30\n      jumpi\n        /* \"contracts/14_Enum.sol\":1091:1092  0 */\n      0x00\n        /* \"contracts/14_Enum.sol\":1081:1088  lottery */\n      0x01\n        /* \"contracts/14_Enum.sol\":1081:1092  lottery = 0 */\n      dup2\n      swap1\n      sstore\n      pop\n        /* \"contracts/14_Enum.sol\":1019:1294  if(user == permission.always_allowed)\r... */\n      jump(tag_31)\n    tag_30:\n        /* \"contracts/14_Enum.sol\":1130:1158  permission.sometimes_allowed */\n      0x01\n        /* \"contracts/14_Enum.sol\":1122:1158  user == permission.sometimes_allowed */\n      0x02\n      dup2\n      gt\n      iszero\n      tag_32\n      jumpi\n      tag_33\n      tag_27\n      jump\t// in\n    tag_33:\n    tag_32:\n        /* \"contracts/14_Enum.sol\":1122:1126  user */\n      0x00\n      dup1\n      sload\n      swap1\n      0x0100\n      exp\n      swap1\n      div\n      0xff\n      and\n        /* \"contracts/14_Enum.sol\":1122:1158  user == permission.sometimes_allowed */\n      0x02\n      dup2\n      gt\n      iszero\n      tag_34\n      jumpi\n      tag_35\n      tag_27\n      jump\t// in\n    tag_35:\n    tag_34:\n      eq\n        /* \"contracts/14_Enum.sol\":1119:1294  if(user == permission.sometimes_allowed)\r... */\n      iszero\n      tag_36\n      jumpi\n        /* \"contracts/14_Enum.sol\":1202:1203  2 */\n      0x02\n        /* \"contracts/14_Enum.sol\":1194:1201  lottery */\n      sload(0x01)\n        /* \"contracts/14_Enum.sol\":1194:1203  lottery/2 */\n      tag_37\n      swap2\n      swap1\n      tag_38\n      jump\t// in\n    tag_37:\n        /* \"contracts/14_Enum.sol\":1184:1191  lottery */\n      0x01\n        /* \"contracts/14_Enum.sol\":1184:1203  lottery = lottery/2 */\n      dup2\n      swap1\n      sstore\n      pop\n        /* \"contracts/14_Enum.sol\":1119:1294  if(user == permission.sometimes_allowed)\r... */\n      jump(tag_39)\n    tag_36:\n        /* \"contracts/14_Enum.sol\":1254:1282  message = \"User not allowed\" */\n      mload(0x40)\n      dup1\n      0x40\n      add\n      0x40\n      mstore\n      dup1\n      0x10\n      dup2\n      mstore\n      0x20\n      add\n      0x55736572206e6f7420616c6c6f77656400000000000000000000000000000000\n      dup2\n      mstore\n      pop\n      swap1\n      pop\n        /* \"contracts/14_Enum.sol\":1119:1294  if(user == permission.sometimes_allowed)\r... */\n    tag_39:\n        /* \"contracts/14_Enum.sol\":1019:1294  if(user == permission.always_allowed)\r... */\n    tag_31:\n        /* \"contracts/14_Enum.sol\":1313:1320  message */\n      dup1\n        /* \"contracts/14_Enum.sol\":1306:1320  return message */\n      swap2\n      pop\n      pop\n        /* \"contracts/14_Enum.sol\":896:1328  function get_lottery() public returns(string memory)\r... */\n      swap1\n      jump\t// out\n        /* \"contracts/14_Enum.sol\":312:338  uint public lottery = 1000 */\n    tag_16:\n      sload(0x01)\n      dup2\n      jump\t// out\n        /* \"contracts/14_Enum.sol\":347:888  function change_user_permission(uint val) public returns(string memory)\r... */\n    tag_22:\n        /* \"contracts/14_Enum.sol\":404:417  string memory */\n      0x60\n        /* \"contracts/14_Enum.sol\":435:456  string memory message */\n      0x00\n        /* \"contracts/14_Enum.sol\":435:479  string memory message = \"Permission Changed\" */\n      mload(0x40)\n      dup1\n      0x40\n      add\n      0x40\n      mstore\n      dup1\n      0x12\n      dup2\n      mstore\n      0x20\n      add\n      0x5065726d697373696f6e204368616e6765640000000000000000000000000000\n      dup2\n      mstore\n      pop\n      swap1\n      pop\n        /* \"contracts/14_Enum.sol\":502:503  0 */\n      0x00\n        /* \"contracts/14_Enum.sol\":495:498  val */\n      dup4\n        /* \"contracts/14_Enum.sol\":495:503  val == 0 */\n      eq\n        /* \"contracts/14_Enum.sol\":492:854  if(val == 0)\r... */\n      iszero\n      tag_41\n      jumpi\n        /* \"contracts/14_Enum.sol\":536:558  permission.not_allowed */\n      0x00\n        /* \"contracts/14_Enum.sol\":529:533  user */\n      dup1\n      0x00\n        /* \"contracts/14_Enum.sol\":529:558  user = permission.not_allowed */\n      0x0100\n      exp\n      dup2\n      sload\n      dup2\n      0xff\n      mul\n      not\n      and\n      swap1\n      dup4\n      0x02\n      dup2\n      gt\n      iszero\n      tag_42\n      jumpi\n      tag_43\n      tag_27\n      jump\t// in\n    tag_43:\n    tag_42:\n      mul\n      or\n      swap1\n      sstore\n      pop\n        /* \"contracts/14_Enum.sol\":492:854  if(val == 0)\r... */\n      jump(tag_44)\n    tag_41:\n        /* \"contracts/14_Enum.sol\":595:596  1 */\n      0x01\n        /* \"contracts/14_Enum.sol\":588:591  val */\n      dup4\n        /* \"contracts/14_Enum.sol\":588:596  val == 1 */\n      eq\n        /* \"contracts/14_Enum.sol\":585:854  if(val == 1)\r... */\n      iszero\n      tag_45\n      jumpi\n        /* \"contracts/14_Enum.sol\":629:657  permission.sometimes_allowed */\n      0x01\n        /* \"contracts/14_Enum.sol\":622:626  user */\n      0x00\n      dup1\n        /* \"contracts/14_Enum.sol\":622:657  user = permission.sometimes_allowed */\n      0x0100\n      exp\n      dup2\n      sload\n      dup2\n      0xff\n      mul\n      not\n      and\n      swap1\n      dup4\n      0x02\n      dup2\n      gt\n      iszero\n      tag_46\n      jumpi\n      tag_47\n      tag_27\n      jump\t// in\n    tag_47:\n    tag_46:\n      mul\n      or\n      swap1\n      sstore\n      pop\n        /* \"contracts/14_Enum.sol\":585:854  if(val == 1)\r... */\n      jump(tag_48)\n    tag_45:\n        /* \"contracts/14_Enum.sol\":694:695  2 */\n      0x02\n        /* \"contracts/14_Enum.sol\":687:690  val */\n      dup4\n        /* \"contracts/14_Enum.sol\":687:695  val == 2 */\n      eq\n        /* \"contracts/14_Enum.sol\":684:854  if(val == 2)\r... */\n      iszero\n      tag_49\n      jumpi\n        /* \"contracts/14_Enum.sol\":728:753  permission.always_allowed */\n      0x02\n        /* \"contracts/14_Enum.sol\":721:725  user */\n      0x00\n      dup1\n        /* \"contracts/14_Enum.sol\":721:753  user = permission.always_allowed */\n      0x0100\n      exp\n      dup2\n      sload\n      dup2\n      0xff\n      mul\n      not\n      and\n      swap1\n      dup4\n      0x02\n      dup2\n      gt\n      iszero\n      tag_50\n      jumpi\n      tag_51\n      tag_27\n      jump\t// in\n    tag_51:\n    tag_50:\n      mul\n      or\n      swap1\n      sstore\n      pop\n        /* \"contracts/14_Enum.sol\":684:854  if(val == 2)\r... */\n      jump(tag_52)\n    tag_49:\n        /* \"contracts/14_Enum.sol\":804:842  message = \"Invalid Permission Request\" */\n      mload(0x40)\n      dup1\n      0x40\n      add\n      0x40\n      mstore\n      dup1\n      0x1a\n      dup2\n      mstore\n      0x20\n      add\n      0x496e76616c6964205065726d697373696f6e2052657175657374000000000000\n      dup2\n      mstore\n      pop\n      swap1\n      pop\n        /* \"contracts/14_Enum.sol\":684:854  if(val == 2)\r... */\n    tag_52:\n        /* \"contracts/14_Enum.sol\":585:854  if(val == 1)\r... */\n    tag_48:\n        /* \"contracts/14_Enum.sol\":492:854  if(val == 0)\r... */\n    tag_44:\n        /* \"contracts/14_Enum.sol\":873:880  message */\n      dup1\n        /* \"contracts/14_Enum.sol\":866:880  return message */\n      swap2\n      pop\n      pop\n        /* \"contracts/14_Enum.sol\":347:888  function change_user_permission(uint val) public returns(string memory)\r... */\n      swap2\n      swap1\n      pop\n      jump\t// out\n        /* \"#utility.yul\":7:146   */\n    tag_54:\n        /* \"#utility.yul\":53:58   */\n      0x00\n        /* \"#utility.yul\":91:97   */\n      dup2\n        /* \"#utility.yul\":78:98   */\n      calldataload\n        /* \"#utility.yul\":69:98   */\n      swap1\n      pop\n        /* \"#utility.yul\":107:140   */\n      tag_56\n        /* \"#utility.yul\":134:139   */\n      dup2\n        /* \"#utility.yul\":107:140   */\n      tag_57\n      jump\t// in\n    tag_56:\n        /* \"#utility.yul\":7:146   */\n      swap3\n      swap2\n      pop\n      pop\n      jump\t// out\n        /* \"#utility.yul\":152:481   */\n    tag_21:\n        /* \"#utility.yul\":211:217   */\n      0x00\n        /* \"#utility.yul\":260:262   */\n      0x20\n        /* \"#utility.yul\":248:257   */\n      dup3\n        /* \"#utility.yul\":239:246   */\n      dup5\n        /* \"#utility.yul\":235:258   */\n      sub\n        /* \"#utility.yul\":231:263   */\n      slt\n        /* \"#utility.yul\":228:347   */\n      iszero\n      tag_59\n      jumpi\n        /* \"#utility.yul\":266:345   */\n      tag_60\n      tag_61\n      jump\t// in\n    tag_60:\n        /* \"#utility.yul\":228:347   */\n    tag_59:\n        /* \"#utility.yul\":386:387   */\n      0x00\n        /* \"#utility.yul\":411:464   */\n      tag_62\n        /* \"#utility.yul\":456:463   */\n      dup5\n        /* \"#utility.yul\":447:453   */\n      dup3\n        /* \"#utility.yul\":436:445   */\n      dup6\n        /* \"#utility.yul\":432:454   */\n      add\n        /* \"#utility.yul\":411:464   */\n      tag_54\n      jump\t// in\n    tag_62:\n        /* \"#utility.yul\":401:464   */\n      swap2\n      pop\n        /* \"#utility.yul\":357:474   */\n      pop\n        /* \"#utility.yul\":152:481   */\n      swap3\n      swap2\n      pop\n      pop\n      jump\t// out\n        /* \"#utility.yul\":487:638   */\n    tag_63:\n        /* \"#utility.yul\":584:631   */\n      tag_65\n        /* \"#utility.yul\":625:630   */\n      dup2\n        /* \"#utility.yul\":584:631   */\n      tag_66\n      jump\t// in\n    tag_65:\n        /* \"#utility.yul\":579:582   */\n      dup3\n        /* \"#utility.yul\":572:632   */\n      mstore\n        /* \"#utility.yul\":487:638   */\n      pop\n      pop\n      jump\t// out\n        /* \"#utility.yul\":644:1008   */\n    tag_67:\n        /* \"#utility.yul\":732:735   */\n      0x00\n        /* \"#utility.yul\":760:799   */\n      tag_69\n        /* \"#utility.yul\":793:798   */\n      dup3\n        /* \"#utility.yul\":760:799   */\n      tag_70\n      jump\t// in\n    tag_69:\n        /* \"#utility.yul\":815:886   */\n      tag_71\n        /* \"#utility.yul\":879:885   */\n      dup2\n        /* \"#utility.yul\":874:877   */\n      dup6\n        /* \"#utility.yul\":815:886   */\n      tag_72\n      jump\t// in\n    tag_71:\n        /* \"#utility.yul\":808:886   */\n      swap4\n      pop\n        /* \"#utility.yul\":895:947   */\n      tag_73\n        /* \"#utility.yul\":940:946   */\n      dup2\n        /* \"#utility.yul\":935:938   */\n      dup6\n        /* \"#utility.yul\":928:932   */\n      0x20\n        /* \"#utility.yul\":921:926   */\n      dup7\n        /* \"#utility.yul\":917:933   */\n      add\n        /* \"#utility.yul\":895:947   */\n      tag_74\n      jump\t// in\n    tag_73:\n        /* \"#utility.yul\":972:1001   */\n      tag_75\n        /* \"#utility.yul\":994:1000   */\n      dup2\n        /* \"#utility.yul\":972:1001   */\n      tag_76\n      jump\t// in\n    tag_75:\n        /* \"#utility.yul\":967:970   */\n      dup5\n        /* \"#utility.yul\":963:1002   */\n      add\n        /* \"#utility.yul\":956:1002   */\n      swap2\n      pop\n        /* \"#utility.yul\":736:1008   */\n      pop\n        /* \"#utility.yul\":644:1008   */\n      swap3\n      swap2\n      pop\n      pop\n      jump\t// out\n        /* \"#utility.yul\":1014:1132   */\n    tag_77:\n        /* \"#utility.yul\":1101:1125   */\n      tag_79\n        /* \"#utility.yul\":1119:1124   */\n      dup2\n        /* \"#utility.yul\":1101:1125   */\n      tag_80\n      jump\t// in\n    tag_79:\n        /* \"#utility.yul\":1096:1099   */\n      dup3\n        /* \"#utility.yul\":1089:1126   */\n      mstore\n        /* \"#utility.yul\":1014:1132   */\n      pop\n      pop\n      jump\t// out\n        /* \"#utility.yul\":1138:1380   */\n    tag_10:\n        /* \"#utility.yul\":1241:1245   */\n      0x00\n        /* \"#utility.yul\":1279:1281   */\n      0x20\n        /* \"#utility.yul\":1268:1277   */\n      dup3\n        /* \"#utility.yul\":1264:1282   */\n      add\n        /* \"#utility.yul\":1256:1282   */\n      swap1\n      pop\n        /* \"#utility.yul\":1292:1373   */\n      tag_82\n        /* \"#utility.yul\":1370:1371   */\n      0x00\n        /* \"#utility.yul\":1359:1368   */\n      dup4\n        /* \"#utility.yul\":1355:1372   */\n      add\n        /* \"#utility.yul\":1346:1352   */\n      dup5\n        /* \"#utility.yul\":1292:1373   */\n      tag_63\n      jump\t// in\n    tag_82:\n        /* \"#utility.yul\":1138:1380   */\n      swap3\n      swap2\n      pop\n      pop\n      jump\t// out\n        /* \"#utility.yul\":1386:1699   */\n    tag_14:\n        /* \"#utility.yul\":1499:1503   */\n      0x00\n        /* \"#utility.yul\":1537:1539   */\n      0x20\n        /* \"#utility.yul\":1526:1535   */\n      dup3\n        /* \"#utility.yul\":1522:1540   */\n      add\n        /* \"#utility.yul\":1514:1540   */\n      swap1\n      pop\n        /* \"#utility.yul\":1586:1595   */\n      dup2\n        /* \"#utility.yul\":1580:1584   */\n      dup2\n        /* \"#utility.yul\":1576:1596   */\n      sub\n        /* \"#utility.yul\":1572:1573   */\n      0x00\n        /* \"#utility.yul\":1561:1570   */\n      dup4\n        /* \"#utility.yul\":1557:1574   */\n      add\n        /* \"#utility.yul\":1550:1597   */\n      mstore\n        /* \"#utility.yul\":1614:1692   */\n      tag_84\n        /* \"#utility.yul\":1687:1691   */\n      dup2\n        /* \"#utility.yul\":1678:1684   */\n      dup5\n        /* \"#utility.yul\":1614:1692   */\n      tag_67\n      jump\t// in\n    tag_84:\n        /* \"#utility.yul\":1606:1692   */\n      swap1\n      pop\n        /* \"#utility.yul\":1386:1699   */\n      swap3\n      swap2\n      pop\n      pop\n      jump\t// out\n        /* \"#utility.yul\":1705:1927   */\n    tag_18:\n        /* \"#utility.yul\":1798:1802   */\n      0x00\n        /* \"#utility.yul\":1836:1838   */\n      0x20\n        /* \"#utility.yul\":1825:1834   */\n      dup3\n        /* \"#utility.yul\":1821:1839   */\n      add\n        /* \"#utility.yul\":1813:1839   */\n      swap1\n      pop\n        /* \"#utility.yul\":1849:1920   */\n      tag_86\n        /* \"#utility.yul\":1917:1918   */\n      0x00\n        /* \"#utility.yul\":1906:1915   */\n      dup4\n        /* \"#utility.yul\":1902:1919   */\n      add\n        /* \"#utility.yul\":1893:1899   */\n      dup5\n        /* \"#utility.yul\":1849:1920   */\n      tag_77\n      jump\t// in\n    tag_86:\n        /* \"#utility.yul\":1705:1927   */\n      swap3\n      swap2\n      pop\n      pop\n      jump\t// out\n        /* \"#utility.yul\":2014:2113   */\n    tag_70:\n        /* \"#utility.yul\":2066:2072   */\n      0x00\n        /* \"#utility.yul\":2100:2105   */\n      dup2\n        /* \"#utility.yul\":2094:2106   */\n      mload\n        /* \"#utility.yul\":2084:2106   */\n      swap1\n      pop\n        /* \"#utility.yul\":2014:2113   */\n      swap2\n      swap1\n      pop\n      jump\t// out\n        /* \"#utility.yul\":2119:2288   */\n    tag_72:\n        /* \"#utility.yul\":2203:2214   */\n      0x00\n        /* \"#utility.yul\":2237:2243   */\n      dup3\n        /* \"#utility.yul\":2232:2235   */\n      dup3\n        /* \"#utility.yul\":2225:2244   */\n      mstore\n        /* \"#utility.yul\":2277:2281   */\n      0x20\n        /* \"#utility.yul\":2272:2275   */\n      dup3\n        /* \"#utility.yul\":2268:2282   */\n      add\n        /* \"#utility.yul\":2253:2282   */\n      swap1\n      pop\n        /* \"#utility.yul\":2119:2288   */\n      swap3\n      swap2\n      pop\n      pop\n      jump\t// out\n        /* \"#utility.yul\":2294:2479   */\n    tag_38:\n        /* \"#utility.yul\":2334:2335   */\n      0x00\n        /* \"#utility.yul\":2351:2371   */\n      tag_92\n        /* \"#utility.yul\":2369:2370   */\n      dup3\n        /* \"#utility.yul\":2351:2371   */\n      tag_80\n      jump\t// in\n    tag_92:\n        /* \"#utility.yul\":2346:2371   */\n      swap2\n      pop\n        /* \"#utility.yul\":2385:2405   */\n      tag_93\n        /* \"#utility.yul\":2403:2404   */\n      dup4\n        /* \"#utility.yul\":2385:2405   */\n      tag_80\n      jump\t// in\n    tag_93:\n        /* \"#utility.yul\":2380:2405   */\n      swap3\n      pop\n        /* \"#utility.yul\":2424:2425   */\n      dup3\n        /* \"#utility.yul\":2414:2449   */\n      tag_94\n      jumpi\n        /* \"#utility.yul\":2429:2447   */\n      tag_95\n      tag_96\n      jump\t// in\n    tag_95:\n        /* \"#utility.yul\":2414:2449   */\n    tag_94:\n        /* \"#utility.yul\":2471:2472   */\n      dup3\n        /* \"#utility.yul\":2468:2469   */\n      dup3\n        /* \"#utility.yul\":2464:2473   */\n      div\n        /* \"#utility.yul\":2459:2473   */\n      swap1\n      pop\n        /* \"#utility.yul\":2294:2479   */\n      swap3\n      swap2\n      pop\n      pop\n      jump\t// out\n        /* \"#utility.yul\":2485:2620   */\n    tag_97:\n        /* \"#utility.yul\":2534:2541   */\n      0x00\n        /* \"#utility.yul\":2563:2568   */\n      dup2\n        /* \"#utility.yul\":2552:2568   */\n      swap1\n      pop\n        /* \"#utility.yul\":2569:2614   */\n      tag_99\n        /* \"#utility.yul\":2608:2613   */\n      dup3\n        /* \"#utility.yul\":2569:2614   */\n      tag_100\n      jump\t// in\n    tag_99:\n        /* \"#utility.yul\":2485:2620   */\n      swap2\n      swap1\n      pop\n      jump\t// out\n        /* \"#utility.yul\":2626:2703   */\n    tag_80:\n        /* \"#utility.yul\":2663:2670   */\n      0x00\n        /* \"#utility.yul\":2692:2697   */\n      dup2\n        /* \"#utility.yul\":2681:2697   */\n      swap1\n      pop\n        /* \"#utility.yul\":2626:2703   */\n      swap2\n      swap1\n      pop\n      jump\t// out\n        /* \"#utility.yul\":2709:2844   */\n    tag_66:\n        /* \"#utility.yul\":2769:2778   */\n      0x00\n        /* \"#utility.yul\":2802:2838   */\n      tag_103\n        /* \"#utility.yul\":2832:2837   */\n      dup3\n        /* \"#utility.yul\":2802:2838   */\n      tag_97\n      jump\t// in\n    tag_103:\n        /* \"#utility.yul\":2789:2838   */\n      swap1\n      pop\n        /* \"#utility.yul\":2709:2844   */\n      swap2\n      swap1\n      pop\n      jump\t// out\n        /* \"#utility.yul\":2850:3157   */\n    tag_74:\n        /* \"#utility.yul\":2918:2919   */\n      0x00\n        /* \"#utility.yul\":2928:3041   */\n    tag_105:\n        /* \"#utility.yul\":2942:2948   */\n      dup4\n        /* \"#utility.yul\":2939:2940   */\n      dup2\n        /* \"#utility.yul\":2936:2949   */\n      lt\n        /* \"#utility.yul\":2928:3041   */\n      iszero\n      tag_107\n      jumpi\n        /* \"#utility.yul\":3027:3028   */\n      dup1\n        /* \"#utility.yul\":3022:3025   */\n      dup3\n        /* \"#utility.yul\":3018:3029   */\n      add\n        /* \"#utility.yul\":3012:3030   */\n      mload\n        /* \"#utility.yul\":3008:3009   */\n      dup2\n        /* \"#utility.yul\":3003:3006   */\n      dup5\n        /* \"#utility.yul\":2999:3010   */\n      add\n        /* \"#utility.yul\":2992:3031   */\n      mstore\n        /* \"#utility.yul\":2964:2966   */\n      0x20\n        /* \"#utility.yul\":2961:2962   */\n      dup2\n        /* \"#utility.yul\":2957:2967   */\n      add\n        /* \"#utility.yul\":2952:2967   */\n      swap1\n      pop\n        /* \"#utility.yul\":2928:3041   */\n      jump(tag_105)\n    tag_107:\n        /* \"#utility.yul\":3059:3065   */\n      dup4\n        /* \"#utility.yul\":3056:3057   */\n      dup2\n        /* \"#utility.yul\":3053:3066   */\n      gt\n        /* \"#utility.yul\":3050:3151   */\n      iszero\n      tag_108\n      jumpi\n        /* \"#utility.yul\":3139:3140   */\n      0x00\n        /* \"#utility.yul\":3130:3136   */\n      dup5\n        /* \"#utility.yul\":3125:3128   */\n      dup5\n        /* \"#utility.yul\":3121:3137   */\n      add\n        /* \"#utility.yul\":3114:3141   */\n      mstore\n        /* \"#utility.yul\":3050:3151   */\n    tag_108:\n        /* \"#utility.yul\":2899:3157   */\n      pop\n        /* \"#utility.yul\":2850:3157   */\n      pop\n      pop\n      pop\n      jump\t// out\n        /* \"#utility.yul\":3349:3529   */\n    tag_96:\n        /* \"#utility.yul\":3397:3474   */\n      0x4e487b7100000000000000000000000000000000000000000000000000000000\n        /* \"#utility.yul\":3394:3395   */\n      0x00\n        /* \"#utility.yul\":3387:3475   */\n      mstore\n        /* \"#utility.yul\":3494:3498   */\n      0x12\n        /* \"#utility.yul\":3491:3492   */\n      0x04\n        /* \"#utility.yul\":3484:3499   */\n      mstore\n        /* \"#utility.yul\":3518:3522   */\n      0x24\n        /* \"#utility.yul\":3515:3516   */\n      0x00\n        /* \"#utility.yul\":3508:3523   */\n      revert\n        /* \"#utility.yul\":3535:3715   */\n    tag_27:\n        /* \"#utility.yul\":3583:3660   */\n      0x4e487b7100000000000000000000000000000000000000000000000000000000\n        /* \"#utility.yul\":3580:3581   */\n      0x00\n        /* \"#utility.yul\":3573:3661   */\n      mstore\n        /* \"#utility.yul\":3680:3684   */\n      0x21\n        /* \"#utility.yul\":3677:3678   */\n      0x04\n        /* \"#utility.yul\":3670:3685   */\n      mstore\n        /* \"#utility.yul\":3704:3708   */\n      0x24\n        /* \"#utility.yul\":3701:3702   */\n      0x00\n        /* \"#utility.yul\":3694:3709   */\n      revert\n        /* \"#utility.yul\":3844:3961   */\n    tag_61:\n        /* \"#utility.yul\":3953:3954   */\n      0x00\n        /* \"#utility.yul\":3950:3951   */\n      dup1\n        /* \"#utility.yul\":3943:3955   */\n      revert\n        /* \"#utility.yul\":3967:4069   */\n    tag_76:\n        /* \"#utility.yul\":4008:4014   */\n      0x00\n        /* \"#utility.yul\":4059:4061   */\n      0x1f\n        /* \"#utility.yul\":4055:4062   */\n      not\n        /* \"#utility.yul\":4050:4052   */\n      0x1f\n        /* \"#utility.yul\":4043:4048   */\n      dup4\n        /* \"#utility.yul\":4039:4053   */\n      add\n        /* \"#utility.yul\":4035:4063   */\n      and\n        /* \"#utility.yul\":4025:4063   */\n      swap1\n      pop\n        /* \"#utility.yul\":3967:4069   */\n      swap2\n      swap1\n      pop\n      jump\t// out\n        /* \"#utility.yul\":4075:4192   */\n    tag_100:\n        /* \"#utility.yul\":4160:4161   */\n      0x03\n        /* \"#utility.yul\":4153:4158   */\n      dup2\n        /* \"#utility.yul\":4150:4162   */\n      lt\n        /* \"#utility.yul\":4140:4186   */\n      tag_118\n      jumpi\n        /* \"#utility.yul\":4166:4184   */\n      tag_119\n      tag_27\n      jump\t// in\n    tag_119:\n        /* \"#utility.yul\":4140:4186   */\n    tag_118:\n        /* \"#utility.yul\":4075:4192   */\n      pop\n      jump\t// out\n        /* \"#utility.yul\":4198:4320   */\n    tag_57:\n        /* \"#utility.yul\":4271:4295   */\n      tag_121\n        /* \"#utility.yul\":4289:4294   */\n      dup2\n        /* \"#utility.yul\":4271:4295   */\n      tag_80\n      jump\t// in\n    tag_121:\n        /* \"#utility.yul\":4264:4269   */\n      dup2\n        /* \"#utility.yul\":4261:4296   */\n      eq\n        /* \"#utility.yul\":4251:4314   */\n      tag_122\n      jumpi\n        /* \"#utility.yul\":4310:4311   */\n      0x00\n        /* \"#utility.yul\":4307:4308   */\n      dup1\n        /* \"#utility.yul\":4300:4312   */\n      revert\n        /* \"#utility.yul\":4251:4314   */\n    tag_122:\n        /* \"#utility.yul\":4198:4320   */\n      pop\n      jump\t// out\n\n    auxdata: 0xa2646970667358221220937a8ab94ffc2dd6a798988202a77d9d9a41b3d0d86f6ce07c24820a1fb8ed9564736f6c63430008070033\n}\n",
				"bytecode": {
					"linkReferences": {},
					"object": "608060405260008060006101000a81548160ff0219169083600281111561002957610028610046565b5b02179055506103e860015534801561004057600080fd5b50610075565b7f4e487b7100000000000000000000000000000000000000000000000000000000600052602160045260246000fd5b6105a6806100846000396000f3fe608060405234801561001057600080fd5b506004361061004c5760003560e01c80634f8632ba1461005157806357bcafc41461006f578063ba13a5721461008d578063c7304d07146100ab575b600080fd5b6100596100db565b60405161006691906103ca565b60405180910390f35b6100776100ec565b60405161008491906103e5565b60405180910390f35b610095610203565b6040516100a29190610407565b60405180910390f35b6100c560048036038101906100c09190610346565b610209565b6040516100d291906103e5565b60405180910390f35b60008054906101000a900460ff1681565b606060006040518060400160405280600f81526020017f4c6f7474657279206772616e7465640000000000000000000000000000000000815250905060028081111561013b5761013a610500565b5b60008054906101000a900460ff16600281111561015b5761015a610500565b5b141561016e5760006001819055506101fc565b6001600281111561018257610181610500565b5b60008054906101000a900460ff1660028111156101a2576101a1610500565b5b14156101c25760026001546101b7919061043e565b6001819055506101fb565b6040518060400160405280601081526020017f55736572206e6f7420616c6c6f7765640000000000000000000000000000000081525090505b5b8091505090565b60015481565b606060006040518060400160405280601281526020017f5065726d697373696f6e204368616e67656400000000000000000000000000008152509050600083141561027d5760008060006101000a81548160ff0219169083600281111561027357610272610500565b5b0217905550610328565b60018314156102b55760016000806101000a81548160ff021916908360028111156102ab576102aa610500565b5b0217905550610327565b60028314156102ed5760026000806101000a81548160ff021916908360028111156102e3576102e2610500565b5b0217905550610326565b6040518060400160405280601a81526020017f496e76616c6964205065726d697373696f6e205265717565737400000000000081525090505b5b5b80915050919050565b60008135905061034081610559565b92915050565b60006020828403121561035c5761035b61052f565b5b600061036a84828501610331565b91505092915050565b61037c8161048c565b82525050565b600061038d82610422565b610397818561042d565b93506103a781856020860161049e565b6103b081610534565b840191505092915050565b6103c481610482565b82525050565b60006020820190506103df6000830184610373565b92915050565b600060208201905081810360008301526103ff8184610382565b905092915050565b600060208201905061041c60008301846103bb565b92915050565b600081519050919050565b600082825260208201905092915050565b600061044982610482565b915061045483610482565b925082610464576104636104d1565b5b828204905092915050565b600081905061047d82610545565b919050565b6000819050919050565b60006104978261046f565b9050919050565b60005b838110156104bc5780820151818401526020810190506104a1565b838111156104cb576000848401525b50505050565b7f4e487b7100000000000000000000000000000000000000000000000000000000600052601260045260246000fd5b7f4e487b7100000000000000000000000000000000000000000000000000000000600052602160045260246000fd5b600080fd5b6000601f19601f8301169050919050565b6003811061055657610555610500565b5b50565b61056281610482565b811461056d57600080fd5b5056fea2646970667358221220937a8ab94ffc2dd6a798988202a77d9d9a41b3d0d86f6ce07c24820a1fb8ed9564736f6c63430008070033",
					"opcodes": "PUSH1 0x80 PUSH1 0x40 MSTORE PUSH1 0x0 DUP1 PUSH1 0x0 PUSH2 0x100 EXP DUP2 SLOAD DUP2 PUSH1 0xFF MUL NOT AND SWAP1 DUP4 PUSH1 0x2 DUP2 GT ISZERO PUSH2 0x29 JUMPI PUSH2 0x28 PUSH2 0x46 JUMP JUMPDEST JUMPDEST MUL OR SWAP1 SSTORE POP PUSH2 0x3E8 PUSH1 0x1 SSTORE CALLVALUE DUP1 ISZERO PUSH2 0x40 JUMPI PUSH1 0x0 DUP1 REVERT JUMPDEST POP PUSH2 0x75 JUMP JUMPDEST PUSH32 0x4E487B7100000000000000000000000000000000000000000000000000000000 PUSH1 0x0 MSTORE PUSH1 0x21 PUSH1 0x4 MSTORE PUSH1 0x24 PUSH1 0x0 REVERT JUMPDEST PUSH2 0x5A6 DUP1 PUSH2 0x84 PUSH1 0x0 CODECOPY PUSH1 0x0 RETURN INVALID PUSH1 0x80 PUSH1 0x40 MSTORE CALLVALUE DUP1 ISZERO PUSH2 0x10 JUMPI PUSH1 0x0 DUP1 REVERT JUMPDEST POP PUSH1 0x4 CALLDATASIZE LT PUSH2 0x4C JUMPI PUSH1 0x0 CALLDATALOAD PUSH1 0xE0 SHR DUP1 PUSH4 0x4F8632BA EQ PUSH2 0x51 JUMPI DUP1 PUSH4 0x57BCAFC4 EQ PUSH2 0x6F JUMPI DUP1 PUSH4 0xBA13A572 EQ PUSH2 0x8D JUMPI DUP1 PUSH4 0xC7304D07 EQ PUSH2 0xAB JUMPI JUMPDEST PUSH1 0x0 DUP1 REVERT JUMPDEST PUSH2 0x59 PUSH2 0xDB JUMP JUMPDEST PUSH1 0x40 MLOAD PUSH2 0x66 SWAP2 SWAP1 PUSH2 0x3CA JUMP JUMPDEST PUSH1 0x40 MLOAD DUP1 SWAP2 SUB SWAP1 RETURN JUMPDEST PUSH2 0x77 PUSH2 0xEC JUMP JUMPDEST PUSH1 0x40 MLOAD PUSH2 0x84 SWAP2 SWAP1 PUSH2 0x3E5 JUMP JUMPDEST PUSH1 0x40 MLOAD DUP1 SWAP2 SUB SWAP1 RETURN JUMPDEST PUSH2 0x95 PUSH2 0x203 JUMP JUMPDEST PUSH1 0x40 MLOAD PUSH2 0xA2 SWAP2 SWAP1 PUSH2 0x407 JUMP JUMPDEST PUSH1 0x40 MLOAD DUP1 SWAP2 SUB SWAP1 RETURN JUMPDEST PUSH2 0xC5 PUSH1 0x4 DUP1 CALLDATASIZE SUB DUP2 ADD SWAP1 PUSH2 0xC0 SWAP2 SWAP1 PUSH2 0x346 JUMP JUMPDEST PUSH2 0x209 JUMP JUMPDEST PUSH1 0x40 MLOAD PUSH2 0xD2 SWAP2 SWAP1 PUSH2 0x3E5 JUMP JUMPDEST PUSH1 0x40 MLOAD DUP1 SWAP2 SUB SWAP1 RETURN JUMPDEST PUSH1 0x0 DUP1 SLOAD SWAP1 PUSH2 0x100 EXP SWAP1 DIV PUSH1 0xFF AND DUP2 JUMP JUMPDEST PUSH1 0x60 PUSH1 0x0 PUSH1 0x40 MLOAD DUP1 PUSH1 0x40 ADD PUSH1 0x40 MSTORE DUP1 PUSH1 0xF DUP2 MSTORE PUSH1 0x20 ADD PUSH32 0x4C6F7474657279206772616E7465640000000000000000000000000000000000 DUP2 MSTORE POP SWAP1 POP PUSH1 0x2 DUP1 DUP2 GT ISZERO PUSH2 0x13B JUMPI PUSH2 0x13A PUSH2 0x500 JUMP JUMPDEST JUMPDEST PUSH1 0x0 DUP1 SLOAD SWAP1 PUSH2 0x100 EXP SWAP1 DIV PUSH1 0xFF AND PUSH1 0x2 DUP2 GT ISZERO PUSH2 0x15B JUMPI PUSH2 0x15A PUSH2 0x500 JUMP JUMPDEST JUMPDEST EQ ISZERO PUSH2 0x16E JUMPI PUSH1 0x0 PUSH1 0x1 DUP2 SWAP1 SSTORE POP PUSH2 0x1FC JUMP JUMPDEST PUSH1 0x1 PUSH1 0x2 DUP2 GT ISZERO PUSH2 0x182 JUMPI PUSH2 0x181 PUSH2 0x500 JUMP JUMPDEST JUMPDEST PUSH1 0x0 DUP1 SLOAD SWAP1 PUSH2 0x100 EXP SWAP1 DIV PUSH1 0xFF AND PUSH1 0x2 DUP2 GT ISZERO PUSH2 0x1A2 JUMPI PUSH2 0x1A1 PUSH2 0x500 JUMP JUMPDEST JUMPDEST EQ ISZERO PUSH2 0x1C2 JUMPI PUSH1 0x2 PUSH1 0x1 SLOAD PUSH2 0x1B7 SWAP2 SWAP1 PUSH2 0x43E JUMP JUMPDEST PUSH1 0x1 DUP2 SWAP1 SSTORE POP PUSH2 0x1FB JUMP JUMPDEST PUSH1 0x40 MLOAD DUP1 PUSH1 0x40 ADD PUSH1 0x40 MSTORE DUP1 PUSH1 0x10 DUP2 MSTORE PUSH1 0x20 ADD PUSH32 0x55736572206E6F7420616C6C6F77656400000000000000000000000000000000 DUP2 MSTORE POP SWAP1 POP JUMPDEST JUMPDEST DUP1 SWAP2 POP POP SWAP1 JUMP JUMPDEST PUSH1 0x1 SLOAD DUP2 JUMP JUMPDEST PUSH1 0x60 PUSH1 0x0 PUSH1 0x40 MLOAD DUP1 PUSH1 0x40 ADD PUSH1 0x40 MSTORE DUP1 PUSH1 0x12 DUP2 MSTORE PUSH1 0x20 ADD PUSH32 0x5065726D697373696F6E204368616E6765640000000000000000000000000000 DUP2 MSTORE POP SWAP1 POP PUSH1 0x0 DUP4 EQ ISZERO PUSH2 0x27D JUMPI PUSH1 0x0 DUP1 PUSH1 0x0 PUSH2 0x100 EXP DUP2 SLOAD DUP2 PUSH1 0xFF MUL NOT AND SWAP1 DUP4 PUSH1 0x2 DUP2 GT ISZERO PUSH2 0x273 JUMPI PUSH2 0x272 PUSH2 0x500 JUMP JUMPDEST JUMPDEST MUL OR SWAP1 SSTORE POP PUSH2 0x328 JUMP JUMPDEST PUSH1 0x1 DUP4 EQ ISZERO PUSH2 0x2B5 JUMPI PUSH1 0x1 PUSH1 0x0 DUP1 PUSH2 0x100 EXP DUP2 SLOAD DUP2 PUSH1 0xFF MUL NOT AND SWAP1 DUP4 PUSH1 0x2 DUP2 GT ISZERO PUSH2 0x2AB JUMPI PUSH2 0x2AA PUSH2 0x500 JUMP JUMPDEST JUMPDEST MUL OR SWAP1 SSTORE POP PUSH2 0x327 JUMP JUMPDEST PUSH1 0x2 DUP4 EQ ISZERO PUSH2 0x2ED JUMPI PUSH1 0x2 PUSH1 0x0 DUP1 PUSH2 0x100 EXP DUP2 SLOAD DUP2 PUSH1 0xFF MUL NOT AND SWAP1 DUP4 PUSH1 0x2 DUP2 GT ISZERO PUSH2 0x2E3 JUMPI PUSH2 0x2E2 PUSH2 0x500 JUMP JUMPDEST JUMPDEST MUL OR SWAP1 SSTORE POP PUSH2 0x326 JUMP JUMPDEST PUSH1 0x40 MLOAD DUP1 PUSH1 0x40 ADD PUSH1 0x40 MSTORE DUP1 PUSH1 0x1A DUP2 MSTORE PUSH1 0x20 ADD PUSH32 0x496E76616C6964205065726D697373696F6E2052657175657374000000000000 DUP2 MSTORE POP SWAP1 POP JUMPDEST JUMPDEST JUMPDEST DUP1 SWAP2 POP POP SWAP2 SWAP1 POP JUMP JUMPDEST PUSH1 0x0 DUP2 CALLDATALOAD SWAP1 POP PUSH2 0x340 DUP2 PUSH2 0x559 JUMP JUMPDEST SWAP3 SWAP2 POP POP JUMP JUMPDEST PUSH1 0x0 PUSH1 0x20 DUP3 DUP5 SUB SLT ISZERO PUSH2 0x35C JUMPI PUSH2 0x35B PUSH2 0x52F JUMP JUMPDEST JUMPDEST PUSH1 0x0 PUSH2 0x36A DUP5 DUP3 DUP6 ADD PUSH2 0x331 JUMP JUMPDEST SWAP2 POP POP SWAP3 SWAP2 POP POP JUMP JUMPDEST PUSH2 0x37C DUP2 PUSH2 0x48C JUMP JUMPDEST DUP3 MSTORE POP POP JUMP JUMPDEST PUSH1 0x0 PUSH2 0x38D DUP3 PUSH2 0x422 JUMP JUMPDEST PUSH2 0x397 DUP2 DUP6 PUSH2 0x42D JUMP JUMPDEST SWAP4 POP PUSH2 0x3A7 DUP2 DUP6 PUSH1 0x20 DUP7 ADD PUSH2 0x49E JUMP JUMPDEST PUSH2 0x3B0 DUP2 PUSH2 0x534 JUMP JUMPDEST DUP5 ADD SWAP2 POP POP SWAP3 SWAP2 POP POP JUMP JUMPDEST PUSH2 0x3C4 DUP2 PUSH2 0x482 JUMP JUMPDEST DUP3 MSTORE POP POP JUMP JUMPDEST PUSH1 0x0 PUSH1 0x20 DUP3 ADD SWAP1 POP PUSH2 0x3DF PUSH1 0x0 DUP4 ADD DUP5 PUSH2 0x373 JUMP JUMPDEST SWAP3 SWAP2 POP POP JUMP JUMPDEST PUSH1 0x0 PUSH1 0x20 DUP3 ADD SWAP1 POP DUP2 DUP2 SUB PUSH1 0x0 DUP4 ADD MSTORE PUSH2 0x3FF DUP2 DUP5 PUSH2 0x382 JUMP JUMPDEST SWAP1 POP SWAP3 SWAP2 POP POP JUMP JUMPDEST PUSH1 0x0 PUSH1 0x20 DUP3 ADD SWAP1 POP PUSH2 0x41C PUSH1 0x0 DUP4 ADD DUP5 PUSH2 0x3BB JUMP JUMPDEST SWAP3 SWAP2 POP POP JUMP JUMPDEST PUSH1 0x0 DUP2 MLOAD SWAP1 POP SWAP2 SWAP1 POP JUMP JUMPDEST PUSH1 0x0 DUP3 DUP3 MSTORE PUSH1 0x20 DUP3 ADD SWAP1 POP SWAP3 SWAP2 POP POP JUMP JUMPDEST PUSH1 0x0 PUSH2 0x449 DUP3 PUSH2 0x482 JUMP JUMPDEST SWAP2 POP PUSH2 0x454 DUP4 PUSH2 0x482 JUMP JUMPDEST SWAP3 POP DUP3 PUSH2 0x464 JUMPI PUSH2 0x463 PUSH2 0x4D1 JUMP JUMPDEST JUMPDEST DUP3 DUP3 DIV SWAP1 POP SWAP3 SWAP2 POP POP JUMP JUMPDEST PUSH1 0x0 DUP2 SWAP1 POP PUSH2 0x47D DUP3 PUSH2 0x545 JUMP JUMPDEST SWAP2 SWAP1 POP JUMP JUMPDEST PUSH1 0x0 DUP2 SWAP1 POP SWAP2 SWAP1 POP JUMP JUMPDEST PUSH1 0x0 PUSH2 0x497 DUP3 PUSH2 0x46F JUMP JUMPDEST SWAP1 POP SWAP2 SWAP1 POP JUMP JUMPDEST PUSH1 0x0 JUMPDEST DUP4 DUP2 LT ISZERO PUSH2 0x4BC JUMPI DUP1 DUP3 ADD MLOAD DUP2 DUP5 ADD MSTORE PUSH1 0x20 DUP2 ADD SWAP1 POP PUSH2 0x4A1 JUMP JUMPDEST DUP4 DUP2 GT ISZERO PUSH2 0x4CB JUMPI PUSH1 0x0 DUP5 DUP5 ADD MSTORE JUMPDEST POP POP POP POP JUMP JUMPDEST PUSH32 0x4E487B7100000000000000000000000000000000000000000000000000000000 PUSH1 0x0 MSTORE PUSH1 0x12 PUSH1 0x4 MSTORE PUSH1 0x24 PUSH1 0x0 REVERT JUMPDEST PUSH32 0x4E487B7100000000000000000000000000000000000000000000000000000000 PUSH1 0x0 MSTORE PUSH1 0x21 PUSH1 0x4 MSTORE PUSH1 0x24 PUSH1 0x0 REVERT JUMPDEST PUSH1 0x0 DUP1 REVERT JUMPDEST PUSH1 0x0 PUSH1 0x1F NOT PUSH1 0x1F DUP4 ADD AND SWAP1 POP SWAP2 SWAP1 POP JUMP JUMPDEST PUSH1 0x3 DUP2 LT PUSH2 0x556 JUMPI PUSH2 0x555 PUSH2 0x500 JUMP JUMPDEST JUMPDEST POP JUMP JUMPDEST PUSH2 0x562 DUP2 PUSH2 0x482 JUMP JUMPDEST DUP2 EQ PUSH2 0x56D JUMPI PUSH1 0x0 DUP1 REVERT JUMPDEST POP JUMP INVALID LOG2 PUSH5 0x6970667358 0x22 SLT KECCAK256 SWAP4 PUSH27 0x8AB94FFC2DD6A798988202A77D9D9A41B3D0D86F6CE07C24820A1F 0xB8 0xED SWAP6 PUSH5 0x736F6C6343 STOP ADDMOD SMOD STOP CALLER "
				},
				"gasEstimates": {
					"creation": {
						"codeDepositCost": "289200",
						"executionCost": "46736",
						"totalCost": "335936"
					},
					"external": {
						"change_user_permission(uint256)": "infinite",
						"get_lottery()": "infinite",
						"lottery()": "2451",
						"user()": "2535"
					}
				},
				"methodIdentifiers": {
					"change_user_permission(uint256)": "c7304d07",
					"get_lottery()": "57bcafc4",
					"lottery()": "ba13a572",
					"user()": "4f8632ba"
				}
			},
			"storageLayout": {
				"storage": [
					{
						"astId": 10,
						"contract": "contracts/14_Enum.sol:Enum",
						"label": "user",
						"offset": 0,
						"slot": "0",
						"type": "t_enum(permission)5"
					},
					{
						"astId": 13,
						"contract": "contracts/14_Enum.sol:Enum",
						"label": "lottery",
						"offset": 0,
						"slot": "1",
						"type": "t_uint256"
					}
				],
				"types": {
					"t_enum(permission)5": {
						"encoding": "inplace",
						"label": "enum Enum.permission",
						"numberOfBytes": "1"
					},
					"t_uint256": {
						"encoding": "inplace",
						"label": "uint256",
						"numberOfBytes": "32"
					}
				}
			},
			"userdoc": {
				"kind": "user",
				"methods": {},
				"version": 1
			}
		}
	}
}