{
	"contracts/11_Looping.sol": {
		"Loop": {
			"abi": [
				{
					"inputs": [
						{
							"internalType": "uint256",
							"name": "",
							"type": "uint256"
						}
					],
					"name": "arr",
					"outputs": [
						{
							"internalType": "int256",
							"name": "",
							"type": "int256"
						}
					],
					"stateMutability": "view",
					"type": "function"
				},
				{
					"inputs": [],
					"name": "do_while_loop_negetive",
					"outputs": [],
					"stateMutability": "nonpayable",
					"type": "function"
				},
				{
					"inputs": [],
					"name": "for_loop_1_to_10",
					"outputs": [],
					"stateMutability": "nonpayable",
					"type": "function"
				},
				{
					"inputs": [],
					"name": "while_loop_10_to_100",
					"outputs": [],
					"stateMutability": "nonpayable",
					"type": "function"
				}
			],
			"devdoc": {
				"kind": "dev",
				"methods": {},
				"version": 1
			},
			"evm": {
				"assembly": "    /* \"contracts/11_Looping.sol\":79:674  contract Loop\r... */\n  mstore(0x40, 0x80)\n  callvalue\n  dup1\n  iszero\n  tag_1\n  jumpi\n  0x00\n  dup1\n  revert\ntag_1:\n  pop\n  dataSize(sub_0)\n  dup1\n  dataOffset(sub_0)\n  0x00\n  codecopy\n  0x00\n  return\nstop\n\nsub_0: assembly {\n        /* \"contracts/11_Looping.sol\":79:674  contract Loop\r... */\n      mstore(0x40, 0x80)\n      callvalue\n      dup1\n      iszero\n      tag_1\n      jumpi\n      0x00\n      dup1\n      revert\n    tag_1:\n      pop\n      jumpi(tag_2, lt(calldatasize, 0x04))\n      shr(0xe0, calldataload(0x00))\n      dup1\n      0x055df8e4\n      eq\n      tag_3\n      jumpi\n      dup1\n      0x6225c7ef\n      eq\n      tag_4\n      jumpi\n      dup1\n      0x71e5ee5f\n      eq\n      tag_5\n      jumpi\n      dup1\n      0x91b4b019\n      eq\n      tag_6\n      jumpi\n    tag_2:\n      0x00\n      dup1\n      revert\n        /* \"contracts/11_Looping.sol\":128:270  function for_loop_1_to_10() public\r... */\n    tag_3:\n      tag_7\n      tag_8\n      jump\t// in\n    tag_7:\n      stop\n        /* \"contracts/11_Looping.sol\":478:671  function do_while_loop_negetive() public\r... */\n    tag_4:\n      tag_9\n      tag_10\n      jump\t// in\n    tag_9:\n      stop\n        /* \"contracts/11_Looping.sol\":101:119  int[10] public arr */\n    tag_5:\n      tag_11\n      0x04\n      dup1\n      calldatasize\n      sub\n      dup2\n      add\n      swap1\n      tag_12\n      swap2\n      swap1\n      tag_13\n      jump\t// in\n    tag_12:\n      tag_14\n      jump\t// in\n    tag_11:\n      mload(0x40)\n      tag_15\n      swap2\n      swap1\n      tag_16\n      jump\t// in\n    tag_15:\n      mload(0x40)\n      dup1\n      swap2\n      sub\n      swap1\n      return\n        /* \"contracts/11_Looping.sol\":278:470  function while_loop_10_to_100() public\r... */\n    tag_6:\n      tag_17\n      tag_18\n      jump\t// in\n    tag_17:\n      stop\n        /* \"contracts/11_Looping.sol\":128:270  function for_loop_1_to_10() public\r... */\n    tag_8:\n        /* \"contracts/11_Looping.sol\":183:189  uint i */\n      0x00\n        /* \"contracts/11_Looping.sol\":179:263  for(uint i = 0;i<arr.length;i++)\r... */\n    tag_20:\n        /* \"contracts/11_Looping.sol\":196:206  arr.length */\n      0x0a\n        /* \"contracts/11_Looping.sol\":194:195  i */\n      dup2\n        /* \"contracts/11_Looping.sol\":194:206  i<arr.length */\n      lt\n        /* \"contracts/11_Looping.sol\":179:263  for(uint i = 0;i<arr.length;i++)\r... */\n      iszero\n      tag_21\n      jumpi\n        /* \"contracts/11_Looping.sol\":249:250  i */\n      dup1\n        /* \"contracts/11_Looping.sol\":236:239  arr */\n      0x00\n        /* \"contracts/11_Looping.sol\":240:241  i */\n      dup3\n        /* \"contracts/11_Looping.sol\":236:242  arr[i] */\n      0x0a\n      dup2\n      lt\n      tag_23\n      jumpi\n      tag_24\n      tag_25\n      jump\t// in\n    tag_24:\n    tag_23:\n      add\n        /* \"contracts/11_Looping.sol\":236:251  arr[i] = int(i) */\n      dup2\n      swap1\n      sstore\n      pop\n        /* \"contracts/11_Looping.sol\":207:210  i++ */\n      dup1\n      dup1\n      tag_27\n      swap1\n      tag_28\n      jump\t// in\n    tag_27:\n      swap2\n      pop\n      pop\n        /* \"contracts/11_Looping.sol\":179:263  for(uint i = 0;i<arr.length;i++)\r... */\n      jump(tag_20)\n    tag_21:\n      pop\n        /* \"contracts/11_Looping.sol\":128:270  function for_loop_1_to_10() public\r... */\n      jump\t// out\n        /* \"contracts/11_Looping.sol\":478:671  function do_while_loop_negetive() public\r... */\n    tag_10:\n        /* \"contracts/11_Looping.sol\":535:543  uint pos */\n      0x00\n        /* \"contracts/11_Looping.sol\":558:664  do\r... */\n    tag_30:\n        /* \"contracts/11_Looping.sol\":607:608  1 */\n      0x01\n        /* \"contracts/11_Looping.sol\":602:605  pos */\n      dup2\n        /* \"contracts/11_Looping.sol\":598:608  int(pos)+1 */\n      tag_33\n      swap2\n      swap1\n      tag_34\n      jump\t// in\n    tag_33:\n        /* \"contracts/11_Looping.sol\":596:609  -(int(pos)+1) */\n      tag_35\n      swap1\n      tag_36\n      jump\t// in\n    tag_35:\n        /* \"contracts/11_Looping.sol\":585:588  arr */\n      0x00\n        /* \"contracts/11_Looping.sol\":589:592  pos */\n      dup3\n        /* \"contracts/11_Looping.sol\":585:593  arr[pos] */\n      0x0a\n      dup2\n      lt\n      tag_37\n      jumpi\n      tag_38\n      tag_25\n      jump\t// in\n    tag_38:\n    tag_37:\n      add\n        /* \"contracts/11_Looping.sol\":585:609  arr[pos] = -(int(pos)+1) */\n      dup2\n      swap1\n      sstore\n      pop\n        /* \"contracts/11_Looping.sol\":624:629  pos++ */\n      dup1\n      dup1\n      tag_40\n      swap1\n      tag_28\n      jump\t// in\n    tag_40:\n      swap2\n      pop\n      pop\n        /* \"contracts/11_Looping.sol\":652:662  arr.length */\n      0x0a\n        /* \"contracts/11_Looping.sol\":648:651  pos */\n      dup2\n        /* \"contracts/11_Looping.sol\":648:662  pos<arr.length */\n      lt\n        /* \"contracts/11_Looping.sol\":558:664  do\r... */\n      tag_30\n      jumpi\n        /* \"contracts/11_Looping.sol\":524:671  {\r... */\n      pop\n        /* \"contracts/11_Looping.sol\":478:671  function do_while_loop_negetive() public\r... */\n      jump\t// out\n        /* \"contracts/11_Looping.sol\":101:119  int[10] public arr */\n    tag_14:\n      0x00\n      dup2\n      0x0a\n      dup2\n      lt\n      tag_41\n      jumpi\n      0x00\n      dup1\n      revert\n    tag_41:\n      add\n      0x00\n      swap2\n      pop\n      swap1\n      pop\n      sload\n      dup2\n      jump\t// out\n        /* \"contracts/11_Looping.sol\":278:470  function while_loop_10_to_100() public\r... */\n    tag_18:\n        /* \"contracts/11_Looping.sol\":333:341  uint pos */\n      0x00\n        /* \"contracts/11_Looping.sol\":356:463  while(pos < arr.length)\r... */\n    tag_44:\n        /* \"contracts/11_Looping.sol\":368:378  arr.length */\n      0x0a\n        /* \"contracts/11_Looping.sol\":362:365  pos */\n      dup2\n        /* \"contracts/11_Looping.sol\":362:378  pos < arr.length */\n      lt\n        /* \"contracts/11_Looping.sol\":356:463  while(pos < arr.length)\r... */\n      iszero\n      tag_45\n      jumpi\n        /* \"contracts/11_Looping.sol\":428:430  10 */\n      0x0a\n        /* \"contracts/11_Looping.sol\":425:426  1 */\n      0x01\n        /* \"contracts/11_Looping.sol\":420:423  pos */\n      dup3\n        /* \"contracts/11_Looping.sol\":416:426  int(pos)+1 */\n      tag_46\n      swap2\n      swap1\n      tag_34\n      jump\t// in\n    tag_46:\n        /* \"contracts/11_Looping.sol\":415:430  (int(pos)+1)*10 */\n      tag_47\n      swap2\n      swap1\n      tag_48\n      jump\t// in\n    tag_47:\n        /* \"contracts/11_Looping.sol\":404:407  arr */\n      0x00\n        /* \"contracts/11_Looping.sol\":408:411  pos */\n      dup3\n        /* \"contracts/11_Looping.sol\":404:412  arr[pos] */\n      0x0a\n      dup2\n      lt\n      tag_49\n      jumpi\n      tag_50\n      tag_25\n      jump\t// in\n    tag_50:\n    tag_49:\n      add\n        /* \"contracts/11_Looping.sol\":404:430  arr[pos] = (int(pos)+1)*10 */\n      dup2\n      swap1\n      sstore\n      pop\n        /* \"contracts/11_Looping.sol\":445:451  pos ++ */\n      dup1\n      dup1\n      tag_52\n      swap1\n      tag_28\n      jump\t// in\n    tag_52:\n      swap2\n      pop\n      pop\n        /* \"contracts/11_Looping.sol\":356:463  while(pos < arr.length)\r... */\n      jump(tag_44)\n    tag_45:\n        /* \"contracts/11_Looping.sol\":322:470  {\r... */\n      pop\n        /* \"contracts/11_Looping.sol\":278:470  function while_loop_10_to_100() public\r... */\n      jump\t// out\n        /* \"#utility.yul\":7:146   */\n    tag_54:\n        /* \"#utility.yul\":53:58   */\n      0x00\n        /* \"#utility.yul\":91:97   */\n      dup2\n        /* \"#utility.yul\":78:98   */\n      calldataload\n        /* \"#utility.yul\":69:98   */\n      swap1\n      pop\n        /* \"#utility.yul\":107:140   */\n      tag_56\n        /* \"#utility.yul\":134:139   */\n      dup2\n        /* \"#utility.yul\":107:140   */\n      tag_57\n      jump\t// in\n    tag_56:\n        /* \"#utility.yul\":7:146   */\n      swap3\n      swap2\n      pop\n      pop\n      jump\t// out\n        /* \"#utility.yul\":152:481   */\n    tag_13:\n        /* \"#utility.yul\":211:217   */\n      0x00\n        /* \"#utility.yul\":260:262   */\n      0x20\n        /* \"#utility.yul\":248:257   */\n      dup3\n        /* \"#utility.yul\":239:246   */\n      dup5\n        /* \"#utility.yul\":235:258   */\n      sub\n        /* \"#utility.yul\":231:263   */\n      slt\n        /* \"#utility.yul\":228:347   */\n      iszero\n      tag_59\n      jumpi\n        /* \"#utility.yul\":266:345   */\n      tag_60\n      tag_61\n      jump\t// in\n    tag_60:\n        /* \"#utility.yul\":228:347   */\n    tag_59:\n        /* \"#utility.yul\":386:387   */\n      0x00\n        /* \"#utility.yul\":411:464   */\n      tag_62\n        /* \"#utility.yul\":456:463   */\n      dup5\n        /* \"#utility.yul\":447:453   */\n      dup3\n        /* \"#utility.yul\":436:445   */\n      dup6\n        /* \"#utility.yul\":432:454   */\n      add\n        /* \"#utility.yul\":411:464   */\n      tag_54\n      jump\t// in\n    tag_62:\n        /* \"#utility.yul\":401:464   */\n      swap2\n      pop\n        /* \"#utility.yul\":357:474   */\n      pop\n        /* \"#utility.yul\":152:481   */\n      swap3\n      swap2\n      pop\n      pop\n      jump\t// out\n        /* \"#utility.yul\":487:602   */\n    tag_63:\n        /* \"#utility.yul\":572:595   */\n      tag_65\n        /* \"#utility.yul\":589:594   */\n      dup2\n        /* \"#utility.yul\":572:595   */\n      tag_66\n      jump\t// in\n    tag_65:\n        /* \"#utility.yul\":567:570   */\n      dup3\n        /* \"#utility.yul\":560:596   */\n      mstore\n        /* \"#utility.yul\":487:602   */\n      pop\n      pop\n      jump\t// out\n        /* \"#utility.yul\":608:826   */\n    tag_16:\n        /* \"#utility.yul\":699:703   */\n      0x00\n        /* \"#utility.yul\":737:739   */\n      0x20\n        /* \"#utility.yul\":726:735   */\n      dup3\n        /* \"#utility.yul\":722:740   */\n      add\n        /* \"#utility.yul\":714:740   */\n      swap1\n      pop\n        /* \"#utility.yul\":750:819   */\n      tag_68\n        /* \"#utility.yul\":816:817   */\n      0x00\n        /* \"#utility.yul\":805:814   */\n      dup4\n        /* \"#utility.yul\":801:818   */\n      add\n        /* \"#utility.yul\":792:798   */\n      dup5\n        /* \"#utility.yul\":750:819   */\n      tag_63\n      jump\t// in\n    tag_68:\n        /* \"#utility.yul\":608:826   */\n      swap3\n      swap2\n      pop\n      pop\n      jump\t// out\n        /* \"#utility.yul\":913:1438   */\n    tag_34:\n        /* \"#utility.yul\":952:955   */\n      0x00\n        /* \"#utility.yul\":971:990   */\n      tag_72\n        /* \"#utility.yul\":988:989   */\n      dup3\n        /* \"#utility.yul\":971:990   */\n      tag_66\n      jump\t// in\n    tag_72:\n        /* \"#utility.yul\":966:990   */\n      swap2\n      pop\n        /* \"#utility.yul\":1004:1023   */\n      tag_73\n        /* \"#utility.yul\":1021:1022   */\n      dup4\n        /* \"#utility.yul\":1004:1023   */\n      tag_66\n      jump\t// in\n    tag_73:\n        /* \"#utility.yul\":999:1023   */\n      swap3\n      pop\n        /* \"#utility.yul\":1192:1193   */\n      dup2\n        /* \"#utility.yul\":1124:1190   */\n      0x7fffffffffffffffffffffffffffffffffffffffffffffffffffffffffffffff\n        /* \"#utility.yul\":1120:1194   */\n      sub\n        /* \"#utility.yul\":1117:1118   */\n      dup4\n        /* \"#utility.yul\":1113:1195   */\n      sgt\n        /* \"#utility.yul\":1108:1109   */\n      0x00\n        /* \"#utility.yul\":1105:1106   */\n      dup4\n        /* \"#utility.yul\":1101:1110   */\n      slt\n        /* \"#utility.yul\":1094:1111   */\n      iszero\n        /* \"#utility.yul\":1090:1196   */\n      and\n        /* \"#utility.yul\":1087:1219   */\n      iszero\n      tag_74\n      jumpi\n        /* \"#utility.yul\":1199:1217   */\n      tag_75\n      tag_76\n      jump\t// in\n    tag_75:\n        /* \"#utility.yul\":1087:1219   */\n    tag_74:\n        /* \"#utility.yul\":1379:1380   */\n      dup2\n        /* \"#utility.yul\":1311:1377   */\n      0x8000000000000000000000000000000000000000000000000000000000000000\n        /* \"#utility.yul\":1307:1381   */\n      sub\n        /* \"#utility.yul\":1304:1305   */\n      dup4\n        /* \"#utility.yul\":1300:1382   */\n      slt\n        /* \"#utility.yul\":1296:1297   */\n      0x00\n        /* \"#utility.yul\":1293:1294   */\n      dup4\n        /* \"#utility.yul\":1289:1298   */\n      slt\n        /* \"#utility.yul\":1285:1383   */\n      and\n        /* \"#utility.yul\":1282:1406   */\n      iszero\n      tag_77\n      jumpi\n        /* \"#utility.yul\":1386:1404   */\n      tag_78\n      tag_76\n      jump\t// in\n    tag_78:\n        /* \"#utility.yul\":1282:1406   */\n    tag_77:\n        /* \"#utility.yul\":1430:1431   */\n      dup3\n        /* \"#utility.yul\":1427:1428   */\n      dup3\n        /* \"#utility.yul\":1423:1432   */\n      add\n        /* \"#utility.yul\":1416:1432   */\n      swap1\n      pop\n        /* \"#utility.yul\":913:1438   */\n      swap3\n      swap2\n      pop\n      pop\n      jump\t// out\n        /* \"#utility.yul\":1444:2435   */\n    tag_48:\n        /* \"#utility.yul\":1483:1490   */\n      0x00\n        /* \"#utility.yul\":1506:1525   */\n      tag_80\n        /* \"#utility.yul\":1523:1524   */\n      dup3\n        /* \"#utility.yul\":1506:1525   */\n      tag_66\n      jump\t// in\n    tag_80:\n        /* \"#utility.yul\":1501:1525   */\n      swap2\n      pop\n        /* \"#utility.yul\":1539:1558   */\n      tag_81\n        /* \"#utility.yul\":1556:1557   */\n      dup4\n        /* \"#utility.yul\":1539:1558   */\n      tag_66\n      jump\t// in\n    tag_81:\n        /* \"#utility.yul\":1534:1558   */\n      swap3\n      pop\n        /* \"#utility.yul\":1740:1741   */\n      dup3\n        /* \"#utility.yul\":1672:1738   */\n      0x7fffffffffffffffffffffffffffffffffffffffffffffffffffffffffffffff\n        /* \"#utility.yul\":1668:1742   */\n      div\n        /* \"#utility.yul\":1665:1666   */\n      dup3\n        /* \"#utility.yul\":1662:1743   */\n      gt\n        /* \"#utility.yul\":1657:1658   */\n      0x00\n        /* \"#utility.yul\":1654:1655   */\n      dup5\n        /* \"#utility.yul\":1650:1659   */\n      sgt\n        /* \"#utility.yul\":1646:1647   */\n      0x00\n        /* \"#utility.yul\":1643:1644   */\n      dup5\n        /* \"#utility.yul\":1639:1648   */\n      sgt\n        /* \"#utility.yul\":1635:1660   */\n      and\n        /* \"#utility.yul\":1631:1744   */\n      and\n        /* \"#utility.yul\":1628:1767   */\n      iszero\n      tag_82\n      jumpi\n        /* \"#utility.yul\":1747:1765   */\n      tag_83\n      tag_76\n      jump\t// in\n    tag_83:\n        /* \"#utility.yul\":1628:1767   */\n    tag_82:\n        /* \"#utility.yul\":1951:1952   */\n      dup2\n        /* \"#utility.yul\":1883:1949   */\n      0x8000000000000000000000000000000000000000000000000000000000000000\n        /* \"#utility.yul\":1878:1953   */\n      sdiv\n        /* \"#utility.yul\":1875:1876   */\n      dup4\n        /* \"#utility.yul\":1871:1954   */\n      slt\n        /* \"#utility.yul\":1866:1867   */\n      0x00\n        /* \"#utility.yul\":1863:1864   */\n      dup5\n        /* \"#utility.yul\":1859:1868   */\n      slt\n        /* \"#utility.yul\":1855:1856   */\n      0x00\n        /* \"#utility.yul\":1852:1853   */\n      dup5\n        /* \"#utility.yul\":1848:1857   */\n      sgt\n        /* \"#utility.yul\":1844:1869   */\n      and\n        /* \"#utility.yul\":1840:1955   */\n      and\n        /* \"#utility.yul\":1837:1978   */\n      iszero\n      tag_84\n      jumpi\n        /* \"#utility.yul\":1958:1976   */\n      tag_85\n      tag_76\n      jump\t// in\n    tag_85:\n        /* \"#utility.yul\":1837:1978   */\n    tag_84:\n        /* \"#utility.yul\":2162:2163   */\n      dup3\n        /* \"#utility.yul\":2094:2160   */\n      0x8000000000000000000000000000000000000000000000000000000000000000\n        /* \"#utility.yul\":2089:2164   */\n      sdiv\n        /* \"#utility.yul\":2086:2087   */\n      dup3\n        /* \"#utility.yul\":2082:2165   */\n      slt\n        /* \"#utility.yul\":2077:2078   */\n      0x00\n        /* \"#utility.yul\":2074:2075   */\n      dup5\n        /* \"#utility.yul\":2070:2079   */\n      sgt\n        /* \"#utility.yul\":2066:2067   */\n      0x00\n        /* \"#utility.yul\":2063:2064   */\n      dup5\n        /* \"#utility.yul\":2059:2068   */\n      slt\n        /* \"#utility.yul\":2055:2080   */\n      and\n        /* \"#utility.yul\":2051:2166   */\n      and\n        /* \"#utility.yul\":2048:2189   */\n      iszero\n      tag_86\n      jumpi\n        /* \"#utility.yul\":2169:2187   */\n      tag_87\n      tag_76\n      jump\t// in\n    tag_87:\n        /* \"#utility.yul\":2048:2189   */\n    tag_86:\n        /* \"#utility.yul\":2372:2373   */\n      dup3\n        /* \"#utility.yul\":2304:2370   */\n      0x7fffffffffffffffffffffffffffffffffffffffffffffffffffffffffffffff\n        /* \"#utility.yul\":2299:2374   */\n      sdiv\n        /* \"#utility.yul\":2296:2297   */\n      dup3\n        /* \"#utility.yul\":2292:2375   */\n      slt\n        /* \"#utility.yul\":2287:2288   */\n      0x00\n        /* \"#utility.yul\":2284:2285   */\n      dup5\n        /* \"#utility.yul\":2280:2289   */\n      slt\n        /* \"#utility.yul\":2276:2277   */\n      0x00\n        /* \"#utility.yul\":2273:2274   */\n      dup5\n        /* \"#utility.yul\":2269:2278   */\n      slt\n        /* \"#utility.yul\":2265:2290   */\n      and\n        /* \"#utility.yul\":2261:2376   */\n      and\n        /* \"#utility.yul\":2258:2399   */\n      iszero\n      tag_88\n      jumpi\n        /* \"#utility.yul\":2379:2397   */\n      tag_89\n      tag_76\n      jump\t// in\n    tag_89:\n        /* \"#utility.yul\":2258:2399   */\n    tag_88:\n        /* \"#utility.yul\":2427:2428   */\n      dup3\n        /* \"#utility.yul\":2424:2425   */\n      dup3\n        /* \"#utility.yul\":2420:2429   */\n      mul\n        /* \"#utility.yul\":2409:2429   */\n      swap1\n      pop\n        /* \"#utility.yul\":1444:2435   */\n      swap3\n      swap2\n      pop\n      pop\n      jump\t// out\n        /* \"#utility.yul\":2441:2517   */\n    tag_66:\n        /* \"#utility.yul\":2477:2484   */\n      0x00\n        /* \"#utility.yul\":2506:2511   */\n      dup2\n        /* \"#utility.yul\":2495:2511   */\n      swap1\n      pop\n        /* \"#utility.yul\":2441:2517   */\n      swap2\n      swap1\n      pop\n      jump\t// out\n        /* \"#utility.yul\":2523:2600   */\n    tag_91:\n        /* \"#utility.yul\":2560:2567   */\n      0x00\n        /* \"#utility.yul\":2589:2594   */\n      dup2\n        /* \"#utility.yul\":2578:2594   */\n      swap1\n      pop\n        /* \"#utility.yul\":2523:2600   */\n      swap2\n      swap1\n      pop\n      jump\t// out\n        /* \"#utility.yul\":2606:2839   */\n    tag_28:\n        /* \"#utility.yul\":2645:2648   */\n      0x00\n        /* \"#utility.yul\":2668:2692   */\n      tag_94\n        /* \"#utility.yul\":2686:2691   */\n      dup3\n        /* \"#utility.yul\":2668:2692   */\n      tag_91\n      jump\t// in\n    tag_94:\n        /* \"#utility.yul\":2659:2692   */\n      swap2\n      pop\n        /* \"#utility.yul\":2714:2780   */\n      0xffffffffffffffffffffffffffffffffffffffffffffffffffffffffffffffff\n        /* \"#utility.yul\":2707:2712   */\n      dup3\n        /* \"#utility.yul\":2704:2781   */\n      eq\n        /* \"#utility.yul\":2701:2804   */\n      iszero\n      tag_95\n      jumpi\n        /* \"#utility.yul\":2784:2802   */\n      tag_96\n      tag_76\n      jump\t// in\n    tag_96:\n        /* \"#utility.yul\":2701:2804   */\n    tag_95:\n        /* \"#utility.yul\":2831:2832   */\n      0x01\n        /* \"#utility.yul\":2824:2829   */\n      dup3\n        /* \"#utility.yul\":2820:2833   */\n      add\n        /* \"#utility.yul\":2813:2833   */\n      swap1\n      pop\n        /* \"#utility.yul\":2606:2839   */\n      swap2\n      swap1\n      pop\n      jump\t// out\n        /* \"#utility.yul\":2845:3073   */\n    tag_36:\n        /* \"#utility.yul\":2880:2883   */\n      0x00\n        /* \"#utility.yul\":2903:2926   */\n      tag_98\n        /* \"#utility.yul\":2920:2925   */\n      dup3\n        /* \"#utility.yul\":2903:2926   */\n      tag_66\n      jump\t// in\n    tag_98:\n        /* \"#utility.yul\":2894:2926   */\n      swap2\n      pop\n        /* \"#utility.yul\":2948:3014   */\n      0x8000000000000000000000000000000000000000000000000000000000000000\n        /* \"#utility.yul\":2941:2946   */\n      dup3\n        /* \"#utility.yul\":2938:3015   */\n      eq\n        /* \"#utility.yul\":2935:3038   */\n      iszero\n      tag_99\n      jumpi\n        /* \"#utility.yul\":3018:3036   */\n      tag_100\n      tag_76\n      jump\t// in\n    tag_100:\n        /* \"#utility.yul\":2935:3038   */\n    tag_99:\n        /* \"#utility.yul\":3061:3066   */\n      dup2\n        /* \"#utility.yul\":3058:3059   */\n      0x00\n        /* \"#utility.yul\":3054:3067   */\n      sub\n        /* \"#utility.yul\":3047:3067   */\n      swap1\n      pop\n        /* \"#utility.yul\":2845:3073   */\n      swap2\n      swap1\n      pop\n      jump\t// out\n        /* \"#utility.yul\":3079:3259   */\n    tag_76:\n        /* \"#utility.yul\":3127:3204   */\n      0x4e487b7100000000000000000000000000000000000000000000000000000000\n        /* \"#utility.yul\":3124:3125   */\n      0x00\n        /* \"#utility.yul\":3117:3205   */\n      mstore\n        /* \"#utility.yul\":3224:3228   */\n      0x11\n        /* \"#utility.yul\":3221:3222   */\n      0x04\n        /* \"#utility.yul\":3214:3229   */\n      mstore\n        /* \"#utility.yul\":3248:3252   */\n      0x24\n        /* \"#utility.yul\":3245:3246   */\n      0x00\n        /* \"#utility.yul\":3238:3253   */\n      revert\n        /* \"#utility.yul\":3265:3445   */\n    tag_25:\n        /* \"#utility.yul\":3313:3390   */\n      0x4e487b7100000000000000000000000000000000000000000000000000000000\n        /* \"#utility.yul\":3310:3311   */\n      0x00\n        /* \"#utility.yul\":3303:3391   */\n      mstore\n        /* \"#utility.yul\":3410:3414   */\n      0x32\n        /* \"#utility.yul\":3407:3408   */\n      0x04\n        /* \"#utility.yul\":3400:3415   */\n      mstore\n        /* \"#utility.yul\":3434:3438   */\n      0x24\n        /* \"#utility.yul\":3431:3432   */\n      0x00\n        /* \"#utility.yul\":3424:3439   */\n      revert\n        /* \"#utility.yul\":3574:3691   */\n    tag_61:\n        /* \"#utility.yul\":3683:3684   */\n      0x00\n        /* \"#utility.yul\":3680:3681   */\n      dup1\n        /* \"#utility.yul\":3673:3685   */\n      revert\n        /* \"#utility.yul\":3697:3819   */\n    tag_57:\n        /* \"#utility.yul\":3770:3794   */\n      tag_107\n        /* \"#utility.yul\":3788:3793   */\n      dup2\n        /* \"#utility.yul\":3770:3794   */\n      tag_91\n      jump\t// in\n    tag_107:\n        /* \"#utility.yul\":3763:3768   */\n      dup2\n        /* \"#utility.yul\":3760:3795   */\n      eq\n        /* \"#utility.yul\":3750:3813   */\n      tag_108\n      jumpi\n        /* \"#utility.yul\":3809:3810   */\n      0x00\n        /* \"#utility.yul\":3806:3807   */\n      dup1\n        /* \"#utility.yul\":3799:3811   */\n      revert\n        /* \"#utility.yul\":3750:3813   */\n    tag_108:\n        /* \"#utility.yul\":3697:3819   */\n      pop\n      jump\t// out\n\n    auxdata: 0xa2646970667358221220557a2ffabc5c8b986cc2de377e859e350604ce225f6ed32106e8638eb977c51064736f6c63430008070033\n}\n",
				"bytecode": {
					"linkReferences": {},
					"object": "608060405234801561001057600080fd5b50610502806100206000396000f3fe608060405234801561001057600080fd5b506004361061004c5760003560e01c8063055df8e4146100515780636225c7ef1461005b57806371e5ee5f1461006557806391b4b01914610095575b600080fd5b61005961009f565b005b6100636100db565b005b61007f600480360381019061007a91906101aa565b610126565b60405161008c91906101e6565b60405180910390f35b61009d610141565b005b60005b600a8110156100d85780600082600a81106100c0576100bf610481565b5b018190555080806100d0906103c0565b9150506100a2565b50565b60005b6001816100eb9190610201565b6100f490610409565b600082600a811061010857610107610481565b5b01819055508080610118906103c0565b915050600a81106100de5750565b600081600a811061013657600080fd5b016000915090505481565b60005b600a81101561019257600a60018261015c9190610201565b6101669190610295565b600082600a811061017a57610179610481565b5b0181905550808061018a906103c0565b915050610144565b50565b6000813590506101a4816104b5565b92915050565b6000602082840312156101c0576101bf6104b0565b5b60006101ce84828501610195565b91505092915050565b6101e0816103ac565b82525050565b60006020820190506101fb60008301846101d7565b92915050565b600061020c826103ac565b9150610217836103ac565b9250817f7fffffffffffffffffffffffffffffffffffffffffffffffffffffffffffffff0383136000831215161561025257610251610452565b5b817f800000000000000000000000000000000000000000000000000000000000000003831260008312161561028a57610289610452565b5b828201905092915050565b60006102a0826103ac565b91506102ab836103ac565b9250827f7fffffffffffffffffffffffffffffffffffffffffffffffffffffffffffffff04821160008413600084131616156102ea576102e9610452565b5b817f8000000000000000000000000000000000000000000000000000000000000000058312600084126000841316161561032757610326610452565b5b827f8000000000000000000000000000000000000000000000000000000000000000058212600084136000841216161561036457610363610452565b5b827f7fffffffffffffffffffffffffffffffffffffffffffffffffffffffffffffff05821260008412600084121616156103a1576103a0610452565b5b828202905092915050565b6000819050919050565b6000819050919050565b60006103cb826103b6565b91507fffffffffffffffffffffffffffffffffffffffffffffffffffffffffffffffff8214156103fe576103fd610452565b5b600182019050919050565b6000610414826103ac565b91507f800000000000000000000000000000000000000000000000000000000000000082141561044757610446610452565b5b816000039050919050565b7f4e487b7100000000000000000000000000000000000000000000000000000000600052601160045260246000fd5b7f4e487b7100000000000000000000000000000000000000000000000000000000600052603260045260246000fd5b600080fd5b6104be816103b6565b81146104c957600080fd5b5056fea2646970667358221220557a2ffabc5c8b986cc2de377e859e350604ce225f6ed32106e8638eb977c51064736f6c63430008070033",
					"opcodes": "PUSH1 0x80 PUSH1 0x40 MSTORE CALLVALUE DUP1 ISZERO PUSH2 0x10 JUMPI PUSH1 0x0 DUP1 REVERT JUMPDEST POP PUSH2 0x502 DUP1 PUSH2 0x20 PUSH1 0x0 CODECOPY PUSH1 0x0 RETURN INVALID PUSH1 0x80 PUSH1 0x40 MSTORE CALLVALUE DUP1 ISZERO PUSH2 0x10 JUMPI PUSH1 0x0 DUP1 REVERT JUMPDEST POP PUSH1 0x4 CALLDATASIZE LT PUSH2 0x4C JUMPI PUSH1 0x0 CALLDATALOAD PUSH1 0xE0 SHR DUP1 PUSH4 0x55DF8E4 EQ PUSH2 0x51 JUMPI DUP1 PUSH4 0x6225C7EF EQ PUSH2 0x5B JUMPI DUP1 PUSH4 0x71E5EE5F EQ PUSH2 0x65 JUMPI DUP1 PUSH4 0x91B4B019 EQ PUSH2 0x95 JUMPI JUMPDEST PUSH1 0x0 DUP1 REVERT JUMPDEST PUSH2 0x59 PUSH2 0x9F JUMP JUMPDEST STOP JUMPDEST PUSH2 0x63 PUSH2 0xDB JUMP JUMPDEST STOP JUMPDEST PUSH2 0x7F PUSH1 0x4 DUP1 CALLDATASIZE SUB DUP2 ADD SWAP1 PUSH2 0x7A SWAP2 SWAP1 PUSH2 0x1AA JUMP JUMPDEST PUSH2 0x126 JUMP JUMPDEST PUSH1 0x40 MLOAD PUSH2 0x8C SWAP2 SWAP1 PUSH2 0x1E6 JUMP JUMPDEST PUSH1 0x40 MLOAD DUP1 SWAP2 SUB SWAP1 RETURN JUMPDEST PUSH2 0x9D PUSH2 0x141 JUMP JUMPDEST STOP JUMPDEST PUSH1 0x0 JUMPDEST PUSH1 0xA DUP2 LT ISZERO PUSH2 0xD8 JUMPI DUP1 PUSH1 0x0 DUP3 PUSH1 0xA DUP2 LT PUSH2 0xC0 JUMPI PUSH2 0xBF PUSH2 0x481 JUMP JUMPDEST JUMPDEST ADD DUP2 SWAP1 SSTORE POP DUP1 DUP1 PUSH2 0xD0 SWAP1 PUSH2 0x3C0 JUMP JUMPDEST SWAP2 POP POP PUSH2 0xA2 JUMP JUMPDEST POP JUMP JUMPDEST PUSH1 0x0 JUMPDEST PUSH1 0x1 DUP2 PUSH2 0xEB SWAP2 SWAP1 PUSH2 0x201 JUMP JUMPDEST PUSH2 0xF4 SWAP1 PUSH2 0x409 JUMP JUMPDEST PUSH1 0x0 DUP3 PUSH1 0xA DUP2 LT PUSH2 0x108 JUMPI PUSH2 0x107 PUSH2 0x481 JUMP JUMPDEST JUMPDEST ADD DUP2 SWAP1 SSTORE POP DUP1 DUP1 PUSH2 0x118 SWAP1 PUSH2 0x3C0 JUMP JUMPDEST SWAP2 POP POP PUSH1 0xA DUP2 LT PUSH2 0xDE JUMPI POP JUMP JUMPDEST PUSH1 0x0 DUP2 PUSH1 0xA DUP2 LT PUSH2 0x136 JUMPI PUSH1 0x0 DUP1 REVERT JUMPDEST ADD PUSH1 0x0 SWAP2 POP SWAP1 POP SLOAD DUP2 JUMP JUMPDEST PUSH1 0x0 JUMPDEST PUSH1 0xA DUP2 LT ISZERO PUSH2 0x192 JUMPI PUSH1 0xA PUSH1 0x1 DUP3 PUSH2 0x15C SWAP2 SWAP1 PUSH2 0x201 JUMP JUMPDEST PUSH2 0x166 SWAP2 SWAP1 PUSH2 0x295 JUMP JUMPDEST PUSH1 0x0 DUP3 PUSH1 0xA DUP2 LT PUSH2 0x17A JUMPI PUSH2 0x179 PUSH2 0x481 JUMP JUMPDEST JUMPDEST ADD DUP2 SWAP1 SSTORE POP DUP1 DUP1 PUSH2 0x18A SWAP1 PUSH2 0x3C0 JUMP JUMPDEST SWAP2 POP POP PUSH2 0x144 JUMP JUMPDEST POP JUMP JUMPDEST PUSH1 0x0 DUP2 CALLDATALOAD SWAP1 POP PUSH2 0x1A4 DUP2 PUSH2 0x4B5 JUMP JUMPDEST SWAP3 SWAP2 POP POP JUMP JUMPDEST PUSH1 0x0 PUSH1 0x20 DUP3 DUP5 SUB SLT ISZERO PUSH2 0x1C0 JUMPI PUSH2 0x1BF PUSH2 0x4B0 JUMP JUMPDEST JUMPDEST PUSH1 0x0 PUSH2 0x1CE DUP5 DUP3 DUP6 ADD PUSH2 0x195 JUMP JUMPDEST SWAP2 POP POP SWAP3 SWAP2 POP POP JUMP JUMPDEST PUSH2 0x1E0 DUP2 PUSH2 0x3AC JUMP JUMPDEST DUP3 MSTORE POP POP JUMP JUMPDEST PUSH1 0x0 PUSH1 0x20 DUP3 ADD SWAP1 POP PUSH2 0x1FB PUSH1 0x0 DUP4 ADD DUP5 PUSH2 0x1D7 JUMP JUMPDEST SWAP3 SWAP2 POP POP JUMP JUMPDEST PUSH1 0x0 PUSH2 0x20C DUP3 PUSH2 0x3AC JUMP JUMPDEST SWAP2 POP PUSH2 0x217 DUP4 PUSH2 0x3AC JUMP JUMPDEST SWAP3 POP DUP2 PUSH32 0x7FFFFFFFFFFFFFFFFFFFFFFFFFFFFFFFFFFFFFFFFFFFFFFFFFFFFFFFFFFFFFFF SUB DUP4 SGT PUSH1 0x0 DUP4 SLT ISZERO AND ISZERO PUSH2 0x252 JUMPI PUSH2 0x251 PUSH2 0x452 JUMP JUMPDEST JUMPDEST DUP2 PUSH32 0x8000000000000000000000000000000000000000000000000000000000000000 SUB DUP4 SLT PUSH1 0x0 DUP4 SLT AND ISZERO PUSH2 0x28A JUMPI PUSH2 0x289 PUSH2 0x452 JUMP JUMPDEST JUMPDEST DUP3 DUP3 ADD SWAP1 POP SWAP3 SWAP2 POP POP JUMP JUMPDEST PUSH1 0x0 PUSH2 0x2A0 DUP3 PUSH2 0x3AC JUMP JUMPDEST SWAP2 POP PUSH2 0x2AB DUP4 PUSH2 0x3AC JUMP JUMPDEST SWAP3 POP DUP3 PUSH32 0x7FFFFFFFFFFFFFFFFFFFFFFFFFFFFFFFFFFFFFFFFFFFFFFFFFFFFFFFFFFFFFFF DIV DUP3 GT PUSH1 0x0 DUP5 SGT PUSH1 0x0 DUP5 SGT AND AND ISZERO PUSH2 0x2EA JUMPI PUSH2 0x2E9 PUSH2 0x452 JUMP JUMPDEST JUMPDEST DUP2 PUSH32 0x8000000000000000000000000000000000000000000000000000000000000000 SDIV DUP4 SLT PUSH1 0x0 DUP5 SLT PUSH1 0x0 DUP5 SGT AND AND ISZERO PUSH2 0x327 JUMPI PUSH2 0x326 PUSH2 0x452 JUMP JUMPDEST JUMPDEST DUP3 PUSH32 0x8000000000000000000000000000000000000000000000000000000000000000 SDIV DUP3 SLT PUSH1 0x0 DUP5 SGT PUSH1 0x0 DUP5 SLT AND AND ISZERO PUSH2 0x364 JUMPI PUSH2 0x363 PUSH2 0x452 JUMP JUMPDEST JUMPDEST DUP3 PUSH32 0x7FFFFFFFFFFFFFFFFFFFFFFFFFFFFFFFFFFFFFFFFFFFFFFFFFFFFFFFFFFFFFFF SDIV DUP3 SLT PUSH1 0x0 DUP5 SLT PUSH1 0x0 DUP5 SLT AND AND ISZERO PUSH2 0x3A1 JUMPI PUSH2 0x3A0 PUSH2 0x452 JUMP JUMPDEST JUMPDEST DUP3 DUP3 MUL SWAP1 POP SWAP3 SWAP2 POP POP JUMP JUMPDEST PUSH1 0x0 DUP2 SWAP1 POP SWAP2 SWAP1 POP JUMP JUMPDEST PUSH1 0x0 DUP2 SWAP1 POP SWAP2 SWAP1 POP JUMP JUMPDEST PUSH1 0x0 PUSH2 0x3CB DUP3 PUSH2 0x3B6 JUMP JUMPDEST SWAP2 POP PUSH32 0xFFFFFFFFFFFFFFFFFFFFFFFFFFFFFFFFFFFFFFFFFFFFFFFFFFFFFFFFFFFFFFFF DUP3 EQ ISZERO PUSH2 0x3FE JUMPI PUSH2 0x3FD PUSH2 0x452 JUMP JUMPDEST JUMPDEST PUSH1 0x1 DUP3 ADD SWAP1 POP SWAP2 SWAP1 POP JUMP JUMPDEST PUSH1 0x0 PUSH2 0x414 DUP3 PUSH2 0x3AC JUMP JUMPDEST SWAP2 POP PUSH32 0x8000000000000000000000000000000000000000000000000000000000000000 DUP3 EQ ISZERO PUSH2 0x447 JUMPI PUSH2 0x446 PUSH2 0x452 JUMP JUMPDEST JUMPDEST DUP2 PUSH1 0x0 SUB SWAP1 POP SWAP2 SWAP1 POP JUMP JUMPDEST PUSH32 0x4E487B7100000000000000000000000000000000000000000000000000000000 PUSH1 0x0 MSTORE PUSH1 0x11 PUSH1 0x4 MSTORE PUSH1 0x24 PUSH1 0x0 REVERT JUMPDEST PUSH32 0x4E487B7100000000000000000000000000000000000000000000000000000000 PUSH1 0x0 MSTORE PUSH1 0x32 PUSH1 0x4 MSTORE PUSH1 0x24 PUSH1 0x0 REVERT JUMPDEST PUSH1 0x0 DUP1 REVERT JUMPDEST PUSH2 0x4BE DUP2 PUSH2 0x3B6 JUMP JUMPDEST DUP2 EQ PUSH2 0x4C9 JUMPI PUSH1 0x0 DUP1 REVERT JUMPDEST POP JUMP INVALID LOG2 PUSH5 0x6970667358 0x22 SLT KECCAK256 SSTORE PUSH27 0x2FFABC5C8B986CC2DE377E859E350604CE225F6ED32106E8638EB9 PUSH24 0xC51064736F6C634300080700330000000000000000000000 "
				},
				"gasEstimates": {
					"creation": {
						"codeDepositCost": "256400",
						"executionCost": "300",
						"totalCost": "256700"
					},
					"external": {
						"arr(uint256)": "2753",
						"do_while_loop_negetive()": "infinite",
						"for_loop_1_to_10()": "infinite",
						"while_loop_10_to_100()": "infinite"
					}
				},
				"methodIdentifiers": {
					"arr(uint256)": "71e5ee5f",
					"do_while_loop_negetive()": "6225c7ef",
					"for_loop_1_to_10()": "055df8e4",
					"while_loop_10_to_100()": "91b4b019"
				}
			},
			"storageLayout": {
				"storage": [
					{
						"astId": 5,
						"contract": "contracts/11_Looping.sol:Loop",
						"label": "arr",
						"offset": 0,
						"slot": "0",
						"type": "t_array(t_int256)10_storage"
					}
				],
				"types": {
					"t_array(t_int256)10_storage": {
						"base": "t_int256",
						"encoding": "inplace",
						"label": "int256[10]",
						"numberOfBytes": "320"
					},
					"t_int256": {
						"encoding": "inplace",
						"label": "int256",
						"numberOfBytes": "32"
					}
				}
			},
			"userdoc": {
				"kind": "user",
				"methods": {},
				"version": 1
			}
		}
	}
}