{
	"contracts/09_Static_Bytes_Array.sol": {
		"bytes_array": {
			"abi": [
				{
					"inputs": [],
					"name": "b2",
					"outputs": [
						{
							"internalType": "bytes2",
							"name": "",
							"type": "bytes2"
						}
					],
					"stateMutability": "view",
					"type": "function"
				},
				{
					"inputs": [],
					"name": "b3",
					"outputs": [
						{
							"internalType": "bytes3",
							"name": "",
							"type": "bytes3"
						}
					],
					"stateMutability": "view",
					"type": "function"
				},
				{
					"inputs": [
						{
							"internalType": "uint256",
							"name": "pos",
							"type": "uint256"
						}
					],
					"name": "getter_b2",
					"outputs": [
						{
							"internalType": "bytes1",
							"name": "",
							"type": "bytes1"
						}
					],
					"stateMutability": "view",
					"type": "function"
				},
				{
					"inputs": [
						{
							"internalType": "uint256",
							"name": "pos",
							"type": "uint256"
						}
					],
					"name": "getter_b3",
					"outputs": [
						{
							"internalType": "bytes1",
							"name": "",
							"type": "bytes1"
						}
					],
					"stateMutability": "view",
					"type": "function"
				}
			],
			"devdoc": {
				"kind": "dev",
				"methods": {},
				"version": 1
			},
			"evm": {
				"assembly": "    /* \"contracts/09_Static_Bytes_Array.sol\":80:1241  contract bytes_array\r... */\n  mstore(0x40, 0x80)\n    /* \"contracts/09_Static_Bytes_Array.sol\":308:331  bytes2 public b2 = \"ab\" */\n  0x6162000000000000000000000000000000000000000000000000000000000000\n  0x00\n  dup1\n  0x0100\n  exp\n  dup2\n  sload\n  dup2\n  0xffff\n  mul\n  not\n  and\n  swap1\n  dup4\n  0xf0\n  shr\n  mul\n  or\n  swap1\n  sstore\n  pop\n    /* \"contracts/09_Static_Bytes_Array.sol\":594:616  bytes3 public b3 = \"a\" */\n  0x6100000000000000000000000000000000000000000000000000000000000000\n  0x00\n  exp(0x0100, 0x02)\n  dup2\n  sload\n  dup2\n  0xffffff\n  mul\n  not\n  and\n  swap1\n  dup4\n  0xe8\n  shr\n  mul\n  or\n  swap1\n  sstore\n  pop\n    /* \"contracts/09_Static_Bytes_Array.sol\":80:1241  contract bytes_array\r... */\n  callvalue\n  dup1\n  iszero\n  tag_1\n  jumpi\n  0x00\n  dup1\n  revert\ntag_1:\n  pop\n  dataSize(sub_0)\n  dup1\n  dataOffset(sub_0)\n  0x00\n  codecopy\n  0x00\n  return\nstop\n\nsub_0: assembly {\n        /* \"contracts/09_Static_Bytes_Array.sol\":80:1241  contract bytes_array\r... */\n      mstore(0x40, 0x80)\n      callvalue\n      dup1\n      iszero\n      tag_1\n      jumpi\n      0x00\n      dup1\n      revert\n    tag_1:\n      pop\n      jumpi(tag_2, lt(calldatasize, 0x04))\n      shr(0xe0, calldataload(0x00))\n      dup1\n      0x0add6ef2\n      eq\n      tag_3\n      jumpi\n      dup1\n      0xb7504834\n      eq\n      tag_4\n      jumpi\n      dup1\n      0xb985742f\n      eq\n      tag_5\n      jumpi\n      dup1\n      0xe9b61909\n      eq\n      tag_6\n      jumpi\n    tag_2:\n      0x00\n      dup1\n      revert\n        /* \"contracts/09_Static_Bytes_Array.sol\":308:331  bytes2 public b2 = \"ab\" */\n    tag_3:\n      tag_7\n      tag_8\n      jump\t// in\n    tag_7:\n      mload(0x40)\n      tag_9\n      swap2\n      swap1\n      tag_10\n      jump\t// in\n    tag_9:\n      mload(0x40)\n      dup1\n      swap2\n      sub\n      swap1\n      return\n        /* \"contracts/09_Static_Bytes_Array.sol\":1032:1127  function getter_b2(uint pos) public view returns(bytes1)\r... */\n    tag_4:\n      tag_11\n      0x04\n      dup1\n      calldatasize\n      sub\n      dup2\n      add\n      swap1\n      tag_12\n      swap2\n      swap1\n      tag_13\n      jump\t// in\n    tag_12:\n      tag_14\n      jump\t// in\n    tag_11:\n      mload(0x40)\n      tag_15\n      swap2\n      swap1\n      tag_16\n      jump\t// in\n    tag_15:\n      mload(0x40)\n      dup1\n      swap2\n      sub\n      swap1\n      return\n        /* \"contracts/09_Static_Bytes_Array.sol\":1135:1230  function getter_b3(uint pos) public view returns(bytes1)\r... */\n    tag_5:\n      tag_17\n      0x04\n      dup1\n      calldatasize\n      sub\n      dup2\n      add\n      swap1\n      tag_18\n      swap2\n      swap1\n      tag_13\n      jump\t// in\n    tag_18:\n      tag_19\n      jump\t// in\n    tag_17:\n      mload(0x40)\n      tag_20\n      swap2\n      swap1\n      tag_16\n      jump\t// in\n    tag_20:\n      mload(0x40)\n      dup1\n      swap2\n      sub\n      swap1\n      return\n        /* \"contracts/09_Static_Bytes_Array.sol\":594:616  bytes3 public b3 = \"a\" */\n    tag_6:\n      tag_21\n      tag_22\n      jump\t// in\n    tag_21:\n      mload(0x40)\n      tag_23\n      swap2\n      swap1\n      tag_24\n      jump\t// in\n    tag_23:\n      mload(0x40)\n      dup1\n      swap2\n      sub\n      swap1\n      return\n        /* \"contracts/09_Static_Bytes_Array.sol\":308:331  bytes2 public b2 = \"ab\" */\n    tag_8:\n      0x00\n      dup1\n      sload\n      swap1\n      0x0100\n      exp\n      swap1\n      div\n      0xf0\n      shl\n      dup2\n      jump\t// out\n        /* \"contracts/09_Static_Bytes_Array.sol\":1032:1127  function getter_b2(uint pos) public view returns(bytes1)\r... */\n    tag_14:\n        /* \"contracts/09_Static_Bytes_Array.sol\":1081:1087  bytes1 */\n      0x00\n        /* \"contracts/09_Static_Bytes_Array.sol\":1112:1114  b2 */\n      dup1\n      0x00\n      swap1\n      sload\n      swap1\n      0x0100\n      exp\n      swap1\n      div\n      0xf0\n      shl\n        /* \"contracts/09_Static_Bytes_Array.sol\":1115:1118  pos */\n      dup3\n        /* \"contracts/09_Static_Bytes_Array.sol\":1112:1119  b2[pos] */\n      0x02\n      dup2\n      lt\n      tag_26\n      jumpi\n      tag_27\n      tag_28\n      jump\t// in\n    tag_27:\n    tag_26:\n      byte\n      0xf8\n      shl\n        /* \"contracts/09_Static_Bytes_Array.sol\":1105:1119  return b2[pos] */\n      swap1\n      pop\n        /* \"contracts/09_Static_Bytes_Array.sol\":1032:1127  function getter_b2(uint pos) public view returns(bytes1)\r... */\n      swap2\n      swap1\n      pop\n      jump\t// out\n        /* \"contracts/09_Static_Bytes_Array.sol\":1135:1230  function getter_b3(uint pos) public view returns(bytes1)\r... */\n    tag_19:\n        /* \"contracts/09_Static_Bytes_Array.sol\":1184:1190  bytes1 */\n      0x00\n        /* \"contracts/09_Static_Bytes_Array.sol\":1215:1217  b3 */\n      dup1\n      0x02\n      swap1\n      sload\n      swap1\n      0x0100\n      exp\n      swap1\n      div\n      0xe8\n      shl\n        /* \"contracts/09_Static_Bytes_Array.sol\":1218:1221  pos */\n      dup3\n        /* \"contracts/09_Static_Bytes_Array.sol\":1215:1222  b3[pos] */\n      0x03\n      dup2\n      lt\n      tag_30\n      jumpi\n      tag_31\n      tag_28\n      jump\t// in\n    tag_31:\n    tag_30:\n      byte\n      0xf8\n      shl\n        /* \"contracts/09_Static_Bytes_Array.sol\":1208:1222  return b3[pos] */\n      swap1\n      pop\n        /* \"contracts/09_Static_Bytes_Array.sol\":1135:1230  function getter_b3(uint pos) public view returns(bytes1)\r... */\n      swap2\n      swap1\n      pop\n      jump\t// out\n        /* \"contracts/09_Static_Bytes_Array.sol\":594:616  bytes3 public b3 = \"a\" */\n    tag_22:\n      0x00\n      0x02\n      swap1\n      sload\n      swap1\n      0x0100\n      exp\n      swap1\n      div\n      0xe8\n      shl\n      dup2\n      jump\t// out\n        /* \"#utility.yul\":7:146   */\n    tag_33:\n        /* \"#utility.yul\":53:58   */\n      0x00\n        /* \"#utility.yul\":91:97   */\n      dup2\n        /* \"#utility.yul\":78:98   */\n      calldataload\n        /* \"#utility.yul\":69:98   */\n      swap1\n      pop\n        /* \"#utility.yul\":107:140   */\n      tag_35\n        /* \"#utility.yul\":134:139   */\n      dup2\n        /* \"#utility.yul\":107:140   */\n      tag_36\n      jump\t// in\n    tag_35:\n        /* \"#utility.yul\":7:146   */\n      swap3\n      swap2\n      pop\n      pop\n      jump\t// out\n        /* \"#utility.yul\":152:481   */\n    tag_13:\n        /* \"#utility.yul\":211:217   */\n      0x00\n        /* \"#utility.yul\":260:262   */\n      0x20\n        /* \"#utility.yul\":248:257   */\n      dup3\n        /* \"#utility.yul\":239:246   */\n      dup5\n        /* \"#utility.yul\":235:258   */\n      sub\n        /* \"#utility.yul\":231:263   */\n      slt\n        /* \"#utility.yul\":228:347   */\n      iszero\n      tag_38\n      jumpi\n        /* \"#utility.yul\":266:345   */\n      tag_39\n      tag_40\n      jump\t// in\n    tag_39:\n        /* \"#utility.yul\":228:347   */\n    tag_38:\n        /* \"#utility.yul\":386:387   */\n      0x00\n        /* \"#utility.yul\":411:464   */\n      tag_41\n        /* \"#utility.yul\":456:463   */\n      dup5\n        /* \"#utility.yul\":447:453   */\n      dup3\n        /* \"#utility.yul\":436:445   */\n      dup6\n        /* \"#utility.yul\":432:454   */\n      add\n        /* \"#utility.yul\":411:464   */\n      tag_33\n      jump\t// in\n    tag_41:\n        /* \"#utility.yul\":401:464   */\n      swap2\n      pop\n        /* \"#utility.yul\":357:474   */\n      pop\n        /* \"#utility.yul\":152:481   */\n      swap3\n      swap2\n      pop\n      pop\n      jump\t// out\n        /* \"#utility.yul\":487:602   */\n    tag_42:\n        /* \"#utility.yul\":572:595   */\n      tag_44\n        /* \"#utility.yul\":589:594   */\n      dup2\n        /* \"#utility.yul\":572:595   */\n      tag_45\n      jump\t// in\n    tag_44:\n        /* \"#utility.yul\":567:570   */\n      dup3\n        /* \"#utility.yul\":560:596   */\n      mstore\n        /* \"#utility.yul\":487:602   */\n      pop\n      pop\n      jump\t// out\n        /* \"#utility.yul\":608:723   */\n    tag_46:\n        /* \"#utility.yul\":693:716   */\n      tag_48\n        /* \"#utility.yul\":710:715   */\n      dup2\n        /* \"#utility.yul\":693:716   */\n      tag_49\n      jump\t// in\n    tag_48:\n        /* \"#utility.yul\":688:691   */\n      dup3\n        /* \"#utility.yul\":681:717   */\n      mstore\n        /* \"#utility.yul\":608:723   */\n      pop\n      pop\n      jump\t// out\n        /* \"#utility.yul\":729:844   */\n    tag_50:\n        /* \"#utility.yul\":814:837   */\n      tag_52\n        /* \"#utility.yul\":831:836   */\n      dup2\n        /* \"#utility.yul\":814:837   */\n      tag_53\n      jump\t// in\n    tag_52:\n        /* \"#utility.yul\":809:812   */\n      dup3\n        /* \"#utility.yul\":802:838   */\n      mstore\n        /* \"#utility.yul\":729:844   */\n      pop\n      pop\n      jump\t// out\n        /* \"#utility.yul\":850:1068   */\n    tag_16:\n        /* \"#utility.yul\":941:945   */\n      0x00\n        /* \"#utility.yul\":979:981   */\n      0x20\n        /* \"#utility.yul\":968:977   */\n      dup3\n        /* \"#utility.yul\":964:982   */\n      add\n        /* \"#utility.yul\":956:982   */\n      swap1\n      pop\n        /* \"#utility.yul\":992:1061   */\n      tag_55\n        /* \"#utility.yul\":1058:1059   */\n      0x00\n        /* \"#utility.yul\":1047:1056   */\n      dup4\n        /* \"#utility.yul\":1043:1060   */\n      add\n        /* \"#utility.yul\":1034:1040   */\n      dup5\n        /* \"#utility.yul\":992:1061   */\n      tag_42\n      jump\t// in\n    tag_55:\n        /* \"#utility.yul\":850:1068   */\n      swap3\n      swap2\n      pop\n      pop\n      jump\t// out\n        /* \"#utility.yul\":1074:1292   */\n    tag_10:\n        /* \"#utility.yul\":1165:1169   */\n      0x00\n        /* \"#utility.yul\":1203:1205   */\n      0x20\n        /* \"#utility.yul\":1192:1201   */\n      dup3\n        /* \"#utility.yul\":1188:1206   */\n      add\n        /* \"#utility.yul\":1180:1206   */\n      swap1\n      pop\n        /* \"#utility.yul\":1216:1285   */\n      tag_57\n        /* \"#utility.yul\":1282:1283   */\n      0x00\n        /* \"#utility.yul\":1271:1280   */\n      dup4\n        /* \"#utility.yul\":1267:1284   */\n      add\n        /* \"#utility.yul\":1258:1264   */\n      dup5\n        /* \"#utility.yul\":1216:1285   */\n      tag_46\n      jump\t// in\n    tag_57:\n        /* \"#utility.yul\":1074:1292   */\n      swap3\n      swap2\n      pop\n      pop\n      jump\t// out\n        /* \"#utility.yul\":1298:1516   */\n    tag_24:\n        /* \"#utility.yul\":1389:1393   */\n      0x00\n        /* \"#utility.yul\":1427:1429   */\n      0x20\n        /* \"#utility.yul\":1416:1425   */\n      dup3\n        /* \"#utility.yul\":1412:1430   */\n      add\n        /* \"#utility.yul\":1404:1430   */\n      swap1\n      pop\n        /* \"#utility.yul\":1440:1509   */\n      tag_59\n        /* \"#utility.yul\":1506:1507   */\n      0x00\n        /* \"#utility.yul\":1495:1504   */\n      dup4\n        /* \"#utility.yul\":1491:1508   */\n      add\n        /* \"#utility.yul\":1482:1488   */\n      dup5\n        /* \"#utility.yul\":1440:1509   */\n      tag_50\n      jump\t// in\n    tag_59:\n        /* \"#utility.yul\":1298:1516   */\n      swap3\n      swap2\n      pop\n      pop\n      jump\t// out\n        /* \"#utility.yul\":1603:1752   */\n    tag_45:\n        /* \"#utility.yul\":1639:1646   */\n      0x00\n        /* \"#utility.yul\":1679:1745   */\n      0xff00000000000000000000000000000000000000000000000000000000000000\n        /* \"#utility.yul\":1672:1677   */\n      dup3\n        /* \"#utility.yul\":1668:1746   */\n      and\n        /* \"#utility.yul\":1657:1746   */\n      swap1\n      pop\n        /* \"#utility.yul\":1603:1752   */\n      swap2\n      swap1\n      pop\n      jump\t// out\n        /* \"#utility.yul\":1758:1907   */\n    tag_49:\n        /* \"#utility.yul\":1794:1801   */\n      0x00\n        /* \"#utility.yul\":1834:1900   */\n      0xffff000000000000000000000000000000000000000000000000000000000000\n        /* \"#utility.yul\":1827:1832   */\n      dup3\n        /* \"#utility.yul\":1823:1901   */\n      and\n        /* \"#utility.yul\":1812:1901   */\n      swap1\n      pop\n        /* \"#utility.yul\":1758:1907   */\n      swap2\n      swap1\n      pop\n      jump\t// out\n        /* \"#utility.yul\":1913:2062   */\n    tag_53:\n        /* \"#utility.yul\":1949:1956   */\n      0x00\n        /* \"#utility.yul\":1989:2055   */\n      0xffffff0000000000000000000000000000000000000000000000000000000000\n        /* \"#utility.yul\":1982:1987   */\n      dup3\n        /* \"#utility.yul\":1978:2056   */\n      and\n        /* \"#utility.yul\":1967:2056   */\n      swap1\n      pop\n        /* \"#utility.yul\":1913:2062   */\n      swap2\n      swap1\n      pop\n      jump\t// out\n        /* \"#utility.yul\":2068:2145   */\n    tag_65:\n        /* \"#utility.yul\":2105:2112   */\n      0x00\n        /* \"#utility.yul\":2134:2139   */\n      dup2\n        /* \"#utility.yul\":2123:2139   */\n      swap1\n      pop\n        /* \"#utility.yul\":2068:2145   */\n      swap2\n      swap1\n      pop\n      jump\t// out\n        /* \"#utility.yul\":2151:2331   */\n    tag_28:\n        /* \"#utility.yul\":2199:2276   */\n      0x4e487b7100000000000000000000000000000000000000000000000000000000\n        /* \"#utility.yul\":2196:2197   */\n      0x00\n        /* \"#utility.yul\":2189:2277   */\n      mstore\n        /* \"#utility.yul\":2296:2300   */\n      0x32\n        /* \"#utility.yul\":2293:2294   */\n      0x04\n        /* \"#utility.yul\":2286:2301   */\n      mstore\n        /* \"#utility.yul\":2320:2324   */\n      0x24\n        /* \"#utility.yul\":2317:2318   */\n      0x00\n        /* \"#utility.yul\":2310:2325   */\n      revert\n        /* \"#utility.yul\":2460:2577   */\n    tag_40:\n        /* \"#utility.yul\":2569:2570   */\n      0x00\n        /* \"#utility.yul\":2566:2567   */\n      dup1\n        /* \"#utility.yul\":2559:2571   */\n      revert\n        /* \"#utility.yul\":2583:2705   */\n    tag_36:\n        /* \"#utility.yul\":2656:2680   */\n      tag_72\n        /* \"#utility.yul\":2674:2679   */\n      dup2\n        /* \"#utility.yul\":2656:2680   */\n      tag_65\n      jump\t// in\n    tag_72:\n        /* \"#utility.yul\":2649:2654   */\n      dup2\n        /* \"#utility.yul\":2646:2681   */\n      eq\n        /* \"#utility.yul\":2636:2699   */\n      tag_73\n      jumpi\n        /* \"#utility.yul\":2695:2696   */\n      0x00\n        /* \"#utility.yul\":2692:2693   */\n      dup1\n        /* \"#utility.yul\":2685:2697   */\n      revert\n        /* \"#utility.yul\":2636:2699   */\n    tag_73:\n        /* \"#utility.yul\":2583:2705   */\n      pop\n      jump\t// out\n\n    auxdata: 0xa2646970667358221220e03fb72d1c1f0a68abedc94a6af4ce203d82513f61be2340208f4f13213cf7de64736f6c63430008070033\n}\n",
				"bytecode": {
					"linkReferences": {},
					"object": "60806040527f61620000000000000000000000000000000000000000000000000000000000006000806101000a81548161ffff021916908360f01c02179055507f6100000000000000000000000000000000000000000000000000000000000000600060026101000a81548162ffffff021916908360e81c021790555034801561008857600080fd5b5061033c806100986000396000f3fe608060405234801561001057600080fd5b506004361061004c5760003560e01c80630add6ef214610051578063b75048341461006f578063b985742f1461009f578063e9b61909146100cf575b600080fd5b6100596100ed565b60405161006691906101f7565b60405180910390f35b61008960048036038101906100849190610182565b6100fe565b60405161009691906101dc565b60405180910390f35b6100b960048036038101906100b49190610182565b61012c565b6040516100c691906101dc565b60405180910390f35b6100d761015a565b6040516100e49190610212565b60405180910390f35b60008054906101000a900460f01b81565b60008060009054906101000a900460f01b8260028110610121576101206102bb565b5b1a60f81b9050919050565b60008060029054906101000a900460e81b826003811061014f5761014e6102bb565b5b1a60f81b9050919050565b600060029054906101000a900460e81b81565b60008135905061017c816102ef565b92915050565b600060208284031215610198576101976102ea565b5b60006101a68482850161016d565b91505092915050565b6101b88161022d565b82525050565b6101c781610259565b82525050565b6101d681610285565b82525050565b60006020820190506101f160008301846101af565b92915050565b600060208201905061020c60008301846101be565b92915050565b600060208201905061022760008301846101cd565b92915050565b60007fff0000000000000000000000000000000000000000000000000000000000000082169050919050565b60007fffff00000000000000000000000000000000000000000000000000000000000082169050919050565b60007fffffff000000000000000000000000000000000000000000000000000000000082169050919050565b6000819050919050565b7f4e487b7100000000000000000000000000000000000000000000000000000000600052603260045260246000fd5b600080fd5b6102f8816102b1565b811461030357600080fd5b5056fea2646970667358221220e03fb72d1c1f0a68abedc94a6af4ce203d82513f61be2340208f4f13213cf7de64736f6c63430008070033",
					"opcodes": "PUSH1 0x80 PUSH1 0x40 MSTORE PUSH32 0x6162000000000000000000000000000000000000000000000000000000000000 PUSH1 0x0 DUP1 PUSH2 0x100 EXP DUP2 SLOAD DUP2 PUSH2 0xFFFF MUL NOT AND SWAP1 DUP4 PUSH1 0xF0 SHR MUL OR SWAP1 SSTORE POP PUSH32 0x6100000000000000000000000000000000000000000000000000000000000000 PUSH1 0x0 PUSH1 0x2 PUSH2 0x100 EXP DUP2 SLOAD DUP2 PUSH3 0xFFFFFF MUL NOT AND SWAP1 DUP4 PUSH1 0xE8 SHR MUL OR SWAP1 SSTORE POP CALLVALUE DUP1 ISZERO PUSH2 0x88 JUMPI PUSH1 0x0 DUP1 REVERT JUMPDEST POP PUSH2 0x33C DUP1 PUSH2 0x98 PUSH1 0x0 CODECOPY PUSH1 0x0 RETURN INVALID PUSH1 0x80 PUSH1 0x40 MSTORE CALLVALUE DUP1 ISZERO PUSH2 0x10 JUMPI PUSH1 0x0 DUP1 REVERT JUMPDEST POP PUSH1 0x4 CALLDATASIZE LT PUSH2 0x4C JUMPI PUSH1 0x0 CALLDATALOAD PUSH1 0xE0 SHR DUP1 PUSH4 0xADD6EF2 EQ PUSH2 0x51 JUMPI DUP1 PUSH4 0xB7504834 EQ PUSH2 0x6F JUMPI DUP1 PUSH4 0xB985742F EQ PUSH2 0x9F JUMPI DUP1 PUSH4 0xE9B61909 EQ PUSH2 0xCF JUMPI JUMPDEST PUSH1 0x0 DUP1 REVERT JUMPDEST PUSH2 0x59 PUSH2 0xED JUMP JUMPDEST PUSH1 0x40 MLOAD PUSH2 0x66 SWAP2 SWAP1 PUSH2 0x1F7 JUMP JUMPDEST PUSH1 0x40 MLOAD DUP1 SWAP2 SUB SWAP1 RETURN JUMPDEST PUSH2 0x89 PUSH1 0x4 DUP1 CALLDATASIZE SUB DUP2 ADD SWAP1 PUSH2 0x84 SWAP2 SWAP1 PUSH2 0x182 JUMP JUMPDEST PUSH2 0xFE JUMP JUMPDEST PUSH1 0x40 MLOAD PUSH2 0x96 SWAP2 SWAP1 PUSH2 0x1DC JUMP JUMPDEST PUSH1 0x40 MLOAD DUP1 SWAP2 SUB SWAP1 RETURN JUMPDEST PUSH2 0xB9 PUSH1 0x4 DUP1 CALLDATASIZE SUB DUP2 ADD SWAP1 PUSH2 0xB4 SWAP2 SWAP1 PUSH2 0x182 JUMP JUMPDEST PUSH2 0x12C JUMP JUMPDEST PUSH1 0x40 MLOAD PUSH2 0xC6 SWAP2 SWAP1 PUSH2 0x1DC JUMP JUMPDEST PUSH1 0x40 MLOAD DUP1 SWAP2 SUB SWAP1 RETURN JUMPDEST PUSH2 0xD7 PUSH2 0x15A JUMP JUMPDEST PUSH1 0x40 MLOAD PUSH2 0xE4 SWAP2 SWAP1 PUSH2 0x212 JUMP JUMPDEST PUSH1 0x40 MLOAD DUP1 SWAP2 SUB SWAP1 RETURN JUMPDEST PUSH1 0x0 DUP1 SLOAD SWAP1 PUSH2 0x100 EXP SWAP1 DIV PUSH1 0xF0 SHL DUP2 JUMP JUMPDEST PUSH1 0x0 DUP1 PUSH1 0x0 SWAP1 SLOAD SWAP1 PUSH2 0x100 EXP SWAP1 DIV PUSH1 0xF0 SHL DUP3 PUSH1 0x2 DUP2 LT PUSH2 0x121 JUMPI PUSH2 0x120 PUSH2 0x2BB JUMP JUMPDEST JUMPDEST BYTE PUSH1 0xF8 SHL SWAP1 POP SWAP2 SWAP1 POP JUMP JUMPDEST PUSH1 0x0 DUP1 PUSH1 0x2 SWAP1 SLOAD SWAP1 PUSH2 0x100 EXP SWAP1 DIV PUSH1 0xE8 SHL DUP3 PUSH1 0x3 DUP2 LT PUSH2 0x14F JUMPI PUSH2 0x14E PUSH2 0x2BB JUMP JUMPDEST JUMPDEST BYTE PUSH1 0xF8 SHL SWAP1 POP SWAP2 SWAP1 POP JUMP JUMPDEST PUSH1 0x0 PUSH1 0x2 SWAP1 SLOAD SWAP1 PUSH2 0x100 EXP SWAP1 DIV PUSH1 0xE8 SHL DUP2 JUMP JUMPDEST PUSH1 0x0 DUP2 CALLDATALOAD SWAP1 POP PUSH2 0x17C DUP2 PUSH2 0x2EF JUMP JUMPDEST SWAP3 SWAP2 POP POP JUMP JUMPDEST PUSH1 0x0 PUSH1 0x20 DUP3 DUP5 SUB SLT ISZERO PUSH2 0x198 JUMPI PUSH2 0x197 PUSH2 0x2EA JUMP JUMPDEST JUMPDEST PUSH1 0x0 PUSH2 0x1A6 DUP5 DUP3 DUP6 ADD PUSH2 0x16D JUMP JUMPDEST SWAP2 POP POP SWAP3 SWAP2 POP POP JUMP JUMPDEST PUSH2 0x1B8 DUP2 PUSH2 0x22D JUMP JUMPDEST DUP3 MSTORE POP POP JUMP JUMPDEST PUSH2 0x1C7 DUP2 PUSH2 0x259 JUMP JUMPDEST DUP3 MSTORE POP POP JUMP JUMPDEST PUSH2 0x1D6 DUP2 PUSH2 0x285 JUMP JUMPDEST DUP3 MSTORE POP POP JUMP JUMPDEST PUSH1 0x0 PUSH1 0x20 DUP3 ADD SWAP1 POP PUSH2 0x1F1 PUSH1 0x0 DUP4 ADD DUP5 PUSH2 0x1AF JUMP JUMPDEST SWAP3 SWAP2 POP POP JUMP JUMPDEST PUSH1 0x0 PUSH1 0x20 DUP3 ADD SWAP1 POP PUSH2 0x20C PUSH1 0x0 DUP4 ADD DUP5 PUSH2 0x1BE JUMP JUMPDEST SWAP3 SWAP2 POP POP JUMP JUMPDEST PUSH1 0x0 PUSH1 0x20 DUP3 ADD SWAP1 POP PUSH2 0x227 PUSH1 0x0 DUP4 ADD DUP5 PUSH2 0x1CD JUMP JUMPDEST SWAP3 SWAP2 POP POP JUMP JUMPDEST PUSH1 0x0 PUSH32 0xFF00000000000000000000000000000000000000000000000000000000000000 DUP3 AND SWAP1 POP SWAP2 SWAP1 POP JUMP JUMPDEST PUSH1 0x0 PUSH32 0xFFFF000000000000000000000000000000000000000000000000000000000000 DUP3 AND SWAP1 POP SWAP2 SWAP1 POP JUMP JUMPDEST PUSH1 0x0 PUSH32 0xFFFFFF0000000000000000000000000000000000000000000000000000000000 DUP3 AND SWAP1 POP SWAP2 SWAP1 POP JUMP JUMPDEST PUSH1 0x0 DUP2 SWAP1 POP SWAP2 SWAP1 POP JUMP JUMPDEST PUSH32 0x4E487B7100000000000000000000000000000000000000000000000000000000 PUSH1 0x0 MSTORE PUSH1 0x32 PUSH1 0x4 MSTORE PUSH1 0x24 PUSH1 0x0 REVERT JUMPDEST PUSH1 0x0 DUP1 REVERT JUMPDEST PUSH2 0x2F8 DUP2 PUSH2 0x2B1 JUMP JUMPDEST DUP2 EQ PUSH2 0x303 JUMPI PUSH1 0x0 DUP1 REVERT JUMPDEST POP JUMP INVALID LOG2 PUSH5 0x6970667358 0x22 SLT KECCAK256 0xE0 EXTCODEHASH 0xB7 0x2D SHR 0x1F EXP PUSH9 0xABEDC94A6AF4CE203D DUP3 MLOAD EXTCODEHASH PUSH2 0xBE23 BLOCKHASH KECCAK256 DUP16 0x4F SGT 0x21 EXTCODECOPY 0xF7 0xDE PUSH5 0x736F6C6343 STOP ADDMOD SMOD STOP CALLER "
				},
				"gasEstimates": {
					"creation": {
						"codeDepositCost": "165600",
						"executionCost": "48792",
						"totalCost": "214392"
					},
					"external": {
						"b2()": "2446",
						"b3()": "2565",
						"getter_b2(uint256)": "2779",
						"getter_b3(uint256)": "2851"
					}
				},
				"methodIdentifiers": {
					"b2()": "0add6ef2",
					"b3()": "e9b61909",
					"getter_b2(uint256)": "b7504834",
					"getter_b3(uint256)": "b985742f"
				}
			},
			"storageLayout": {
				"storage": [
					{
						"astId": 4,
						"contract": "contracts/09_Static_Bytes_Array.sol:bytes_array",
						"label": "b2",
						"offset": 0,
						"slot": "0",
						"type": "t_bytes2"
					},
					{
						"astId": 7,
						"contract": "contracts/09_Static_Bytes_Array.sol:bytes_array",
						"label": "b3",
						"offset": 2,
						"slot": "0",
						"type": "t_bytes3"
					}
				],
				"types": {
					"t_bytes2": {
						"encoding": "inplace",
						"label": "bytes2",
						"numberOfBytes": "2"
					},
					"t_bytes3": {
						"encoding": "inplace",
						"label": "bytes3",
						"numberOfBytes": "3"
					}
				}
			},
			"userdoc": {
				"kind": "user",
				"methods": {},
				"version": 1
			}
		}
	}
}