{
	"contracts/12_If_else_if_else.sol": {
		"condition": {
			"abi": [
				{
					"inputs": [
						{
							"internalType": "int256",
							"name": "new_num",
							"type": "int256"
						}
					],
					"name": "change_num",
					"outputs": [],
					"stateMutability": "nonpayable",
					"type": "function"
				},
				{
					"inputs": [
						{
							"internalType": "int256",
							"name": "new_num",
							"type": "int256"
						}
					],
					"name": "check_with_num",
					"outputs": [
						{
							"internalType": "string",
							"name": "",
							"type": "string"
						}
					],
					"stateMutability": "view",
					"type": "function"
				}
			],
			"devdoc": {
				"kind": "dev",
				"methods": {},
				"version": 1
			},
			"evm": {
				"assembly": "    /* \"contracts/12_If_else_if_else.sol\":80:530  contract condition\r... */\n  mstore(0x40, 0x80)\n    /* \"contracts/12_If_else_if_else.sol\":117:118  0 */\n  0x00\n    /* \"contracts/12_If_else_if_else.sol\":107:118  int num = 0 */\n  dup1\n  sstore\n    /* \"contracts/12_If_else_if_else.sol\":80:530  contract condition\r... */\n  callvalue\n  dup1\n  iszero\n  tag_1\n  jumpi\n  0x00\n  dup1\n  revert\ntag_1:\n  pop\n  dataSize(sub_0)\n  dup1\n  dataOffset(sub_0)\n  0x00\n  codecopy\n  0x00\n  return\nstop\n\nsub_0: assembly {\n        /* \"contracts/12_If_else_if_else.sol\":80:530  contract condition\r... */\n      mstore(0x40, 0x80)\n      callvalue\n      dup1\n      iszero\n      tag_1\n      jumpi\n      0x00\n      dup1\n      revert\n    tag_1:\n      pop\n      jumpi(tag_2, lt(calldatasize, 0x04))\n      shr(0xe0, calldataload(0x00))\n      dup1\n      0xe2aa9034\n      eq\n      tag_3\n      jumpi\n      dup1\n      0xf5b8b334\n      eq\n      tag_4\n      jumpi\n    tag_2:\n      0x00\n      dup1\n      revert\n        /* \"contracts/12_If_else_if_else.sol\":212:527  function check_with_num(int new_num) public view returns(string memory)\r... */\n    tag_3:\n      tag_5\n      0x04\n      dup1\n      calldatasize\n      sub\n      dup2\n      add\n      swap1\n      tag_6\n      swap2\n      swap1\n      tag_7\n      jump\t// in\n    tag_6:\n      tag_8\n      jump\t// in\n    tag_5:\n      mload(0x40)\n      tag_9\n      swap2\n      swap1\n      tag_10\n      jump\t// in\n    tag_9:\n      mload(0x40)\n      dup1\n      swap2\n      sub\n      swap1\n      return\n        /* \"contracts/12_If_else_if_else.sol\":127:204  function change_num(int new_num) public\r... */\n    tag_4:\n      tag_11\n      0x04\n      dup1\n      calldatasize\n      sub\n      dup2\n      add\n      swap1\n      tag_12\n      swap2\n      swap1\n      tag_7\n      jump\t// in\n    tag_12:\n      tag_13\n      jump\t// in\n    tag_11:\n      stop\n        /* \"contracts/12_If_else_if_else.sol\":212:527  function check_with_num(int new_num) public view returns(string memory)\r... */\n    tag_8:\n        /* \"contracts/12_If_else_if_else.sol\":269:282  string memory */\n      0x60\n        /* \"contracts/12_If_else_if_else.sol\":300:317  string memory res */\n      0x00\n        /* \"contracts/12_If_else_if_else.sol\":300:322  string memory res = \"\" */\n      mload(0x40)\n      dup1\n      0x20\n      add\n      0x40\n      mstore\n      dup1\n      0x00\n      dup2\n      mstore\n      pop\n      swap1\n      pop\n        /* \"contracts/12_If_else_if_else.sol\":344:347  num */\n      sload(0x00)\n        /* \"contracts/12_If_else_if_else.sol\":336:343  new_num */\n      dup4\n        /* \"contracts/12_If_else_if_else.sol\":336:347  new_num>num */\n      sgt\n        /* \"contracts/12_If_else_if_else.sol\":333:520  if(new_num>num)\r... */\n      iszero\n      tag_15\n      jumpi\n        /* \"contracts/12_If_else_if_else.sol\":373:388  res = \"Greater\" */\n      mload(0x40)\n      dup1\n      0x40\n      add\n      0x40\n      mstore\n      dup1\n      0x07\n      dup2\n      mstore\n      0x20\n      add\n      0x4772656174657200000000000000000000000000000000000000000000000000\n      dup2\n      mstore\n      pop\n      swap1\n      pop\n        /* \"contracts/12_If_else_if_else.sol\":333:520  if(new_num>num)\r... */\n      jump(tag_16)\n    tag_15:\n        /* \"contracts/12_If_else_if_else.sol\":426:429  num */\n      sload(0x00)\n        /* \"contracts/12_If_else_if_else.sol\":418:425  new_num */\n      dup4\n        /* \"contracts/12_If_else_if_else.sol\":418:429  new_num<num */\n      slt\n        /* \"contracts/12_If_else_if_else.sol\":415:520  if(new_num<num)\r... */\n      iszero\n      tag_17\n      jumpi\n        /* \"contracts/12_If_else_if_else.sol\":455:470  res = \"Smaller\" */\n      mload(0x40)\n      dup1\n      0x40\n      add\n      0x40\n      mstore\n      dup1\n      0x07\n      dup2\n      mstore\n      0x20\n      add\n      0x536d616c6c657200000000000000000000000000000000000000000000000000\n      dup2\n      mstore\n      pop\n      swap1\n      pop\n        /* \"contracts/12_If_else_if_else.sol\":415:520  if(new_num<num)\r... */\n      jump(tag_18)\n    tag_17:\n    tag_18:\n        /* \"contracts/12_If_else_if_else.sol\":333:520  if(new_num>num)\r... */\n    tag_16:\n        /* \"contracts/12_If_else_if_else.sol\":289:527  {\r... */\n      pop\n        /* \"contracts/12_If_else_if_else.sol\":212:527  function check_with_num(int new_num) public view returns(string memory)\r... */\n      swap2\n      swap1\n      pop\n      jump\t// out\n        /* \"contracts/12_If_else_if_else.sol\":127:204  function change_num(int new_num) public\r... */\n    tag_13:\n        /* \"contracts/12_If_else_if_else.sol\":189:196  new_num */\n      dup1\n        /* \"contracts/12_If_else_if_else.sol\":183:186  num */\n      0x00\n        /* \"contracts/12_If_else_if_else.sol\":183:196  num = new_num */\n      dup2\n      swap1\n      sstore\n      pop\n        /* \"contracts/12_If_else_if_else.sol\":127:204  function change_num(int new_num) public\r... */\n      pop\n      jump\t// out\n        /* \"#utility.yul\":7:144   */\n    tag_21:\n        /* \"#utility.yul\":52:57   */\n      0x00\n        /* \"#utility.yul\":90:96   */\n      dup2\n        /* \"#utility.yul\":77:97   */\n      calldataload\n        /* \"#utility.yul\":68:97   */\n      swap1\n      pop\n        /* \"#utility.yul\":106:138   */\n      tag_23\n        /* \"#utility.yul\":132:137   */\n      dup2\n        /* \"#utility.yul\":106:138   */\n      tag_24\n      jump\t// in\n    tag_23:\n        /* \"#utility.yul\":7:144   */\n      swap3\n      swap2\n      pop\n      pop\n      jump\t// out\n        /* \"#utility.yul\":150:477   */\n    tag_7:\n        /* \"#utility.yul\":208:214   */\n      0x00\n        /* \"#utility.yul\":257:259   */\n      0x20\n        /* \"#utility.yul\":245:254   */\n      dup3\n        /* \"#utility.yul\":236:243   */\n      dup5\n        /* \"#utility.yul\":232:255   */\n      sub\n        /* \"#utility.yul\":228:260   */\n      slt\n        /* \"#utility.yul\":225:344   */\n      iszero\n      tag_26\n      jumpi\n        /* \"#utility.yul\":263:342   */\n      tag_27\n      tag_28\n      jump\t// in\n    tag_27:\n        /* \"#utility.yul\":225:344   */\n    tag_26:\n        /* \"#utility.yul\":383:384   */\n      0x00\n        /* \"#utility.yul\":408:460   */\n      tag_29\n        /* \"#utility.yul\":452:459   */\n      dup5\n        /* \"#utility.yul\":443:449   */\n      dup3\n        /* \"#utility.yul\":432:441   */\n      dup6\n        /* \"#utility.yul\":428:450   */\n      add\n        /* \"#utility.yul\":408:460   */\n      tag_21\n      jump\t// in\n    tag_29:\n        /* \"#utility.yul\":398:460   */\n      swap2\n      pop\n        /* \"#utility.yul\":354:470   */\n      pop\n        /* \"#utility.yul\":150:477   */\n      swap3\n      swap2\n      pop\n      pop\n      jump\t// out\n        /* \"#utility.yul\":483:847   */\n    tag_30:\n        /* \"#utility.yul\":571:574   */\n      0x00\n        /* \"#utility.yul\":599:638   */\n      tag_32\n        /* \"#utility.yul\":632:637   */\n      dup3\n        /* \"#utility.yul\":599:638   */\n      tag_33\n      jump\t// in\n    tag_32:\n        /* \"#utility.yul\":654:725   */\n      tag_34\n        /* \"#utility.yul\":718:724   */\n      dup2\n        /* \"#utility.yul\":713:716   */\n      dup6\n        /* \"#utility.yul\":654:725   */\n      tag_35\n      jump\t// in\n    tag_34:\n        /* \"#utility.yul\":647:725   */\n      swap4\n      pop\n        /* \"#utility.yul\":734:786   */\n      tag_36\n        /* \"#utility.yul\":779:785   */\n      dup2\n        /* \"#utility.yul\":774:777   */\n      dup6\n        /* \"#utility.yul\":767:771   */\n      0x20\n        /* \"#utility.yul\":760:765   */\n      dup7\n        /* \"#utility.yul\":756:772   */\n      add\n        /* \"#utility.yul\":734:786   */\n      tag_37\n      jump\t// in\n    tag_36:\n        /* \"#utility.yul\":811:840   */\n      tag_38\n        /* \"#utility.yul\":833:839   */\n      dup2\n        /* \"#utility.yul\":811:840   */\n      tag_39\n      jump\t// in\n    tag_38:\n        /* \"#utility.yul\":806:809   */\n      dup5\n        /* \"#utility.yul\":802:841   */\n      add\n        /* \"#utility.yul\":795:841   */\n      swap2\n      pop\n        /* \"#utility.yul\":575:847   */\n      pop\n        /* \"#utility.yul\":483:847   */\n      swap3\n      swap2\n      pop\n      pop\n      jump\t// out\n        /* \"#utility.yul\":853:1166   */\n    tag_10:\n        /* \"#utility.yul\":966:970   */\n      0x00\n        /* \"#utility.yul\":1004:1006   */\n      0x20\n        /* \"#utility.yul\":993:1002   */\n      dup3\n        /* \"#utility.yul\":989:1007   */\n      add\n        /* \"#utility.yul\":981:1007   */\n      swap1\n      pop\n        /* \"#utility.yul\":1053:1062   */\n      dup2\n        /* \"#utility.yul\":1047:1051   */\n      dup2\n        /* \"#utility.yul\":1043:1063   */\n      sub\n        /* \"#utility.yul\":1039:1040   */\n      0x00\n        /* \"#utility.yul\":1028:1037   */\n      dup4\n        /* \"#utility.yul\":1024:1041   */\n      add\n        /* \"#utility.yul\":1017:1064   */\n      mstore\n        /* \"#utility.yul\":1081:1159   */\n      tag_41\n        /* \"#utility.yul\":1154:1158   */\n      dup2\n        /* \"#utility.yul\":1145:1151   */\n      dup5\n        /* \"#utility.yul\":1081:1159   */\n      tag_30\n      jump\t// in\n    tag_41:\n        /* \"#utility.yul\":1073:1159   */\n      swap1\n      pop\n        /* \"#utility.yul\":853:1166   */\n      swap3\n      swap2\n      pop\n      pop\n      jump\t// out\n        /* \"#utility.yul\":1253:1352   */\n    tag_33:\n        /* \"#utility.yul\":1305:1311   */\n      0x00\n        /* \"#utility.yul\":1339:1344   */\n      dup2\n        /* \"#utility.yul\":1333:1345   */\n      mload\n        /* \"#utility.yul\":1323:1345   */\n      swap1\n      pop\n        /* \"#utility.yul\":1253:1352   */\n      swap2\n      swap1\n      pop\n      jump\t// out\n        /* \"#utility.yul\":1358:1527   */\n    tag_35:\n        /* \"#utility.yul\":1442:1453   */\n      0x00\n        /* \"#utility.yul\":1476:1482   */\n      dup3\n        /* \"#utility.yul\":1471:1474   */\n      dup3\n        /* \"#utility.yul\":1464:1483   */\n      mstore\n        /* \"#utility.yul\":1516:1520   */\n      0x20\n        /* \"#utility.yul\":1511:1514   */\n      dup3\n        /* \"#utility.yul\":1507:1521   */\n      add\n        /* \"#utility.yul\":1492:1521   */\n      swap1\n      pop\n        /* \"#utility.yul\":1358:1527   */\n      swap3\n      swap2\n      pop\n      pop\n      jump\t// out\n        /* \"#utility.yul\":1533:1609   */\n    tag_46:\n        /* \"#utility.yul\":1569:1576   */\n      0x00\n        /* \"#utility.yul\":1598:1603   */\n      dup2\n        /* \"#utility.yul\":1587:1603   */\n      swap1\n      pop\n        /* \"#utility.yul\":1533:1609   */\n      swap2\n      swap1\n      pop\n      jump\t// out\n        /* \"#utility.yul\":1615:1922   */\n    tag_37:\n        /* \"#utility.yul\":1683:1684   */\n      0x00\n        /* \"#utility.yul\":1693:1806   */\n    tag_49:\n        /* \"#utility.yul\":1707:1713   */\n      dup4\n        /* \"#utility.yul\":1704:1705   */\n      dup2\n        /* \"#utility.yul\":1701:1714   */\n      lt\n        /* \"#utility.yul\":1693:1806   */\n      iszero\n      tag_51\n      jumpi\n        /* \"#utility.yul\":1792:1793   */\n      dup1\n        /* \"#utility.yul\":1787:1790   */\n      dup3\n        /* \"#utility.yul\":1783:1794   */\n      add\n        /* \"#utility.yul\":1777:1795   */\n      mload\n        /* \"#utility.yul\":1773:1774   */\n      dup2\n        /* \"#utility.yul\":1768:1771   */\n      dup5\n        /* \"#utility.yul\":1764:1775   */\n      add\n        /* \"#utility.yul\":1757:1796   */\n      mstore\n        /* \"#utility.yul\":1729:1731   */\n      0x20\n        /* \"#utility.yul\":1726:1727   */\n      dup2\n        /* \"#utility.yul\":1722:1732   */\n      add\n        /* \"#utility.yul\":1717:1732   */\n      swap1\n      pop\n        /* \"#utility.yul\":1693:1806   */\n      jump(tag_49)\n    tag_51:\n        /* \"#utility.yul\":1824:1830   */\n      dup4\n        /* \"#utility.yul\":1821:1822   */\n      dup2\n        /* \"#utility.yul\":1818:1831   */\n      gt\n        /* \"#utility.yul\":1815:1916   */\n      iszero\n      tag_52\n      jumpi\n        /* \"#utility.yul\":1904:1905   */\n      0x00\n        /* \"#utility.yul\":1895:1901   */\n      dup5\n        /* \"#utility.yul\":1890:1893   */\n      dup5\n        /* \"#utility.yul\":1886:1902   */\n      add\n        /* \"#utility.yul\":1879:1906   */\n      mstore\n        /* \"#utility.yul\":1815:1916   */\n    tag_52:\n        /* \"#utility.yul\":1664:1922   */\n      pop\n        /* \"#utility.yul\":1615:1922   */\n      pop\n      pop\n      pop\n      jump\t// out\n        /* \"#utility.yul\":2051:2168   */\n    tag_28:\n        /* \"#utility.yul\":2160:2161   */\n      0x00\n        /* \"#utility.yul\":2157:2158   */\n      dup1\n        /* \"#utility.yul\":2150:2162   */\n      revert\n        /* \"#utility.yul\":2174:2276   */\n    tag_39:\n        /* \"#utility.yul\":2215:2221   */\n      0x00\n        /* \"#utility.yul\":2266:2268   */\n      0x1f\n        /* \"#utility.yul\":2262:2269   */\n      not\n        /* \"#utility.yul\":2257:2259   */\n      0x1f\n        /* \"#utility.yul\":2250:2255   */\n      dup4\n        /* \"#utility.yul\":2246:2260   */\n      add\n        /* \"#utility.yul\":2242:2270   */\n      and\n        /* \"#utility.yul\":2232:2270   */\n      swap1\n      pop\n        /* \"#utility.yul\":2174:2276   */\n      swap2\n      swap1\n      pop\n      jump\t// out\n        /* \"#utility.yul\":2282:2402   */\n    tag_24:\n        /* \"#utility.yul\":2354:2377   */\n      tag_58\n        /* \"#utility.yul\":2371:2376   */\n      dup2\n        /* \"#utility.yul\":2354:2377   */\n      tag_46\n      jump\t// in\n    tag_58:\n        /* \"#utility.yul\":2347:2352   */\n      dup2\n        /* \"#utility.yul\":2344:2378   */\n      eq\n        /* \"#utility.yul\":2334:2396   */\n      tag_59\n      jumpi\n        /* \"#utility.yul\":2392:2393   */\n      0x00\n        /* \"#utility.yul\":2389:2390   */\n      dup1\n        /* \"#utility.yul\":2382:2394   */\n      revert\n        /* \"#utility.yul\":2334:2396   */\n    tag_59:\n        /* \"#utility.yul\":2282:2402   */\n      pop\n      jump\t// out\n\n    auxdata: 0xa26469706673582212205a1511989354fba1ffe934583a8de5fcf44f4b5667f9ae5a47d18635f98b56ec64736f6c63430008070033\n}\n",
				"bytecode": {
					"linkReferences": {},
					"object": "60806040526000805534801561001457600080fd5b50610296806100246000396000f3fe608060405234801561001057600080fd5b50600436106100365760003560e01c8063e2aa90341461003b578063f5b8b3341461006b575b600080fd5b61005560048036038101906100509190610152565b610087565b60405161006291906101b8565b60405180910390f35b61008560048036038101906100809190610152565b610133565b005b606060006040518060200160405280600081525090506000548313156100e4576040518060400160405280600781526020017f4772656174657200000000000000000000000000000000000000000000000000815250905061012d565b60005483121561012b576040518060400160405280600781526020017f536d616c6c657200000000000000000000000000000000000000000000000000815250905061012c565b5b5b50919050565b8060008190555050565b60008135905061014c81610249565b92915050565b60006020828403121561016857610167610233565b5b60006101768482850161013d565b91505092915050565b600061018a826101da565b61019481856101e5565b93506101a4818560208601610200565b6101ad81610238565b840191505092915050565b600060208201905081810360008301526101d2818461017f565b905092915050565b600081519050919050565b600082825260208201905092915050565b6000819050919050565b60005b8381101561021e578082015181840152602081019050610203565b8381111561022d576000848401525b50505050565b600080fd5b6000601f19601f8301169050919050565b610252816101f6565b811461025d57600080fd5b5056fea26469706673582212205a1511989354fba1ffe934583a8de5fcf44f4b5667f9ae5a47d18635f98b56ec64736f6c63430008070033",
					"opcodes": "PUSH1 0x80 PUSH1 0x40 MSTORE PUSH1 0x0 DUP1 SSTORE CALLVALUE DUP1 ISZERO PUSH2 0x14 JUMPI PUSH1 0x0 DUP1 REVERT JUMPDEST POP PUSH2 0x296 DUP1 PUSH2 0x24 PUSH1 0x0 CODECOPY PUSH1 0x0 RETURN INVALID PUSH1 0x80 PUSH1 0x40 MSTORE CALLVALUE DUP1 ISZERO PUSH2 0x10 JUMPI PUSH1 0x0 DUP1 REVERT JUMPDEST POP PUSH1 0x4 CALLDATASIZE LT PUSH2 0x36 JUMPI PUSH1 0x0 CALLDATALOAD PUSH1 0xE0 SHR DUP1 PUSH4 0xE2AA9034 EQ PUSH2 0x3B JUMPI DUP1 PUSH4 0xF5B8B334 EQ PUSH2 0x6B JUMPI JUMPDEST PUSH1 0x0 DUP1 REVERT JUMPDEST PUSH2 0x55 PUSH1 0x4 DUP1 CALLDATASIZE SUB DUP2 ADD SWAP1 PUSH2 0x50 SWAP2 SWAP1 PUSH2 0x152 JUMP JUMPDEST PUSH2 0x87 JUMP JUMPDEST PUSH1 0x40 MLOAD PUSH2 0x62 SWAP2 SWAP1 PUSH2 0x1B8 JUMP JUMPDEST PUSH1 0x40 MLOAD DUP1 SWAP2 SUB SWAP1 RETURN JUMPDEST PUSH2 0x85 PUSH1 0x4 DUP1 CALLDATASIZE SUB DUP2 ADD SWAP1 PUSH2 0x80 SWAP2 SWAP1 PUSH2 0x152 JUMP JUMPDEST PUSH2 0x133 JUMP JUMPDEST STOP JUMPDEST PUSH1 0x60 PUSH1 0x0 PUSH1 0x40 MLOAD DUP1 PUSH1 0x20 ADD PUSH1 0x40 MSTORE DUP1 PUSH1 0x0 DUP2 MSTORE POP SWAP1 POP PUSH1 0x0 SLOAD DUP4 SGT ISZERO PUSH2 0xE4 JUMPI PUSH1 0x40 MLOAD DUP1 PUSH1 0x40 ADD PUSH1 0x40 MSTORE DUP1 PUSH1 0x7 DUP2 MSTORE PUSH1 0x20 ADD PUSH32 0x4772656174657200000000000000000000000000000000000000000000000000 DUP2 MSTORE POP SWAP1 POP PUSH2 0x12D JUMP JUMPDEST PUSH1 0x0 SLOAD DUP4 SLT ISZERO PUSH2 0x12B JUMPI PUSH1 0x40 MLOAD DUP1 PUSH1 0x40 ADD PUSH1 0x40 MSTORE DUP1 PUSH1 0x7 DUP2 MSTORE PUSH1 0x20 ADD PUSH32 0x536D616C6C657200000000000000000000000000000000000000000000000000 DUP2 MSTORE POP SWAP1 POP PUSH2 0x12C JUMP JUMPDEST JUMPDEST JUMPDEST POP SWAP2 SWAP1 POP JUMP JUMPDEST DUP1 PUSH1 0x0 DUP2 SWAP1 SSTORE POP POP JUMP JUMPDEST PUSH1 0x0 DUP2 CALLDATALOAD SWAP1 POP PUSH2 0x14C DUP2 PUSH2 0x249 JUMP JUMPDEST SWAP3 SWAP2 POP POP JUMP JUMPDEST PUSH1 0x0 PUSH1 0x20 DUP3 DUP5 SUB SLT ISZERO PUSH2 0x168 JUMPI PUSH2 0x167 PUSH2 0x233 JUMP JUMPDEST JUMPDEST PUSH1 0x0 PUSH2 0x176 DUP5 DUP3 DUP6 ADD PUSH2 0x13D JUMP JUMPDEST SWAP2 POP POP SWAP3 SWAP2 POP POP JUMP JUMPDEST PUSH1 0x0 PUSH2 0x18A DUP3 PUSH2 0x1DA JUMP JUMPDEST PUSH2 0x194 DUP2 DUP6 PUSH2 0x1E5 JUMP JUMPDEST SWAP4 POP PUSH2 0x1A4 DUP2 DUP6 PUSH1 0x20 DUP7 ADD PUSH2 0x200 JUMP JUMPDEST PUSH2 0x1AD DUP2 PUSH2 0x238 JUMP JUMPDEST DUP5 ADD SWAP2 POP POP SWAP3 SWAP2 POP POP JUMP JUMPDEST PUSH1 0x0 PUSH1 0x20 DUP3 ADD SWAP1 POP DUP2 DUP2 SUB PUSH1 0x0 DUP4 ADD MSTORE PUSH2 0x1D2 DUP2 DUP5 PUSH2 0x17F JUMP JUMPDEST SWAP1 POP SWAP3 SWAP2 POP POP JUMP JUMPDEST PUSH1 0x0 DUP2 MLOAD SWAP1 POP SWAP2 SWAP1 POP JUMP JUMPDEST PUSH1 0x0 DUP3 DUP3 MSTORE PUSH1 0x20 DUP3 ADD SWAP1 POP SWAP3 SWAP2 POP POP JUMP JUMPDEST PUSH1 0x0 DUP2 SWAP1 POP SWAP2 SWAP1 POP JUMP JUMPDEST PUSH1 0x0 JUMPDEST DUP4 DUP2 LT ISZERO PUSH2 0x21E JUMPI DUP1 DUP3 ADD MLOAD DUP2 DUP5 ADD MSTORE PUSH1 0x20 DUP2 ADD SWAP1 POP PUSH2 0x203 JUMP JUMPDEST DUP4 DUP2 GT ISZERO PUSH2 0x22D JUMPI PUSH1 0x0 DUP5 DUP5 ADD MSTORE JUMPDEST POP POP POP POP JUMP JUMPDEST PUSH1 0x0 DUP1 REVERT JUMPDEST PUSH1 0x0 PUSH1 0x1F NOT PUSH1 0x1F DUP4 ADD AND SWAP1 POP SWAP2 SWAP1 POP JUMP JUMPDEST PUSH2 0x252 DUP2 PUSH2 0x1F6 JUMP JUMPDEST DUP2 EQ PUSH2 0x25D JUMPI PUSH1 0x0 DUP1 REVERT JUMPDEST POP JUMP INVALID LOG2 PUSH5 0x6970667358 0x22 SLT KECCAK256 GAS ISZERO GT SWAP9 SWAP4 SLOAD 0xFB LOG1 SELFDESTRUCT 0xE9 CALLVALUE PC GASPRICE DUP14 0xE5 0xFC DELEGATECALL 0x4F 0x4B JUMP PUSH8 0xF9AE5A47D18635F9 DUP12 JUMP 0xEC PUSH5 0x736F6C6343 STOP ADDMOD SMOD STOP CALLER "
				},
				"gasEstimates": {
					"creation": {
						"codeDepositCost": "132400",
						"executionCost": "5183",
						"totalCost": "137583"
					},
					"external": {
						"change_num(int256)": "22520",
						"check_with_num(int256)": "infinite"
					}
				},
				"methodIdentifiers": {
					"change_num(int256)": "f5b8b334",
					"check_with_num(int256)": "e2aa9034"
				}
			},
			"storageLayout": {
				"storage": [
					{
						"astId": 4,
						"contract": "contracts/12_If_else_if_else.sol:condition",
						"label": "num",
						"offset": 0,
						"slot": "0",
						"type": "t_int256"
					}
				],
				"types": {
					"t_int256": {
						"encoding": "inplace",
						"label": "int256",
						"numberOfBytes": "32"
					}
				}
			},
			"userdoc": {
				"kind": "user",
				"methods": {},
				"version": 1
			}
		}
	}
}