{
	"contracts/12_If_else_if_else.sol": {
		"condition": {
			"abi": [
				{
					"inputs": [
						{
							"internalType": "int256",
							"name": "new_num",
							"type": "int256"
						}
					],
					"name": "change_num",
					"outputs": [],
					"stateMutability": "nonpayable",
					"type": "function"
				},
				{
					"inputs": [
						{
							"internalType": "int256",
							"name": "new_num",
							"type": "int256"
						}
					],
					"name": "check_with_num",
					"outputs": [
						{
							"internalType": "string",
							"name": "",
							"type": "string"
						}
					],
					"stateMutability": "view",
					"type": "function"
				},
				{
					"inputs": [],
					"name": "num",
					"outputs": [
						{
							"internalType": "int256",
							"name": "",
							"type": "int256"
						}
					],
					"stateMutability": "view",
					"type": "function"
				}
			],
			"devdoc": {
				"kind": "dev",
				"methods": {},
				"version": 1
			},
			"evm": {
				"assembly": "    /* \"contracts/12_If_else_if_else.sol\":80:628  contract condition\r... */\n  mstore(0x40, 0x80)\n    /* \"contracts/12_If_else_if_else.sol\":124:125  0 */\n  0x00\n    /* \"contracts/12_If_else_if_else.sol\":107:125  int public num = 0 */\n  dup1\n  sstore\n    /* \"contracts/12_If_else_if_else.sol\":80:628  contract condition\r... */\n  callvalue\n  dup1\n  iszero\n  tag_1\n  jumpi\n  0x00\n  dup1\n  revert\ntag_1:\n  pop\n  dataSize(sub_0)\n  dup1\n  dataOffset(sub_0)\n  0x00\n  codecopy\n  0x00\n  return\nstop\n\nsub_0: assembly {\n        /* \"contracts/12_If_else_if_else.sol\":80:628  contract condition\r... */\n      mstore(0x40, 0x80)\n      callvalue\n      dup1\n      iszero\n      tag_1\n      jumpi\n      0x00\n      dup1\n      revert\n    tag_1:\n      pop\n      jumpi(tag_2, lt(calldatasize, 0x04))\n      shr(0xe0, calldataload(0x00))\n      dup1\n      0x4e70b1dc\n      eq\n      tag_3\n      jumpi\n      dup1\n      0xe2aa9034\n      eq\n      tag_4\n      jumpi\n      dup1\n      0xf5b8b334\n      eq\n      tag_5\n      jumpi\n    tag_2:\n      0x00\n      dup1\n      revert\n        /* \"contracts/12_If_else_if_else.sol\":107:125  int public num = 0 */\n    tag_3:\n      tag_6\n      tag_7\n      jump\t// in\n    tag_6:\n      mload(0x40)\n      tag_8\n      swap2\n      swap1\n      tag_9\n      jump\t// in\n    tag_8:\n      mload(0x40)\n      dup1\n      swap2\n      sub\n      swap1\n      return\n        /* \"contracts/12_If_else_if_else.sol\":261:625  function check_with_num(int new_num) public view returns(string memory)\r... */\n    tag_4:\n      tag_10\n      0x04\n      dup1\n      calldatasize\n      sub\n      dup2\n      add\n      swap1\n      tag_11\n      swap2\n      swap1\n      tag_12\n      jump\t// in\n    tag_11:\n      tag_13\n      jump\t// in\n    tag_10:\n      mload(0x40)\n      tag_14\n      swap2\n      swap1\n      tag_15\n      jump\t// in\n    tag_14:\n      mload(0x40)\n      dup1\n      swap2\n      sub\n      swap1\n      return\n        /* \"contracts/12_If_else_if_else.sol\":134:211  function change_num(int new_num) public\r... */\n    tag_5:\n      tag_16\n      0x04\n      dup1\n      calldatasize\n      sub\n      dup2\n      add\n      swap1\n      tag_17\n      swap2\n      swap1\n      tag_12\n      jump\t// in\n    tag_17:\n      tag_18\n      jump\t// in\n    tag_16:\n      stop\n        /* \"contracts/12_If_else_if_else.sol\":107:125  int public num = 0 */\n    tag_7:\n      sload(0x00)\n      dup2\n      jump\t// out\n        /* \"contracts/12_If_else_if_else.sol\":261:625  function check_with_num(int new_num) public view returns(string memory)\r... */\n    tag_13:\n        /* \"contracts/12_If_else_if_else.sol\":318:331  string memory */\n      0x60\n        /* \"contracts/12_If_else_if_else.sol\":349:366  string memory res */\n      0x00\n        /* \"contracts/12_If_else_if_else.sol\":349:371  string memory res = \"\" */\n      mload(0x40)\n      dup1\n      0x20\n      add\n      0x40\n      mstore\n      dup1\n      0x00\n      dup2\n      mstore\n      pop\n      swap1\n      pop\n        /* \"contracts/12_If_else_if_else.sol\":393:396  num */\n      sload(0x00)\n        /* \"contracts/12_If_else_if_else.sol\":385:392  new_num */\n      dup4\n        /* \"contracts/12_If_else_if_else.sol\":385:396  new_num>num */\n      sgt\n        /* \"contracts/12_If_else_if_else.sol\":382:595  if(new_num>num)\r... */\n      iszero\n      tag_20\n      jumpi\n        /* \"contracts/12_If_else_if_else.sol\":422:437  res = \"Greater\" */\n      mload(0x40)\n      dup1\n      0x40\n      add\n      0x40\n      mstore\n      dup1\n      0x07\n      dup2\n      mstore\n      0x20\n      add\n      0x4772656174657200000000000000000000000000000000000000000000000000\n      dup2\n      mstore\n      pop\n      swap1\n      pop\n        /* \"contracts/12_If_else_if_else.sol\":382:595  if(new_num>num)\r... */\n      jump(tag_21)\n    tag_20:\n        /* \"contracts/12_If_else_if_else.sol\":475:478  num */\n      sload(0x00)\n        /* \"contracts/12_If_else_if_else.sol\":467:474  new_num */\n      dup4\n        /* \"contracts/12_If_else_if_else.sol\":467:478  new_num<num */\n      slt\n        /* \"contracts/12_If_else_if_else.sol\":464:595  if(new_num<num)\r... */\n      iszero\n      tag_22\n      jumpi\n        /* \"contracts/12_If_else_if_else.sol\":504:519  res = \"Smaller\" */\n      mload(0x40)\n      dup1\n      0x40\n      add\n      0x40\n      mstore\n      dup1\n      0x07\n      dup2\n      mstore\n      0x20\n      add\n      0x536d616c6c657200000000000000000000000000000000000000000000000000\n      dup2\n      mstore\n      pop\n      swap1\n      pop\n        /* \"contracts/12_If_else_if_else.sol\":464:595  if(new_num<num)\r... */\n      jump(tag_23)\n    tag_22:\n        /* \"contracts/12_If_else_if_else.sol\":570:583  res = \"Equal\" */\n      mload(0x40)\n      dup1\n      0x40\n      add\n      0x40\n      mstore\n      dup1\n      0x05\n      dup2\n      mstore\n      0x20\n      add\n      0x457175616c000000000000000000000000000000000000000000000000000000\n      dup2\n      mstore\n      pop\n      swap1\n      pop\n        /* \"contracts/12_If_else_if_else.sol\":464:595  if(new_num<num)\r... */\n    tag_23:\n        /* \"contracts/12_If_else_if_else.sol\":382:595  if(new_num>num)\r... */\n    tag_21:\n        /* \"contracts/12_If_else_if_else.sol\":614:617  res */\n      dup1\n        /* \"contracts/12_If_else_if_else.sol\":607:617  return res */\n      swap2\n      pop\n      pop\n        /* \"contracts/12_If_else_if_else.sol\":261:625  function check_with_num(int new_num) public view returns(string memory)\r... */\n      swap2\n      swap1\n      pop\n      jump\t// out\n        /* \"contracts/12_If_else_if_else.sol\":134:211  function change_num(int new_num) public\r... */\n    tag_18:\n        /* \"contracts/12_If_else_if_else.sol\":196:203  new_num */\n      dup1\n        /* \"contracts/12_If_else_if_else.sol\":190:193  num */\n      0x00\n        /* \"contracts/12_If_else_if_else.sol\":190:203  num = new_num */\n      dup2\n      swap1\n      sstore\n      pop\n        /* \"contracts/12_If_else_if_else.sol\":134:211  function change_num(int new_num) public\r... */\n      pop\n      jump\t// out\n        /* \"#utility.yul\":7:144   */\n    tag_26:\n        /* \"#utility.yul\":52:57   */\n      0x00\n        /* \"#utility.yul\":90:96   */\n      dup2\n        /* \"#utility.yul\":77:97   */\n      calldataload\n        /* \"#utility.yul\":68:97   */\n      swap1\n      pop\n        /* \"#utility.yul\":106:138   */\n      tag_28\n        /* \"#utility.yul\":132:137   */\n      dup2\n        /* \"#utility.yul\":106:138   */\n      tag_29\n      jump\t// in\n    tag_28:\n        /* \"#utility.yul\":7:144   */\n      swap3\n      swap2\n      pop\n      pop\n      jump\t// out\n        /* \"#utility.yul\":150:477   */\n    tag_12:\n        /* \"#utility.yul\":208:214   */\n      0x00\n        /* \"#utility.yul\":257:259   */\n      0x20\n        /* \"#utility.yul\":245:254   */\n      dup3\n        /* \"#utility.yul\":236:243   */\n      dup5\n        /* \"#utility.yul\":232:255   */\n      sub\n        /* \"#utility.yul\":228:260   */\n      slt\n        /* \"#utility.yul\":225:344   */\n      iszero\n      tag_31\n      jumpi\n        /* \"#utility.yul\":263:342   */\n      tag_32\n      tag_33\n      jump\t// in\n    tag_32:\n        /* \"#utility.yul\":225:344   */\n    tag_31:\n        /* \"#utility.yul\":383:384   */\n      0x00\n        /* \"#utility.yul\":408:460   */\n      tag_34\n        /* \"#utility.yul\":452:459   */\n      dup5\n        /* \"#utility.yul\":443:449   */\n      dup3\n        /* \"#utility.yul\":432:441   */\n      dup6\n        /* \"#utility.yul\":428:450   */\n      add\n        /* \"#utility.yul\":408:460   */\n      tag_26\n      jump\t// in\n    tag_34:\n        /* \"#utility.yul\":398:460   */\n      swap2\n      pop\n        /* \"#utility.yul\":354:470   */\n      pop\n        /* \"#utility.yul\":150:477   */\n      swap3\n      swap2\n      pop\n      pop\n      jump\t// out\n        /* \"#utility.yul\":483:598   */\n    tag_35:\n        /* \"#utility.yul\":568:591   */\n      tag_37\n        /* \"#utility.yul\":585:590   */\n      dup2\n        /* \"#utility.yul\":568:591   */\n      tag_38\n      jump\t// in\n    tag_37:\n        /* \"#utility.yul\":563:566   */\n      dup3\n        /* \"#utility.yul\":556:592   */\n      mstore\n        /* \"#utility.yul\":483:598   */\n      pop\n      pop\n      jump\t// out\n        /* \"#utility.yul\":604:968   */\n    tag_39:\n        /* \"#utility.yul\":692:695   */\n      0x00\n        /* \"#utility.yul\":720:759   */\n      tag_41\n        /* \"#utility.yul\":753:758   */\n      dup3\n        /* \"#utility.yul\":720:759   */\n      tag_42\n      jump\t// in\n    tag_41:\n        /* \"#utility.yul\":775:846   */\n      tag_43\n        /* \"#utility.yul\":839:845   */\n      dup2\n        /* \"#utility.yul\":834:837   */\n      dup6\n        /* \"#utility.yul\":775:846   */\n      tag_44\n      jump\t// in\n    tag_43:\n        /* \"#utility.yul\":768:846   */\n      swap4\n      pop\n        /* \"#utility.yul\":855:907   */\n      tag_45\n        /* \"#utility.yul\":900:906   */\n      dup2\n        /* \"#utility.yul\":895:898   */\n      dup6\n        /* \"#utility.yul\":888:892   */\n      0x20\n        /* \"#utility.yul\":881:886   */\n      dup7\n        /* \"#utility.yul\":877:893   */\n      add\n        /* \"#utility.yul\":855:907   */\n      tag_46\n      jump\t// in\n    tag_45:\n        /* \"#utility.yul\":932:961   */\n      tag_47\n        /* \"#utility.yul\":954:960   */\n      dup2\n        /* \"#utility.yul\":932:961   */\n      tag_48\n      jump\t// in\n    tag_47:\n        /* \"#utility.yul\":927:930   */\n      dup5\n        /* \"#utility.yul\":923:962   */\n      add\n        /* \"#utility.yul\":916:962   */\n      swap2\n      pop\n        /* \"#utility.yul\":696:968   */\n      pop\n        /* \"#utility.yul\":604:968   */\n      swap3\n      swap2\n      pop\n      pop\n      jump\t// out\n        /* \"#utility.yul\":974:1192   */\n    tag_9:\n        /* \"#utility.yul\":1065:1069   */\n      0x00\n        /* \"#utility.yul\":1103:1105   */\n      0x20\n        /* \"#utility.yul\":1092:1101   */\n      dup3\n        /* \"#utility.yul\":1088:1106   */\n      add\n        /* \"#utility.yul\":1080:1106   */\n      swap1\n      pop\n        /* \"#utility.yul\":1116:1185   */\n      tag_50\n        /* \"#utility.yul\":1182:1183   */\n      0x00\n        /* \"#utility.yul\":1171:1180   */\n      dup4\n        /* \"#utility.yul\":1167:1184   */\n      add\n        /* \"#utility.yul\":1158:1164   */\n      dup5\n        /* \"#utility.yul\":1116:1185   */\n      tag_35\n      jump\t// in\n    tag_50:\n        /* \"#utility.yul\":974:1192   */\n      swap3\n      swap2\n      pop\n      pop\n      jump\t// out\n        /* \"#utility.yul\":1198:1511   */\n    tag_15:\n        /* \"#utility.yul\":1311:1315   */\n      0x00\n        /* \"#utility.yul\":1349:1351   */\n      0x20\n        /* \"#utility.yul\":1338:1347   */\n      dup3\n        /* \"#utility.yul\":1334:1352   */\n      add\n        /* \"#utility.yul\":1326:1352   */\n      swap1\n      pop\n        /* \"#utility.yul\":1398:1407   */\n      dup2\n        /* \"#utility.yul\":1392:1396   */\n      dup2\n        /* \"#utility.yul\":1388:1408   */\n      sub\n        /* \"#utility.yul\":1384:1385   */\n      0x00\n        /* \"#utility.yul\":1373:1382   */\n      dup4\n        /* \"#utility.yul\":1369:1386   */\n      add\n        /* \"#utility.yul\":1362:1409   */\n      mstore\n        /* \"#utility.yul\":1426:1504   */\n      tag_52\n        /* \"#utility.yul\":1499:1503   */\n      dup2\n        /* \"#utility.yul\":1490:1496   */\n      dup5\n        /* \"#utility.yul\":1426:1504   */\n      tag_39\n      jump\t// in\n    tag_52:\n        /* \"#utility.yul\":1418:1504   */\n      swap1\n      pop\n        /* \"#utility.yul\":1198:1511   */\n      swap3\n      swap2\n      pop\n      pop\n      jump\t// out\n        /* \"#utility.yul\":1598:1697   */\n    tag_42:\n        /* \"#utility.yul\":1650:1656   */\n      0x00\n        /* \"#utility.yul\":1684:1689   */\n      dup2\n        /* \"#utility.yul\":1678:1690   */\n      mload\n        /* \"#utility.yul\":1668:1690   */\n      swap1\n      pop\n        /* \"#utility.yul\":1598:1697   */\n      swap2\n      swap1\n      pop\n      jump\t// out\n        /* \"#utility.yul\":1703:1872   */\n    tag_44:\n        /* \"#utility.yul\":1787:1798   */\n      0x00\n        /* \"#utility.yul\":1821:1827   */\n      dup3\n        /* \"#utility.yul\":1816:1819   */\n      dup3\n        /* \"#utility.yul\":1809:1828   */\n      mstore\n        /* \"#utility.yul\":1861:1865   */\n      0x20\n        /* \"#utility.yul\":1856:1859   */\n      dup3\n        /* \"#utility.yul\":1852:1866   */\n      add\n        /* \"#utility.yul\":1837:1866   */\n      swap1\n      pop\n        /* \"#utility.yul\":1703:1872   */\n      swap3\n      swap2\n      pop\n      pop\n      jump\t// out\n        /* \"#utility.yul\":1878:1954   */\n    tag_38:\n        /* \"#utility.yul\":1914:1921   */\n      0x00\n        /* \"#utility.yul\":1943:1948   */\n      dup2\n        /* \"#utility.yul\":1932:1948   */\n      swap1\n      pop\n        /* \"#utility.yul\":1878:1954   */\n      swap2\n      swap1\n      pop\n      jump\t// out\n        /* \"#utility.yul\":1960:2267   */\n    tag_46:\n        /* \"#utility.yul\":2028:2029   */\n      0x00\n        /* \"#utility.yul\":2038:2151   */\n    tag_59:\n        /* \"#utility.yul\":2052:2058   */\n      dup4\n        /* \"#utility.yul\":2049:2050   */\n      dup2\n        /* \"#utility.yul\":2046:2059   */\n      lt\n        /* \"#utility.yul\":2038:2151   */\n      iszero\n      tag_61\n      jumpi\n        /* \"#utility.yul\":2137:2138   */\n      dup1\n        /* \"#utility.yul\":2132:2135   */\n      dup3\n        /* \"#utility.yul\":2128:2139   */\n      add\n        /* \"#utility.yul\":2122:2140   */\n      mload\n        /* \"#utility.yul\":2118:2119   */\n      dup2\n        /* \"#utility.yul\":2113:2116   */\n      dup5\n        /* \"#utility.yul\":2109:2120   */\n      add\n        /* \"#utility.yul\":2102:2141   */\n      mstore\n        /* \"#utility.yul\":2074:2076   */\n      0x20\n        /* \"#utility.yul\":2071:2072   */\n      dup2\n        /* \"#utility.yul\":2067:2077   */\n      add\n        /* \"#utility.yul\":2062:2077   */\n      swap1\n      pop\n        /* \"#utility.yul\":2038:2151   */\n      jump(tag_59)\n    tag_61:\n        /* \"#utility.yul\":2169:2175   */\n      dup4\n        /* \"#utility.yul\":2166:2167   */\n      dup2\n        /* \"#utility.yul\":2163:2176   */\n      gt\n        /* \"#utility.yul\":2160:2261   */\n      iszero\n      tag_62\n      jumpi\n        /* \"#utility.yul\":2249:2250   */\n      0x00\n        /* \"#utility.yul\":2240:2246   */\n      dup5\n        /* \"#utility.yul\":2235:2238   */\n      dup5\n        /* \"#utility.yul\":2231:2247   */\n      add\n        /* \"#utility.yul\":2224:2251   */\n      mstore\n        /* \"#utility.yul\":2160:2261   */\n    tag_62:\n        /* \"#utility.yul\":2009:2267   */\n      pop\n        /* \"#utility.yul\":1960:2267   */\n      pop\n      pop\n      pop\n      jump\t// out\n        /* \"#utility.yul\":2396:2513   */\n    tag_33:\n        /* \"#utility.yul\":2505:2506   */\n      0x00\n        /* \"#utility.yul\":2502:2503   */\n      dup1\n        /* \"#utility.yul\":2495:2507   */\n      revert\n        /* \"#utility.yul\":2519:2621   */\n    tag_48:\n        /* \"#utility.yul\":2560:2566   */\n      0x00\n        /* \"#utility.yul\":2611:2613   */\n      0x1f\n        /* \"#utility.yul\":2607:2614   */\n      not\n        /* \"#utility.yul\":2602:2604   */\n      0x1f\n        /* \"#utility.yul\":2595:2600   */\n      dup4\n        /* \"#utility.yul\":2591:2605   */\n      add\n        /* \"#utility.yul\":2587:2615   */\n      and\n        /* \"#utility.yul\":2577:2615   */\n      swap1\n      pop\n        /* \"#utility.yul\":2519:2621   */\n      swap2\n      swap1\n      pop\n      jump\t// out\n        /* \"#utility.yul\":2627:2747   */\n    tag_29:\n        /* \"#utility.yul\":2699:2722   */\n      tag_68\n        /* \"#utility.yul\":2716:2721   */\n      dup2\n        /* \"#utility.yul\":2699:2722   */\n      tag_38\n      jump\t// in\n    tag_68:\n        /* \"#utility.yul\":2692:2697   */\n      dup2\n        /* \"#utility.yul\":2689:2723   */\n      eq\n        /* \"#utility.yul\":2679:2741   */\n      tag_69\n      jumpi\n        /* \"#utility.yul\":2737:2738   */\n      0x00\n        /* \"#utility.yul\":2734:2735   */\n      dup1\n        /* \"#utility.yul\":2727:2739   */\n      revert\n        /* \"#utility.yul\":2679:2741   */\n    tag_69:\n        /* \"#utility.yul\":2627:2747   */\n      pop\n      jump\t// out\n\n    auxdata: 0xa2646970667358221220d1956163ed37daf28ef96be83e9eb4e8942afa78bdf285c1f60e79ce3958b82e64736f6c63430008070033\n}\n",
				"bytecode": {
					"linkReferences": {},
					"object": "60806040526000805534801561001457600080fd5b5061032a806100246000396000f3fe608060405234801561001057600080fd5b50600436106100415760003560e01c80634e70b1dc14610046578063e2aa903414610064578063f5b8b33414610094575b600080fd5b61004e6100b0565b60405161005b9190610231565b60405180910390f35b61007e600480360381019061007991906101bc565b6100b6565b60405161008b919061024c565b60405180910390f35b6100ae60048036038101906100a991906101bc565b61019d565b005b60005481565b60606000604051806020016040528060008152509050600054831315610113576040518060400160405280600781526020017f47726561746572000000000000000000000000000000000000000000000000008152509050610194565b60005483121561015a576040518060400160405280600781526020017f536d616c6c6572000000000000000000000000000000000000000000000000008152509050610193565b6040518060400160405280600581526020017f457175616c00000000000000000000000000000000000000000000000000000081525090505b5b80915050919050565b8060008190555050565b6000813590506101b6816102dd565b92915050565b6000602082840312156101d2576101d16102c7565b5b60006101e0848285016101a7565b91505092915050565b6101f28161028a565b82525050565b60006102038261026e565b61020d8185610279565b935061021d818560208601610294565b610226816102cc565b840191505092915050565b600060208201905061024660008301846101e9565b92915050565b6000602082019050818103600083015261026681846101f8565b905092915050565b600081519050919050565b600082825260208201905092915050565b6000819050919050565b60005b838110156102b2578082015181840152602081019050610297565b838111156102c1576000848401525b50505050565b600080fd5b6000601f19601f8301169050919050565b6102e68161028a565b81146102f157600080fd5b5056fea2646970667358221220d1956163ed37daf28ef96be83e9eb4e8942afa78bdf285c1f60e79ce3958b82e64736f6c63430008070033",
					"opcodes": "PUSH1 0x80 PUSH1 0x40 MSTORE PUSH1 0x0 DUP1 SSTORE CALLVALUE DUP1 ISZERO PUSH2 0x14 JUMPI PUSH1 0x0 DUP1 REVERT JUMPDEST POP PUSH2 0x32A DUP1 PUSH2 0x24 PUSH1 0x0 CODECOPY PUSH1 0x0 RETURN INVALID PUSH1 0x80 PUSH1 0x40 MSTORE CALLVALUE DUP1 ISZERO PUSH2 0x10 JUMPI PUSH1 0x0 DUP1 REVERT JUMPDEST POP PUSH1 0x4 CALLDATASIZE LT PUSH2 0x41 JUMPI PUSH1 0x0 CALLDATALOAD PUSH1 0xE0 SHR DUP1 PUSH4 0x4E70B1DC EQ PUSH2 0x46 JUMPI DUP1 PUSH4 0xE2AA9034 EQ PUSH2 0x64 JUMPI DUP1 PUSH4 0xF5B8B334 EQ PUSH2 0x94 JUMPI JUMPDEST PUSH1 0x0 DUP1 REVERT JUMPDEST PUSH2 0x4E PUSH2 0xB0 JUMP JUMPDEST PUSH1 0x40 MLOAD PUSH2 0x5B SWAP2 SWAP1 PUSH2 0x231 JUMP JUMPDEST PUSH1 0x40 MLOAD DUP1 SWAP2 SUB SWAP1 RETURN JUMPDEST PUSH2 0x7E PUSH1 0x4 DUP1 CALLDATASIZE SUB DUP2 ADD SWAP1 PUSH2 0x79 SWAP2 SWAP1 PUSH2 0x1BC JUMP JUMPDEST PUSH2 0xB6 JUMP JUMPDEST PUSH1 0x40 MLOAD PUSH2 0x8B SWAP2 SWAP1 PUSH2 0x24C JUMP JUMPDEST PUSH1 0x40 MLOAD DUP1 SWAP2 SUB SWAP1 RETURN JUMPDEST PUSH2 0xAE PUSH1 0x4 DUP1 CALLDATASIZE SUB DUP2 ADD SWAP1 PUSH2 0xA9 SWAP2 SWAP1 PUSH2 0x1BC JUMP JUMPDEST PUSH2 0x19D JUMP JUMPDEST STOP JUMPDEST PUSH1 0x0 SLOAD DUP2 JUMP JUMPDEST PUSH1 0x60 PUSH1 0x0 PUSH1 0x40 MLOAD DUP1 PUSH1 0x20 ADD PUSH1 0x40 MSTORE DUP1 PUSH1 0x0 DUP2 MSTORE POP SWAP1 POP PUSH1 0x0 SLOAD DUP4 SGT ISZERO PUSH2 0x113 JUMPI PUSH1 0x40 MLOAD DUP1 PUSH1 0x40 ADD PUSH1 0x40 MSTORE DUP1 PUSH1 0x7 DUP2 MSTORE PUSH1 0x20 ADD PUSH32 0x4772656174657200000000000000000000000000000000000000000000000000 DUP2 MSTORE POP SWAP1 POP PUSH2 0x194 JUMP JUMPDEST PUSH1 0x0 SLOAD DUP4 SLT ISZERO PUSH2 0x15A JUMPI PUSH1 0x40 MLOAD DUP1 PUSH1 0x40 ADD PUSH1 0x40 MSTORE DUP1 PUSH1 0x7 DUP2 MSTORE PUSH1 0x20 ADD PUSH32 0x536D616C6C657200000000000000000000000000000000000000000000000000 DUP2 MSTORE POP SWAP1 POP PUSH2 0x193 JUMP JUMPDEST PUSH1 0x40 MLOAD DUP1 PUSH1 0x40 ADD PUSH1 0x40 MSTORE DUP1 PUSH1 0x5 DUP2 MSTORE PUSH1 0x20 ADD PUSH32 0x457175616C000000000000000000000000000000000000000000000000000000 DUP2 MSTORE POP SWAP1 POP JUMPDEST JUMPDEST DUP1 SWAP2 POP POP SWAP2 SWAP1 POP JUMP JUMPDEST DUP1 PUSH1 0x0 DUP2 SWAP1 SSTORE POP POP JUMP JUMPDEST PUSH1 0x0 DUP2 CALLDATALOAD SWAP1 POP PUSH2 0x1B6 DUP2 PUSH2 0x2DD JUMP JUMPDEST SWAP3 SWAP2 POP POP JUMP JUMPDEST PUSH1 0x0 PUSH1 0x20 DUP3 DUP5 SUB SLT ISZERO PUSH2 0x1D2 JUMPI PUSH2 0x1D1 PUSH2 0x2C7 JUMP JUMPDEST JUMPDEST PUSH1 0x0 PUSH2 0x1E0 DUP5 DUP3 DUP6 ADD PUSH2 0x1A7 JUMP JUMPDEST SWAP2 POP POP SWAP3 SWAP2 POP POP JUMP JUMPDEST PUSH2 0x1F2 DUP2 PUSH2 0x28A JUMP JUMPDEST DUP3 MSTORE POP POP JUMP JUMPDEST PUSH1 0x0 PUSH2 0x203 DUP3 PUSH2 0x26E JUMP JUMPDEST PUSH2 0x20D DUP2 DUP6 PUSH2 0x279 JUMP JUMPDEST SWAP4 POP PUSH2 0x21D DUP2 DUP6 PUSH1 0x20 DUP7 ADD PUSH2 0x294 JUMP JUMPDEST PUSH2 0x226 DUP2 PUSH2 0x2CC JUMP JUMPDEST DUP5 ADD SWAP2 POP POP SWAP3 SWAP2 POP POP JUMP JUMPDEST PUSH1 0x0 PUSH1 0x20 DUP3 ADD SWAP1 POP PUSH2 0x246 PUSH1 0x0 DUP4 ADD DUP5 PUSH2 0x1E9 JUMP JUMPDEST SWAP3 SWAP2 POP POP JUMP JUMPDEST PUSH1 0x0 PUSH1 0x20 DUP3 ADD SWAP1 POP DUP2 DUP2 SUB PUSH1 0x0 DUP4 ADD MSTORE PUSH2 0x266 DUP2 DUP5 PUSH2 0x1F8 JUMP JUMPDEST SWAP1 POP SWAP3 SWAP2 POP POP JUMP JUMPDEST PUSH1 0x0 DUP2 MLOAD SWAP1 POP SWAP2 SWAP1 POP JUMP JUMPDEST PUSH1 0x0 DUP3 DUP3 MSTORE PUSH1 0x20 DUP3 ADD SWAP1 POP SWAP3 SWAP2 POP POP JUMP JUMPDEST PUSH1 0x0 DUP2 SWAP1 POP SWAP2 SWAP1 POP JUMP JUMPDEST PUSH1 0x0 JUMPDEST DUP4 DUP2 LT ISZERO PUSH2 0x2B2 JUMPI DUP1 DUP3 ADD MLOAD DUP2 DUP5 ADD MSTORE PUSH1 0x20 DUP2 ADD SWAP1 POP PUSH2 0x297 JUMP JUMPDEST DUP4 DUP2 GT ISZERO PUSH2 0x2C1 JUMPI PUSH1 0x0 DUP5 DUP5 ADD MSTORE JUMPDEST POP POP POP POP JUMP JUMPDEST PUSH1 0x0 DUP1 REVERT JUMPDEST PUSH1 0x0 PUSH1 0x1F NOT PUSH1 0x1F DUP4 ADD AND SWAP1 POP SWAP2 SWAP1 POP JUMP JUMPDEST PUSH2 0x2E6 DUP2 PUSH2 0x28A JUMP JUMPDEST DUP2 EQ PUSH2 0x2F1 JUMPI PUSH1 0x0 DUP1 REVERT JUMPDEST POP JUMP INVALID LOG2 PUSH5 0x6970667358 0x22 SLT KECCAK256 0xD1 SWAP6 PUSH2 0x63ED CALLDATACOPY 0xDA CALLCODE DUP15 0xF9 PUSH12 0xE83E9EB4E8942AFA78BDF285 0xC1 0xF6 0xE PUSH26 0xCE3958B82E64736F6C6343000807003300000000000000000000 "
				},
				"gasEstimates": {
					"creation": {
						"codeDepositCost": "162000",
						"executionCost": "5214",
						"totalCost": "167214"
					},
					"external": {
						"change_num(int256)": "22542",
						"check_with_num(int256)": "infinite",
						"num()": "2407"
					}
				},
				"methodIdentifiers": {
					"change_num(int256)": "f5b8b334",
					"check_with_num(int256)": "e2aa9034",
					"num()": "4e70b1dc"
				}
			},
			"storageLayout": {
				"storage": [
					{
						"astId": 4,
						"contract": "contracts/12_If_else_if_else.sol:condition",
						"label": "num",
						"offset": 0,
						"slot": "0",
						"type": "t_int256"
					}
				],
				"types": {
					"t_int256": {
						"encoding": "inplace",
						"label": "int256",
						"numberOfBytes": "32"
					}
				}
			},
			"userdoc": {
				"kind": "user",
				"methods": {},
				"version": 1
			}
		}
	}
}