{
	"contracts/09_Static_Bytes_Array.sol": {
		"bytes_array": {
			"abi": [
				{
					"inputs": [],
					"name": "b2",
					"outputs": [
						{
							"internalType": "bytes2",
							"name": "",
							"type": "bytes2"
						}
					],
					"stateMutability": "view",
					"type": "function"
				},
				{
					"inputs": [],
					"name": "b3",
					"outputs": [
						{
							"internalType": "bytes3",
							"name": "",
							"type": "bytes3"
						}
					],
					"stateMutability": "view",
					"type": "function"
				},
				{
					"inputs": [
						{
							"internalType": "uint256",
							"name": "pos",
							"type": "uint256"
						}
					],
					"name": "getter_b2",
					"outputs": [
						{
							"internalType": "bytes1",
							"name": "",
							"type": "bytes1"
						}
					],
					"stateMutability": "view",
					"type": "function"
				},
				{
					"inputs": [
						{
							"internalType": "uint256",
							"name": "pos",
							"type": "uint256"
						}
					],
					"name": "getter_b3",
					"outputs": [
						{
							"internalType": "bytes1",
							"name": "",
							"type": "bytes1"
						}
					],
					"stateMutability": "view",
					"type": "function"
				},
				{
					"inputs": [],
					"name": "len_b2",
					"outputs": [
						{
							"internalType": "uint256",
							"name": "",
							"type": "uint256"
						}
					],
					"stateMutability": "view",
					"type": "function"
				},
				{
					"inputs": [],
					"name": "len_b3",
					"outputs": [
						{
							"internalType": "uint256",
							"name": "",
							"type": "uint256"
						}
					],
					"stateMutability": "view",
					"type": "function"
				}
			],
			"devdoc": {
				"kind": "dev",
				"methods": {},
				"version": 1
			},
			"evm": {
				"assembly": "    /* \"contracts/09_Static_Bytes_Array.sol\":80:1469  contract bytes_array\r... */\n  mstore(0x40, 0x80)\n    /* \"contracts/09_Static_Bytes_Array.sol\":308:331  bytes2 public b2 = \"ab\" */\n  0x6162000000000000000000000000000000000000000000000000000000000000\n  0x00\n  dup1\n  0x0100\n  exp\n  dup2\n  sload\n  dup2\n  0xffff\n  mul\n  not\n  and\n  swap1\n  dup4\n  0xf0\n  shr\n  mul\n  or\n  swap1\n  sstore\n  pop\n    /* \"contracts/09_Static_Bytes_Array.sol\":594:616  bytes3 public b3 = \"a\" */\n  0x6100000000000000000000000000000000000000000000000000000000000000\n  0x00\n  exp(0x0100, 0x02)\n  dup2\n  sload\n  dup2\n  0xffffff\n  mul\n  not\n  and\n  swap1\n  dup4\n  0xe8\n  shr\n  mul\n  or\n  swap1\n  sstore\n  pop\n    /* \"contracts/09_Static_Bytes_Array.sol\":80:1469  contract bytes_array\r... */\n  callvalue\n  dup1\n  iszero\n  tag_1\n  jumpi\n  0x00\n  dup1\n  revert\ntag_1:\n  pop\n  dataSize(sub_0)\n  dup1\n  dataOffset(sub_0)\n  0x00\n  codecopy\n  0x00\n  return\nstop\n\nsub_0: assembly {\n        /* \"contracts/09_Static_Bytes_Array.sol\":80:1469  contract bytes_array\r... */\n      mstore(0x40, 0x80)\n      callvalue\n      dup1\n      iszero\n      tag_1\n      jumpi\n      0x00\n      dup1\n      revert\n    tag_1:\n      pop\n      jumpi(tag_2, lt(calldatasize, 0x04))\n      shr(0xe0, calldataload(0x00))\n      dup1\n      0x0add6ef2\n      eq\n      tag_3\n      jumpi\n      dup1\n      0x70612f9a\n      eq\n      tag_4\n      jumpi\n      dup1\n      0xb7504834\n      eq\n      tag_5\n      jumpi\n      dup1\n      0xb985742f\n      eq\n      tag_6\n      jumpi\n      dup1\n      0xe9b61909\n      eq\n      tag_7\n      jumpi\n      dup1\n      0xf51c9662\n      eq\n      tag_8\n      jumpi\n    tag_2:\n      0x00\n      dup1\n      revert\n        /* \"contracts/09_Static_Bytes_Array.sol\":308:331  bytes2 public b2 = \"ab\" */\n    tag_3:\n      tag_9\n      tag_10\n      jump\t// in\n    tag_9:\n      mload(0x40)\n      tag_11\n      swap2\n      swap1\n      tag_12\n      jump\t// in\n    tag_11:\n      mload(0x40)\n      dup1\n      swap2\n      sub\n      swap1\n      return\n        /* \"contracts/09_Static_Bytes_Array.sol\":1290:1374  function len_b2() public view returns(uint)\r... */\n    tag_4:\n      tag_13\n      tag_14\n      jump\t// in\n    tag_13:\n      mload(0x40)\n      tag_15\n      swap2\n      swap1\n      tag_16\n      jump\t// in\n    tag_15:\n      mload(0x40)\n      dup1\n      swap2\n      sub\n      swap1\n      return\n        /* \"contracts/09_Static_Bytes_Array.sol\":1032:1127  function getter_b2(uint pos) public view returns(bytes1)\r... */\n    tag_5:\n      tag_17\n      0x04\n      dup1\n      calldatasize\n      sub\n      dup2\n      add\n      swap1\n      tag_18\n      swap2\n      swap1\n      tag_19\n      jump\t// in\n    tag_18:\n      tag_20\n      jump\t// in\n    tag_17:\n      mload(0x40)\n      tag_21\n      swap2\n      swap1\n      tag_22\n      jump\t// in\n    tag_21:\n      mload(0x40)\n      dup1\n      swap2\n      sub\n      swap1\n      return\n        /* \"contracts/09_Static_Bytes_Array.sol\":1135:1230  function getter_b3(uint pos) public view returns(bytes1)\r... */\n    tag_6:\n      tag_23\n      0x04\n      dup1\n      calldatasize\n      sub\n      dup2\n      add\n      swap1\n      tag_24\n      swap2\n      swap1\n      tag_19\n      jump\t// in\n    tag_24:\n      tag_25\n      jump\t// in\n    tag_23:\n      mload(0x40)\n      tag_26\n      swap2\n      swap1\n      tag_22\n      jump\t// in\n    tag_26:\n      mload(0x40)\n      dup1\n      swap2\n      sub\n      swap1\n      return\n        /* \"contracts/09_Static_Bytes_Array.sol\":594:616  bytes3 public b3 = \"a\" */\n    tag_7:\n      tag_27\n      tag_28\n      jump\t// in\n    tag_27:\n      mload(0x40)\n      tag_29\n      swap2\n      swap1\n      tag_30\n      jump\t// in\n    tag_29:\n      mload(0x40)\n      dup1\n      swap2\n      sub\n      swap1\n      return\n        /* \"contracts/09_Static_Bytes_Array.sol\":1382:1466  function len_b3() public view returns(uint)\r... */\n    tag_8:\n      tag_31\n      tag_32\n      jump\t// in\n    tag_31:\n      mload(0x40)\n      tag_33\n      swap2\n      swap1\n      tag_16\n      jump\t// in\n    tag_33:\n      mload(0x40)\n      dup1\n      swap2\n      sub\n      swap1\n      return\n        /* \"contracts/09_Static_Bytes_Array.sol\":308:331  bytes2 public b2 = \"ab\" */\n    tag_10:\n      0x00\n      dup1\n      sload\n      swap1\n      0x0100\n      exp\n      swap1\n      div\n      0xf0\n      shl\n      dup2\n      jump\t// out\n        /* \"contracts/09_Static_Bytes_Array.sol\":1290:1374  function len_b2() public view returns(uint)\r... */\n    tag_14:\n        /* \"contracts/09_Static_Bytes_Array.sol\":1328:1332  uint */\n      0x00\n        /* \"contracts/09_Static_Bytes_Array.sol\":1357:1359  b2 */\n      dup1\n      0x00\n      swap1\n      sload\n      swap1\n      0x0100\n      exp\n      swap1\n      pop\n      pop\n        /* \"contracts/09_Static_Bytes_Array.sol\":1357:1366  b2.length */\n      0x02\n        /* \"contracts/09_Static_Bytes_Array.sol\":1350:1366  return b2.length */\n      0xff\n      and\n      swap1\n      pop\n        /* \"contracts/09_Static_Bytes_Array.sol\":1290:1374  function len_b2() public view returns(uint)\r... */\n      swap1\n      jump\t// out\n        /* \"contracts/09_Static_Bytes_Array.sol\":1032:1127  function getter_b2(uint pos) public view returns(bytes1)\r... */\n    tag_20:\n        /* \"contracts/09_Static_Bytes_Array.sol\":1081:1087  bytes1 */\n      0x00\n        /* \"contracts/09_Static_Bytes_Array.sol\":1112:1114  b2 */\n      dup1\n      0x00\n      swap1\n      sload\n      swap1\n      0x0100\n      exp\n      swap1\n      div\n      0xf0\n      shl\n        /* \"contracts/09_Static_Bytes_Array.sol\":1115:1118  pos */\n      dup3\n        /* \"contracts/09_Static_Bytes_Array.sol\":1112:1119  b2[pos] */\n      0x02\n      dup2\n      lt\n      tag_36\n      jumpi\n      tag_37\n      tag_38\n      jump\t// in\n    tag_37:\n    tag_36:\n      byte\n      0xf8\n      shl\n        /* \"contracts/09_Static_Bytes_Array.sol\":1105:1119  return b2[pos] */\n      swap1\n      pop\n        /* \"contracts/09_Static_Bytes_Array.sol\":1032:1127  function getter_b2(uint pos) public view returns(bytes1)\r... */\n      swap2\n      swap1\n      pop\n      jump\t// out\n        /* \"contracts/09_Static_Bytes_Array.sol\":1135:1230  function getter_b3(uint pos) public view returns(bytes1)\r... */\n    tag_25:\n        /* \"contracts/09_Static_Bytes_Array.sol\":1184:1190  bytes1 */\n      0x00\n        /* \"contracts/09_Static_Bytes_Array.sol\":1215:1217  b3 */\n      dup1\n      0x02\n      swap1\n      sload\n      swap1\n      0x0100\n      exp\n      swap1\n      div\n      0xe8\n      shl\n        /* \"contracts/09_Static_Bytes_Array.sol\":1218:1221  pos */\n      dup3\n        /* \"contracts/09_Static_Bytes_Array.sol\":1215:1222  b3[pos] */\n      0x03\n      dup2\n      lt\n      tag_40\n      jumpi\n      tag_41\n      tag_38\n      jump\t// in\n    tag_41:\n    tag_40:\n      byte\n      0xf8\n      shl\n        /* \"contracts/09_Static_Bytes_Array.sol\":1208:1222  return b3[pos] */\n      swap1\n      pop\n        /* \"contracts/09_Static_Bytes_Array.sol\":1135:1230  function getter_b3(uint pos) public view returns(bytes1)\r... */\n      swap2\n      swap1\n      pop\n      jump\t// out\n        /* \"contracts/09_Static_Bytes_Array.sol\":594:616  bytes3 public b3 = \"a\" */\n    tag_28:\n      0x00\n      0x02\n      swap1\n      sload\n      swap1\n      0x0100\n      exp\n      swap1\n      div\n      0xe8\n      shl\n      dup2\n      jump\t// out\n        /* \"contracts/09_Static_Bytes_Array.sol\":1382:1466  function len_b3() public view returns(uint)\r... */\n    tag_32:\n        /* \"contracts/09_Static_Bytes_Array.sol\":1420:1424  uint */\n      0x00\n        /* \"contracts/09_Static_Bytes_Array.sol\":1449:1451  b2 */\n      dup1\n      0x00\n      swap1\n      sload\n      swap1\n      0x0100\n      exp\n      swap1\n      pop\n      pop\n        /* \"contracts/09_Static_Bytes_Array.sol\":1449:1458  b2.length */\n      0x02\n        /* \"contracts/09_Static_Bytes_Array.sol\":1442:1458  return b2.length */\n      0xff\n      and\n      swap1\n      pop\n        /* \"contracts/09_Static_Bytes_Array.sol\":1382:1466  function len_b3() public view returns(uint)\r... */\n      swap1\n      jump\t// out\n        /* \"#utility.yul\":7:146   */\n    tag_44:\n        /* \"#utility.yul\":53:58   */\n      0x00\n        /* \"#utility.yul\":91:97   */\n      dup2\n        /* \"#utility.yul\":78:98   */\n      calldataload\n        /* \"#utility.yul\":69:98   */\n      swap1\n      pop\n        /* \"#utility.yul\":107:140   */\n      tag_46\n        /* \"#utility.yul\":134:139   */\n      dup2\n        /* \"#utility.yul\":107:140   */\n      tag_47\n      jump\t// in\n    tag_46:\n        /* \"#utility.yul\":7:146   */\n      swap3\n      swap2\n      pop\n      pop\n      jump\t// out\n        /* \"#utility.yul\":152:481   */\n    tag_19:\n        /* \"#utility.yul\":211:217   */\n      0x00\n        /* \"#utility.yul\":260:262   */\n      0x20\n        /* \"#utility.yul\":248:257   */\n      dup3\n        /* \"#utility.yul\":239:246   */\n      dup5\n        /* \"#utility.yul\":235:258   */\n      sub\n        /* \"#utility.yul\":231:263   */\n      slt\n        /* \"#utility.yul\":228:347   */\n      iszero\n      tag_49\n      jumpi\n        /* \"#utility.yul\":266:345   */\n      tag_50\n      tag_51\n      jump\t// in\n    tag_50:\n        /* \"#utility.yul\":228:347   */\n    tag_49:\n        /* \"#utility.yul\":386:387   */\n      0x00\n        /* \"#utility.yul\":411:464   */\n      tag_52\n        /* \"#utility.yul\":456:463   */\n      dup5\n        /* \"#utility.yul\":447:453   */\n      dup3\n        /* \"#utility.yul\":436:445   */\n      dup6\n        /* \"#utility.yul\":432:454   */\n      add\n        /* \"#utility.yul\":411:464   */\n      tag_44\n      jump\t// in\n    tag_52:\n        /* \"#utility.yul\":401:464   */\n      swap2\n      pop\n        /* \"#utility.yul\":357:474   */\n      pop\n        /* \"#utility.yul\":152:481   */\n      swap3\n      swap2\n      pop\n      pop\n      jump\t// out\n        /* \"#utility.yul\":487:602   */\n    tag_53:\n        /* \"#utility.yul\":572:595   */\n      tag_55\n        /* \"#utility.yul\":589:594   */\n      dup2\n        /* \"#utility.yul\":572:595   */\n      tag_56\n      jump\t// in\n    tag_55:\n        /* \"#utility.yul\":567:570   */\n      dup3\n        /* \"#utility.yul\":560:596   */\n      mstore\n        /* \"#utility.yul\":487:602   */\n      pop\n      pop\n      jump\t// out\n        /* \"#utility.yul\":608:723   */\n    tag_57:\n        /* \"#utility.yul\":693:716   */\n      tag_59\n        /* \"#utility.yul\":710:715   */\n      dup2\n        /* \"#utility.yul\":693:716   */\n      tag_60\n      jump\t// in\n    tag_59:\n        /* \"#utility.yul\":688:691   */\n      dup3\n        /* \"#utility.yul\":681:717   */\n      mstore\n        /* \"#utility.yul\":608:723   */\n      pop\n      pop\n      jump\t// out\n        /* \"#utility.yul\":729:844   */\n    tag_61:\n        /* \"#utility.yul\":814:837   */\n      tag_63\n        /* \"#utility.yul\":831:836   */\n      dup2\n        /* \"#utility.yul\":814:837   */\n      tag_64\n      jump\t// in\n    tag_63:\n        /* \"#utility.yul\":809:812   */\n      dup3\n        /* \"#utility.yul\":802:838   */\n      mstore\n        /* \"#utility.yul\":729:844   */\n      pop\n      pop\n      jump\t// out\n        /* \"#utility.yul\":850:968   */\n    tag_65:\n        /* \"#utility.yul\":937:961   */\n      tag_67\n        /* \"#utility.yul\":955:960   */\n      dup2\n        /* \"#utility.yul\":937:961   */\n      tag_68\n      jump\t// in\n    tag_67:\n        /* \"#utility.yul\":932:935   */\n      dup3\n        /* \"#utility.yul\":925:962   */\n      mstore\n        /* \"#utility.yul\":850:968   */\n      pop\n      pop\n      jump\t// out\n        /* \"#utility.yul\":974:1192   */\n    tag_22:\n        /* \"#utility.yul\":1065:1069   */\n      0x00\n        /* \"#utility.yul\":1103:1105   */\n      0x20\n        /* \"#utility.yul\":1092:1101   */\n      dup3\n        /* \"#utility.yul\":1088:1106   */\n      add\n        /* \"#utility.yul\":1080:1106   */\n      swap1\n      pop\n        /* \"#utility.yul\":1116:1185   */\n      tag_70\n        /* \"#utility.yul\":1182:1183   */\n      0x00\n        /* \"#utility.yul\":1171:1180   */\n      dup4\n        /* \"#utility.yul\":1167:1184   */\n      add\n        /* \"#utility.yul\":1158:1164   */\n      dup5\n        /* \"#utility.yul\":1116:1185   */\n      tag_53\n      jump\t// in\n    tag_70:\n        /* \"#utility.yul\":974:1192   */\n      swap3\n      swap2\n      pop\n      pop\n      jump\t// out\n        /* \"#utility.yul\":1198:1416   */\n    tag_12:\n        /* \"#utility.yul\":1289:1293   */\n      0x00\n        /* \"#utility.yul\":1327:1329   */\n      0x20\n        /* \"#utility.yul\":1316:1325   */\n      dup3\n        /* \"#utility.yul\":1312:1330   */\n      add\n        /* \"#utility.yul\":1304:1330   */\n      swap1\n      pop\n        /* \"#utility.yul\":1340:1409   */\n      tag_72\n        /* \"#utility.yul\":1406:1407   */\n      0x00\n        /* \"#utility.yul\":1395:1404   */\n      dup4\n        /* \"#utility.yul\":1391:1408   */\n      add\n        /* \"#utility.yul\":1382:1388   */\n      dup5\n        /* \"#utility.yul\":1340:1409   */\n      tag_57\n      jump\t// in\n    tag_72:\n        /* \"#utility.yul\":1198:1416   */\n      swap3\n      swap2\n      pop\n      pop\n      jump\t// out\n        /* \"#utility.yul\":1422:1640   */\n    tag_30:\n        /* \"#utility.yul\":1513:1517   */\n      0x00\n        /* \"#utility.yul\":1551:1553   */\n      0x20\n        /* \"#utility.yul\":1540:1549   */\n      dup3\n        /* \"#utility.yul\":1536:1554   */\n      add\n        /* \"#utility.yul\":1528:1554   */\n      swap1\n      pop\n        /* \"#utility.yul\":1564:1633   */\n      tag_74\n        /* \"#utility.yul\":1630:1631   */\n      0x00\n        /* \"#utility.yul\":1619:1628   */\n      dup4\n        /* \"#utility.yul\":1615:1632   */\n      add\n        /* \"#utility.yul\":1606:1612   */\n      dup5\n        /* \"#utility.yul\":1564:1633   */\n      tag_61\n      jump\t// in\n    tag_74:\n        /* \"#utility.yul\":1422:1640   */\n      swap3\n      swap2\n      pop\n      pop\n      jump\t// out\n        /* \"#utility.yul\":1646:1868   */\n    tag_16:\n        /* \"#utility.yul\":1739:1743   */\n      0x00\n        /* \"#utility.yul\":1777:1779   */\n      0x20\n        /* \"#utility.yul\":1766:1775   */\n      dup3\n        /* \"#utility.yul\":1762:1780   */\n      add\n        /* \"#utility.yul\":1754:1780   */\n      swap1\n      pop\n        /* \"#utility.yul\":1790:1861   */\n      tag_76\n        /* \"#utility.yul\":1858:1859   */\n      0x00\n        /* \"#utility.yul\":1847:1856   */\n      dup4\n        /* \"#utility.yul\":1843:1860   */\n      add\n        /* \"#utility.yul\":1834:1840   */\n      dup5\n        /* \"#utility.yul\":1790:1861   */\n      tag_65\n      jump\t// in\n    tag_76:\n        /* \"#utility.yul\":1646:1868   */\n      swap3\n      swap2\n      pop\n      pop\n      jump\t// out\n        /* \"#utility.yul\":1955:2104   */\n    tag_56:\n        /* \"#utility.yul\":1991:1998   */\n      0x00\n        /* \"#utility.yul\":2031:2097   */\n      0xff00000000000000000000000000000000000000000000000000000000000000\n        /* \"#utility.yul\":2024:2029   */\n      dup3\n        /* \"#utility.yul\":2020:2098   */\n      and\n        /* \"#utility.yul\":2009:2098   */\n      swap1\n      pop\n        /* \"#utility.yul\":1955:2104   */\n      swap2\n      swap1\n      pop\n      jump\t// out\n        /* \"#utility.yul\":2110:2259   */\n    tag_60:\n        /* \"#utility.yul\":2146:2153   */\n      0x00\n        /* \"#utility.yul\":2186:2252   */\n      0xffff000000000000000000000000000000000000000000000000000000000000\n        /* \"#utility.yul\":2179:2184   */\n      dup3\n        /* \"#utility.yul\":2175:2253   */\n      and\n        /* \"#utility.yul\":2164:2253   */\n      swap1\n      pop\n        /* \"#utility.yul\":2110:2259   */\n      swap2\n      swap1\n      pop\n      jump\t// out\n        /* \"#utility.yul\":2265:2414   */\n    tag_64:\n        /* \"#utility.yul\":2301:2308   */\n      0x00\n        /* \"#utility.yul\":2341:2407   */\n      0xffffff0000000000000000000000000000000000000000000000000000000000\n        /* \"#utility.yul\":2334:2339   */\n      dup3\n        /* \"#utility.yul\":2330:2408   */\n      and\n        /* \"#utility.yul\":2319:2408   */\n      swap1\n      pop\n        /* \"#utility.yul\":2265:2414   */\n      swap2\n      swap1\n      pop\n      jump\t// out\n        /* \"#utility.yul\":2420:2497   */\n    tag_68:\n        /* \"#utility.yul\":2457:2464   */\n      0x00\n        /* \"#utility.yul\":2486:2491   */\n      dup2\n        /* \"#utility.yul\":2475:2491   */\n      swap1\n      pop\n        /* \"#utility.yul\":2420:2497   */\n      swap2\n      swap1\n      pop\n      jump\t// out\n        /* \"#utility.yul\":2503:2683   */\n    tag_38:\n        /* \"#utility.yul\":2551:2628   */\n      0x4e487b7100000000000000000000000000000000000000000000000000000000\n        /* \"#utility.yul\":2548:2549   */\n      0x00\n        /* \"#utility.yul\":2541:2629   */\n      mstore\n        /* \"#utility.yul\":2648:2652   */\n      0x32\n        /* \"#utility.yul\":2645:2646   */\n      0x04\n        /* \"#utility.yul\":2638:2653   */\n      mstore\n        /* \"#utility.yul\":2672:2676   */\n      0x24\n        /* \"#utility.yul\":2669:2670   */\n      0x00\n        /* \"#utility.yul\":2662:2677   */\n      revert\n        /* \"#utility.yul\":2812:2929   */\n    tag_51:\n        /* \"#utility.yul\":2921:2922   */\n      0x00\n        /* \"#utility.yul\":2918:2919   */\n      dup1\n        /* \"#utility.yul\":2911:2923   */\n      revert\n        /* \"#utility.yul\":2935:3057   */\n    tag_47:\n        /* \"#utility.yul\":3008:3032   */\n      tag_88\n        /* \"#utility.yul\":3026:3031   */\n      dup2\n        /* \"#utility.yul\":3008:3032   */\n      tag_68\n      jump\t// in\n    tag_88:\n        /* \"#utility.yul\":3001:3006   */\n      dup2\n        /* \"#utility.yul\":2998:3033   */\n      eq\n        /* \"#utility.yul\":2988:3051   */\n      tag_89\n      jumpi\n        /* \"#utility.yul\":3047:3048   */\n      0x00\n        /* \"#utility.yul\":3044:3045   */\n      dup1\n        /* \"#utility.yul\":3037:3049   */\n      revert\n        /* \"#utility.yul\":2988:3051   */\n    tag_89:\n        /* \"#utility.yul\":2935:3057   */\n      pop\n      jump\t// out\n\n    auxdata: 0xa2646970667358221220a8f233340b3227e7f3cc2f50bf6829a19cd3c08a07b3ca883e7c3c9d896760b664736f6c63430008070033\n}\n",
				"bytecode": {
					"linkReferences": {},
					"object": "60806040527f61620000000000000000000000000000000000000000000000000000000000006000806101000a81548161ffff021916908360f01c02179055507f6100000000000000000000000000000000000000000000000000000000000000600060026101000a81548162ffffff021916908360e81c021790555034801561008857600080fd5b506103ea806100986000396000f3fe608060405234801561001057600080fd5b50600436106100625760003560e01c80630add6ef21461006757806370612f9a14610085578063b7504834146100a3578063b985742f146100d3578063e9b6190914610103578063f51c966214610121575b600080fd5b61006f61013f565b60405161007c919061028a565b60405180910390f35b61008d610150565b60405161009a91906102c0565b60405180910390f35b6100bd60048036038101906100b89190610206565b610169565b6040516100ca919061026f565b60405180910390f35b6100ed60048036038101906100e89190610206565b610197565b6040516100fa919061026f565b60405180910390f35b61010b6101c5565b60405161011891906102a5565b60405180910390f35b6101296101d8565b60405161013691906102c0565b60405180910390f35b60008054906101000a900460f01b81565b60008060009054906101000a905050600260ff16905090565b60008060009054906101000a900460f01b826002811061018c5761018b610369565b5b1a60f81b9050919050565b60008060029054906101000a900460e81b82600381106101ba576101b9610369565b5b1a60f81b9050919050565b600060029054906101000a900460e81b81565b60008060009054906101000a905050600260ff16905090565b6000813590506102008161039d565b92915050565b60006020828403121561021c5761021b610398565b5b600061022a848285016101f1565b91505092915050565b61023c816102db565b82525050565b61024b81610307565b82525050565b61025a81610333565b82525050565b6102698161035f565b82525050565b60006020820190506102846000830184610233565b92915050565b600060208201905061029f6000830184610242565b92915050565b60006020820190506102ba6000830184610251565b92915050565b60006020820190506102d56000830184610260565b92915050565b60007fff0000000000000000000000000000000000000000000000000000000000000082169050919050565b60007fffff00000000000000000000000000000000000000000000000000000000000082169050919050565b60007fffffff000000000000000000000000000000000000000000000000000000000082169050919050565b6000819050919050565b7f4e487b7100000000000000000000000000000000000000000000000000000000600052603260045260246000fd5b600080fd5b6103a68161035f565b81146103b157600080fd5b5056fea2646970667358221220a8f233340b3227e7f3cc2f50bf6829a19cd3c08a07b3ca883e7c3c9d896760b664736f6c63430008070033",
					"opcodes": "PUSH1 0x80 PUSH1 0x40 MSTORE PUSH32 0x6162000000000000000000000000000000000000000000000000000000000000 PUSH1 0x0 DUP1 PUSH2 0x100 EXP DUP2 SLOAD DUP2 PUSH2 0xFFFF MUL NOT AND SWAP1 DUP4 PUSH1 0xF0 SHR MUL OR SWAP1 SSTORE POP PUSH32 0x6100000000000000000000000000000000000000000000000000000000000000 PUSH1 0x0 PUSH1 0x2 PUSH2 0x100 EXP DUP2 SLOAD DUP2 PUSH3 0xFFFFFF MUL NOT AND SWAP1 DUP4 PUSH1 0xE8 SHR MUL OR SWAP1 SSTORE POP CALLVALUE DUP1 ISZERO PUSH2 0x88 JUMPI PUSH1 0x0 DUP1 REVERT JUMPDEST POP PUSH2 0x3EA DUP1 PUSH2 0x98 PUSH1 0x0 CODECOPY PUSH1 0x0 RETURN INVALID PUSH1 0x80 PUSH1 0x40 MSTORE CALLVALUE DUP1 ISZERO PUSH2 0x10 JUMPI PUSH1 0x0 DUP1 REVERT JUMPDEST POP PUSH1 0x4 CALLDATASIZE LT PUSH2 0x62 JUMPI PUSH1 0x0 CALLDATALOAD PUSH1 0xE0 SHR DUP1 PUSH4 0xADD6EF2 EQ PUSH2 0x67 JUMPI DUP1 PUSH4 0x70612F9A EQ PUSH2 0x85 JUMPI DUP1 PUSH4 0xB7504834 EQ PUSH2 0xA3 JUMPI DUP1 PUSH4 0xB985742F EQ PUSH2 0xD3 JUMPI DUP1 PUSH4 0xE9B61909 EQ PUSH2 0x103 JUMPI DUP1 PUSH4 0xF51C9662 EQ PUSH2 0x121 JUMPI JUMPDEST PUSH1 0x0 DUP1 REVERT JUMPDEST PUSH2 0x6F PUSH2 0x13F JUMP JUMPDEST PUSH1 0x40 MLOAD PUSH2 0x7C SWAP2 SWAP1 PUSH2 0x28A JUMP JUMPDEST PUSH1 0x40 MLOAD DUP1 SWAP2 SUB SWAP1 RETURN JUMPDEST PUSH2 0x8D PUSH2 0x150 JUMP JUMPDEST PUSH1 0x40 MLOAD PUSH2 0x9A SWAP2 SWAP1 PUSH2 0x2C0 JUMP JUMPDEST PUSH1 0x40 MLOAD DUP1 SWAP2 SUB SWAP1 RETURN JUMPDEST PUSH2 0xBD PUSH1 0x4 DUP1 CALLDATASIZE SUB DUP2 ADD SWAP1 PUSH2 0xB8 SWAP2 SWAP1 PUSH2 0x206 JUMP JUMPDEST PUSH2 0x169 JUMP JUMPDEST PUSH1 0x40 MLOAD PUSH2 0xCA SWAP2 SWAP1 PUSH2 0x26F JUMP JUMPDEST PUSH1 0x40 MLOAD DUP1 SWAP2 SUB SWAP1 RETURN JUMPDEST PUSH2 0xED PUSH1 0x4 DUP1 CALLDATASIZE SUB DUP2 ADD SWAP1 PUSH2 0xE8 SWAP2 SWAP1 PUSH2 0x206 JUMP JUMPDEST PUSH2 0x197 JUMP JUMPDEST PUSH1 0x40 MLOAD PUSH2 0xFA SWAP2 SWAP1 PUSH2 0x26F JUMP JUMPDEST PUSH1 0x40 MLOAD DUP1 SWAP2 SUB SWAP1 RETURN JUMPDEST PUSH2 0x10B PUSH2 0x1C5 JUMP JUMPDEST PUSH1 0x40 MLOAD PUSH2 0x118 SWAP2 SWAP1 PUSH2 0x2A5 JUMP JUMPDEST PUSH1 0x40 MLOAD DUP1 SWAP2 SUB SWAP1 RETURN JUMPDEST PUSH2 0x129 PUSH2 0x1D8 JUMP JUMPDEST PUSH1 0x40 MLOAD PUSH2 0x136 SWAP2 SWAP1 PUSH2 0x2C0 JUMP JUMPDEST PUSH1 0x40 MLOAD DUP1 SWAP2 SUB SWAP1 RETURN JUMPDEST PUSH1 0x0 DUP1 SLOAD SWAP1 PUSH2 0x100 EXP SWAP1 DIV PUSH1 0xF0 SHL DUP2 JUMP JUMPDEST PUSH1 0x0 DUP1 PUSH1 0x0 SWAP1 SLOAD SWAP1 PUSH2 0x100 EXP SWAP1 POP POP PUSH1 0x2 PUSH1 0xFF AND SWAP1 POP SWAP1 JUMP JUMPDEST PUSH1 0x0 DUP1 PUSH1 0x0 SWAP1 SLOAD SWAP1 PUSH2 0x100 EXP SWAP1 DIV PUSH1 0xF0 SHL DUP3 PUSH1 0x2 DUP2 LT PUSH2 0x18C JUMPI PUSH2 0x18B PUSH2 0x369 JUMP JUMPDEST JUMPDEST BYTE PUSH1 0xF8 SHL SWAP1 POP SWAP2 SWAP1 POP JUMP JUMPDEST PUSH1 0x0 DUP1 PUSH1 0x2 SWAP1 SLOAD SWAP1 PUSH2 0x100 EXP SWAP1 DIV PUSH1 0xE8 SHL DUP3 PUSH1 0x3 DUP2 LT PUSH2 0x1BA JUMPI PUSH2 0x1B9 PUSH2 0x369 JUMP JUMPDEST JUMPDEST BYTE PUSH1 0xF8 SHL SWAP1 POP SWAP2 SWAP1 POP JUMP JUMPDEST PUSH1 0x0 PUSH1 0x2 SWAP1 SLOAD SWAP1 PUSH2 0x100 EXP SWAP1 DIV PUSH1 0xE8 SHL DUP2 JUMP JUMPDEST PUSH1 0x0 DUP1 PUSH1 0x0 SWAP1 SLOAD SWAP1 PUSH2 0x100 EXP SWAP1 POP POP PUSH1 0x2 PUSH1 0xFF AND SWAP1 POP SWAP1 JUMP JUMPDEST PUSH1 0x0 DUP2 CALLDATALOAD SWAP1 POP PUSH2 0x200 DUP2 PUSH2 0x39D JUMP JUMPDEST SWAP3 SWAP2 POP POP JUMP JUMPDEST PUSH1 0x0 PUSH1 0x20 DUP3 DUP5 SUB SLT ISZERO PUSH2 0x21C JUMPI PUSH2 0x21B PUSH2 0x398 JUMP JUMPDEST JUMPDEST PUSH1 0x0 PUSH2 0x22A DUP5 DUP3 DUP6 ADD PUSH2 0x1F1 JUMP JUMPDEST SWAP2 POP POP SWAP3 SWAP2 POP POP JUMP JUMPDEST PUSH2 0x23C DUP2 PUSH2 0x2DB JUMP JUMPDEST DUP3 MSTORE POP POP JUMP JUMPDEST PUSH2 0x24B DUP2 PUSH2 0x307 JUMP JUMPDEST DUP3 MSTORE POP POP JUMP JUMPDEST PUSH2 0x25A DUP2 PUSH2 0x333 JUMP JUMPDEST DUP3 MSTORE POP POP JUMP JUMPDEST PUSH2 0x269 DUP2 PUSH2 0x35F JUMP JUMPDEST DUP3 MSTORE POP POP JUMP JUMPDEST PUSH1 0x0 PUSH1 0x20 DUP3 ADD SWAP1 POP PUSH2 0x284 PUSH1 0x0 DUP4 ADD DUP5 PUSH2 0x233 JUMP JUMPDEST SWAP3 SWAP2 POP POP JUMP JUMPDEST PUSH1 0x0 PUSH1 0x20 DUP3 ADD SWAP1 POP PUSH2 0x29F PUSH1 0x0 DUP4 ADD DUP5 PUSH2 0x242 JUMP JUMPDEST SWAP3 SWAP2 POP POP JUMP JUMPDEST PUSH1 0x0 PUSH1 0x20 DUP3 ADD SWAP1 POP PUSH2 0x2BA PUSH1 0x0 DUP4 ADD DUP5 PUSH2 0x251 JUMP JUMPDEST SWAP3 SWAP2 POP POP JUMP JUMPDEST PUSH1 0x0 PUSH1 0x20 DUP3 ADD SWAP1 POP PUSH2 0x2D5 PUSH1 0x0 DUP4 ADD DUP5 PUSH2 0x260 JUMP JUMPDEST SWAP3 SWAP2 POP POP JUMP JUMPDEST PUSH1 0x0 PUSH32 0xFF00000000000000000000000000000000000000000000000000000000000000 DUP3 AND SWAP1 POP SWAP2 SWAP1 POP JUMP JUMPDEST PUSH1 0x0 PUSH32 0xFFFF000000000000000000000000000000000000000000000000000000000000 DUP3 AND SWAP1 POP SWAP2 SWAP1 POP JUMP JUMPDEST PUSH1 0x0 PUSH32 0xFFFFFF0000000000000000000000000000000000000000000000000000000000 DUP3 AND SWAP1 POP SWAP2 SWAP1 POP JUMP JUMPDEST PUSH1 0x0 DUP2 SWAP1 POP SWAP2 SWAP1 POP JUMP JUMPDEST PUSH32 0x4E487B7100000000000000000000000000000000000000000000000000000000 PUSH1 0x0 MSTORE PUSH1 0x32 PUSH1 0x4 MSTORE PUSH1 0x24 PUSH1 0x0 REVERT JUMPDEST PUSH1 0x0 DUP1 REVERT JUMPDEST PUSH2 0x3A6 DUP2 PUSH2 0x35F JUMP JUMPDEST DUP2 EQ PUSH2 0x3B1 JUMPI PUSH1 0x0 DUP1 REVERT JUMPDEST POP JUMP INVALID LOG2 PUSH5 0x6970667358 0x22 SLT KECCAK256 0xA8 CALLCODE CALLER CALLVALUE SIGNEXTEND ORIGIN 0x27 0xE7 RETURN 0xCC 0x2F POP 0xBF PUSH9 0x29A19CD3C08A07B3CA DUP9 RETURNDATACOPY PUSH29 0x3C9D896760B664736F6C63430008070033000000000000000000000000 "
				},
				"gasEstimates": {
					"creation": {
						"codeDepositCost": "200400",
						"executionCost": "48829",
						"totalCost": "249229"
					},
					"external": {
						"b2()": "2446",
						"b3()": "2587",
						"getter_b2(uint256)": "2801",
						"getter_b3(uint256)": "2873",
						"len_b2()": "2475",
						"len_b3()": "2563"
					}
				},
				"methodIdentifiers": {
					"b2()": "0add6ef2",
					"b3()": "e9b61909",
					"getter_b2(uint256)": "b7504834",
					"getter_b3(uint256)": "b985742f",
					"len_b2()": "70612f9a",
					"len_b3()": "f51c9662"
				}
			},
			"storageLayout": {
				"storage": [
					{
						"astId": 4,
						"contract": "contracts/09_Static_Bytes_Array.sol:bytes_array",
						"label": "b2",
						"offset": 0,
						"slot": "0",
						"type": "t_bytes2"
					},
					{
						"astId": 7,
						"contract": "contracts/09_Static_Bytes_Array.sol:bytes_array",
						"label": "b3",
						"offset": 2,
						"slot": "0",
						"type": "t_bytes3"
					}
				],
				"types": {
					"t_bytes2": {
						"encoding": "inplace",
						"label": "bytes2",
						"numberOfBytes": "2"
					},
					"t_bytes3": {
						"encoding": "inplace",
						"label": "bytes3",
						"numberOfBytes": "3"
					}
				}
			},
			"userdoc": {
				"kind": "user",
				"methods": {},
				"version": 1
			}
		}
	}
}