{
	"contracts/17_.Global_Variables.sol": {
		"Global_Variables": {
			"abi": [
				{
					"inputs": [],
					"name": "get_metadata",
					"outputs": [
						{
							"internalType": "uint256",
							"name": "",
							"type": "uint256"
						},
						{
							"internalType": "address",
							"name": "",
							"type": "address"
						},
						{
							"internalType": "uint256",
							"name": "",
							"type": "uint256"
						},
						{
							"internalType": "uint256",
							"name": "",
							"type": "uint256"
						},
						{
							"internalType": "uint256",
							"name": "",
							"type": "uint256"
						},
						{
							"internalType": "uint256",
							"name": "",
							"type": "uint256"
						},
						{
							"internalType": "bytes",
							"name": "",
							"type": "bytes"
						},
						{
							"internalType": "address",
							"name": "",
							"type": "address"
						}
					],
					"stateMutability": "view",
					"type": "function"
				}
			],
			"devdoc": {
				"kind": "dev",
				"methods": {},
				"version": 1
			},
			"evm": {
				"assembly": "    /* \"contracts/17_.Global_Variables.sol\":79:1490  contract Global_Variables\r... */\n  mstore(0x40, 0x80)\n  callvalue\n  dup1\n  iszero\n  tag_1\n  jumpi\n  0x00\n  dup1\n  revert\ntag_1:\n  pop\n  dataSize(sub_0)\n  dup1\n  dataOffset(sub_0)\n  0x00\n  codecopy\n  0x00\n  return\nstop\n\nsub_0: assembly {\n        /* \"contracts/17_.Global_Variables.sol\":79:1490  contract Global_Variables\r... */\n      mstore(0x40, 0x80)\n      callvalue\n      dup1\n      iszero\n      tag_1\n      jumpi\n      0x00\n      dup1\n      revert\n    tag_1:\n      pop\n      jumpi(tag_2, lt(calldatasize, 0x04))\n      shr(0xe0, calldataload(0x00))\n      dup1\n      0x86485aaa\n      eq\n      tag_3\n      jumpi\n    tag_2:\n      0x00\n      dup1\n      revert\n        /* \"contracts/17_.Global_Variables.sol\":202:1487  function get_metadata() public view returns(uint,address,uint,uint,uint,uint,bytes memory,address)  // ,bytes4,uint,uint,address\r... */\n    tag_3:\n      tag_4\n      tag_5\n      jump\t// in\n    tag_4:\n      mload(0x40)\n      tag_6\n      swap9\n      swap8\n      swap7\n      swap6\n      swap5\n      swap4\n      swap3\n      swap2\n      swap1\n      tag_7\n      jump\t// in\n    tag_6:\n      mload(0x40)\n      dup1\n      swap2\n      sub\n      swap1\n      return\n    tag_5:\n        /* \"contracts/17_.Global_Variables.sol\":246:250  uint */\n      0x00\n        /* \"contracts/17_.Global_Variables.sol\":251:258  address */\n      dup1\n        /* \"contracts/17_.Global_Variables.sol\":259:263  uint */\n      0x00\n        /* \"contracts/17_.Global_Variables.sol\":264:268  uint */\n      dup1\n        /* \"contracts/17_.Global_Variables.sol\":269:273  uint */\n      0x00\n        /* \"contracts/17_.Global_Variables.sol\":274:278  uint */\n      dup1\n        /* \"contracts/17_.Global_Variables.sol\":279:291  bytes memory */\n      0x60\n        /* \"contracts/17_.Global_Variables.sol\":292:299  address */\n      0x00\n        /* \"contracts/17_.Global_Variables.sol\":347:360  uint chain_id */\n      dup1\n        /* \"contracts/17_.Global_Variables.sol\":363:376  block.chainid */\n      chainid\n        /* \"contracts/17_.Global_Variables.sol\":347:376  uint chain_id = block.chainid */\n      swap1\n      pop\n        /* \"contracts/17_.Global_Variables.sol\":407:423  address coinbase */\n      0x00\n        /* \"contracts/17_.Global_Variables.sol\":426:440  block.coinbase */\n      coinbase\n        /* \"contracts/17_.Global_Variables.sol\":407:440  address coinbase = block.coinbase */\n      swap1\n      pop\n        /* \"contracts/17_.Global_Variables.sol\":486:501  uint difficulty */\n      0x00\n        /* \"contracts/17_.Global_Variables.sol\":504:520  block.difficulty */\n      difficulty\n        /* \"contracts/17_.Global_Variables.sol\":486:520  uint difficulty = block.difficulty */\n      swap1\n      pop\n        /* \"contracts/17_.Global_Variables.sol\":560:573  uint gaslimit */\n      0x00\n        /* \"contracts/17_.Global_Variables.sol\":576:590  block.gaslimit */\n      gaslimit\n        /* \"contracts/17_.Global_Variables.sol\":560:590  uint gaslimit = block.gaslimit */\n      swap1\n      pop\n        /* \"contracts/17_.Global_Variables.sol\":628:645  uint block_number */\n      0x00\n        /* \"contracts/17_.Global_Variables.sol\":648:660  block.number */\n      number\n        /* \"contracts/17_.Global_Variables.sol\":628:660  uint block_number = block.number */\n      swap1\n      pop\n        /* \"contracts/17_.Global_Variables.sol\":696:710  uint timestamp */\n      0x00\n        /* \"contracts/17_.Global_Variables.sol\":713:728  block.timestamp */\n      timestamp\n        /* \"contracts/17_.Global_Variables.sol\":696:728  uint timestamp = block.timestamp */\n      swap1\n      pop\n        /* \"contracts/17_.Global_Variables.sol\":785:806  bytes memory msg_data */\n      0x00\n        /* \"contracts/17_.Global_Variables.sol\":809:817  msg.data */\n      dup1\n      calldatasize\n        /* \"contracts/17_.Global_Variables.sol\":785:817  bytes memory msg_data = msg.data */\n      dup1\n      dup1\n      0x1f\n      add\n      0x20\n      dup1\n      swap2\n      div\n      mul\n      0x20\n      add\n      mload(0x40)\n      swap1\n      dup2\n      add\n      0x40\n      mstore\n      dup1\n      swap4\n      swap3\n      swap2\n      swap1\n      dup2\n      dup2\n      mstore\n      0x20\n      add\n      dup4\n      dup4\n      dup1\n      dup3\n      dup5\n      calldatacopy\n      0x00\n      dup2\n      dup5\n      add\n      mstore\n      not(0x1f)\n      0x1f\n      dup3\n      add\n      and\n      swap1\n      pop\n      dup1\n      dup4\n      add\n      swap3\n      pop\n      pop\n      pop\n      pop\n      pop\n      pop\n      pop\n      swap1\n      pop\n        /* \"contracts/17_.Global_Variables.sol\":850:868  address msg_sender */\n      0x00\n        /* \"contracts/17_.Global_Variables.sol\":871:881  msg.sender */\n      caller\n        /* \"contracts/17_.Global_Variables.sol\":850:881  address msg_sender = msg.sender */\n      swap1\n      pop\n        /* \"contracts/17_.Global_Variables.sol\":1335:1343  chain_id */\n      dup8\n        /* \"contracts/17_.Global_Variables.sol\":1344:1352  coinbase */\n      dup8\n        /* \"contracts/17_.Global_Variables.sol\":1353:1363  difficulty */\n      dup8\n        /* \"contracts/17_.Global_Variables.sol\":1364:1372  gaslimit */\n      dup8\n        /* \"contracts/17_.Global_Variables.sol\":1373:1385  block_number */\n      dup8\n        /* \"contracts/17_.Global_Variables.sol\":1386:1395  timestamp */\n      dup8\n        /* \"contracts/17_.Global_Variables.sol\":1396:1404  msg_data */\n      dup8\n        /* \"contracts/17_.Global_Variables.sol\":1405:1415  msg_sender */\n      dup8\n        /* \"contracts/17_.Global_Variables.sol\":1327:1416  return (chain_id,coinbase,difficulty,gaslimit,block_number,timestamp,msg_data,msg_sender) */\n      swap16\n      pop\n      swap16\n      pop\n      swap16\n      pop\n      swap16\n      pop\n      swap16\n      pop\n      swap16\n      pop\n      swap16\n      pop\n      swap16\n      pop\n      pop\n      pop\n      pop\n      pop\n      pop\n      pop\n      pop\n      pop\n        /* \"contracts/17_.Global_Variables.sol\":202:1487  function get_metadata() public view returns(uint,address,uint,uint,uint,uint,bytes memory,address)  // ,bytes4,uint,uint,address\r... */\n      swap1\n      swap2\n      swap3\n      swap4\n      swap5\n      swap6\n      swap7\n      swap8\n      jump\t// out\n        /* \"#utility.yul\":7:125   */\n    tag_10:\n        /* \"#utility.yul\":94:118   */\n      tag_12\n        /* \"#utility.yul\":112:117   */\n      dup2\n        /* \"#utility.yul\":94:118   */\n      tag_13\n      jump\t// in\n    tag_12:\n        /* \"#utility.yul\":89:92   */\n      dup3\n        /* \"#utility.yul\":82:119   */\n      mstore\n        /* \"#utility.yul\":7:125   */\n      pop\n      pop\n      jump\t// out\n        /* \"#utility.yul\":131:491   */\n    tag_14:\n        /* \"#utility.yul\":217:220   */\n      0x00\n        /* \"#utility.yul\":245:283   */\n      tag_16\n        /* \"#utility.yul\":277:282   */\n      dup3\n        /* \"#utility.yul\":245:283   */\n      tag_17\n      jump\t// in\n    tag_16:\n        /* \"#utility.yul\":299:369   */\n      tag_18\n        /* \"#utility.yul\":362:368   */\n      dup2\n        /* \"#utility.yul\":357:360   */\n      dup6\n        /* \"#utility.yul\":299:369   */\n      tag_19\n      jump\t// in\n    tag_18:\n        /* \"#utility.yul\":292:369   */\n      swap4\n      pop\n        /* \"#utility.yul\":378:430   */\n      tag_20\n        /* \"#utility.yul\":423:429   */\n      dup2\n        /* \"#utility.yul\":418:421   */\n      dup6\n        /* \"#utility.yul\":411:415   */\n      0x20\n        /* \"#utility.yul\":404:409   */\n      dup7\n        /* \"#utility.yul\":400:416   */\n      add\n        /* \"#utility.yul\":378:430   */\n      tag_21\n      jump\t// in\n    tag_20:\n        /* \"#utility.yul\":455:484   */\n      tag_22\n        /* \"#utility.yul\":477:483   */\n      dup2\n        /* \"#utility.yul\":455:484   */\n      tag_23\n      jump\t// in\n    tag_22:\n        /* \"#utility.yul\":450:453   */\n      dup5\n        /* \"#utility.yul\":446:485   */\n      add\n        /* \"#utility.yul\":439:485   */\n      swap2\n      pop\n        /* \"#utility.yul\":221:491   */\n      pop\n        /* \"#utility.yul\":131:491   */\n      swap3\n      swap2\n      pop\n      pop\n      jump\t// out\n        /* \"#utility.yul\":497:615   */\n    tag_24:\n        /* \"#utility.yul\":584:608   */\n      tag_26\n        /* \"#utility.yul\":602:607   */\n      dup2\n        /* \"#utility.yul\":584:608   */\n      tag_27\n      jump\t// in\n    tag_26:\n        /* \"#utility.yul\":579:582   */\n      dup3\n        /* \"#utility.yul\":572:609   */\n      mstore\n        /* \"#utility.yul\":497:615   */\n      pop\n      pop\n      jump\t// out\n        /* \"#utility.yul\":621:1705   */\n    tag_7:\n        /* \"#utility.yul\":928:932   */\n      0x00\n        /* \"#utility.yul\":966:969   */\n      0x0100\n        /* \"#utility.yul\":955:964   */\n      dup3\n        /* \"#utility.yul\":951:970   */\n      add\n        /* \"#utility.yul\":943:970   */\n      swap1\n      pop\n        /* \"#utility.yul\":980:1051   */\n      tag_29\n        /* \"#utility.yul\":1048:1049   */\n      0x00\n        /* \"#utility.yul\":1037:1046   */\n      dup4\n        /* \"#utility.yul\":1033:1050   */\n      add\n        /* \"#utility.yul\":1024:1030   */\n      dup12\n        /* \"#utility.yul\":980:1051   */\n      tag_24\n      jump\t// in\n    tag_29:\n        /* \"#utility.yul\":1061:1133   */\n      tag_30\n        /* \"#utility.yul\":1129:1131   */\n      0x20\n        /* \"#utility.yul\":1118:1127   */\n      dup4\n        /* \"#utility.yul\":1114:1132   */\n      add\n        /* \"#utility.yul\":1105:1111   */\n      dup11\n        /* \"#utility.yul\":1061:1133   */\n      tag_10\n      jump\t// in\n    tag_30:\n        /* \"#utility.yul\":1143:1215   */\n      tag_31\n        /* \"#utility.yul\":1211:1213   */\n      0x40\n        /* \"#utility.yul\":1200:1209   */\n      dup4\n        /* \"#utility.yul\":1196:1214   */\n      add\n        /* \"#utility.yul\":1187:1193   */\n      dup10\n        /* \"#utility.yul\":1143:1215   */\n      tag_24\n      jump\t// in\n    tag_31:\n        /* \"#utility.yul\":1225:1297   */\n      tag_32\n        /* \"#utility.yul\":1293:1295   */\n      0x60\n        /* \"#utility.yul\":1282:1291   */\n      dup4\n        /* \"#utility.yul\":1278:1296   */\n      add\n        /* \"#utility.yul\":1269:1275   */\n      dup9\n        /* \"#utility.yul\":1225:1297   */\n      tag_24\n      jump\t// in\n    tag_32:\n        /* \"#utility.yul\":1307:1380   */\n      tag_33\n        /* \"#utility.yul\":1375:1378   */\n      0x80\n        /* \"#utility.yul\":1364:1373   */\n      dup4\n        /* \"#utility.yul\":1360:1379   */\n      add\n        /* \"#utility.yul\":1351:1357   */\n      dup8\n        /* \"#utility.yul\":1307:1380   */\n      tag_24\n      jump\t// in\n    tag_33:\n        /* \"#utility.yul\":1390:1463   */\n      tag_34\n        /* \"#utility.yul\":1458:1461   */\n      0xa0\n        /* \"#utility.yul\":1447:1456   */\n      dup4\n        /* \"#utility.yul\":1443:1462   */\n      add\n        /* \"#utility.yul\":1434:1440   */\n      dup7\n        /* \"#utility.yul\":1390:1463   */\n      tag_24\n      jump\t// in\n    tag_34:\n        /* \"#utility.yul\":1511:1520   */\n      dup2\n        /* \"#utility.yul\":1505:1509   */\n      dup2\n        /* \"#utility.yul\":1501:1521   */\n      sub\n        /* \"#utility.yul\":1495:1498   */\n      0xc0\n        /* \"#utility.yul\":1484:1493   */\n      dup4\n        /* \"#utility.yul\":1480:1499   */\n      add\n        /* \"#utility.yul\":1473:1522   */\n      mstore\n        /* \"#utility.yul\":1539:1615   */\n      tag_35\n        /* \"#utility.yul\":1610:1614   */\n      dup2\n        /* \"#utility.yul\":1601:1607   */\n      dup6\n        /* \"#utility.yul\":1539:1615   */\n      tag_14\n      jump\t// in\n    tag_35:\n        /* \"#utility.yul\":1531:1615   */\n      swap1\n      pop\n        /* \"#utility.yul\":1625:1698   */\n      tag_36\n        /* \"#utility.yul\":1693:1696   */\n      0xe0\n        /* \"#utility.yul\":1682:1691   */\n      dup4\n        /* \"#utility.yul\":1678:1697   */\n      add\n        /* \"#utility.yul\":1669:1675   */\n      dup5\n        /* \"#utility.yul\":1625:1698   */\n      tag_10\n      jump\t// in\n    tag_36:\n        /* \"#utility.yul\":621:1705   */\n      swap10\n      swap9\n      pop\n      pop\n      pop\n      pop\n      pop\n      pop\n      pop\n      pop\n      pop\n      jump\t// out\n        /* \"#utility.yul\":1711:1809   */\n    tag_17:\n        /* \"#utility.yul\":1762:1768   */\n      0x00\n        /* \"#utility.yul\":1796:1801   */\n      dup2\n        /* \"#utility.yul\":1790:1802   */\n      mload\n        /* \"#utility.yul\":1780:1802   */\n      swap1\n      pop\n        /* \"#utility.yul\":1711:1809   */\n      swap2\n      swap1\n      pop\n      jump\t// out\n        /* \"#utility.yul\":1815:1983   */\n    tag_19:\n        /* \"#utility.yul\":1898:1909   */\n      0x00\n        /* \"#utility.yul\":1932:1938   */\n      dup3\n        /* \"#utility.yul\":1927:1930   */\n      dup3\n        /* \"#utility.yul\":1920:1939   */\n      mstore\n        /* \"#utility.yul\":1972:1976   */\n      0x20\n        /* \"#utility.yul\":1967:1970   */\n      dup3\n        /* \"#utility.yul\":1963:1977   */\n      add\n        /* \"#utility.yul\":1948:1977   */\n      swap1\n      pop\n        /* \"#utility.yul\":1815:1983   */\n      swap3\n      swap2\n      pop\n      pop\n      jump\t// out\n        /* \"#utility.yul\":1989:2085   */\n    tag_13:\n        /* \"#utility.yul\":2026:2033   */\n      0x00\n        /* \"#utility.yul\":2055:2079   */\n      tag_40\n        /* \"#utility.yul\":2073:2078   */\n      dup3\n        /* \"#utility.yul\":2055:2079   */\n      tag_41\n      jump\t// in\n    tag_40:\n        /* \"#utility.yul\":2044:2079   */\n      swap1\n      pop\n        /* \"#utility.yul\":1989:2085   */\n      swap2\n      swap1\n      pop\n      jump\t// out\n        /* \"#utility.yul\":2091:2217   */\n    tag_41:\n        /* \"#utility.yul\":2128:2135   */\n      0x00\n        /* \"#utility.yul\":2168:2210   */\n      0xffffffffffffffffffffffffffffffffffffffff\n        /* \"#utility.yul\":2161:2166   */\n      dup3\n        /* \"#utility.yul\":2157:2211   */\n      and\n        /* \"#utility.yul\":2146:2211   */\n      swap1\n      pop\n        /* \"#utility.yul\":2091:2217   */\n      swap2\n      swap1\n      pop\n      jump\t// out\n        /* \"#utility.yul\":2223:2300   */\n    tag_27:\n        /* \"#utility.yul\":2260:2267   */\n      0x00\n        /* \"#utility.yul\":2289:2294   */\n      dup2\n        /* \"#utility.yul\":2278:2294   */\n      swap1\n      pop\n        /* \"#utility.yul\":2223:2300   */\n      swap2\n      swap1\n      pop\n      jump\t// out\n        /* \"#utility.yul\":2306:2613   */\n    tag_21:\n        /* \"#utility.yul\":2374:2375   */\n      0x00\n        /* \"#utility.yul\":2384:2497   */\n    tag_45:\n        /* \"#utility.yul\":2398:2404   */\n      dup4\n        /* \"#utility.yul\":2395:2396   */\n      dup2\n        /* \"#utility.yul\":2392:2405   */\n      lt\n        /* \"#utility.yul\":2384:2497   */\n      iszero\n      tag_47\n      jumpi\n        /* \"#utility.yul\":2483:2484   */\n      dup1\n        /* \"#utility.yul\":2478:2481   */\n      dup3\n        /* \"#utility.yul\":2474:2485   */\n      add\n        /* \"#utility.yul\":2468:2486   */\n      mload\n        /* \"#utility.yul\":2464:2465   */\n      dup2\n        /* \"#utility.yul\":2459:2462   */\n      dup5\n        /* \"#utility.yul\":2455:2466   */\n      add\n        /* \"#utility.yul\":2448:2487   */\n      mstore\n        /* \"#utility.yul\":2420:2422   */\n      0x20\n        /* \"#utility.yul\":2417:2418   */\n      dup2\n        /* \"#utility.yul\":2413:2423   */\n      add\n        /* \"#utility.yul\":2408:2423   */\n      swap1\n      pop\n        /* \"#utility.yul\":2384:2497   */\n      jump(tag_45)\n    tag_47:\n        /* \"#utility.yul\":2515:2521   */\n      dup4\n        /* \"#utility.yul\":2512:2513   */\n      dup2\n        /* \"#utility.yul\":2509:2522   */\n      gt\n        /* \"#utility.yul\":2506:2607   */\n      iszero\n      tag_48\n      jumpi\n        /* \"#utility.yul\":2595:2596   */\n      0x00\n        /* \"#utility.yul\":2586:2592   */\n      dup5\n        /* \"#utility.yul\":2581:2584   */\n      dup5\n        /* \"#utility.yul\":2577:2593   */\n      add\n        /* \"#utility.yul\":2570:2597   */\n      mstore\n        /* \"#utility.yul\":2506:2607   */\n    tag_48:\n        /* \"#utility.yul\":2355:2613   */\n      pop\n        /* \"#utility.yul\":2306:2613   */\n      pop\n      pop\n      pop\n      jump\t// out\n        /* \"#utility.yul\":2619:2721   */\n    tag_23:\n        /* \"#utility.yul\":2660:2666   */\n      0x00\n        /* \"#utility.yul\":2711:2713   */\n      0x1f\n        /* \"#utility.yul\":2707:2714   */\n      not\n        /* \"#utility.yul\":2702:2704   */\n      0x1f\n        /* \"#utility.yul\":2695:2700   */\n      dup4\n        /* \"#utility.yul\":2691:2705   */\n      add\n        /* \"#utility.yul\":2687:2715   */\n      and\n        /* \"#utility.yul\":2677:2715   */\n      swap1\n      pop\n        /* \"#utility.yul\":2619:2721   */\n      swap2\n      swap1\n      pop\n      jump\t// out\n\n    auxdata: 0xa2646970667358221220f505f0fd71bc7096be4ef377e0d8b06977be97a2def8ac72064ef79a5b9a947664736f6c63430008070033\n}\n",
				"bytecode": {
					"linkReferences": {},
					"object": "608060405234801561001057600080fd5b506102a5806100206000396000f3fe608060405234801561001057600080fd5b506004361061002b5760003560e01c806386485aaa14610030575b600080fd5b610038610055565b60405161004c98979695949392919061014e565b60405180910390f35b600080600080600080606060008046905060004190506000449050600045905060004390506000429050600080368080601f016020809104026020016040519081016040528093929190818152602001838380828437600081840152601f19601f820116905080830192505050505050509050600033905087878787878787879f509f509f509f509f509f509f509f5050505050505050509091929394959697565b610100816101ef565b82525050565b6000610111826101d3565b61011b81856101de565b935061012b81856020860161022b565b6101348161025e565b840191505092915050565b61014881610221565b82525050565b600061010082019050610164600083018b61013f565b610171602083018a6100f7565b61017e604083018961013f565b61018b606083018861013f565b610198608083018761013f565b6101a560a083018661013f565b81810360c08301526101b78185610106565b90506101c660e08301846100f7565b9998505050505050505050565b600081519050919050565b600082825260208201905092915050565b60006101fa82610201565b9050919050565b600073ffffffffffffffffffffffffffffffffffffffff82169050919050565b6000819050919050565b60005b8381101561024957808201518184015260208101905061022e565b83811115610258576000848401525b50505050565b6000601f19601f830116905091905056fea2646970667358221220f505f0fd71bc7096be4ef377e0d8b06977be97a2def8ac72064ef79a5b9a947664736f6c63430008070033",
					"opcodes": "PUSH1 0x80 PUSH1 0x40 MSTORE CALLVALUE DUP1 ISZERO PUSH2 0x10 JUMPI PUSH1 0x0 DUP1 REVERT JUMPDEST POP PUSH2 0x2A5 DUP1 PUSH2 0x20 PUSH1 0x0 CODECOPY PUSH1 0x0 RETURN INVALID PUSH1 0x80 PUSH1 0x40 MSTORE CALLVALUE DUP1 ISZERO PUSH2 0x10 JUMPI PUSH1 0x0 DUP1 REVERT JUMPDEST POP PUSH1 0x4 CALLDATASIZE LT PUSH2 0x2B JUMPI PUSH1 0x0 CALLDATALOAD PUSH1 0xE0 SHR DUP1 PUSH4 0x86485AAA EQ PUSH2 0x30 JUMPI JUMPDEST PUSH1 0x0 DUP1 REVERT JUMPDEST PUSH2 0x38 PUSH2 0x55 JUMP JUMPDEST PUSH1 0x40 MLOAD PUSH2 0x4C SWAP9 SWAP8 SWAP7 SWAP6 SWAP5 SWAP4 SWAP3 SWAP2 SWAP1 PUSH2 0x14E JUMP JUMPDEST PUSH1 0x40 MLOAD DUP1 SWAP2 SUB SWAP1 RETURN JUMPDEST PUSH1 0x0 DUP1 PUSH1 0x0 DUP1 PUSH1 0x0 DUP1 PUSH1 0x60 PUSH1 0x0 DUP1 CHAINID SWAP1 POP PUSH1 0x0 COINBASE SWAP1 POP PUSH1 0x0 DIFFICULTY SWAP1 POP PUSH1 0x0 GASLIMIT SWAP1 POP PUSH1 0x0 NUMBER SWAP1 POP PUSH1 0x0 TIMESTAMP SWAP1 POP PUSH1 0x0 DUP1 CALLDATASIZE DUP1 DUP1 PUSH1 0x1F ADD PUSH1 0x20 DUP1 SWAP2 DIV MUL PUSH1 0x20 ADD PUSH1 0x40 MLOAD SWAP1 DUP2 ADD PUSH1 0x40 MSTORE DUP1 SWAP4 SWAP3 SWAP2 SWAP1 DUP2 DUP2 MSTORE PUSH1 0x20 ADD DUP4 DUP4 DUP1 DUP3 DUP5 CALLDATACOPY PUSH1 0x0 DUP2 DUP5 ADD MSTORE PUSH1 0x1F NOT PUSH1 0x1F DUP3 ADD AND SWAP1 POP DUP1 DUP4 ADD SWAP3 POP POP POP POP POP POP POP SWAP1 POP PUSH1 0x0 CALLER SWAP1 POP DUP8 DUP8 DUP8 DUP8 DUP8 DUP8 DUP8 DUP8 SWAP16 POP SWAP16 POP SWAP16 POP SWAP16 POP SWAP16 POP SWAP16 POP SWAP16 POP SWAP16 POP POP POP POP POP POP POP POP POP SWAP1 SWAP2 SWAP3 SWAP4 SWAP5 SWAP6 SWAP7 SWAP8 JUMP JUMPDEST PUSH2 0x100 DUP2 PUSH2 0x1EF JUMP JUMPDEST DUP3 MSTORE POP POP JUMP JUMPDEST PUSH1 0x0 PUSH2 0x111 DUP3 PUSH2 0x1D3 JUMP JUMPDEST PUSH2 0x11B DUP2 DUP6 PUSH2 0x1DE JUMP JUMPDEST SWAP4 POP PUSH2 0x12B DUP2 DUP6 PUSH1 0x20 DUP7 ADD PUSH2 0x22B JUMP JUMPDEST PUSH2 0x134 DUP2 PUSH2 0x25E JUMP JUMPDEST DUP5 ADD SWAP2 POP POP SWAP3 SWAP2 POP POP JUMP JUMPDEST PUSH2 0x148 DUP2 PUSH2 0x221 JUMP JUMPDEST DUP3 MSTORE POP POP JUMP JUMPDEST PUSH1 0x0 PUSH2 0x100 DUP3 ADD SWAP1 POP PUSH2 0x164 PUSH1 0x0 DUP4 ADD DUP12 PUSH2 0x13F JUMP JUMPDEST PUSH2 0x171 PUSH1 0x20 DUP4 ADD DUP11 PUSH2 0xF7 JUMP JUMPDEST PUSH2 0x17E PUSH1 0x40 DUP4 ADD DUP10 PUSH2 0x13F JUMP JUMPDEST PUSH2 0x18B PUSH1 0x60 DUP4 ADD DUP9 PUSH2 0x13F JUMP JUMPDEST PUSH2 0x198 PUSH1 0x80 DUP4 ADD DUP8 PUSH2 0x13F JUMP JUMPDEST PUSH2 0x1A5 PUSH1 0xA0 DUP4 ADD DUP7 PUSH2 0x13F JUMP JUMPDEST DUP2 DUP2 SUB PUSH1 0xC0 DUP4 ADD MSTORE PUSH2 0x1B7 DUP2 DUP6 PUSH2 0x106 JUMP JUMPDEST SWAP1 POP PUSH2 0x1C6 PUSH1 0xE0 DUP4 ADD DUP5 PUSH2 0xF7 JUMP JUMPDEST SWAP10 SWAP9 POP POP POP POP POP POP POP POP POP JUMP JUMPDEST PUSH1 0x0 DUP2 MLOAD SWAP1 POP SWAP2 SWAP1 POP JUMP JUMPDEST PUSH1 0x0 DUP3 DUP3 MSTORE PUSH1 0x20 DUP3 ADD SWAP1 POP SWAP3 SWAP2 POP POP JUMP JUMPDEST PUSH1 0x0 PUSH2 0x1FA DUP3 PUSH2 0x201 JUMP JUMPDEST SWAP1 POP SWAP2 SWAP1 POP JUMP JUMPDEST PUSH1 0x0 PUSH20 0xFFFFFFFFFFFFFFFFFFFFFFFFFFFFFFFFFFFFFFFF DUP3 AND SWAP1 POP SWAP2 SWAP1 POP JUMP JUMPDEST PUSH1 0x0 DUP2 SWAP1 POP SWAP2 SWAP1 POP JUMP JUMPDEST PUSH1 0x0 JUMPDEST DUP4 DUP2 LT ISZERO PUSH2 0x249 JUMPI DUP1 DUP3 ADD MLOAD DUP2 DUP5 ADD MSTORE PUSH1 0x20 DUP2 ADD SWAP1 POP PUSH2 0x22E JUMP JUMPDEST DUP4 DUP2 GT ISZERO PUSH2 0x258 JUMPI PUSH1 0x0 DUP5 DUP5 ADD MSTORE JUMPDEST POP POP POP POP JUMP JUMPDEST PUSH1 0x0 PUSH1 0x1F NOT PUSH1 0x1F DUP4 ADD AND SWAP1 POP SWAP2 SWAP1 POP JUMP INVALID LOG2 PUSH5 0x6970667358 0x22 SLT KECCAK256 CREATE2 SDIV CREATE REVERT PUSH18 0xBC7096BE4EF377E0D8B06977BE97A2DEF8AC PUSH19 0x64EF79A5B9A947664736F6C63430008070033 "
				},
				"gasEstimates": {
					"creation": {
						"codeDepositCost": "135400",
						"executionCost": "183",
						"totalCost": "135583"
					},
					"external": {
						"get_metadata()": "infinite"
					}
				},
				"methodIdentifiers": {
					"get_metadata()": "86485aaa"
				}
			},
			"storageLayout": {
				"storage": [],
				"types": null
			},
			"userdoc": {
				"kind": "user",
				"methods": {},
				"version": 1
			}
		}
	}
}