{
	"contracts/10_Dynamic_Bytes_Array.sol": {
		"dynamic_bytes_array": {
			"abi": [
				{
					"inputs": [],
					"name": "b",
					"outputs": [
						{
							"internalType": "bytes",
							"name": "",
							"type": "bytes"
						}
					],
					"stateMutability": "view",
					"type": "function"
				},
				{
					"inputs": [
						{
							"internalType": "uint256",
							"name": "pos",
							"type": "uint256"
						}
					],
					"name": "disp_b",
					"outputs": [
						{
							"internalType": "bytes1",
							"name": "",
							"type": "bytes1"
						}
					],
					"stateMutability": "view",
					"type": "function"
				},
				{
					"inputs": [],
					"name": "length",
					"outputs": [
						{
							"internalType": "uint256",
							"name": "",
							"type": "uint256"
						}
					],
					"stateMutability": "view",
					"type": "function"
				},
				{
					"inputs": [],
					"name": "pop_element",
					"outputs": [],
					"stateMutability": "nonpayable",
					"type": "function"
				},
				{
					"inputs": [],
					"name": "push_element",
					"outputs": [],
					"stateMutability": "nonpayable",
					"type": "function"
				}
			],
			"devdoc": {
				"kind": "dev",
				"methods": {},
				"version": 1
			},
			"evm": {
				"assembly": "    /* \"contracts/10_Dynamic_Bytes_Array.sol\":79:689  contract dynamic_bytes_array\r... */\n  mstore(0x40, 0x80)\n  callvalue\n  dup1\n  iszero\n  tag_1\n  jumpi\n  0x00\n  dup1\n  revert\ntag_1:\n  pop\n  dataSize(sub_0)\n  dup1\n  dataOffset(sub_0)\n  0x00\n  codecopy\n  0x00\n  return\nstop\n\nsub_0: assembly {\n        /* \"contracts/10_Dynamic_Bytes_Array.sol\":79:689  contract dynamic_bytes_array\r... */\n      mstore(0x40, 0x80)\n      callvalue\n      dup1\n      iszero\n      tag_1\n      jumpi\n      0x00\n      dup1\n      revert\n    tag_1:\n      pop\n      jumpi(tag_2, lt(calldatasize, 0x04))\n      shr(0xe0, calldataload(0x00))\n      dup1\n      0x0ba417b5\n      eq\n      tag_3\n      jumpi\n      dup1\n      0x1d637c48\n      eq\n      tag_4\n      jumpi\n      dup1\n      0x1f7b6d32\n      eq\n      tag_5\n      jumpi\n      dup1\n      0x4df7e3d0\n      eq\n      tag_6\n      jumpi\n      dup1\n      0x6717beb8\n      eq\n      tag_7\n      jumpi\n    tag_2:\n      0x00\n      dup1\n      revert\n        /* \"contracts/10_Dynamic_Bytes_Array.sol\":322:383  function pop_element() public\r... */\n    tag_3:\n      tag_8\n      tag_9\n      jump\t// in\n    tag_8:\n      stop\n        /* \"contracts/10_Dynamic_Bytes_Array.sol\":595:686  function disp_b(uint pos) public view returns(bytes1)\r... */\n    tag_4:\n      tag_10\n      0x04\n      dup1\n      calldatasize\n      sub\n      dup2\n      add\n      swap1\n      tag_11\n      swap2\n      swap1\n      tag_12\n      jump\t// in\n    tag_11:\n      tag_13\n      jump\t// in\n    tag_10:\n      mload(0x40)\n      tag_14\n      swap2\n      swap1\n      tag_15\n      jump\t// in\n    tag_14:\n      mload(0x40)\n      dup1\n      swap2\n      sub\n      swap1\n      return\n        /* \"contracts/10_Dynamic_Bytes_Array.sol\":446:529  function length() public view returns(uint)\r... */\n    tag_5:\n      tag_16\n      tag_17\n      jump\t// in\n    tag_16:\n      mload(0x40)\n      tag_18\n      swap2\n      swap1\n      tag_19\n      jump\t// in\n    tag_18:\n      mload(0x40)\n      dup1\n      swap2\n      sub\n      swap1\n      return\n        /* \"contracts/10_Dynamic_Bytes_Array.sol\":116:130  bytes public b */\n    tag_6:\n      tag_20\n      tag_21\n      jump\t// in\n    tag_20:\n      mload(0x40)\n      tag_22\n      swap2\n      swap1\n      tag_23\n      jump\t// in\n    tag_22:\n      mload(0x40)\n      dup1\n      swap2\n      sub\n      swap1\n      return\n        /* \"contracts/10_Dynamic_Bytes_Array.sol\":194:260  function push_element() public\r... */\n    tag_7:\n      tag_24\n      tag_25\n      jump\t// in\n    tag_24:\n      stop\n        /* \"contracts/10_Dynamic_Bytes_Array.sol\":322:383  function pop_element() public\r... */\n    tag_9:\n        /* \"contracts/10_Dynamic_Bytes_Array.sol\":368:369  b */\n      0x00\n        /* \"contracts/10_Dynamic_Bytes_Array.sol\":368:375  b.pop() */\n      dup1\n      sload\n      dup1\n      tag_27\n      swap1\n      tag_28\n      jump\t// in\n    tag_27:\n      dup1\n      tag_29\n      jumpi\n      mstore(0x00, 0x4e487b7100000000000000000000000000000000000000000000000000000000)\n      mstore(0x04, 0x31)\n      revert(0x00, 0x24)\n    tag_29:\n      0x1f\n      dup2\n      gt\n      0x00\n      dup2\n      eq\n      tag_31\n      jumpi\n      0x01\n      dup2\n      eq\n      tag_32\n      jumpi\n      jump(tag_30)\n    tag_31:\n      0x01\n      dup3\n      0x21\n      sub\n      0x0100\n      exp\n      sub\n      0x01\n      dup4\n      sub\n      swap3\n      pop\n      0x02\n      dup4\n      mul\n      dup5\n      dup3\n      not\n      and\n      or\n      swap4\n      pop\n      pop\n      jump(tag_30)\n    tag_32:\n      dup4\n      0x00\n      mstore\n      keccak256(0x00, 0x20)\n      dup3\n      0x20\n      dup2\n      eq\n      tag_34\n      jumpi\n      0x1f\n      0x01\n      dup6\n      sub\n      and\n      0x20\n      0x01\n      dup7\n      sub\n      div\n      dup4\n      add\n      swap3\n      pop\n      dup3\n      sload\n      0x01\n      dup3\n      0x20\n      sub\n      0x0100\n      exp\n      sub\n      dup2\n      dup2\n      not\n      and\n      swap2\n      pop\n      dup2\n      dup6\n      sstore\n      0x02\n      dup9\n      sub\n      swap8\n      pop\n      pop\n      pop\n      pop\n      jump(tag_33)\n    tag_34:\n      dup2\n      sload\n      0x00\n      dup4\n      sstore\n      not(0xff)\n      dup2\n      and\n      swap1\n      pop\n      0x3e\n      dup2\n      or\n      swap6\n      pop\n      pop\n    tag_33:\n      pop\n      pop\n    tag_30:\n      pop\n      dup2\n      dup4\n      sstore\n      pop\n      pop\n      pop\n        /* \"contracts/10_Dynamic_Bytes_Array.sol\":322:383  function pop_element() public\r... */\n      jump\t// out\n        /* \"contracts/10_Dynamic_Bytes_Array.sol\":595:686  function disp_b(uint pos) public view returns(bytes1)\r... */\n    tag_13:\n        /* \"contracts/10_Dynamic_Bytes_Array.sol\":641:647  bytes1 */\n      0x00\n        /* \"contracts/10_Dynamic_Bytes_Array.sol\":672:673  b */\n      dup1\n        /* \"contracts/10_Dynamic_Bytes_Array.sol\":674:677  pos */\n      dup3\n        /* \"contracts/10_Dynamic_Bytes_Array.sol\":672:678  b[pos] */\n      dup2\n      sload\n      tag_36\n      swap1\n      tag_28\n      jump\t// in\n    tag_36:\n      dup2\n      lt\n      tag_37\n      jumpi\n      tag_38\n      tag_39\n      jump\t// in\n    tag_38:\n    tag_37:\n      dup2\n      sload\n      0x01\n      and\n      iszero\n      tag_40\n      jumpi\n      swap1\n      0x00\n      mstore\n      keccak256(0x00, 0x20)\n      swap1\n      0x20\n      swap2\n      dup3\n      dup3\n      div\n      add\n      swap2\n      swap1\n      mod\n    tag_40:\n      swap1\n      sload\n      swap1\n      byte\n      0x0100000000000000000000000000000000000000000000000000000000000000\n      mul\n        /* \"contracts/10_Dynamic_Bytes_Array.sol\":665:678  return b[pos] */\n      swap1\n      pop\n        /* \"contracts/10_Dynamic_Bytes_Array.sol\":595:686  function disp_b(uint pos) public view returns(bytes1)\r... */\n      swap2\n      swap1\n      pop\n      jump\t// out\n        /* \"contracts/10_Dynamic_Bytes_Array.sol\":446:529  function length() public view returns(uint)\r... */\n    tag_17:\n        /* \"contracts/10_Dynamic_Bytes_Array.sol\":484:488  uint */\n      0x00\n        /* \"contracts/10_Dynamic_Bytes_Array.sol\":513:514  b */\n      dup1\n        /* \"contracts/10_Dynamic_Bytes_Array.sol\":513:521  b.length */\n      dup1\n      sload\n      tag_42\n      swap1\n      tag_28\n      jump\t// in\n    tag_42:\n      swap1\n      pop\n        /* \"contracts/10_Dynamic_Bytes_Array.sol\":506:521  return b.length */\n      swap1\n      pop\n        /* \"contracts/10_Dynamic_Bytes_Array.sol\":446:529  function length() public view returns(uint)\r... */\n      swap1\n      jump\t// out\n        /* \"contracts/10_Dynamic_Bytes_Array.sol\":116:130  bytes public b */\n    tag_21:\n      0x00\n      dup1\n      sload\n      tag_43\n      swap1\n      tag_28\n      jump\t// in\n    tag_43:\n      dup1\n      0x1f\n      add\n      0x20\n      dup1\n      swap2\n      div\n      mul\n      0x20\n      add\n      mload(0x40)\n      swap1\n      dup2\n      add\n      0x40\n      mstore\n      dup1\n      swap3\n      swap2\n      swap1\n      dup2\n      dup2\n      mstore\n      0x20\n      add\n      dup3\n      dup1\n      sload\n      tag_44\n      swap1\n      tag_28\n      jump\t// in\n    tag_44:\n      dup1\n      iszero\n      tag_45\n      jumpi\n      dup1\n      0x1f\n      lt\n      tag_46\n      jumpi\n      0x0100\n      dup1\n      dup4\n      sload\n      div\n      mul\n      dup4\n      mstore\n      swap2\n      0x20\n      add\n      swap2\n      jump(tag_45)\n    tag_46:\n      dup3\n      add\n      swap2\n      swap1\n      0x00\n      mstore\n      keccak256(0x00, 0x20)\n      swap1\n    tag_47:\n      dup2\n      sload\n      dup2\n      mstore\n      swap1\n      0x01\n      add\n      swap1\n      0x20\n      add\n      dup1\n      dup4\n      gt\n      tag_47\n      jumpi\n      dup3\n      swap1\n      sub\n      0x1f\n      and\n      dup3\n      add\n      swap2\n    tag_45:\n      pop\n      pop\n      pop\n      pop\n      pop\n      dup2\n      jump\t// out\n        /* \"contracts/10_Dynamic_Bytes_Array.sol\":194:260  function push_element() public\r... */\n    tag_25:\n        /* \"contracts/10_Dynamic_Bytes_Array.sol\":241:242  b */\n      0x00\n        /* \"contracts/10_Dynamic_Bytes_Array.sol\":241:252  b.push(\"a\") */\n      dup1\n      dup1\n      sload\n      dup1\n      tag_49\n      swap1\n      tag_28\n      jump\t// in\n    tag_49:\n      dup1\n      0x1f\n      dup2\n      eq\n      tag_51\n      jumpi\n      jump(tag_50)\n    tag_51:\n      dup4\n      0x00\n      mstore\n      keccak256(0x00, 0x20)\n      not(0xff)\n      dup5\n      and\n      dup2\n      sstore\n      0x3f\n      swap4\n      pop\n      pop\n    tag_50:\n      pop\n      0x02\n      dup3\n      add\n      dup4\n      sstore\n      0x01\n      dup2\n      add\n      swap3\n      pop\n      pop\n      pop\n      0x01\n      swap1\n      sub\n      dup2\n      sload\n      0x01\n      and\n      iszero\n      tag_52\n      jumpi\n      swap1\n      0x00\n      mstore\n      keccak256(0x00, 0x20)\n      swap1\n      0x20\n      swap2\n      dup3\n      dup3\n      div\n      add\n      swap2\n      swap1\n      mod\n    tag_52:\n      0x6100000000000000000000000000000000000000000000000000000000000000\n      swap1\n      swap2\n      swap1\n      swap2\n      0x1f\n      sub\n      0x0100\n      exp\n      dup2\n      sload\n      dup2\n      0xff\n      mul\n      not\n      and\n      swap1\n      0x0100000000000000000000000000000000000000000000000000000000000000\n      dup5\n      div\n      mul\n      or\n      swap1\n      sstore\n      pop\n        /* \"contracts/10_Dynamic_Bytes_Array.sol\":194:260  function push_element() public\r... */\n      jump\t// out\n        /* \"#utility.yul\":7:146   */\n    tag_54:\n        /* \"#utility.yul\":53:58   */\n      0x00\n        /* \"#utility.yul\":91:97   */\n      dup2\n        /* \"#utility.yul\":78:98   */\n      calldataload\n        /* \"#utility.yul\":69:98   */\n      swap1\n      pop\n        /* \"#utility.yul\":107:140   */\n      tag_56\n        /* \"#utility.yul\":134:139   */\n      dup2\n        /* \"#utility.yul\":107:140   */\n      tag_57\n      jump\t// in\n    tag_56:\n        /* \"#utility.yul\":7:146   */\n      swap3\n      swap2\n      pop\n      pop\n      jump\t// out\n        /* \"#utility.yul\":152:481   */\n    tag_12:\n        /* \"#utility.yul\":211:217   */\n      0x00\n        /* \"#utility.yul\":260:262   */\n      0x20\n        /* \"#utility.yul\":248:257   */\n      dup3\n        /* \"#utility.yul\":239:246   */\n      dup5\n        /* \"#utility.yul\":235:258   */\n      sub\n        /* \"#utility.yul\":231:263   */\n      slt\n        /* \"#utility.yul\":228:347   */\n      iszero\n      tag_59\n      jumpi\n        /* \"#utility.yul\":266:345   */\n      tag_60\n      tag_61\n      jump\t// in\n    tag_60:\n        /* \"#utility.yul\":228:347   */\n    tag_59:\n        /* \"#utility.yul\":386:387   */\n      0x00\n        /* \"#utility.yul\":411:464   */\n      tag_62\n        /* \"#utility.yul\":456:463   */\n      dup5\n        /* \"#utility.yul\":447:453   */\n      dup3\n        /* \"#utility.yul\":436:445   */\n      dup6\n        /* \"#utility.yul\":432:454   */\n      add\n        /* \"#utility.yul\":411:464   */\n      tag_54\n      jump\t// in\n    tag_62:\n        /* \"#utility.yul\":401:464   */\n      swap2\n      pop\n        /* \"#utility.yul\":357:474   */\n      pop\n        /* \"#utility.yul\":152:481   */\n      swap3\n      swap2\n      pop\n      pop\n      jump\t// out\n        /* \"#utility.yul\":487:602   */\n    tag_63:\n        /* \"#utility.yul\":572:595   */\n      tag_65\n        /* \"#utility.yul\":589:594   */\n      dup2\n        /* \"#utility.yul\":572:595   */\n      tag_66\n      jump\t// in\n    tag_65:\n        /* \"#utility.yul\":567:570   */\n      dup3\n        /* \"#utility.yul\":560:596   */\n      mstore\n        /* \"#utility.yul\":487:602   */\n      pop\n      pop\n      jump\t// out\n        /* \"#utility.yul\":608:968   */\n    tag_67:\n        /* \"#utility.yul\":694:697   */\n      0x00\n        /* \"#utility.yul\":722:760   */\n      tag_69\n        /* \"#utility.yul\":754:759   */\n      dup3\n        /* \"#utility.yul\":722:760   */\n      tag_70\n      jump\t// in\n    tag_69:\n        /* \"#utility.yul\":776:846   */\n      tag_71\n        /* \"#utility.yul\":839:845   */\n      dup2\n        /* \"#utility.yul\":834:837   */\n      dup6\n        /* \"#utility.yul\":776:846   */\n      tag_72\n      jump\t// in\n    tag_71:\n        /* \"#utility.yul\":769:846   */\n      swap4\n      pop\n        /* \"#utility.yul\":855:907   */\n      tag_73\n        /* \"#utility.yul\":900:906   */\n      dup2\n        /* \"#utility.yul\":895:898   */\n      dup6\n        /* \"#utility.yul\":888:892   */\n      0x20\n        /* \"#utility.yul\":881:886   */\n      dup7\n        /* \"#utility.yul\":877:893   */\n      add\n        /* \"#utility.yul\":855:907   */\n      tag_74\n      jump\t// in\n    tag_73:\n        /* \"#utility.yul\":932:961   */\n      tag_75\n        /* \"#utility.yul\":954:960   */\n      dup2\n        /* \"#utility.yul\":932:961   */\n      tag_76\n      jump\t// in\n    tag_75:\n        /* \"#utility.yul\":927:930   */\n      dup5\n        /* \"#utility.yul\":923:962   */\n      add\n        /* \"#utility.yul\":916:962   */\n      swap2\n      pop\n        /* \"#utility.yul\":698:968   */\n      pop\n        /* \"#utility.yul\":608:968   */\n      swap3\n      swap2\n      pop\n      pop\n      jump\t// out\n        /* \"#utility.yul\":974:1092   */\n    tag_77:\n        /* \"#utility.yul\":1061:1085   */\n      tag_79\n        /* \"#utility.yul\":1079:1084   */\n      dup2\n        /* \"#utility.yul\":1061:1085   */\n      tag_80\n      jump\t// in\n    tag_79:\n        /* \"#utility.yul\":1056:1059   */\n      dup3\n        /* \"#utility.yul\":1049:1086   */\n      mstore\n        /* \"#utility.yul\":974:1092   */\n      pop\n      pop\n      jump\t// out\n        /* \"#utility.yul\":1098:1316   */\n    tag_15:\n        /* \"#utility.yul\":1189:1193   */\n      0x00\n        /* \"#utility.yul\":1227:1229   */\n      0x20\n        /* \"#utility.yul\":1216:1225   */\n      dup3\n        /* \"#utility.yul\":1212:1230   */\n      add\n        /* \"#utility.yul\":1204:1230   */\n      swap1\n      pop\n        /* \"#utility.yul\":1240:1309   */\n      tag_82\n        /* \"#utility.yul\":1306:1307   */\n      0x00\n        /* \"#utility.yul\":1295:1304   */\n      dup4\n        /* \"#utility.yul\":1291:1308   */\n      add\n        /* \"#utility.yul\":1282:1288   */\n      dup5\n        /* \"#utility.yul\":1240:1309   */\n      tag_63\n      jump\t// in\n    tag_82:\n        /* \"#utility.yul\":1098:1316   */\n      swap3\n      swap2\n      pop\n      pop\n      jump\t// out\n        /* \"#utility.yul\":1322:1631   */\n    tag_23:\n        /* \"#utility.yul\":1433:1437   */\n      0x00\n        /* \"#utility.yul\":1471:1473   */\n      0x20\n        /* \"#utility.yul\":1460:1469   */\n      dup3\n        /* \"#utility.yul\":1456:1474   */\n      add\n        /* \"#utility.yul\":1448:1474   */\n      swap1\n      pop\n        /* \"#utility.yul\":1520:1529   */\n      dup2\n        /* \"#utility.yul\":1514:1518   */\n      dup2\n        /* \"#utility.yul\":1510:1530   */\n      sub\n        /* \"#utility.yul\":1506:1507   */\n      0x00\n        /* \"#utility.yul\":1495:1504   */\n      dup4\n        /* \"#utility.yul\":1491:1508   */\n      add\n        /* \"#utility.yul\":1484:1531   */\n      mstore\n        /* \"#utility.yul\":1548:1624   */\n      tag_84\n        /* \"#utility.yul\":1619:1623   */\n      dup2\n        /* \"#utility.yul\":1610:1616   */\n      dup5\n        /* \"#utility.yul\":1548:1624   */\n      tag_67\n      jump\t// in\n    tag_84:\n        /* \"#utility.yul\":1540:1624   */\n      swap1\n      pop\n        /* \"#utility.yul\":1322:1631   */\n      swap3\n      swap2\n      pop\n      pop\n      jump\t// out\n        /* \"#utility.yul\":1637:1859   */\n    tag_19:\n        /* \"#utility.yul\":1730:1734   */\n      0x00\n        /* \"#utility.yul\":1768:1770   */\n      0x20\n        /* \"#utility.yul\":1757:1766   */\n      dup3\n        /* \"#utility.yul\":1753:1771   */\n      add\n        /* \"#utility.yul\":1745:1771   */\n      swap1\n      pop\n        /* \"#utility.yul\":1781:1852   */\n      tag_86\n        /* \"#utility.yul\":1849:1850   */\n      0x00\n        /* \"#utility.yul\":1838:1847   */\n      dup4\n        /* \"#utility.yul\":1834:1851   */\n      add\n        /* \"#utility.yul\":1825:1831   */\n      dup5\n        /* \"#utility.yul\":1781:1852   */\n      tag_77\n      jump\t// in\n    tag_86:\n        /* \"#utility.yul\":1637:1859   */\n      swap3\n      swap2\n      pop\n      pop\n      jump\t// out\n        /* \"#utility.yul\":1946:2044   */\n    tag_70:\n        /* \"#utility.yul\":1997:2003   */\n      0x00\n        /* \"#utility.yul\":2031:2036   */\n      dup2\n        /* \"#utility.yul\":2025:2037   */\n      mload\n        /* \"#utility.yul\":2015:2037   */\n      swap1\n      pop\n        /* \"#utility.yul\":1946:2044   */\n      swap2\n      swap1\n      pop\n      jump\t// out\n        /* \"#utility.yul\":2050:2218   */\n    tag_72:\n        /* \"#utility.yul\":2133:2144   */\n      0x00\n        /* \"#utility.yul\":2167:2173   */\n      dup3\n        /* \"#utility.yul\":2162:2165   */\n      dup3\n        /* \"#utility.yul\":2155:2174   */\n      mstore\n        /* \"#utility.yul\":2207:2211   */\n      0x20\n        /* \"#utility.yul\":2202:2205   */\n      dup3\n        /* \"#utility.yul\":2198:2212   */\n      add\n        /* \"#utility.yul\":2183:2212   */\n      swap1\n      pop\n        /* \"#utility.yul\":2050:2218   */\n      swap3\n      swap2\n      pop\n      pop\n      jump\t// out\n        /* \"#utility.yul\":2224:2373   */\n    tag_66:\n        /* \"#utility.yul\":2260:2267   */\n      0x00\n        /* \"#utility.yul\":2300:2366   */\n      0xff00000000000000000000000000000000000000000000000000000000000000\n        /* \"#utility.yul\":2293:2298   */\n      dup3\n        /* \"#utility.yul\":2289:2367   */\n      and\n        /* \"#utility.yul\":2278:2367   */\n      swap1\n      pop\n        /* \"#utility.yul\":2224:2373   */\n      swap2\n      swap1\n      pop\n      jump\t// out\n        /* \"#utility.yul\":2379:2456   */\n    tag_80:\n        /* \"#utility.yul\":2416:2423   */\n      0x00\n        /* \"#utility.yul\":2445:2450   */\n      dup2\n        /* \"#utility.yul\":2434:2450   */\n      swap1\n      pop\n        /* \"#utility.yul\":2379:2456   */\n      swap2\n      swap1\n      pop\n      jump\t// out\n        /* \"#utility.yul\":2462:2769   */\n    tag_74:\n        /* \"#utility.yul\":2530:2531   */\n      0x00\n        /* \"#utility.yul\":2540:2653   */\n    tag_94:\n        /* \"#utility.yul\":2554:2560   */\n      dup4\n        /* \"#utility.yul\":2551:2552   */\n      dup2\n        /* \"#utility.yul\":2548:2561   */\n      lt\n        /* \"#utility.yul\":2540:2653   */\n      iszero\n      tag_96\n      jumpi\n        /* \"#utility.yul\":2639:2640   */\n      dup1\n        /* \"#utility.yul\":2634:2637   */\n      dup3\n        /* \"#utility.yul\":2630:2641   */\n      add\n        /* \"#utility.yul\":2624:2642   */\n      mload\n        /* \"#utility.yul\":2620:2621   */\n      dup2\n        /* \"#utility.yul\":2615:2618   */\n      dup5\n        /* \"#utility.yul\":2611:2622   */\n      add\n        /* \"#utility.yul\":2604:2643   */\n      mstore\n        /* \"#utility.yul\":2576:2578   */\n      0x20\n        /* \"#utility.yul\":2573:2574   */\n      dup2\n        /* \"#utility.yul\":2569:2579   */\n      add\n        /* \"#utility.yul\":2564:2579   */\n      swap1\n      pop\n        /* \"#utility.yul\":2540:2653   */\n      jump(tag_94)\n    tag_96:\n        /* \"#utility.yul\":2671:2677   */\n      dup4\n        /* \"#utility.yul\":2668:2669   */\n      dup2\n        /* \"#utility.yul\":2665:2678   */\n      gt\n        /* \"#utility.yul\":2662:2763   */\n      iszero\n      tag_97\n      jumpi\n        /* \"#utility.yul\":2751:2752   */\n      0x00\n        /* \"#utility.yul\":2742:2748   */\n      dup5\n        /* \"#utility.yul\":2737:2740   */\n      dup5\n        /* \"#utility.yul\":2733:2749   */\n      add\n        /* \"#utility.yul\":2726:2753   */\n      mstore\n        /* \"#utility.yul\":2662:2763   */\n    tag_97:\n        /* \"#utility.yul\":2511:2769   */\n      pop\n        /* \"#utility.yul\":2462:2769   */\n      pop\n      pop\n      pop\n      jump\t// out\n        /* \"#utility.yul\":2775:3095   */\n    tag_28:\n        /* \"#utility.yul\":2819:2825   */\n      0x00\n        /* \"#utility.yul\":2856:2857   */\n      0x02\n        /* \"#utility.yul\":2850:2854   */\n      dup3\n        /* \"#utility.yul\":2846:2858   */\n      div\n        /* \"#utility.yul\":2836:2858   */\n      swap1\n      pop\n        /* \"#utility.yul\":2903:2904   */\n      0x01\n        /* \"#utility.yul\":2897:2901   */\n      dup3\n        /* \"#utility.yul\":2893:2905   */\n      and\n        /* \"#utility.yul\":2924:2942   */\n      dup1\n        /* \"#utility.yul\":2914:2995   */\n      tag_99\n      jumpi\n        /* \"#utility.yul\":2980:2984   */\n      0x7f\n        /* \"#utility.yul\":2972:2978   */\n      dup3\n        /* \"#utility.yul\":2968:2985   */\n      and\n        /* \"#utility.yul\":2958:2985   */\n      swap2\n      pop\n        /* \"#utility.yul\":2914:2995   */\n    tag_99:\n        /* \"#utility.yul\":3042:3044   */\n      0x20\n        /* \"#utility.yul\":3034:3040   */\n      dup3\n        /* \"#utility.yul\":3031:3045   */\n      lt\n        /* \"#utility.yul\":3011:3029   */\n      dup2\n        /* \"#utility.yul\":3008:3046   */\n      eq\n        /* \"#utility.yul\":3005:3089   */\n      iszero\n      tag_100\n      jumpi\n        /* \"#utility.yul\":3061:3079   */\n      tag_101\n      tag_102\n      jump\t// in\n    tag_101:\n        /* \"#utility.yul\":3005:3089   */\n    tag_100:\n        /* \"#utility.yul\":2826:3095   */\n      pop\n        /* \"#utility.yul\":2775:3095   */\n      swap2\n      swap1\n      pop\n      jump\t// out\n        /* \"#utility.yul\":3101:3281   */\n    tag_102:\n        /* \"#utility.yul\":3149:3226   */\n      0x4e487b7100000000000000000000000000000000000000000000000000000000\n        /* \"#utility.yul\":3146:3147   */\n      0x00\n        /* \"#utility.yul\":3139:3227   */\n      mstore\n        /* \"#utility.yul\":3246:3250   */\n      0x22\n        /* \"#utility.yul\":3243:3244   */\n      0x04\n        /* \"#utility.yul\":3236:3251   */\n      mstore\n        /* \"#utility.yul\":3270:3274   */\n      0x24\n        /* \"#utility.yul\":3267:3268   */\n      0x00\n        /* \"#utility.yul\":3260:3275   */\n      revert\n        /* \"#utility.yul\":3287:3467   */\n    tag_39:\n        /* \"#utility.yul\":3335:3412   */\n      0x4e487b7100000000000000000000000000000000000000000000000000000000\n        /* \"#utility.yul\":3332:3333   */\n      0x00\n        /* \"#utility.yul\":3325:3413   */\n      mstore\n        /* \"#utility.yul\":3432:3436   */\n      0x32\n        /* \"#utility.yul\":3429:3430   */\n      0x04\n        /* \"#utility.yul\":3422:3437   */\n      mstore\n        /* \"#utility.yul\":3456:3460   */\n      0x24\n        /* \"#utility.yul\":3453:3454   */\n      0x00\n        /* \"#utility.yul\":3446:3461   */\n      revert\n        /* \"#utility.yul\":3596:3713   */\n    tag_61:\n        /* \"#utility.yul\":3705:3706   */\n      0x00\n        /* \"#utility.yul\":3702:3703   */\n      dup1\n        /* \"#utility.yul\":3695:3707   */\n      revert\n        /* \"#utility.yul\":3719:3821   */\n    tag_76:\n        /* \"#utility.yul\":3760:3766   */\n      0x00\n        /* \"#utility.yul\":3811:3813   */\n      0x1f\n        /* \"#utility.yul\":3807:3814   */\n      not\n        /* \"#utility.yul\":3802:3804   */\n      0x1f\n        /* \"#utility.yul\":3795:3800   */\n      dup4\n        /* \"#utility.yul\":3791:3805   */\n      add\n        /* \"#utility.yul\":3787:3815   */\n      and\n        /* \"#utility.yul\":3777:3815   */\n      swap1\n      pop\n        /* \"#utility.yul\":3719:3821   */\n      swap2\n      swap1\n      pop\n      jump\t// out\n        /* \"#utility.yul\":3827:3949   */\n    tag_57:\n        /* \"#utility.yul\":3900:3924   */\n      tag_110\n        /* \"#utility.yul\":3918:3923   */\n      dup2\n        /* \"#utility.yul\":3900:3924   */\n      tag_80\n      jump\t// in\n    tag_110:\n        /* \"#utility.yul\":3893:3898   */\n      dup2\n        /* \"#utility.yul\":3890:3925   */\n      eq\n        /* \"#utility.yul\":3880:3943   */\n      tag_111\n      jumpi\n        /* \"#utility.yul\":3939:3940   */\n      0x00\n        /* \"#utility.yul\":3936:3937   */\n      dup1\n        /* \"#utility.yul\":3929:3941   */\n      revert\n        /* \"#utility.yul\":3880:3943   */\n    tag_111:\n        /* \"#utility.yul\":3827:3949   */\n      pop\n      jump\t// out\n\n    auxdata: 0xa2646970667358221220f1109a3db4d39124be557729a5373fb989a9411a0d9564c82c618f70ad3ec86264736f6c63430008070033\n}\n",
				"bytecode": {
					"linkReferences": {},
					"object": "608060405234801561001057600080fd5b506105fc806100206000396000f3fe608060405234801561001057600080fd5b50600436106100575760003560e01c80630ba417b51461005c5780631d637c48146100665780631f7b6d32146100965780634df7e3d0146100b45780636717beb8146100d2575b600080fd5b6100646100dc565b005b610080600480360381019061007b91906103a8565b6101c2565b60405161008d919061042c565b60405180910390f35b61009e61022c565b6040516100ab9190610469565b60405180910390f35b6100bc610241565b6040516100c99190610447565b60405180910390f35b6100da6102cf565b005b60008054806100ea90610509565b8061011e577f4e487b7100000000000000000000000000000000000000000000000000000000600052603160045260246000fd5b601f8111600081146101375760018114610159576101b9565b6001826021036101000a036001830392506002830284821916179350506101b9565b83600052602060002082602081146101a157601f6001850316602060018603048301925082546001826020036101000a038181191691508185556002880397505050506101b6565b81546000835560ff1981169050603e81179550505b50505b50818355505050565b6000808281546101d190610509565b81106101e0576101df61056a565b5b8154600116156101ff5790600052602060002090602091828204019190065b9054901a7f0100000000000000000000000000000000000000000000000000000000000000029050919050565b600080805461023a90610509565b9050905090565b6000805461024e90610509565b80601f016020809104026020016040519081016040528092919081815260200182805461027a90610509565b80156102c75780601f1061029c576101008083540402835291602001916102c7565b820191906000526020600020905b8154815290600101906020018083116102aa57829003601f168201915b505050505081565b6000808054806102de90610509565b80601f81146102ec57610302565b83600052602060002060ff1984168155603f9350505b506002820183556001810192505050600190038154600116156103345790600052602060002090602091828204019190065b7f610000000000000000000000000000000000000000000000000000000000000090919091601f036101000a81548160ff021916907f010000000000000000000000000000000000000000000000000000000000000084040217905550565b6000813590506103a2816105af565b92915050565b6000602082840312156103be576103bd610599565b5b60006103cc84828501610393565b91505092915050565b6103de816104a0565b82525050565b60006103ef82610484565b6103f9818561048f565b93506104098185602086016104d6565b6104128161059e565b840191505092915050565b610426816104cc565b82525050565b600060208201905061044160008301846103d5565b92915050565b6000602082019050818103600083015261046181846103e4565b905092915050565b600060208201905061047e600083018461041d565b92915050565b600081519050919050565b600082825260208201905092915050565b60007fff0000000000000000000000000000000000000000000000000000000000000082169050919050565b6000819050919050565b60005b838110156104f45780820151818401526020810190506104d9565b83811115610503576000848401525b50505050565b6000600282049050600182168061052157607f821691505b602082108114156105355761053461053b565b5b50919050565b7f4e487b7100000000000000000000000000000000000000000000000000000000600052602260045260246000fd5b7f4e487b7100000000000000000000000000000000000000000000000000000000600052603260045260246000fd5b600080fd5b6000601f19601f8301169050919050565b6105b8816104cc565b81146105c357600080fd5b5056fea2646970667358221220f1109a3db4d39124be557729a5373fb989a9411a0d9564c82c618f70ad3ec86264736f6c63430008070033",
					"opcodes": "PUSH1 0x80 PUSH1 0x40 MSTORE CALLVALUE DUP1 ISZERO PUSH2 0x10 JUMPI PUSH1 0x0 DUP1 REVERT JUMPDEST POP PUSH2 0x5FC DUP1 PUSH2 0x20 PUSH1 0x0 CODECOPY PUSH1 0x0 RETURN INVALID PUSH1 0x80 PUSH1 0x40 MSTORE CALLVALUE DUP1 ISZERO PUSH2 0x10 JUMPI PUSH1 0x0 DUP1 REVERT JUMPDEST POP PUSH1 0x4 CALLDATASIZE LT PUSH2 0x57 JUMPI PUSH1 0x0 CALLDATALOAD PUSH1 0xE0 SHR DUP1 PUSH4 0xBA417B5 EQ PUSH2 0x5C JUMPI DUP1 PUSH4 0x1D637C48 EQ PUSH2 0x66 JUMPI DUP1 PUSH4 0x1F7B6D32 EQ PUSH2 0x96 JUMPI DUP1 PUSH4 0x4DF7E3D0 EQ PUSH2 0xB4 JUMPI DUP1 PUSH4 0x6717BEB8 EQ PUSH2 0xD2 JUMPI JUMPDEST PUSH1 0x0 DUP1 REVERT JUMPDEST PUSH2 0x64 PUSH2 0xDC JUMP JUMPDEST STOP JUMPDEST PUSH2 0x80 PUSH1 0x4 DUP1 CALLDATASIZE SUB DUP2 ADD SWAP1 PUSH2 0x7B SWAP2 SWAP1 PUSH2 0x3A8 JUMP JUMPDEST PUSH2 0x1C2 JUMP JUMPDEST PUSH1 0x40 MLOAD PUSH2 0x8D SWAP2 SWAP1 PUSH2 0x42C JUMP JUMPDEST PUSH1 0x40 MLOAD DUP1 SWAP2 SUB SWAP1 RETURN JUMPDEST PUSH2 0x9E PUSH2 0x22C JUMP JUMPDEST PUSH1 0x40 MLOAD PUSH2 0xAB SWAP2 SWAP1 PUSH2 0x469 JUMP JUMPDEST PUSH1 0x40 MLOAD DUP1 SWAP2 SUB SWAP1 RETURN JUMPDEST PUSH2 0xBC PUSH2 0x241 JUMP JUMPDEST PUSH1 0x40 MLOAD PUSH2 0xC9 SWAP2 SWAP1 PUSH2 0x447 JUMP JUMPDEST PUSH1 0x40 MLOAD DUP1 SWAP2 SUB SWAP1 RETURN JUMPDEST PUSH2 0xDA PUSH2 0x2CF JUMP JUMPDEST STOP JUMPDEST PUSH1 0x0 DUP1 SLOAD DUP1 PUSH2 0xEA SWAP1 PUSH2 0x509 JUMP JUMPDEST DUP1 PUSH2 0x11E JUMPI PUSH32 0x4E487B7100000000000000000000000000000000000000000000000000000000 PUSH1 0x0 MSTORE PUSH1 0x31 PUSH1 0x4 MSTORE PUSH1 0x24 PUSH1 0x0 REVERT JUMPDEST PUSH1 0x1F DUP2 GT PUSH1 0x0 DUP2 EQ PUSH2 0x137 JUMPI PUSH1 0x1 DUP2 EQ PUSH2 0x159 JUMPI PUSH2 0x1B9 JUMP JUMPDEST PUSH1 0x1 DUP3 PUSH1 0x21 SUB PUSH2 0x100 EXP SUB PUSH1 0x1 DUP4 SUB SWAP3 POP PUSH1 0x2 DUP4 MUL DUP5 DUP3 NOT AND OR SWAP4 POP POP PUSH2 0x1B9 JUMP JUMPDEST DUP4 PUSH1 0x0 MSTORE PUSH1 0x20 PUSH1 0x0 KECCAK256 DUP3 PUSH1 0x20 DUP2 EQ PUSH2 0x1A1 JUMPI PUSH1 0x1F PUSH1 0x1 DUP6 SUB AND PUSH1 0x20 PUSH1 0x1 DUP7 SUB DIV DUP4 ADD SWAP3 POP DUP3 SLOAD PUSH1 0x1 DUP3 PUSH1 0x20 SUB PUSH2 0x100 EXP SUB DUP2 DUP2 NOT AND SWAP2 POP DUP2 DUP6 SSTORE PUSH1 0x2 DUP9 SUB SWAP8 POP POP POP POP PUSH2 0x1B6 JUMP JUMPDEST DUP2 SLOAD PUSH1 0x0 DUP4 SSTORE PUSH1 0xFF NOT DUP2 AND SWAP1 POP PUSH1 0x3E DUP2 OR SWAP6 POP POP JUMPDEST POP POP JUMPDEST POP DUP2 DUP4 SSTORE POP POP POP JUMP JUMPDEST PUSH1 0x0 DUP1 DUP3 DUP2 SLOAD PUSH2 0x1D1 SWAP1 PUSH2 0x509 JUMP JUMPDEST DUP2 LT PUSH2 0x1E0 JUMPI PUSH2 0x1DF PUSH2 0x56A JUMP JUMPDEST JUMPDEST DUP2 SLOAD PUSH1 0x1 AND ISZERO PUSH2 0x1FF JUMPI SWAP1 PUSH1 0x0 MSTORE PUSH1 0x20 PUSH1 0x0 KECCAK256 SWAP1 PUSH1 0x20 SWAP2 DUP3 DUP3 DIV ADD SWAP2 SWAP1 MOD JUMPDEST SWAP1 SLOAD SWAP1 BYTE PUSH32 0x100000000000000000000000000000000000000000000000000000000000000 MUL SWAP1 POP SWAP2 SWAP1 POP JUMP JUMPDEST PUSH1 0x0 DUP1 DUP1 SLOAD PUSH2 0x23A SWAP1 PUSH2 0x509 JUMP JUMPDEST SWAP1 POP SWAP1 POP SWAP1 JUMP JUMPDEST PUSH1 0x0 DUP1 SLOAD PUSH2 0x24E SWAP1 PUSH2 0x509 JUMP JUMPDEST DUP1 PUSH1 0x1F ADD PUSH1 0x20 DUP1 SWAP2 DIV MUL PUSH1 0x20 ADD PUSH1 0x40 MLOAD SWAP1 DUP2 ADD PUSH1 0x40 MSTORE DUP1 SWAP3 SWAP2 SWAP1 DUP2 DUP2 MSTORE PUSH1 0x20 ADD DUP3 DUP1 SLOAD PUSH2 0x27A SWAP1 PUSH2 0x509 JUMP JUMPDEST DUP1 ISZERO PUSH2 0x2C7 JUMPI DUP1 PUSH1 0x1F LT PUSH2 0x29C JUMPI PUSH2 0x100 DUP1 DUP4 SLOAD DIV MUL DUP4 MSTORE SWAP2 PUSH1 0x20 ADD SWAP2 PUSH2 0x2C7 JUMP JUMPDEST DUP3 ADD SWAP2 SWAP1 PUSH1 0x0 MSTORE PUSH1 0x20 PUSH1 0x0 KECCAK256 SWAP1 JUMPDEST DUP2 SLOAD DUP2 MSTORE SWAP1 PUSH1 0x1 ADD SWAP1 PUSH1 0x20 ADD DUP1 DUP4 GT PUSH2 0x2AA JUMPI DUP3 SWAP1 SUB PUSH1 0x1F AND DUP3 ADD SWAP2 JUMPDEST POP POP POP POP POP DUP2 JUMP JUMPDEST PUSH1 0x0 DUP1 DUP1 SLOAD DUP1 PUSH2 0x2DE SWAP1 PUSH2 0x509 JUMP JUMPDEST DUP1 PUSH1 0x1F DUP2 EQ PUSH2 0x2EC JUMPI PUSH2 0x302 JUMP JUMPDEST DUP4 PUSH1 0x0 MSTORE PUSH1 0x20 PUSH1 0x0 KECCAK256 PUSH1 0xFF NOT DUP5 AND DUP2 SSTORE PUSH1 0x3F SWAP4 POP POP JUMPDEST POP PUSH1 0x2 DUP3 ADD DUP4 SSTORE PUSH1 0x1 DUP2 ADD SWAP3 POP POP POP PUSH1 0x1 SWAP1 SUB DUP2 SLOAD PUSH1 0x1 AND ISZERO PUSH2 0x334 JUMPI SWAP1 PUSH1 0x0 MSTORE PUSH1 0x20 PUSH1 0x0 KECCAK256 SWAP1 PUSH1 0x20 SWAP2 DUP3 DUP3 DIV ADD SWAP2 SWAP1 MOD JUMPDEST PUSH32 0x6100000000000000000000000000000000000000000000000000000000000000 SWAP1 SWAP2 SWAP1 SWAP2 PUSH1 0x1F SUB PUSH2 0x100 EXP DUP2 SLOAD DUP2 PUSH1 0xFF MUL NOT AND SWAP1 PUSH32 0x100000000000000000000000000000000000000000000000000000000000000 DUP5 DIV MUL OR SWAP1 SSTORE POP JUMP JUMPDEST PUSH1 0x0 DUP2 CALLDATALOAD SWAP1 POP PUSH2 0x3A2 DUP2 PUSH2 0x5AF JUMP JUMPDEST SWAP3 SWAP2 POP POP JUMP JUMPDEST PUSH1 0x0 PUSH1 0x20 DUP3 DUP5 SUB SLT ISZERO PUSH2 0x3BE JUMPI PUSH2 0x3BD PUSH2 0x599 JUMP JUMPDEST JUMPDEST PUSH1 0x0 PUSH2 0x3CC DUP5 DUP3 DUP6 ADD PUSH2 0x393 JUMP JUMPDEST SWAP2 POP POP SWAP3 SWAP2 POP POP JUMP JUMPDEST PUSH2 0x3DE DUP2 PUSH2 0x4A0 JUMP JUMPDEST DUP3 MSTORE POP POP JUMP JUMPDEST PUSH1 0x0 PUSH2 0x3EF DUP3 PUSH2 0x484 JUMP JUMPDEST PUSH2 0x3F9 DUP2 DUP6 PUSH2 0x48F JUMP JUMPDEST SWAP4 POP PUSH2 0x409 DUP2 DUP6 PUSH1 0x20 DUP7 ADD PUSH2 0x4D6 JUMP JUMPDEST PUSH2 0x412 DUP2 PUSH2 0x59E JUMP JUMPDEST DUP5 ADD SWAP2 POP POP SWAP3 SWAP2 POP POP JUMP JUMPDEST PUSH2 0x426 DUP2 PUSH2 0x4CC JUMP JUMPDEST DUP3 MSTORE POP POP JUMP JUMPDEST PUSH1 0x0 PUSH1 0x20 DUP3 ADD SWAP1 POP PUSH2 0x441 PUSH1 0x0 DUP4 ADD DUP5 PUSH2 0x3D5 JUMP JUMPDEST SWAP3 SWAP2 POP POP JUMP JUMPDEST PUSH1 0x0 PUSH1 0x20 DUP3 ADD SWAP1 POP DUP2 DUP2 SUB PUSH1 0x0 DUP4 ADD MSTORE PUSH2 0x461 DUP2 DUP5 PUSH2 0x3E4 JUMP JUMPDEST SWAP1 POP SWAP3 SWAP2 POP POP JUMP JUMPDEST PUSH1 0x0 PUSH1 0x20 DUP3 ADD SWAP1 POP PUSH2 0x47E PUSH1 0x0 DUP4 ADD DUP5 PUSH2 0x41D JUMP JUMPDEST SWAP3 SWAP2 POP POP JUMP JUMPDEST PUSH1 0x0 DUP2 MLOAD SWAP1 POP SWAP2 SWAP1 POP JUMP JUMPDEST PUSH1 0x0 DUP3 DUP3 MSTORE PUSH1 0x20 DUP3 ADD SWAP1 POP SWAP3 SWAP2 POP POP JUMP JUMPDEST PUSH1 0x0 PUSH32 0xFF00000000000000000000000000000000000000000000000000000000000000 DUP3 AND SWAP1 POP SWAP2 SWAP1 POP JUMP JUMPDEST PUSH1 0x0 DUP2 SWAP1 POP SWAP2 SWAP1 POP JUMP JUMPDEST PUSH1 0x0 JUMPDEST DUP4 DUP2 LT ISZERO PUSH2 0x4F4 JUMPI DUP1 DUP3 ADD MLOAD DUP2 DUP5 ADD MSTORE PUSH1 0x20 DUP2 ADD SWAP1 POP PUSH2 0x4D9 JUMP JUMPDEST DUP4 DUP2 GT ISZERO PUSH2 0x503 JUMPI PUSH1 0x0 DUP5 DUP5 ADD MSTORE JUMPDEST POP POP POP POP JUMP JUMPDEST PUSH1 0x0 PUSH1 0x2 DUP3 DIV SWAP1 POP PUSH1 0x1 DUP3 AND DUP1 PUSH2 0x521 JUMPI PUSH1 0x7F DUP3 AND SWAP2 POP JUMPDEST PUSH1 0x20 DUP3 LT DUP2 EQ ISZERO PUSH2 0x535 JUMPI PUSH2 0x534 PUSH2 0x53B JUMP JUMPDEST JUMPDEST POP SWAP2 SWAP1 POP JUMP JUMPDEST PUSH32 0x4E487B7100000000000000000000000000000000000000000000000000000000 PUSH1 0x0 MSTORE PUSH1 0x22 PUSH1 0x4 MSTORE PUSH1 0x24 PUSH1 0x0 REVERT JUMPDEST PUSH32 0x4E487B7100000000000000000000000000000000000000000000000000000000 PUSH1 0x0 MSTORE PUSH1 0x32 PUSH1 0x4 MSTORE PUSH1 0x24 PUSH1 0x0 REVERT JUMPDEST PUSH1 0x0 DUP1 REVERT JUMPDEST PUSH1 0x0 PUSH1 0x1F NOT PUSH1 0x1F DUP4 ADD AND SWAP1 POP SWAP2 SWAP1 POP JUMP JUMPDEST PUSH2 0x5B8 DUP2 PUSH2 0x4CC JUMP JUMPDEST DUP2 EQ PUSH2 0x5C3 JUMPI PUSH1 0x0 DUP1 REVERT JUMPDEST POP JUMP INVALID LOG2 PUSH5 0x6970667358 0x22 SLT KECCAK256 CALL LT SWAP11 RETURNDATASIZE 0xB4 0xD3 SWAP2 0x24 0xBE SSTORE PUSH24 0x29A5373FB989A9411A0D9564C82C618F70AD3EC86264736F PUSH13 0x63430008070033000000000000 "
				},
				"gasEstimates": {
					"creation": {
						"codeDepositCost": "306400",
						"executionCost": "343",
						"totalCost": "306743"
					},
					"external": {
						"b()": "infinite",
						"disp_b(uint256)": "7190",
						"length()": "2595",
						"pop_element()": "50554",
						"push_element()": "74886"
					}
				},
				"methodIdentifiers": {
					"b()": "4df7e3d0",
					"disp_b(uint256)": "1d637c48",
					"length()": "1f7b6d32",
					"pop_element()": "0ba417b5",
					"push_element()": "6717beb8"
				}
			},
			"storageLayout": {
				"storage": [
					{
						"astId": 3,
						"contract": "contracts/10_Dynamic_Bytes_Array.sol:dynamic_bytes_array",
						"label": "b",
						"offset": 0,
						"slot": "0",
						"type": "t_bytes_storage"
					}
				],
				"types": {
					"t_bytes_storage": {
						"encoding": "bytes",
						"label": "bytes",
						"numberOfBytes": "32"
					}
				}
			},
			"userdoc": {
				"kind": "user",
				"methods": {},
				"version": 1
			}
		}
	}
}