{
	"contracts/19_Visibility.sol": {
		"B": {
			"abi": [
				{
					"inputs": [],
					"name": "External",
					"outputs": [
						{
							"internalType": "uint256",
							"name": "",
							"type": "uint256"
						}
					],
					"stateMutability": "pure",
					"type": "function"
				},
				{
					"inputs": [],
					"name": "Public",
					"outputs": [
						{
							"internalType": "uint256",
							"name": "",
							"type": "uint256"
						}
					],
					"stateMutability": "pure",
					"type": "function"
				}
			],
			"devdoc": {
				"kind": "dev",
				"methods": {},
				"version": 1
			},
			"evm": {
				"assembly": "    /* \"contracts/19_Visibility.sol\":971:1206  contract B is A // Child Contract, Inheritance\r... */\n  mstore(0x40, 0x80)\n    /* \"contracts/19_Visibility.sol\":787:795  Public() */\n  tag_1\n    /* \"contracts/19_Visibility.sol\":787:793  Public */\n  shl(0x20, tag_2)\n    /* \"contracts/19_Visibility.sol\":787:795  Public() */\n  0x20\n  shr\n  jump\t// in\ntag_1:\n    /* \"contracts/19_Visibility.sol\":773:795  uint pubia1 = Public() */\n  0x00\n  sstore\n    /* \"contracts/19_Visibility.sol\":812:821  Private() */\n  tag_3\n    /* \"contracts/19_Visibility.sol\":812:819  Private */\n  shl(0x20, tag_4)\n    /* \"contracts/19_Visibility.sol\":812:821  Private() */\n  0x20\n  shr\n  jump\t// in\ntag_3:\n    /* \"contracts/19_Visibility.sol\":802:821  uint b1 = Private() */\n  0x01\n  sstore\n    /* \"contracts/19_Visibility.sol\":838:848  Internal() */\n  tag_5\n    /* \"contracts/19_Visibility.sol\":838:846  Internal */\n  shl(0x20, tag_6)\n    /* \"contracts/19_Visibility.sol\":838:848  Internal() */\n  0x20\n  shr\n  jump\t// in\ntag_5:\n    /* \"contracts/19_Visibility.sol\":828:848  uint c1 = Internal() */\n  0x02\n  sstore\n    /* \"contracts/19_Visibility.sol\":1036:1044  Public() */\n  tag_7\n    /* \"contracts/19_Visibility.sol\":1036:1042  Public */\n  shl(0x20, tag_2)\n    /* \"contracts/19_Visibility.sol\":1036:1044  Public() */\n  0x20\n  shr\n  jump\t// in\ntag_7:\n    /* \"contracts/19_Visibility.sol\":1026:1044  uint a2 = Public() */\n  0x03\n  sstore\n    /* \"contracts/19_Visibility.sol\":1061:1071  Internal() */\n  tag_8\n    /* \"contracts/19_Visibility.sol\":1061:1069  Internal */\n  shl(0x20, tag_6)\n    /* \"contracts/19_Visibility.sol\":1061:1071  Internal() */\n  0x20\n  shr\n  jump\t// in\ntag_8:\n    /* \"contracts/19_Visibility.sol\":1051:1071  uint c2 = Internal() */\n  0x04\n  sstore\n    /* \"contracts/19_Visibility.sol\":971:1206  contract B is A // Child Contract, Inheritance\r... */\n  callvalue\n  dup1\n  iszero\n  tag_9\n  jumpi\n  0x00\n  dup1\n  revert\ntag_9:\n  pop\n  jump(tag_10)\n    /* \"contracts/19_Visibility.sol\":427:503  function Public() public pure returns(uint)\r... */\ntag_2:\n    /* \"contracts/19_Visibility.sol\":465:469  uint */\n  0x00\n    /* \"contracts/19_Visibility.sol\":494:495  1 */\n  0x01\n    /* \"contracts/19_Visibility.sol\":487:495  return 1 */\n  swap1\n  pop\n    /* \"contracts/19_Visibility.sol\":427:503  function Public() public pure returns(uint)\r... */\n  swap1\n  jump\t// out\n    /* \"contracts/19_Visibility.sol\":511:589  function Private() private pure returns(uint)\r... */\ntag_4:\n    /* \"contracts/19_Visibility.sol\":551:555  uint */\n  0x00\n    /* \"contracts/19_Visibility.sol\":580:581  2 */\n  0x02\n    /* \"contracts/19_Visibility.sol\":573:581  return 2 */\n  swap1\n  pop\n    /* \"contracts/19_Visibility.sol\":511:589  function Private() private pure returns(uint)\r... */\n  swap1\n  jump\t// out\n    /* \"contracts/19_Visibility.sol\":597:677  function Internal() internal pure returns(uint)\r... */\ntag_6:\n    /* \"contracts/19_Visibility.sol\":639:643  uint */\n  0x00\n    /* \"contracts/19_Visibility.sol\":668:669  3 */\n  0x03\n    /* \"contracts/19_Visibility.sol\":661:669  return 3 */\n  swap1\n  pop\n    /* \"contracts/19_Visibility.sol\":597:677  function Internal() internal pure returns(uint)\r... */\n  swap1\n  jump\t// out\n    /* \"contracts/19_Visibility.sol\":971:1206  contract B is A // Child Contract, Inheritance\r... */\ntag_10:\n  dataSize(sub_0)\n  dup1\n  dataOffset(sub_0)\n  0x00\n  codecopy\n  0x00\n  return\nstop\n\nsub_0: assembly {\n        /* \"contracts/19_Visibility.sol\":971:1206  contract B is A // Child Contract, Inheritance\r... */\n      mstore(0x40, 0x80)\n      callvalue\n      dup1\n      iszero\n      tag_1\n      jumpi\n      0x00\n      dup1\n      revert\n    tag_1:\n      pop\n      jumpi(tag_2, lt(calldatasize, 0x04))\n      shr(0xe0, calldataload(0x00))\n      dup1\n      0x5097e51f\n      eq\n      tag_3\n      jumpi\n      dup1\n      0x78f15805\n      eq\n      tag_4\n      jumpi\n    tag_2:\n      0x00\n      dup1\n      revert\n        /* \"contracts/19_Visibility.sol\":427:503  function Public() public pure returns(uint)\r... */\n    tag_3:\n      tag_5\n      tag_6\n      jump\t// in\n    tag_5:\n      mload(0x40)\n      tag_7\n      swap2\n      swap1\n      tag_8\n      jump\t// in\n    tag_7:\n      mload(0x40)\n      dup1\n      swap2\n      sub\n      swap1\n      return\n        /* \"contracts/19_Visibility.sol\":685:765  function External() external pure returns(uint)\r... */\n    tag_4:\n      tag_9\n      tag_10\n      jump\t// in\n    tag_9:\n      mload(0x40)\n      tag_11\n      swap2\n      swap1\n      tag_8\n      jump\t// in\n    tag_11:\n      mload(0x40)\n      dup1\n      swap2\n      sub\n      swap1\n      return\n        /* \"contracts/19_Visibility.sol\":427:503  function Public() public pure returns(uint)\r... */\n    tag_6:\n        /* \"contracts/19_Visibility.sol\":465:469  uint */\n      0x00\n        /* \"contracts/19_Visibility.sol\":494:495  1 */\n      0x01\n        /* \"contracts/19_Visibility.sol\":487:495  return 1 */\n      swap1\n      pop\n        /* \"contracts/19_Visibility.sol\":427:503  function Public() public pure returns(uint)\r... */\n      swap1\n      jump\t// out\n        /* \"contracts/19_Visibility.sol\":685:765  function External() external pure returns(uint)\r... */\n    tag_10:\n        /* \"contracts/19_Visibility.sol\":727:731  uint */\n      0x00\n        /* \"contracts/19_Visibility.sol\":756:757  4 */\n      0x04\n        /* \"contracts/19_Visibility.sol\":749:757  return 4 */\n      swap1\n      pop\n        /* \"contracts/19_Visibility.sol\":685:765  function External() external pure returns(uint)\r... */\n      swap1\n      jump\t// out\n        /* \"#utility.yul\":7:125   */\n    tag_15:\n        /* \"#utility.yul\":94:118   */\n      tag_17\n        /* \"#utility.yul\":112:117   */\n      dup2\n        /* \"#utility.yul\":94:118   */\n      tag_18\n      jump\t// in\n    tag_17:\n        /* \"#utility.yul\":89:92   */\n      dup3\n        /* \"#utility.yul\":82:119   */\n      mstore\n        /* \"#utility.yul\":7:125   */\n      pop\n      pop\n      jump\t// out\n        /* \"#utility.yul\":131:353   */\n    tag_8:\n        /* \"#utility.yul\":224:228   */\n      0x00\n        /* \"#utility.yul\":262:264   */\n      0x20\n        /* \"#utility.yul\":251:260   */\n      dup3\n        /* \"#utility.yul\":247:265   */\n      add\n        /* \"#utility.yul\":239:265   */\n      swap1\n      pop\n        /* \"#utility.yul\":275:346   */\n      tag_20\n        /* \"#utility.yul\":343:344   */\n      0x00\n        /* \"#utility.yul\":332:341   */\n      dup4\n        /* \"#utility.yul\":328:345   */\n      add\n        /* \"#utility.yul\":319:325   */\n      dup5\n        /* \"#utility.yul\":275:346   */\n      tag_15\n      jump\t// in\n    tag_20:\n        /* \"#utility.yul\":131:353   */\n      swap3\n      swap2\n      pop\n      pop\n      jump\t// out\n        /* \"#utility.yul\":359:436   */\n    tag_18:\n        /* \"#utility.yul\":396:403   */\n      0x00\n        /* \"#utility.yul\":425:430   */\n      dup2\n        /* \"#utility.yul\":414:430   */\n      swap1\n      pop\n        /* \"#utility.yul\":359:436   */\n      swap2\n      swap1\n      pop\n      jump\t// out\n\n    auxdata: 0xa2646970667358221220f81ce933cb3929b7486acd44da88138594eb8f7cab18839c98aca191ecdec63e64736f6c63430008070033\n}\n",
				"bytecode": {
					"linkReferences": {},
					"object": "608060405261001261006b60201b60201c565b60005561002361007460201b60201c565b60015561003461007d60201b60201c565b60025561004561006b60201b60201c565b60035561005661007d60201b60201c565b60045534801561006557600080fd5b50610086565b60006001905090565b60006002905090565b60006003905090565b60e3806100946000396000f3fe6080604052348015600f57600080fd5b506004361060325760003560e01c80635097e51f14603757806378f15805146051575b600080fd5b603d606b565b60405160489190608a565b60405180910390f35b60576074565b60405160629190608a565b60405180910390f35b60006001905090565b60006004905090565b60848160a3565b82525050565b6000602082019050609d6000830184607d565b92915050565b600081905091905056fea2646970667358221220f81ce933cb3929b7486acd44da88138594eb8f7cab18839c98aca191ecdec63e64736f6c63430008070033",
					"opcodes": "PUSH1 0x80 PUSH1 0x40 MSTORE PUSH2 0x12 PUSH2 0x6B PUSH1 0x20 SHL PUSH1 0x20 SHR JUMP JUMPDEST PUSH1 0x0 SSTORE PUSH2 0x23 PUSH2 0x74 PUSH1 0x20 SHL PUSH1 0x20 SHR JUMP JUMPDEST PUSH1 0x1 SSTORE PUSH2 0x34 PUSH2 0x7D PUSH1 0x20 SHL PUSH1 0x20 SHR JUMP JUMPDEST PUSH1 0x2 SSTORE PUSH2 0x45 PUSH2 0x6B PUSH1 0x20 SHL PUSH1 0x20 SHR JUMP JUMPDEST PUSH1 0x3 SSTORE PUSH2 0x56 PUSH2 0x7D PUSH1 0x20 SHL PUSH1 0x20 SHR JUMP JUMPDEST PUSH1 0x4 SSTORE CALLVALUE DUP1 ISZERO PUSH2 0x65 JUMPI PUSH1 0x0 DUP1 REVERT JUMPDEST POP PUSH2 0x86 JUMP JUMPDEST PUSH1 0x0 PUSH1 0x1 SWAP1 POP SWAP1 JUMP JUMPDEST PUSH1 0x0 PUSH1 0x2 SWAP1 POP SWAP1 JUMP JUMPDEST PUSH1 0x0 PUSH1 0x3 SWAP1 POP SWAP1 JUMP JUMPDEST PUSH1 0xE3 DUP1 PUSH2 0x94 PUSH1 0x0 CODECOPY PUSH1 0x0 RETURN INVALID PUSH1 0x80 PUSH1 0x40 MSTORE CALLVALUE DUP1 ISZERO PUSH1 0xF JUMPI PUSH1 0x0 DUP1 REVERT JUMPDEST POP PUSH1 0x4 CALLDATASIZE LT PUSH1 0x32 JUMPI PUSH1 0x0 CALLDATALOAD PUSH1 0xE0 SHR DUP1 PUSH4 0x5097E51F EQ PUSH1 0x37 JUMPI DUP1 PUSH4 0x78F15805 EQ PUSH1 0x51 JUMPI JUMPDEST PUSH1 0x0 DUP1 REVERT JUMPDEST PUSH1 0x3D PUSH1 0x6B JUMP JUMPDEST PUSH1 0x40 MLOAD PUSH1 0x48 SWAP2 SWAP1 PUSH1 0x8A JUMP JUMPDEST PUSH1 0x40 MLOAD DUP1 SWAP2 SUB SWAP1 RETURN JUMPDEST PUSH1 0x57 PUSH1 0x74 JUMP JUMPDEST PUSH1 0x40 MLOAD PUSH1 0x62 SWAP2 SWAP1 PUSH1 0x8A JUMP JUMPDEST PUSH1 0x40 MLOAD DUP1 SWAP2 SUB SWAP1 RETURN JUMPDEST PUSH1 0x0 PUSH1 0x1 SWAP1 POP SWAP1 JUMP JUMPDEST PUSH1 0x0 PUSH1 0x4 SWAP1 POP SWAP1 JUMP JUMPDEST PUSH1 0x84 DUP2 PUSH1 0xA3 JUMP JUMPDEST DUP3 MSTORE POP POP JUMP JUMPDEST PUSH1 0x0 PUSH1 0x20 DUP3 ADD SWAP1 POP PUSH1 0x9D PUSH1 0x0 DUP4 ADD DUP5 PUSH1 0x7D JUMP JUMPDEST SWAP3 SWAP2 POP POP JUMP JUMPDEST PUSH1 0x0 DUP2 SWAP1 POP SWAP2 SWAP1 POP JUMP INVALID LOG2 PUSH5 0x6970667358 0x22 SLT KECCAK256 0xF8 SHR 0xE9 CALLER 0xCB CODECOPY 0x29 0xB7 BASEFEE PUSH11 0xCD44DA88138594EB8F7CAB XOR DUP4 SWAP13 SWAP9 0xAC LOG1 SWAP2 0xEC 0xDE 0xC6 RETURNDATACOPY PUSH5 0x736F6C6343 STOP ADDMOD SMOD STOP CALLER "
				},
				"gasEstimates": {
					"creation": {
						"codeDepositCost": "45400",
						"executionCost": "infinite",
						"totalCost": "infinite"
					},
					"external": {
						"External()": "337",
						"Public()": "315"
					}
				},
				"methodIdentifiers": {
					"External()": "78f15805",
					"Public()": "5097e51f"
				}
			},
			"storageLayout": {
				"storage": [
					{
						"astId": 37,
						"contract": "contracts/19_Visibility.sol:B",
						"label": "pubia1",
						"offset": 0,
						"slot": "0",
						"type": "t_uint256"
					},
					{
						"astId": 41,
						"contract": "contracts/19_Visibility.sol:B",
						"label": "b1",
						"offset": 0,
						"slot": "1",
						"type": "t_uint256"
					},
					{
						"astId": 45,
						"contract": "contracts/19_Visibility.sol:B",
						"label": "c1",
						"offset": 0,
						"slot": "2",
						"type": "t_uint256"
					},
					{
						"astId": 52,
						"contract": "contracts/19_Visibility.sol:B",
						"label": "a2",
						"offset": 0,
						"slot": "3",
						"type": "t_uint256"
					},
					{
						"astId": 56,
						"contract": "contracts/19_Visibility.sol:B",
						"label": "c2",
						"offset": 0,
						"slot": "4",
						"type": "t_uint256"
					}
				],
				"types": {
					"t_uint256": {
						"encoding": "inplace",
						"label": "uint256",
						"numberOfBytes": "32"
					}
				}
			},
			"userdoc": {
				"kind": "user",
				"methods": {},
				"version": 1
			}
		}
	}
}