{
	"contracts/14_Enum.sol": {
		"Enum": {
			"abi": [
				{
					"inputs": [
						{
							"internalType": "uint256",
							"name": "val",
							"type": "uint256"
						}
					],
					"name": "change_user_permission",
					"outputs": [],
					"stateMutability": "nonpayable",
					"type": "function"
				},
				{
					"inputs": [],
					"name": "get_lottery",
					"outputs": [
						{
							"internalType": "string",
							"name": "",
							"type": "string"
						}
					],
					"stateMutability": "nonpayable",
					"type": "function"
				},
				{
					"inputs": [],
					"name": "lottery",
					"outputs": [
						{
							"internalType": "uint256",
							"name": "",
							"type": "uint256"
						}
					],
					"stateMutability": "view",
					"type": "function"
				},
				{
					"inputs": [],
					"name": "user",
					"outputs": [
						{
							"internalType": "enum Enum.permission",
							"name": "",
							"type": "uint8"
						}
					],
					"stateMutability": "view",
					"type": "function"
				}
			],
			"devdoc": {
				"kind": "dev",
				"methods": {},
				"version": 1
			},
			"evm": {
				"assembly": "    /* \"contracts/14_Enum.sol\":79:1140  contract Enum\r... */\n  mstore(0x40, 0x80)\n    /* \"contracts/14_Enum.sol\":277:299  permission.not_allowed */\n  0x00\n    /* \"contracts/14_Enum.sol\":252:299  permission public user = permission.not_allowed */\n  dup1\n  exp(0x0100, 0x00)\n  dup2\n  sload\n  dup2\n  0xff\n  mul\n  not\n  and\n  swap1\n  dup4\n  0x02\n  dup2\n  gt\n  iszero\n  tag_1\n  jumpi\n  tag_2\n  tag_3\n  jump\t// in\ntag_2:\ntag_1:\n  mul\n  or\n  swap1\n  sstore\n  pop\n    /* \"contracts/14_Enum.sol\":334:338  1000 */\n  0x03e8\n    /* \"contracts/14_Enum.sol\":312:338  uint public lottery = 1000 */\n  0x01\n  sstore\n    /* \"contracts/14_Enum.sol\":79:1140  contract Enum\r... */\n  callvalue\n  dup1\n  iszero\n  tag_4\n  jumpi\n  0x00\n  dup1\n  revert\ntag_4:\n  pop\n  jump(tag_5)\n    /* \"#utility.yul\":7:187   */\ntag_3:\n    /* \"#utility.yul\":55:132   */\n  0x4e487b7100000000000000000000000000000000000000000000000000000000\n    /* \"#utility.yul\":52:53   */\n  0x00\n    /* \"#utility.yul\":45:133   */\n  mstore\n    /* \"#utility.yul\":152:156   */\n  0x21\n    /* \"#utility.yul\":149:150   */\n  0x04\n    /* \"#utility.yul\":142:157   */\n  mstore\n    /* \"#utility.yul\":176:180   */\n  0x24\n    /* \"#utility.yul\":173:174   */\n  0x00\n    /* \"#utility.yul\":166:181   */\n  revert\n    /* \"contracts/14_Enum.sol\":79:1140  contract Enum\r... */\ntag_5:\n  dataSize(sub_0)\n  dup1\n  dataOffset(sub_0)\n  0x00\n  codecopy\n  0x00\n  return\nstop\n\nsub_0: assembly {\n        /* \"contracts/14_Enum.sol\":79:1140  contract Enum\r... */\n      mstore(0x40, 0x80)\n      callvalue\n      dup1\n      iszero\n      tag_1\n      jumpi\n      0x00\n      dup1\n      revert\n    tag_1:\n      pop\n      jumpi(tag_2, lt(calldatasize, 0x04))\n      shr(0xe0, calldataload(0x00))\n      dup1\n      0x4f8632ba\n      eq\n      tag_3\n      jumpi\n      dup1\n      0x57bcafc4\n      eq\n      tag_4\n      jumpi\n      dup1\n      0xba13a572\n      eq\n      tag_5\n      jumpi\n      dup1\n      0xc7304d07\n      eq\n      tag_6\n      jumpi\n    tag_2:\n      0x00\n      dup1\n      revert\n        /* \"contracts/14_Enum.sol\":252:299  permission public user = permission.not_allowed */\n    tag_3:\n      tag_7\n      tag_8\n      jump\t// in\n    tag_7:\n      mload(0x40)\n      tag_9\n      swap2\n      swap1\n      tag_10\n      jump\t// in\n    tag_9:\n      mload(0x40)\n      dup1\n      swap2\n      sub\n      swap1\n      return\n        /* \"contracts/14_Enum.sol\":701:1133  function get_lottery() public returns(string memory)\r... */\n    tag_4:\n      tag_11\n      tag_12\n      jump\t// in\n    tag_11:\n      mload(0x40)\n      tag_13\n      swap2\n      swap1\n      tag_14\n      jump\t// in\n    tag_13:\n      mload(0x40)\n      dup1\n      swap2\n      sub\n      swap1\n      return\n        /* \"contracts/14_Enum.sol\":312:338  uint public lottery = 1000 */\n    tag_5:\n      tag_15\n      tag_16\n      jump\t// in\n    tag_15:\n      mload(0x40)\n      tag_17\n      swap2\n      swap1\n      tag_18\n      jump\t// in\n    tag_17:\n      mload(0x40)\n      dup1\n      swap2\n      sub\n      swap1\n      return\n        /* \"contracts/14_Enum.sol\":347:693  function change_user_permission(uint val) public\r... */\n    tag_6:\n      tag_19\n      0x04\n      dup1\n      calldatasize\n      sub\n      dup2\n      add\n      swap1\n      tag_20\n      swap2\n      swap1\n      tag_21\n      jump\t// in\n    tag_20:\n      tag_22\n      jump\t// in\n    tag_19:\n      stop\n        /* \"contracts/14_Enum.sol\":252:299  permission public user = permission.not_allowed */\n    tag_8:\n      0x00\n      dup1\n      sload\n      swap1\n      0x0100\n      exp\n      swap1\n      div\n      0xff\n      and\n      dup2\n      jump\t// out\n        /* \"contracts/14_Enum.sol\":701:1133  function get_lottery() public returns(string memory)\r... */\n    tag_12:\n        /* \"contracts/14_Enum.sol\":739:752  string memory */\n      0x60\n        /* \"contracts/14_Enum.sol\":770:791  string memory message */\n      0x00\n        /* \"contracts/14_Enum.sol\":770:811  string memory message = \"Lottery granted\" */\n      mload(0x40)\n      dup1\n      0x40\n      add\n      0x40\n      mstore\n      dup1\n      0x0f\n      dup2\n      mstore\n      0x20\n      add\n      0x4c6f7474657279206772616e7465640000000000000000000000000000000000\n      dup2\n      mstore\n      pop\n      swap1\n      pop\n        /* \"contracts/14_Enum.sol\":835:860  permission.always_allowed */\n      0x02\n        /* \"contracts/14_Enum.sol\":827:860  user == permission.always_allowed */\n      dup1\n      dup2\n      gt\n      iszero\n      tag_24\n      jumpi\n      tag_25\n      tag_26\n      jump\t// in\n    tag_25:\n    tag_24:\n        /* \"contracts/14_Enum.sol\":827:831  user */\n      0x00\n      dup1\n      sload\n      swap1\n      0x0100\n      exp\n      swap1\n      div\n      0xff\n      and\n        /* \"contracts/14_Enum.sol\":827:860  user == permission.always_allowed */\n      0x02\n      dup2\n      gt\n      iszero\n      tag_27\n      jumpi\n      tag_28\n      tag_26\n      jump\t// in\n    tag_28:\n    tag_27:\n      eq\n        /* \"contracts/14_Enum.sol\":824:1099  if(user == permission.always_allowed)\r... */\n      iszero\n      tag_29\n      jumpi\n        /* \"contracts/14_Enum.sol\":896:897  0 */\n      0x00\n        /* \"contracts/14_Enum.sol\":886:893  lottery */\n      0x01\n        /* \"contracts/14_Enum.sol\":886:897  lottery = 0 */\n      dup2\n      swap1\n      sstore\n      pop\n        /* \"contracts/14_Enum.sol\":824:1099  if(user == permission.always_allowed)\r... */\n      jump(tag_30)\n    tag_29:\n        /* \"contracts/14_Enum.sol\":935:963  permission.sometimes_allowed */\n      0x01\n        /* \"contracts/14_Enum.sol\":927:963  user == permission.sometimes_allowed */\n      0x02\n      dup2\n      gt\n      iszero\n      tag_31\n      jumpi\n      tag_32\n      tag_26\n      jump\t// in\n    tag_32:\n    tag_31:\n        /* \"contracts/14_Enum.sol\":927:931  user */\n      0x00\n      dup1\n      sload\n      swap1\n      0x0100\n      exp\n      swap1\n      div\n      0xff\n      and\n        /* \"contracts/14_Enum.sol\":927:963  user == permission.sometimes_allowed */\n      0x02\n      dup2\n      gt\n      iszero\n      tag_33\n      jumpi\n      tag_34\n      tag_26\n      jump\t// in\n    tag_34:\n    tag_33:\n      eq\n        /* \"contracts/14_Enum.sol\":924:1099  if(user == permission.sometimes_allowed)\r... */\n      iszero\n      tag_35\n      jumpi\n        /* \"contracts/14_Enum.sol\":1007:1008  2 */\n      0x02\n        /* \"contracts/14_Enum.sol\":999:1006  lottery */\n      sload(0x01)\n        /* \"contracts/14_Enum.sol\":999:1008  lottery/2 */\n      tag_36\n      swap2\n      swap1\n      tag_37\n      jump\t// in\n    tag_36:\n        /* \"contracts/14_Enum.sol\":989:996  lottery */\n      0x01\n        /* \"contracts/14_Enum.sol\":989:1008  lottery = lottery/2 */\n      dup2\n      swap1\n      sstore\n      pop\n        /* \"contracts/14_Enum.sol\":924:1099  if(user == permission.sometimes_allowed)\r... */\n      jump(tag_38)\n    tag_35:\n        /* \"contracts/14_Enum.sol\":1059:1087  message = \"User not allowed\" */\n      mload(0x40)\n      dup1\n      0x40\n      add\n      0x40\n      mstore\n      dup1\n      0x10\n      dup2\n      mstore\n      0x20\n      add\n      0x55736572206e6f7420616c6c6f77656400000000000000000000000000000000\n      dup2\n      mstore\n      pop\n      swap1\n      pop\n        /* \"contracts/14_Enum.sol\":924:1099  if(user == permission.sometimes_allowed)\r... */\n    tag_38:\n        /* \"contracts/14_Enum.sol\":824:1099  if(user == permission.always_allowed)\r... */\n    tag_30:\n        /* \"contracts/14_Enum.sol\":1118:1125  message */\n      dup1\n        /* \"contracts/14_Enum.sol\":1111:1125  return message */\n      swap2\n      pop\n      pop\n        /* \"contracts/14_Enum.sol\":701:1133  function get_lottery() public returns(string memory)\r... */\n      swap1\n      jump\t// out\n        /* \"contracts/14_Enum.sol\":312:338  uint public lottery = 1000 */\n    tag_16:\n      sload(0x01)\n      dup2\n      jump\t// out\n        /* \"contracts/14_Enum.sol\":347:693  function change_user_permission(uint val) public\r... */\n    tag_22:\n        /* \"contracts/14_Enum.sol\":423:424  0 */\n      0x00\n        /* \"contracts/14_Enum.sol\":416:419  val */\n      dup2\n        /* \"contracts/14_Enum.sol\":416:424  val == 0 */\n      eq\n        /* \"contracts/14_Enum.sol\":413:686  if(val == 0)\r... */\n      iszero\n      tag_40\n      jumpi\n        /* \"contracts/14_Enum.sol\":457:479  permission.not_allowed */\n      0x00\n        /* \"contracts/14_Enum.sol\":450:454  user */\n      dup1\n      0x00\n        /* \"contracts/14_Enum.sol\":450:479  user = permission.not_allowed */\n      0x0100\n      exp\n      dup2\n      sload\n      dup2\n      0xff\n      mul\n      not\n      and\n      swap1\n      dup4\n      0x02\n      dup2\n      gt\n      iszero\n      tag_41\n      jumpi\n      tag_42\n      tag_26\n      jump\t// in\n    tag_42:\n    tag_41:\n      mul\n      or\n      swap1\n      sstore\n      pop\n        /* \"contracts/14_Enum.sol\":413:686  if(val == 0)\r... */\n      jump(tag_43)\n    tag_40:\n        /* \"contracts/14_Enum.sol\":516:517  1 */\n      0x01\n        /* \"contracts/14_Enum.sol\":509:512  val */\n      dup2\n        /* \"contracts/14_Enum.sol\":509:517  val == 1 */\n      eq\n        /* \"contracts/14_Enum.sol\":506:686  if(val == 1)\r... */\n      iszero\n      tag_44\n      jumpi\n        /* \"contracts/14_Enum.sol\":550:578  permission.sometimes_allowed */\n      0x01\n        /* \"contracts/14_Enum.sol\":543:547  user */\n      0x00\n      dup1\n        /* \"contracts/14_Enum.sol\":543:578  user = permission.sometimes_allowed */\n      0x0100\n      exp\n      dup2\n      sload\n      dup2\n      0xff\n      mul\n      not\n      and\n      swap1\n      dup4\n      0x02\n      dup2\n      gt\n      iszero\n      tag_45\n      jumpi\n      tag_46\n      tag_26\n      jump\t// in\n    tag_46:\n    tag_45:\n      mul\n      or\n      swap1\n      sstore\n      pop\n        /* \"contracts/14_Enum.sol\":506:686  if(val == 1)\r... */\n      jump(tag_47)\n    tag_44:\n        /* \"contracts/14_Enum.sol\":615:616  2 */\n      0x02\n        /* \"contracts/14_Enum.sol\":608:611  val */\n      dup2\n        /* \"contracts/14_Enum.sol\":608:616  val == 2 */\n      eq\n        /* \"contracts/14_Enum.sol\":605:686  if(val == 2)\r... */\n      iszero\n      tag_48\n      jumpi\n        /* \"contracts/14_Enum.sol\":649:674  permission.always_allowed */\n      0x02\n        /* \"contracts/14_Enum.sol\":642:646  user */\n      0x00\n      dup1\n        /* \"contracts/14_Enum.sol\":642:674  user = permission.always_allowed */\n      0x0100\n      exp\n      dup2\n      sload\n      dup2\n      0xff\n      mul\n      not\n      and\n      swap1\n      dup4\n      0x02\n      dup2\n      gt\n      iszero\n      tag_49\n      jumpi\n      tag_50\n      tag_26\n      jump\t// in\n    tag_50:\n    tag_49:\n      mul\n      or\n      swap1\n      sstore\n      pop\n        /* \"contracts/14_Enum.sol\":605:686  if(val == 2)\r... */\n    tag_48:\n        /* \"contracts/14_Enum.sol\":506:686  if(val == 1)\r... */\n    tag_47:\n        /* \"contracts/14_Enum.sol\":413:686  if(val == 0)\r... */\n    tag_43:\n        /* \"contracts/14_Enum.sol\":347:693  function change_user_permission(uint val) public\r... */\n      pop\n      jump\t// out\n        /* \"#utility.yul\":7:146   */\n    tag_52:\n        /* \"#utility.yul\":53:58   */\n      0x00\n        /* \"#utility.yul\":91:97   */\n      dup2\n        /* \"#utility.yul\":78:98   */\n      calldataload\n        /* \"#utility.yul\":69:98   */\n      swap1\n      pop\n        /* \"#utility.yul\":107:140   */\n      tag_54\n        /* \"#utility.yul\":134:139   */\n      dup2\n        /* \"#utility.yul\":107:140   */\n      tag_55\n      jump\t// in\n    tag_54:\n        /* \"#utility.yul\":7:146   */\n      swap3\n      swap2\n      pop\n      pop\n      jump\t// out\n        /* \"#utility.yul\":152:481   */\n    tag_21:\n        /* \"#utility.yul\":211:217   */\n      0x00\n        /* \"#utility.yul\":260:262   */\n      0x20\n        /* \"#utility.yul\":248:257   */\n      dup3\n        /* \"#utility.yul\":239:246   */\n      dup5\n        /* \"#utility.yul\":235:258   */\n      sub\n        /* \"#utility.yul\":231:263   */\n      slt\n        /* \"#utility.yul\":228:347   */\n      iszero\n      tag_57\n      jumpi\n        /* \"#utility.yul\":266:345   */\n      tag_58\n      tag_59\n      jump\t// in\n    tag_58:\n        /* \"#utility.yul\":228:347   */\n    tag_57:\n        /* \"#utility.yul\":386:387   */\n      0x00\n        /* \"#utility.yul\":411:464   */\n      tag_60\n        /* \"#utility.yul\":456:463   */\n      dup5\n        /* \"#utility.yul\":447:453   */\n      dup3\n        /* \"#utility.yul\":436:445   */\n      dup6\n        /* \"#utility.yul\":432:454   */\n      add\n        /* \"#utility.yul\":411:464   */\n      tag_52\n      jump\t// in\n    tag_60:\n        /* \"#utility.yul\":401:464   */\n      swap2\n      pop\n        /* \"#utility.yul\":357:474   */\n      pop\n        /* \"#utility.yul\":152:481   */\n      swap3\n      swap2\n      pop\n      pop\n      jump\t// out\n        /* \"#utility.yul\":487:638   */\n    tag_61:\n        /* \"#utility.yul\":584:631   */\n      tag_63\n        /* \"#utility.yul\":625:630   */\n      dup2\n        /* \"#utility.yul\":584:631   */\n      tag_64\n      jump\t// in\n    tag_63:\n        /* \"#utility.yul\":579:582   */\n      dup3\n        /* \"#utility.yul\":572:632   */\n      mstore\n        /* \"#utility.yul\":487:638   */\n      pop\n      pop\n      jump\t// out\n        /* \"#utility.yul\":644:1008   */\n    tag_65:\n        /* \"#utility.yul\":732:735   */\n      0x00\n        /* \"#utility.yul\":760:799   */\n      tag_67\n        /* \"#utility.yul\":793:798   */\n      dup3\n        /* \"#utility.yul\":760:799   */\n      tag_68\n      jump\t// in\n    tag_67:\n        /* \"#utility.yul\":815:886   */\n      tag_69\n        /* \"#utility.yul\":879:885   */\n      dup2\n        /* \"#utility.yul\":874:877   */\n      dup6\n        /* \"#utility.yul\":815:886   */\n      tag_70\n      jump\t// in\n    tag_69:\n        /* \"#utility.yul\":808:886   */\n      swap4\n      pop\n        /* \"#utility.yul\":895:947   */\n      tag_71\n        /* \"#utility.yul\":940:946   */\n      dup2\n        /* \"#utility.yul\":935:938   */\n      dup6\n        /* \"#utility.yul\":928:932   */\n      0x20\n        /* \"#utility.yul\":921:926   */\n      dup7\n        /* \"#utility.yul\":917:933   */\n      add\n        /* \"#utility.yul\":895:947   */\n      tag_72\n      jump\t// in\n    tag_71:\n        /* \"#utility.yul\":972:1001   */\n      tag_73\n        /* \"#utility.yul\":994:1000   */\n      dup2\n        /* \"#utility.yul\":972:1001   */\n      tag_74\n      jump\t// in\n    tag_73:\n        /* \"#utility.yul\":967:970   */\n      dup5\n        /* \"#utility.yul\":963:1002   */\n      add\n        /* \"#utility.yul\":956:1002   */\n      swap2\n      pop\n        /* \"#utility.yul\":736:1008   */\n      pop\n        /* \"#utility.yul\":644:1008   */\n      swap3\n      swap2\n      pop\n      pop\n      jump\t// out\n        /* \"#utility.yul\":1014:1132   */\n    tag_75:\n        /* \"#utility.yul\":1101:1125   */\n      tag_77\n        /* \"#utility.yul\":1119:1124   */\n      dup2\n        /* \"#utility.yul\":1101:1125   */\n      tag_78\n      jump\t// in\n    tag_77:\n        /* \"#utility.yul\":1096:1099   */\n      dup3\n        /* \"#utility.yul\":1089:1126   */\n      mstore\n        /* \"#utility.yul\":1014:1132   */\n      pop\n      pop\n      jump\t// out\n        /* \"#utility.yul\":1138:1380   */\n    tag_10:\n        /* \"#utility.yul\":1241:1245   */\n      0x00\n        /* \"#utility.yul\":1279:1281   */\n      0x20\n        /* \"#utility.yul\":1268:1277   */\n      dup3\n        /* \"#utility.yul\":1264:1282   */\n      add\n        /* \"#utility.yul\":1256:1282   */\n      swap1\n      pop\n        /* \"#utility.yul\":1292:1373   */\n      tag_80\n        /* \"#utility.yul\":1370:1371   */\n      0x00\n        /* \"#utility.yul\":1359:1368   */\n      dup4\n        /* \"#utility.yul\":1355:1372   */\n      add\n        /* \"#utility.yul\":1346:1352   */\n      dup5\n        /* \"#utility.yul\":1292:1373   */\n      tag_61\n      jump\t// in\n    tag_80:\n        /* \"#utility.yul\":1138:1380   */\n      swap3\n      swap2\n      pop\n      pop\n      jump\t// out\n        /* \"#utility.yul\":1386:1699   */\n    tag_14:\n        /* \"#utility.yul\":1499:1503   */\n      0x00\n        /* \"#utility.yul\":1537:1539   */\n      0x20\n        /* \"#utility.yul\":1526:1535   */\n      dup3\n        /* \"#utility.yul\":1522:1540   */\n      add\n        /* \"#utility.yul\":1514:1540   */\n      swap1\n      pop\n        /* \"#utility.yul\":1586:1595   */\n      dup2\n        /* \"#utility.yul\":1580:1584   */\n      dup2\n        /* \"#utility.yul\":1576:1596   */\n      sub\n        /* \"#utility.yul\":1572:1573   */\n      0x00\n        /* \"#utility.yul\":1561:1570   */\n      dup4\n        /* \"#utility.yul\":1557:1574   */\n      add\n        /* \"#utility.yul\":1550:1597   */\n      mstore\n        /* \"#utility.yul\":1614:1692   */\n      tag_82\n        /* \"#utility.yul\":1687:1691   */\n      dup2\n        /* \"#utility.yul\":1678:1684   */\n      dup5\n        /* \"#utility.yul\":1614:1692   */\n      tag_65\n      jump\t// in\n    tag_82:\n        /* \"#utility.yul\":1606:1692   */\n      swap1\n      pop\n        /* \"#utility.yul\":1386:1699   */\n      swap3\n      swap2\n      pop\n      pop\n      jump\t// out\n        /* \"#utility.yul\":1705:1927   */\n    tag_18:\n        /* \"#utility.yul\":1798:1802   */\n      0x00\n        /* \"#utility.yul\":1836:1838   */\n      0x20\n        /* \"#utility.yul\":1825:1834   */\n      dup3\n        /* \"#utility.yul\":1821:1839   */\n      add\n        /* \"#utility.yul\":1813:1839   */\n      swap1\n      pop\n        /* \"#utility.yul\":1849:1920   */\n      tag_84\n        /* \"#utility.yul\":1917:1918   */\n      0x00\n        /* \"#utility.yul\":1906:1915   */\n      dup4\n        /* \"#utility.yul\":1902:1919   */\n      add\n        /* \"#utility.yul\":1893:1899   */\n      dup5\n        /* \"#utility.yul\":1849:1920   */\n      tag_75\n      jump\t// in\n    tag_84:\n        /* \"#utility.yul\":1705:1927   */\n      swap3\n      swap2\n      pop\n      pop\n      jump\t// out\n        /* \"#utility.yul\":2014:2113   */\n    tag_68:\n        /* \"#utility.yul\":2066:2072   */\n      0x00\n        /* \"#utility.yul\":2100:2105   */\n      dup2\n        /* \"#utility.yul\":2094:2106   */\n      mload\n        /* \"#utility.yul\":2084:2106   */\n      swap1\n      pop\n        /* \"#utility.yul\":2014:2113   */\n      swap2\n      swap1\n      pop\n      jump\t// out\n        /* \"#utility.yul\":2119:2288   */\n    tag_70:\n        /* \"#utility.yul\":2203:2214   */\n      0x00\n        /* \"#utility.yul\":2237:2243   */\n      dup3\n        /* \"#utility.yul\":2232:2235   */\n      dup3\n        /* \"#utility.yul\":2225:2244   */\n      mstore\n        /* \"#utility.yul\":2277:2281   */\n      0x20\n        /* \"#utility.yul\":2272:2275   */\n      dup3\n        /* \"#utility.yul\":2268:2282   */\n      add\n        /* \"#utility.yul\":2253:2282   */\n      swap1\n      pop\n        /* \"#utility.yul\":2119:2288   */\n      swap3\n      swap2\n      pop\n      pop\n      jump\t// out\n        /* \"#utility.yul\":2294:2479   */\n    tag_37:\n        /* \"#utility.yul\":2334:2335   */\n      0x00\n        /* \"#utility.yul\":2351:2371   */\n      tag_90\n        /* \"#utility.yul\":2369:2370   */\n      dup3\n        /* \"#utility.yul\":2351:2371   */\n      tag_78\n      jump\t// in\n    tag_90:\n        /* \"#utility.yul\":2346:2371   */\n      swap2\n      pop\n        /* \"#utility.yul\":2385:2405   */\n      tag_91\n        /* \"#utility.yul\":2403:2404   */\n      dup4\n        /* \"#utility.yul\":2385:2405   */\n      tag_78\n      jump\t// in\n    tag_91:\n        /* \"#utility.yul\":2380:2405   */\n      swap3\n      pop\n        /* \"#utility.yul\":2424:2425   */\n      dup3\n        /* \"#utility.yul\":2414:2449   */\n      tag_92\n      jumpi\n        /* \"#utility.yul\":2429:2447   */\n      tag_93\n      tag_94\n      jump\t// in\n    tag_93:\n        /* \"#utility.yul\":2414:2449   */\n    tag_92:\n        /* \"#utility.yul\":2471:2472   */\n      dup3\n        /* \"#utility.yul\":2468:2469   */\n      dup3\n        /* \"#utility.yul\":2464:2473   */\n      div\n        /* \"#utility.yul\":2459:2473   */\n      swap1\n      pop\n        /* \"#utility.yul\":2294:2479   */\n      swap3\n      swap2\n      pop\n      pop\n      jump\t// out\n        /* \"#utility.yul\":2485:2620   */\n    tag_95:\n        /* \"#utility.yul\":2534:2541   */\n      0x00\n        /* \"#utility.yul\":2563:2568   */\n      dup2\n        /* \"#utility.yul\":2552:2568   */\n      swap1\n      pop\n        /* \"#utility.yul\":2569:2614   */\n      tag_97\n        /* \"#utility.yul\":2608:2613   */\n      dup3\n        /* \"#utility.yul\":2569:2614   */\n      tag_98\n      jump\t// in\n    tag_97:\n        /* \"#utility.yul\":2485:2620   */\n      swap2\n      swap1\n      pop\n      jump\t// out\n        /* \"#utility.yul\":2626:2703   */\n    tag_78:\n        /* \"#utility.yul\":2663:2670   */\n      0x00\n        /* \"#utility.yul\":2692:2697   */\n      dup2\n        /* \"#utility.yul\":2681:2697   */\n      swap1\n      pop\n        /* \"#utility.yul\":2626:2703   */\n      swap2\n      swap1\n      pop\n      jump\t// out\n        /* \"#utility.yul\":2709:2844   */\n    tag_64:\n        /* \"#utility.yul\":2769:2778   */\n      0x00\n        /* \"#utility.yul\":2802:2838   */\n      tag_101\n        /* \"#utility.yul\":2832:2837   */\n      dup3\n        /* \"#utility.yul\":2802:2838   */\n      tag_95\n      jump\t// in\n    tag_101:\n        /* \"#utility.yul\":2789:2838   */\n      swap1\n      pop\n        /* \"#utility.yul\":2709:2844   */\n      swap2\n      swap1\n      pop\n      jump\t// out\n        /* \"#utility.yul\":2850:3157   */\n    tag_72:\n        /* \"#utility.yul\":2918:2919   */\n      0x00\n        /* \"#utility.yul\":2928:3041   */\n    tag_103:\n        /* \"#utility.yul\":2942:2948   */\n      dup4\n        /* \"#utility.yul\":2939:2940   */\n      dup2\n        /* \"#utility.yul\":2936:2949   */\n      lt\n        /* \"#utility.yul\":2928:3041   */\n      iszero\n      tag_105\n      jumpi\n        /* \"#utility.yul\":3027:3028   */\n      dup1\n        /* \"#utility.yul\":3022:3025   */\n      dup3\n        /* \"#utility.yul\":3018:3029   */\n      add\n        /* \"#utility.yul\":3012:3030   */\n      mload\n        /* \"#utility.yul\":3008:3009   */\n      dup2\n        /* \"#utility.yul\":3003:3006   */\n      dup5\n        /* \"#utility.yul\":2999:3010   */\n      add\n        /* \"#utility.yul\":2992:3031   */\n      mstore\n        /* \"#utility.yul\":2964:2966   */\n      0x20\n        /* \"#utility.yul\":2961:2962   */\n      dup2\n        /* \"#utility.yul\":2957:2967   */\n      add\n        /* \"#utility.yul\":2952:2967   */\n      swap1\n      pop\n        /* \"#utility.yul\":2928:3041   */\n      jump(tag_103)\n    tag_105:\n        /* \"#utility.yul\":3059:3065   */\n      dup4\n        /* \"#utility.yul\":3056:3057   */\n      dup2\n        /* \"#utility.yul\":3053:3066   */\n      gt\n        /* \"#utility.yul\":3050:3151   */\n      iszero\n      tag_106\n      jumpi\n        /* \"#utility.yul\":3139:3140   */\n      0x00\n        /* \"#utility.yul\":3130:3136   */\n      dup5\n        /* \"#utility.yul\":3125:3128   */\n      dup5\n        /* \"#utility.yul\":3121:3137   */\n      add\n        /* \"#utility.yul\":3114:3141   */\n      mstore\n        /* \"#utility.yul\":3050:3151   */\n    tag_106:\n        /* \"#utility.yul\":2899:3157   */\n      pop\n        /* \"#utility.yul\":2850:3157   */\n      pop\n      pop\n      pop\n      jump\t// out\n        /* \"#utility.yul\":3349:3529   */\n    tag_94:\n        /* \"#utility.yul\":3397:3474   */\n      0x4e487b7100000000000000000000000000000000000000000000000000000000\n        /* \"#utility.yul\":3394:3395   */\n      0x00\n        /* \"#utility.yul\":3387:3475   */\n      mstore\n        /* \"#utility.yul\":3494:3498   */\n      0x12\n        /* \"#utility.yul\":3491:3492   */\n      0x04\n        /* \"#utility.yul\":3484:3499   */\n      mstore\n        /* \"#utility.yul\":3518:3522   */\n      0x24\n        /* \"#utility.yul\":3515:3516   */\n      0x00\n        /* \"#utility.yul\":3508:3523   */\n      revert\n        /* \"#utility.yul\":3535:3715   */\n    tag_26:\n        /* \"#utility.yul\":3583:3660   */\n      0x4e487b7100000000000000000000000000000000000000000000000000000000\n        /* \"#utility.yul\":3580:3581   */\n      0x00\n        /* \"#utility.yul\":3573:3661   */\n      mstore\n        /* \"#utility.yul\":3680:3684   */\n      0x21\n        /* \"#utility.yul\":3677:3678   */\n      0x04\n        /* \"#utility.yul\":3670:3685   */\n      mstore\n        /* \"#utility.yul\":3704:3708   */\n      0x24\n        /* \"#utility.yul\":3701:3702   */\n      0x00\n        /* \"#utility.yul\":3694:3709   */\n      revert\n        /* \"#utility.yul\":3844:3961   */\n    tag_59:\n        /* \"#utility.yul\":3953:3954   */\n      0x00\n        /* \"#utility.yul\":3950:3951   */\n      dup1\n        /* \"#utility.yul\":3943:3955   */\n      revert\n        /* \"#utility.yul\":3967:4069   */\n    tag_74:\n        /* \"#utility.yul\":4008:4014   */\n      0x00\n        /* \"#utility.yul\":4059:4061   */\n      0x1f\n        /* \"#utility.yul\":4055:4062   */\n      not\n        /* \"#utility.yul\":4050:4052   */\n      0x1f\n        /* \"#utility.yul\":4043:4048   */\n      dup4\n        /* \"#utility.yul\":4039:4053   */\n      add\n        /* \"#utility.yul\":4035:4063   */\n      and\n        /* \"#utility.yul\":4025:4063   */\n      swap1\n      pop\n        /* \"#utility.yul\":3967:4069   */\n      swap2\n      swap1\n      pop\n      jump\t// out\n        /* \"#utility.yul\":4075:4192   */\n    tag_98:\n        /* \"#utility.yul\":4160:4161   */\n      0x03\n        /* \"#utility.yul\":4153:4158   */\n      dup2\n        /* \"#utility.yul\":4150:4162   */\n      lt\n        /* \"#utility.yul\":4140:4186   */\n      tag_116\n      jumpi\n        /* \"#utility.yul\":4166:4184   */\n      tag_117\n      tag_26\n      jump\t// in\n    tag_117:\n        /* \"#utility.yul\":4140:4186   */\n    tag_116:\n        /* \"#utility.yul\":4075:4192   */\n      pop\n      jump\t// out\n        /* \"#utility.yul\":4198:4320   */\n    tag_55:\n        /* \"#utility.yul\":4271:4295   */\n      tag_119\n        /* \"#utility.yul\":4289:4294   */\n      dup2\n        /* \"#utility.yul\":4271:4295   */\n      tag_78\n      jump\t// in\n    tag_119:\n        /* \"#utility.yul\":4264:4269   */\n      dup2\n        /* \"#utility.yul\":4261:4296   */\n      eq\n        /* \"#utility.yul\":4251:4314   */\n      tag_120\n      jumpi\n        /* \"#utility.yul\":4310:4311   */\n      0x00\n        /* \"#utility.yul\":4307:4308   */\n      dup1\n        /* \"#utility.yul\":4300:4312   */\n      revert\n        /* \"#utility.yul\":4251:4314   */\n    tag_120:\n        /* \"#utility.yul\":4198:4320   */\n      pop\n      jump\t// out\n\n    auxdata: 0xa2646970667358221220853f4f1d7744ab9af86aa8240f2e49508b37e924034fc37b3db243e484b9040264736f6c63430008070033\n}\n",
				"bytecode": {
					"linkReferences": {},
					"object": "608060405260008060006101000a81548160ff0219169083600281111561002957610028610046565b5b02179055506103e860015534801561004057600080fd5b50610075565b7f4e487b7100000000000000000000000000000000000000000000000000000000600052602160045260246000fd5b610513806100846000396000f3fe608060405234801561001057600080fd5b506004361061004c5760003560e01c80634f8632ba1461005157806357bcafc41461006f578063ba13a5721461008d578063c7304d07146100ab575b600080fd5b6100596100c7565b6040516100669190610337565b60405180910390f35b6100776100d8565b6040516100849190610352565b60405180910390f35b6100956101ef565b6040516100a29190610374565b60405180910390f35b6100c560048036038101906100c091906102b3565b6101f5565b005b60008054906101000a900460ff1681565b606060006040518060400160405280600f81526020017f4c6f7474657279206772616e746564000000000000000000000000000000000081525090506002808111156101275761012661046d565b5b60008054906101000a900460ff1660028111156101475761014661046d565b5b141561015a5760006001819055506101e8565b6001600281111561016e5761016d61046d565b5b60008054906101000a900460ff16600281111561018e5761018d61046d565b5b14156101ae5760026001546101a391906103ab565b6001819055506101e7565b6040518060400160405280601081526020017f55736572206e6f7420616c6c6f7765640000000000000000000000000000000081525090505b5b8091505090565b60015481565b600081141561022d5760008060006101000a81548160ff021916908360028111156102235761022261046d565b5b021790555061029b565b60018114156102655760016000806101000a81548160ff0219169083600281111561025b5761025a61046d565b5b021790555061029a565b60028114156102995760026000806101000a81548160ff021916908360028111156102935761029261046d565b5b02179055505b5b5b50565b6000813590506102ad816104c6565b92915050565b6000602082840312156102c9576102c861049c565b5b60006102d78482850161029e565b91505092915050565b6102e9816103f9565b82525050565b60006102fa8261038f565b610304818561039a565b935061031481856020860161040b565b61031d816104a1565b840191505092915050565b610331816103ef565b82525050565b600060208201905061034c60008301846102e0565b92915050565b6000602082019050818103600083015261036c81846102ef565b905092915050565b60006020820190506103896000830184610328565b92915050565b600081519050919050565b600082825260208201905092915050565b60006103b6826103ef565b91506103c1836103ef565b9250826103d1576103d061043e565b5b828204905092915050565b60008190506103ea826104b2565b919050565b6000819050919050565b6000610404826103dc565b9050919050565b60005b8381101561042957808201518184015260208101905061040e565b83811115610438576000848401525b50505050565b7f4e487b7100000000000000000000000000000000000000000000000000000000600052601260045260246000fd5b7f4e487b7100000000000000000000000000000000000000000000000000000000600052602160045260246000fd5b600080fd5b6000601f19601f8301169050919050565b600381106104c3576104c261046d565b5b50565b6104cf816103ef565b81146104da57600080fd5b5056fea2646970667358221220853f4f1d7744ab9af86aa8240f2e49508b37e924034fc37b3db243e484b9040264736f6c63430008070033",
					"opcodes": "PUSH1 0x80 PUSH1 0x40 MSTORE PUSH1 0x0 DUP1 PUSH1 0x0 PUSH2 0x100 EXP DUP2 SLOAD DUP2 PUSH1 0xFF MUL NOT AND SWAP1 DUP4 PUSH1 0x2 DUP2 GT ISZERO PUSH2 0x29 JUMPI PUSH2 0x28 PUSH2 0x46 JUMP JUMPDEST JUMPDEST MUL OR SWAP1 SSTORE POP PUSH2 0x3E8 PUSH1 0x1 SSTORE CALLVALUE DUP1 ISZERO PUSH2 0x40 JUMPI PUSH1 0x0 DUP1 REVERT JUMPDEST POP PUSH2 0x75 JUMP JUMPDEST PUSH32 0x4E487B7100000000000000000000000000000000000000000000000000000000 PUSH1 0x0 MSTORE PUSH1 0x21 PUSH1 0x4 MSTORE PUSH1 0x24 PUSH1 0x0 REVERT JUMPDEST PUSH2 0x513 DUP1 PUSH2 0x84 PUSH1 0x0 CODECOPY PUSH1 0x0 RETURN INVALID PUSH1 0x80 PUSH1 0x40 MSTORE CALLVALUE DUP1 ISZERO PUSH2 0x10 JUMPI PUSH1 0x0 DUP1 REVERT JUMPDEST POP PUSH1 0x4 CALLDATASIZE LT PUSH2 0x4C JUMPI PUSH1 0x0 CALLDATALOAD PUSH1 0xE0 SHR DUP1 PUSH4 0x4F8632BA EQ PUSH2 0x51 JUMPI DUP1 PUSH4 0x57BCAFC4 EQ PUSH2 0x6F JUMPI DUP1 PUSH4 0xBA13A572 EQ PUSH2 0x8D JUMPI DUP1 PUSH4 0xC7304D07 EQ PUSH2 0xAB JUMPI JUMPDEST PUSH1 0x0 DUP1 REVERT JUMPDEST PUSH2 0x59 PUSH2 0xC7 JUMP JUMPDEST PUSH1 0x40 MLOAD PUSH2 0x66 SWAP2 SWAP1 PUSH2 0x337 JUMP JUMPDEST PUSH1 0x40 MLOAD DUP1 SWAP2 SUB SWAP1 RETURN JUMPDEST PUSH2 0x77 PUSH2 0xD8 JUMP JUMPDEST PUSH1 0x40 MLOAD PUSH2 0x84 SWAP2 SWAP1 PUSH2 0x352 JUMP JUMPDEST PUSH1 0x40 MLOAD DUP1 SWAP2 SUB SWAP1 RETURN JUMPDEST PUSH2 0x95 PUSH2 0x1EF JUMP JUMPDEST PUSH1 0x40 MLOAD PUSH2 0xA2 SWAP2 SWAP1 PUSH2 0x374 JUMP JUMPDEST PUSH1 0x40 MLOAD DUP1 SWAP2 SUB SWAP1 RETURN JUMPDEST PUSH2 0xC5 PUSH1 0x4 DUP1 CALLDATASIZE SUB DUP2 ADD SWAP1 PUSH2 0xC0 SWAP2 SWAP1 PUSH2 0x2B3 JUMP JUMPDEST PUSH2 0x1F5 JUMP JUMPDEST STOP JUMPDEST PUSH1 0x0 DUP1 SLOAD SWAP1 PUSH2 0x100 EXP SWAP1 DIV PUSH1 0xFF AND DUP2 JUMP JUMPDEST PUSH1 0x60 PUSH1 0x0 PUSH1 0x40 MLOAD DUP1 PUSH1 0x40 ADD PUSH1 0x40 MSTORE DUP1 PUSH1 0xF DUP2 MSTORE PUSH1 0x20 ADD PUSH32 0x4C6F7474657279206772616E7465640000000000000000000000000000000000 DUP2 MSTORE POP SWAP1 POP PUSH1 0x2 DUP1 DUP2 GT ISZERO PUSH2 0x127 JUMPI PUSH2 0x126 PUSH2 0x46D JUMP JUMPDEST JUMPDEST PUSH1 0x0 DUP1 SLOAD SWAP1 PUSH2 0x100 EXP SWAP1 DIV PUSH1 0xFF AND PUSH1 0x2 DUP2 GT ISZERO PUSH2 0x147 JUMPI PUSH2 0x146 PUSH2 0x46D JUMP JUMPDEST JUMPDEST EQ ISZERO PUSH2 0x15A JUMPI PUSH1 0x0 PUSH1 0x1 DUP2 SWAP1 SSTORE POP PUSH2 0x1E8 JUMP JUMPDEST PUSH1 0x1 PUSH1 0x2 DUP2 GT ISZERO PUSH2 0x16E JUMPI PUSH2 0x16D PUSH2 0x46D JUMP JUMPDEST JUMPDEST PUSH1 0x0 DUP1 SLOAD SWAP1 PUSH2 0x100 EXP SWAP1 DIV PUSH1 0xFF AND PUSH1 0x2 DUP2 GT ISZERO PUSH2 0x18E JUMPI PUSH2 0x18D PUSH2 0x46D JUMP JUMPDEST JUMPDEST EQ ISZERO PUSH2 0x1AE JUMPI PUSH1 0x2 PUSH1 0x1 SLOAD PUSH2 0x1A3 SWAP2 SWAP1 PUSH2 0x3AB JUMP JUMPDEST PUSH1 0x1 DUP2 SWAP1 SSTORE POP PUSH2 0x1E7 JUMP JUMPDEST PUSH1 0x40 MLOAD DUP1 PUSH1 0x40 ADD PUSH1 0x40 MSTORE DUP1 PUSH1 0x10 DUP2 MSTORE PUSH1 0x20 ADD PUSH32 0x55736572206E6F7420616C6C6F77656400000000000000000000000000000000 DUP2 MSTORE POP SWAP1 POP JUMPDEST JUMPDEST DUP1 SWAP2 POP POP SWAP1 JUMP JUMPDEST PUSH1 0x1 SLOAD DUP2 JUMP JUMPDEST PUSH1 0x0 DUP2 EQ ISZERO PUSH2 0x22D JUMPI PUSH1 0x0 DUP1 PUSH1 0x0 PUSH2 0x100 EXP DUP2 SLOAD DUP2 PUSH1 0xFF MUL NOT AND SWAP1 DUP4 PUSH1 0x2 DUP2 GT ISZERO PUSH2 0x223 JUMPI PUSH2 0x222 PUSH2 0x46D JUMP JUMPDEST JUMPDEST MUL OR SWAP1 SSTORE POP PUSH2 0x29B JUMP JUMPDEST PUSH1 0x1 DUP2 EQ ISZERO PUSH2 0x265 JUMPI PUSH1 0x1 PUSH1 0x0 DUP1 PUSH2 0x100 EXP DUP2 SLOAD DUP2 PUSH1 0xFF MUL NOT AND SWAP1 DUP4 PUSH1 0x2 DUP2 GT ISZERO PUSH2 0x25B JUMPI PUSH2 0x25A PUSH2 0x46D JUMP JUMPDEST JUMPDEST MUL OR SWAP1 SSTORE POP PUSH2 0x29A JUMP JUMPDEST PUSH1 0x2 DUP2 EQ ISZERO PUSH2 0x299 JUMPI PUSH1 0x2 PUSH1 0x0 DUP1 PUSH2 0x100 EXP DUP2 SLOAD DUP2 PUSH1 0xFF MUL NOT AND SWAP1 DUP4 PUSH1 0x2 DUP2 GT ISZERO PUSH2 0x293 JUMPI PUSH2 0x292 PUSH2 0x46D JUMP JUMPDEST JUMPDEST MUL OR SWAP1 SSTORE POP JUMPDEST JUMPDEST JUMPDEST POP JUMP JUMPDEST PUSH1 0x0 DUP2 CALLDATALOAD SWAP1 POP PUSH2 0x2AD DUP2 PUSH2 0x4C6 JUMP JUMPDEST SWAP3 SWAP2 POP POP JUMP JUMPDEST PUSH1 0x0 PUSH1 0x20 DUP3 DUP5 SUB SLT ISZERO PUSH2 0x2C9 JUMPI PUSH2 0x2C8 PUSH2 0x49C JUMP JUMPDEST JUMPDEST PUSH1 0x0 PUSH2 0x2D7 DUP5 DUP3 DUP6 ADD PUSH2 0x29E JUMP JUMPDEST SWAP2 POP POP SWAP3 SWAP2 POP POP JUMP JUMPDEST PUSH2 0x2E9 DUP2 PUSH2 0x3F9 JUMP JUMPDEST DUP3 MSTORE POP POP JUMP JUMPDEST PUSH1 0x0 PUSH2 0x2FA DUP3 PUSH2 0x38F JUMP JUMPDEST PUSH2 0x304 DUP2 DUP6 PUSH2 0x39A JUMP JUMPDEST SWAP4 POP PUSH2 0x314 DUP2 DUP6 PUSH1 0x20 DUP7 ADD PUSH2 0x40B JUMP JUMPDEST PUSH2 0x31D DUP2 PUSH2 0x4A1 JUMP JUMPDEST DUP5 ADD SWAP2 POP POP SWAP3 SWAP2 POP POP JUMP JUMPDEST PUSH2 0x331 DUP2 PUSH2 0x3EF JUMP JUMPDEST DUP3 MSTORE POP POP JUMP JUMPDEST PUSH1 0x0 PUSH1 0x20 DUP3 ADD SWAP1 POP PUSH2 0x34C PUSH1 0x0 DUP4 ADD DUP5 PUSH2 0x2E0 JUMP JUMPDEST SWAP3 SWAP2 POP POP JUMP JUMPDEST PUSH1 0x0 PUSH1 0x20 DUP3 ADD SWAP1 POP DUP2 DUP2 SUB PUSH1 0x0 DUP4 ADD MSTORE PUSH2 0x36C DUP2 DUP5 PUSH2 0x2EF JUMP JUMPDEST SWAP1 POP SWAP3 SWAP2 POP POP JUMP JUMPDEST PUSH1 0x0 PUSH1 0x20 DUP3 ADD SWAP1 POP PUSH2 0x389 PUSH1 0x0 DUP4 ADD DUP5 PUSH2 0x328 JUMP JUMPDEST SWAP3 SWAP2 POP POP JUMP JUMPDEST PUSH1 0x0 DUP2 MLOAD SWAP1 POP SWAP2 SWAP1 POP JUMP JUMPDEST PUSH1 0x0 DUP3 DUP3 MSTORE PUSH1 0x20 DUP3 ADD SWAP1 POP SWAP3 SWAP2 POP POP JUMP JUMPDEST PUSH1 0x0 PUSH2 0x3B6 DUP3 PUSH2 0x3EF JUMP JUMPDEST SWAP2 POP PUSH2 0x3C1 DUP4 PUSH2 0x3EF JUMP JUMPDEST SWAP3 POP DUP3 PUSH2 0x3D1 JUMPI PUSH2 0x3D0 PUSH2 0x43E JUMP JUMPDEST JUMPDEST DUP3 DUP3 DIV SWAP1 POP SWAP3 SWAP2 POP POP JUMP JUMPDEST PUSH1 0x0 DUP2 SWAP1 POP PUSH2 0x3EA DUP3 PUSH2 0x4B2 JUMP JUMPDEST SWAP2 SWAP1 POP JUMP JUMPDEST PUSH1 0x0 DUP2 SWAP1 POP SWAP2 SWAP1 POP JUMP JUMPDEST PUSH1 0x0 PUSH2 0x404 DUP3 PUSH2 0x3DC JUMP JUMPDEST SWAP1 POP SWAP2 SWAP1 POP JUMP JUMPDEST PUSH1 0x0 JUMPDEST DUP4 DUP2 LT ISZERO PUSH2 0x429 JUMPI DUP1 DUP3 ADD MLOAD DUP2 DUP5 ADD MSTORE PUSH1 0x20 DUP2 ADD SWAP1 POP PUSH2 0x40E JUMP JUMPDEST DUP4 DUP2 GT ISZERO PUSH2 0x438 JUMPI PUSH1 0x0 DUP5 DUP5 ADD MSTORE JUMPDEST POP POP POP POP JUMP JUMPDEST PUSH32 0x4E487B7100000000000000000000000000000000000000000000000000000000 PUSH1 0x0 MSTORE PUSH1 0x12 PUSH1 0x4 MSTORE PUSH1 0x24 PUSH1 0x0 REVERT JUMPDEST PUSH32 0x4E487B7100000000000000000000000000000000000000000000000000000000 PUSH1 0x0 MSTORE PUSH1 0x21 PUSH1 0x4 MSTORE PUSH1 0x24 PUSH1 0x0 REVERT JUMPDEST PUSH1 0x0 DUP1 REVERT JUMPDEST PUSH1 0x0 PUSH1 0x1F NOT PUSH1 0x1F DUP4 ADD AND SWAP1 POP SWAP2 SWAP1 POP JUMP JUMPDEST PUSH1 0x3 DUP2 LT PUSH2 0x4C3 JUMPI PUSH2 0x4C2 PUSH2 0x46D JUMP JUMPDEST JUMPDEST POP JUMP JUMPDEST PUSH2 0x4CF DUP2 PUSH2 0x3EF JUMP JUMPDEST DUP2 EQ PUSH2 0x4DA JUMPI PUSH1 0x0 DUP1 REVERT JUMPDEST POP JUMP INVALID LOG2 PUSH5 0x6970667358 0x22 SLT KECCAK256 DUP6 EXTCODEHASH 0x4F SAR PUSH24 0x44AB9AF86AA8240F2E49508B37E924034FC37B3DB243E484 0xB9 DIV MUL PUSH5 0x736F6C6343 STOP ADDMOD SMOD STOP CALLER "
				},
				"gasEstimates": {
					"creation": {
						"codeDepositCost": "259800",
						"executionCost": "46705",
						"totalCost": "306505"
					},
					"external": {
						"change_user_permission(uint256)": "24817",
						"get_lottery()": "infinite",
						"lottery()": "2451",
						"user()": "2535"
					}
				},
				"methodIdentifiers": {
					"change_user_permission(uint256)": "c7304d07",
					"get_lottery()": "57bcafc4",
					"lottery()": "ba13a572",
					"user()": "4f8632ba"
				}
			},
			"storageLayout": {
				"storage": [
					{
						"astId": 10,
						"contract": "contracts/14_Enum.sol:Enum",
						"label": "user",
						"offset": 0,
						"slot": "0",
						"type": "t_enum(permission)5"
					},
					{
						"astId": 13,
						"contract": "contracts/14_Enum.sol:Enum",
						"label": "lottery",
						"offset": 0,
						"slot": "1",
						"type": "t_uint256"
					}
				],
				"types": {
					"t_enum(permission)5": {
						"encoding": "inplace",
						"label": "enum Enum.permission",
						"numberOfBytes": "1"
					},
					"t_uint256": {
						"encoding": "inplace",
						"label": "uint256",
						"numberOfBytes": "32"
					}
				}
			},
			"userdoc": {
				"kind": "user",
				"methods": {},
				"version": 1
			}
		}
	}
}