{
	"contracts/18_Payable.sol": {
		"Payable": {
			"abi": [
				{
					"inputs": [],
					"name": "add_ether_to_contract_wallet",
					"outputs": [],
					"stateMutability": "payable",
					"type": "function"
				},
				{
					"inputs": [
						{
							"internalType": "address",
							"name": "account_address",
							"type": "address"
						},
						{
							"internalType": "uint256",
							"name": "et",
							"type": "uint256"
						}
					],
					"name": "send_fifty_ether_to_account",
					"outputs": [],
					"stateMutability": "nonpayable",
					"type": "function"
				},
				{
					"inputs": [],
					"name": "show_contract_wallet",
					"outputs": [
						{
							"internalType": "uint256",
							"name": "",
							"type": "uint256"
						}
					],
					"stateMutability": "view",
					"type": "function"
				}
			],
			"devdoc": {
				"kind": "dev",
				"methods": {},
				"version": 1
			},
			"evm": {
				"assembly": "    /* \"contracts/18_Payable.sol\":79:891  contract Payable\r... */\n  mstore(0x40, 0x80)\n  callvalue\n  dup1\n  iszero\n  tag_1\n  jumpi\n  0x00\n  dup1\n  revert\ntag_1:\n  pop\n  dataSize(sub_0)\n  dup1\n  dataOffset(sub_0)\n  0x00\n  codecopy\n  0x00\n  return\nstop\n\nsub_0: assembly {\n        /* \"contracts/18_Payable.sol\":79:891  contract Payable\r... */\n      mstore(0x40, 0x80)\n      jumpi(tag_1, lt(calldatasize, 0x04))\n      shr(0xe0, calldataload(0x00))\n      dup1\n      0x653952ce\n      eq\n      tag_2\n      jumpi\n      dup1\n      0xb3da5a8f\n      eq\n      tag_3\n      jumpi\n      dup1\n      0xd88b8bef\n      eq\n      tag_4\n      jumpi\n    tag_1:\n      0x00\n      dup1\n      revert\n        /* \"contracts/18_Payable.sol\":698:888  function send_fifty_ether_to_account(address account_address, uint et) public \r... */\n    tag_2:\n      callvalue\n      dup1\n      iszero\n      tag_5\n      jumpi\n      0x00\n      dup1\n      revert\n    tag_5:\n      pop\n      tag_6\n      0x04\n      dup1\n      calldatasize\n      sub\n      dup2\n      add\n      swap1\n      tag_7\n      swap2\n      swap1\n      tag_8\n      jump\t// in\n    tag_7:\n      tag_9\n      jump\t// in\n    tag_6:\n      stop\n        /* \"contracts/18_Payable.sol\":465:575  function show_contract_wallet() public view returns(uint)\r... */\n    tag_3:\n      callvalue\n      dup1\n      iszero\n      tag_10\n      jumpi\n      0x00\n      dup1\n      revert\n    tag_10:\n      pop\n      tag_11\n      tag_12\n      jump\t// in\n    tag_11:\n      mload(0x40)\n      tag_13\n      swap2\n      swap1\n      tag_14\n      jump\t// in\n    tag_13:\n      mload(0x40)\n      dup1\n      swap2\n      sub\n      swap1\n      return\n        /* \"contracts/18_Payable.sol\":345:415  function add_ether_to_contract_wallet() public payable\r... */\n    tag_4:\n      tag_15\n      tag_16\n      jump\t// in\n    tag_15:\n      stop\n        /* \"contracts/18_Payable.sol\":698:888  function send_fifty_ether_to_account(address account_address, uint et) public \r... */\n    tag_9:\n        /* \"contracts/18_Payable.sol\":793:816  address payable account */\n      0x00\n        /* \"contracts/18_Payable.sol\":827:842  account_address */\n      dup3\n        /* \"contracts/18_Payable.sol\":793:843  address payable account = payable(account_address) */\n      swap1\n      pop\n        /* \"contracts/18_Payable.sol\":854:861  account */\n      dup1\n        /* \"contracts/18_Payable.sol\":854:870  account.transfer */\n      0xffffffffffffffffffffffffffffffffffffffff\n      and\n        /* \"contracts/18_Payable.sol\":854:880  account.transfer(50 ether) */\n      0x08fc\n        /* \"contracts/18_Payable.sol\":871:879  50 ether */\n      0x02b5e3af16b1880000\n        /* \"contracts/18_Payable.sol\":854:880  account.transfer(50 ether) */\n      swap1\n      dup2\n      iszero\n      mul\n      swap1\n      mload(0x40)\n      0x00\n      mload(0x40)\n      dup1\n      dup4\n      sub\n      dup2\n      dup6\n      dup9\n      dup9\n      call\n      swap4\n      pop\n      pop\n      pop\n      pop\n      iszero\n      dup1\n      iszero\n      tag_19\n      jumpi\n      returndatasize\n      0x00\n      dup1\n      returndatacopy\n      revert(0x00, returndatasize)\n    tag_19:\n      pop\n        /* \"contracts/18_Payable.sol\":782:888  {\r... */\n      pop\n        /* \"contracts/18_Payable.sol\":698:888  function send_fifty_ether_to_account(address account_address, uint et) public \r... */\n      pop\n      pop\n      jump\t// out\n        /* \"contracts/18_Payable.sol\":465:575  function show_contract_wallet() public view returns(uint)\r... */\n    tag_12:\n        /* \"contracts/18_Payable.sol\":517:521  uint */\n      0x00\n        /* \"contracts/18_Payable.sol\":546:567  address(this).balance */\n      selfbalance\n        /* \"contracts/18_Payable.sol\":539:567  return address(this).balance */\n      swap1\n      pop\n        /* \"contracts/18_Payable.sol\":465:575  function show_contract_wallet() public view returns(uint)\r... */\n      swap1\n      jump\t// out\n        /* \"contracts/18_Payable.sol\":345:415  function add_ether_to_contract_wallet() public payable\r... */\n    tag_16:\n      jump\t// out\n        /* \"#utility.yul\":7:146   */\n    tag_23:\n        /* \"#utility.yul\":53:58   */\n      0x00\n        /* \"#utility.yul\":91:97   */\n      dup2\n        /* \"#utility.yul\":78:98   */\n      calldataload\n        /* \"#utility.yul\":69:98   */\n      swap1\n      pop\n        /* \"#utility.yul\":107:140   */\n      tag_25\n        /* \"#utility.yul\":134:139   */\n      dup2\n        /* \"#utility.yul\":107:140   */\n      tag_26\n      jump\t// in\n    tag_25:\n        /* \"#utility.yul\":7:146   */\n      swap3\n      swap2\n      pop\n      pop\n      jump\t// out\n        /* \"#utility.yul\":152:291   */\n    tag_27:\n        /* \"#utility.yul\":198:203   */\n      0x00\n        /* \"#utility.yul\":236:242   */\n      dup2\n        /* \"#utility.yul\":223:243   */\n      calldataload\n        /* \"#utility.yul\":214:243   */\n      swap1\n      pop\n        /* \"#utility.yul\":252:285   */\n      tag_29\n        /* \"#utility.yul\":279:284   */\n      dup2\n        /* \"#utility.yul\":252:285   */\n      tag_30\n      jump\t// in\n    tag_29:\n        /* \"#utility.yul\":152:291   */\n      swap3\n      swap2\n      pop\n      pop\n      jump\t// out\n        /* \"#utility.yul\":297:771   */\n    tag_8:\n        /* \"#utility.yul\":365:371   */\n      0x00\n        /* \"#utility.yul\":373:379   */\n      dup1\n        /* \"#utility.yul\":422:424   */\n      0x40\n        /* \"#utility.yul\":410:419   */\n      dup4\n        /* \"#utility.yul\":401:408   */\n      dup6\n        /* \"#utility.yul\":397:420   */\n      sub\n        /* \"#utility.yul\":393:425   */\n      slt\n        /* \"#utility.yul\":390:509   */\n      iszero\n      tag_32\n      jumpi\n        /* \"#utility.yul\":428:507   */\n      tag_33\n      tag_34\n      jump\t// in\n    tag_33:\n        /* \"#utility.yul\":390:509   */\n    tag_32:\n        /* \"#utility.yul\":548:549   */\n      0x00\n        /* \"#utility.yul\":573:626   */\n      tag_35\n        /* \"#utility.yul\":618:625   */\n      dup6\n        /* \"#utility.yul\":609:615   */\n      dup3\n        /* \"#utility.yul\":598:607   */\n      dup7\n        /* \"#utility.yul\":594:616   */\n      add\n        /* \"#utility.yul\":573:626   */\n      tag_23\n      jump\t// in\n    tag_35:\n        /* \"#utility.yul\":563:626   */\n      swap3\n      pop\n        /* \"#utility.yul\":519:636   */\n      pop\n        /* \"#utility.yul\":675:677   */\n      0x20\n        /* \"#utility.yul\":701:754   */\n      tag_36\n        /* \"#utility.yul\":746:753   */\n      dup6\n        /* \"#utility.yul\":737:743   */\n      dup3\n        /* \"#utility.yul\":726:735   */\n      dup7\n        /* \"#utility.yul\":722:744   */\n      add\n        /* \"#utility.yul\":701:754   */\n      tag_27\n      jump\t// in\n    tag_36:\n        /* \"#utility.yul\":691:754   */\n      swap2\n      pop\n        /* \"#utility.yul\":646:764   */\n      pop\n        /* \"#utility.yul\":297:771   */\n      swap3\n      pop\n      swap3\n      swap1\n      pop\n      jump\t// out\n        /* \"#utility.yul\":777:895   */\n    tag_37:\n        /* \"#utility.yul\":864:888   */\n      tag_39\n        /* \"#utility.yul\":882:887   */\n      dup2\n        /* \"#utility.yul\":864:888   */\n      tag_40\n      jump\t// in\n    tag_39:\n        /* \"#utility.yul\":859:862   */\n      dup3\n        /* \"#utility.yul\":852:889   */\n      mstore\n        /* \"#utility.yul\":777:895   */\n      pop\n      pop\n      jump\t// out\n        /* \"#utility.yul\":901:1123   */\n    tag_14:\n        /* \"#utility.yul\":994:998   */\n      0x00\n        /* \"#utility.yul\":1032:1034   */\n      0x20\n        /* \"#utility.yul\":1021:1030   */\n      dup3\n        /* \"#utility.yul\":1017:1035   */\n      add\n        /* \"#utility.yul\":1009:1035   */\n      swap1\n      pop\n        /* \"#utility.yul\":1045:1116   */\n      tag_42\n        /* \"#utility.yul\":1113:1114   */\n      0x00\n        /* \"#utility.yul\":1102:1111   */\n      dup4\n        /* \"#utility.yul\":1098:1115   */\n      add\n        /* \"#utility.yul\":1089:1095   */\n      dup5\n        /* \"#utility.yul\":1045:1116   */\n      tag_37\n      jump\t// in\n    tag_42:\n        /* \"#utility.yul\":901:1123   */\n      swap3\n      swap2\n      pop\n      pop\n      jump\t// out\n        /* \"#utility.yul\":1210:1306   */\n    tag_45:\n        /* \"#utility.yul\":1247:1254   */\n      0x00\n        /* \"#utility.yul\":1276:1300   */\n      tag_47\n        /* \"#utility.yul\":1294:1299   */\n      dup3\n        /* \"#utility.yul\":1276:1300   */\n      tag_48\n      jump\t// in\n    tag_47:\n        /* \"#utility.yul\":1265:1300   */\n      swap1\n      pop\n        /* \"#utility.yul\":1210:1306   */\n      swap2\n      swap1\n      pop\n      jump\t// out\n        /* \"#utility.yul\":1312:1438   */\n    tag_48:\n        /* \"#utility.yul\":1349:1356   */\n      0x00\n        /* \"#utility.yul\":1389:1431   */\n      0xffffffffffffffffffffffffffffffffffffffff\n        /* \"#utility.yul\":1382:1387   */\n      dup3\n        /* \"#utility.yul\":1378:1432   */\n      and\n        /* \"#utility.yul\":1367:1432   */\n      swap1\n      pop\n        /* \"#utility.yul\":1312:1438   */\n      swap2\n      swap1\n      pop\n      jump\t// out\n        /* \"#utility.yul\":1444:1521   */\n    tag_40:\n        /* \"#utility.yul\":1481:1488   */\n      0x00\n        /* \"#utility.yul\":1510:1515   */\n      dup2\n        /* \"#utility.yul\":1499:1515   */\n      swap1\n      pop\n        /* \"#utility.yul\":1444:1521   */\n      swap2\n      swap1\n      pop\n      jump\t// out\n        /* \"#utility.yul\":1650:1767   */\n    tag_34:\n        /* \"#utility.yul\":1759:1760   */\n      0x00\n        /* \"#utility.yul\":1756:1757   */\n      dup1\n        /* \"#utility.yul\":1749:1761   */\n      revert\n        /* \"#utility.yul\":1773:1895   */\n    tag_26:\n        /* \"#utility.yul\":1846:1870   */\n      tag_55\n        /* \"#utility.yul\":1864:1869   */\n      dup2\n        /* \"#utility.yul\":1846:1870   */\n      tag_45\n      jump\t// in\n    tag_55:\n        /* \"#utility.yul\":1839:1844   */\n      dup2\n        /* \"#utility.yul\":1836:1871   */\n      eq\n        /* \"#utility.yul\":1826:1889   */\n      tag_56\n      jumpi\n        /* \"#utility.yul\":1885:1886   */\n      0x00\n        /* \"#utility.yul\":1882:1883   */\n      dup1\n        /* \"#utility.yul\":1875:1887   */\n      revert\n        /* \"#utility.yul\":1826:1889   */\n    tag_56:\n        /* \"#utility.yul\":1773:1895   */\n      pop\n      jump\t// out\n        /* \"#utility.yul\":1901:2023   */\n    tag_30:\n        /* \"#utility.yul\":1974:1998   */\n      tag_58\n        /* \"#utility.yul\":1992:1997   */\n      dup2\n        /* \"#utility.yul\":1974:1998   */\n      tag_40\n      jump\t// in\n    tag_58:\n        /* \"#utility.yul\":1967:1972   */\n      dup2\n        /* \"#utility.yul\":1964:1999   */\n      eq\n        /* \"#utility.yul\":1954:2017   */\n      tag_59\n      jumpi\n        /* \"#utility.yul\":2013:2014   */\n      0x00\n        /* \"#utility.yul\":2010:2011   */\n      dup1\n        /* \"#utility.yul\":2003:2015   */\n      revert\n        /* \"#utility.yul\":1954:2017   */\n    tag_59:\n        /* \"#utility.yul\":1901:2023   */\n      pop\n      jump\t// out\n\n    auxdata: 0xa264697066735822122087e84f5b38b1041c25f3d3ac59f1644b7fa59496227347589034237a16ab937664736f6c63430008070033\n}\n",
				"bytecode": {
					"linkReferences": {},
					"object": "608060405234801561001057600080fd5b50610234806100206000396000f3fe6080604052600436106100345760003560e01c8063653952ce14610039578063b3da5a8f14610062578063d88b8bef1461008d575b600080fd5b34801561004557600080fd5b50610060600480360381019061005b9190610125565b610097565b005b34801561006e57600080fd5b506100776100f1565b6040516100849190610174565b60405180910390f35b6100956100f9565b005b60008290508073ffffffffffffffffffffffffffffffffffffffff166108fc6802b5e3af16b18800009081150290604051600060405180830381858888f193505050501580156100eb573d6000803e3d6000fd5b50505050565b600047905090565b565b60008135905061010a816101d0565b92915050565b60008135905061011f816101e7565b92915050565b6000806040838503121561013c5761013b6101cb565b5b600061014a858286016100fb565b925050602061015b85828601610110565b9150509250929050565b61016e816101c1565b82525050565b60006020820190506101896000830184610165565b92915050565b600061019a826101a1565b9050919050565b600073ffffffffffffffffffffffffffffffffffffffff82169050919050565b6000819050919050565b600080fd5b6101d98161018f565b81146101e457600080fd5b50565b6101f0816101c1565b81146101fb57600080fd5b5056fea264697066735822122087e84f5b38b1041c25f3d3ac59f1644b7fa59496227347589034237a16ab937664736f6c63430008070033",
					"opcodes": "PUSH1 0x80 PUSH1 0x40 MSTORE CALLVALUE DUP1 ISZERO PUSH2 0x10 JUMPI PUSH1 0x0 DUP1 REVERT JUMPDEST POP PUSH2 0x234 DUP1 PUSH2 0x20 PUSH1 0x0 CODECOPY PUSH1 0x0 RETURN INVALID PUSH1 0x80 PUSH1 0x40 MSTORE PUSH1 0x4 CALLDATASIZE LT PUSH2 0x34 JUMPI PUSH1 0x0 CALLDATALOAD PUSH1 0xE0 SHR DUP1 PUSH4 0x653952CE EQ PUSH2 0x39 JUMPI DUP1 PUSH4 0xB3DA5A8F EQ PUSH2 0x62 JUMPI DUP1 PUSH4 0xD88B8BEF EQ PUSH2 0x8D JUMPI JUMPDEST PUSH1 0x0 DUP1 REVERT JUMPDEST CALLVALUE DUP1 ISZERO PUSH2 0x45 JUMPI PUSH1 0x0 DUP1 REVERT JUMPDEST POP PUSH2 0x60 PUSH1 0x4 DUP1 CALLDATASIZE SUB DUP2 ADD SWAP1 PUSH2 0x5B SWAP2 SWAP1 PUSH2 0x125 JUMP JUMPDEST PUSH2 0x97 JUMP JUMPDEST STOP JUMPDEST CALLVALUE DUP1 ISZERO PUSH2 0x6E JUMPI PUSH1 0x0 DUP1 REVERT JUMPDEST POP PUSH2 0x77 PUSH2 0xF1 JUMP JUMPDEST PUSH1 0x40 MLOAD PUSH2 0x84 SWAP2 SWAP1 PUSH2 0x174 JUMP JUMPDEST PUSH1 0x40 MLOAD DUP1 SWAP2 SUB SWAP1 RETURN JUMPDEST PUSH2 0x95 PUSH2 0xF9 JUMP JUMPDEST STOP JUMPDEST PUSH1 0x0 DUP3 SWAP1 POP DUP1 PUSH20 0xFFFFFFFFFFFFFFFFFFFFFFFFFFFFFFFFFFFFFFFF AND PUSH2 0x8FC PUSH9 0x2B5E3AF16B1880000 SWAP1 DUP2 ISZERO MUL SWAP1 PUSH1 0x40 MLOAD PUSH1 0x0 PUSH1 0x40 MLOAD DUP1 DUP4 SUB DUP2 DUP6 DUP9 DUP9 CALL SWAP4 POP POP POP POP ISZERO DUP1 ISZERO PUSH2 0xEB JUMPI RETURNDATASIZE PUSH1 0x0 DUP1 RETURNDATACOPY RETURNDATASIZE PUSH1 0x0 REVERT JUMPDEST POP POP POP POP JUMP JUMPDEST PUSH1 0x0 SELFBALANCE SWAP1 POP SWAP1 JUMP JUMPDEST JUMP JUMPDEST PUSH1 0x0 DUP2 CALLDATALOAD SWAP1 POP PUSH2 0x10A DUP2 PUSH2 0x1D0 JUMP JUMPDEST SWAP3 SWAP2 POP POP JUMP JUMPDEST PUSH1 0x0 DUP2 CALLDATALOAD SWAP1 POP PUSH2 0x11F DUP2 PUSH2 0x1E7 JUMP JUMPDEST SWAP3 SWAP2 POP POP JUMP JUMPDEST PUSH1 0x0 DUP1 PUSH1 0x40 DUP4 DUP6 SUB SLT ISZERO PUSH2 0x13C JUMPI PUSH2 0x13B PUSH2 0x1CB JUMP JUMPDEST JUMPDEST PUSH1 0x0 PUSH2 0x14A DUP6 DUP3 DUP7 ADD PUSH2 0xFB JUMP JUMPDEST SWAP3 POP POP PUSH1 0x20 PUSH2 0x15B DUP6 DUP3 DUP7 ADD PUSH2 0x110 JUMP JUMPDEST SWAP2 POP POP SWAP3 POP SWAP3 SWAP1 POP JUMP JUMPDEST PUSH2 0x16E DUP2 PUSH2 0x1C1 JUMP JUMPDEST DUP3 MSTORE POP POP JUMP JUMPDEST PUSH1 0x0 PUSH1 0x20 DUP3 ADD SWAP1 POP PUSH2 0x189 PUSH1 0x0 DUP4 ADD DUP5 PUSH2 0x165 JUMP JUMPDEST SWAP3 SWAP2 POP POP JUMP JUMPDEST PUSH1 0x0 PUSH2 0x19A DUP3 PUSH2 0x1A1 JUMP JUMPDEST SWAP1 POP SWAP2 SWAP1 POP JUMP JUMPDEST PUSH1 0x0 PUSH20 0xFFFFFFFFFFFFFFFFFFFFFFFFFFFFFFFFFFFFFFFF DUP3 AND SWAP1 POP SWAP2 SWAP1 POP JUMP JUMPDEST PUSH1 0x0 DUP2 SWAP1 POP SWAP2 SWAP1 POP JUMP JUMPDEST PUSH1 0x0 DUP1 REVERT JUMPDEST PUSH2 0x1D9 DUP2 PUSH2 0x18F JUMP JUMPDEST DUP2 EQ PUSH2 0x1E4 JUMPI PUSH1 0x0 DUP1 REVERT JUMPDEST POP JUMP JUMPDEST PUSH2 0x1F0 DUP2 PUSH2 0x1C1 JUMP JUMPDEST DUP2 EQ PUSH2 0x1FB JUMPI PUSH1 0x0 DUP1 REVERT JUMPDEST POP JUMP INVALID LOG2 PUSH5 0x6970667358 0x22 SLT KECCAK256 DUP8 0xE8 0x4F JUMPDEST CODESIZE 0xB1 DIV SHR 0x25 RETURN 0xD3 0xAC MSIZE CALL PUSH5 0x4B7FA59496 0x22 PUSH20 0x47589034237A16AB937664736F6C634300080700 CALLER "
				},
				"gasEstimates": {
					"creation": {
						"codeDepositCost": "112800",
						"executionCost": "159",
						"totalCost": "112959"
					},
					"external": {
						"add_ether_to_contract_wallet()": "142",
						"send_fifty_ether_to_account(address,uint256)": "infinite",
						"show_contract_wallet()": "339"
					}
				},
				"methodIdentifiers": {
					"add_ether_to_contract_wallet()": "d88b8bef",
					"send_fifty_ether_to_account(address,uint256)": "653952ce",
					"show_contract_wallet()": "b3da5a8f"
				}
			},
			"storageLayout": {
				"storage": [],
				"types": null
			},
			"userdoc": {
				"kind": "user",
				"methods": {},
				"version": 1
			}
		}
	}
}