{
	"contracts/14_Enum.sol": {
		"Enum": {
			"abi": [
				{
					"inputs": [
						{
							"internalType": "uint256",
							"name": "val",
							"type": "uint256"
						}
					],
					"name": "change_user_permission",
					"outputs": [
						{
							"internalType": "string",
							"name": "",
							"type": "string"
						}
					],
					"stateMutability": "nonpayable",
					"type": "function"
				},
				{
					"inputs": [],
					"name": "user",
					"outputs": [
						{
							"internalType": "enum Enum.permission",
							"name": "",
							"type": "uint8"
						}
					],
					"stateMutability": "view",
					"type": "function"
				}
			],
			"devdoc": {
				"kind": "dev",
				"methods": {},
				"version": 1
			},
			"evm": {
				"assembly": "    /* \"contracts/14_Enum.sol\":79:874  contract Enum\r... */\n  mstore(0x40, 0x80)\n    /* \"contracts/14_Enum.sol\":267:289  permission.not_allowed */\n  0x00\n    /* \"contracts/14_Enum.sol\":242:289  permission public user = permission.not_allowed */\n  dup1\n  exp(0x0100, 0x00)\n  dup2\n  sload\n  dup2\n  0xff\n  mul\n  not\n  and\n  swap1\n  dup4\n  0x02\n  dup2\n  gt\n  iszero\n  tag_1\n  jumpi\n  tag_2\n  tag_3\n  jump\t// in\ntag_2:\ntag_1:\n  mul\n  or\n  swap1\n  sstore\n  pop\n    /* \"contracts/14_Enum.sol\":311:315  1000 */\n  0x03e8\n    /* \"contracts/14_Enum.sol\":296:315  uint lottery = 1000 */\n  0x01\n  sstore\n    /* \"contracts/14_Enum.sol\":79:874  contract Enum\r... */\n  callvalue\n  dup1\n  iszero\n  tag_4\n  jumpi\n  0x00\n  dup1\n  revert\ntag_4:\n  pop\n  jump(tag_5)\n    /* \"#utility.yul\":7:187   */\ntag_3:\n    /* \"#utility.yul\":55:132   */\n  0x4e487b7100000000000000000000000000000000000000000000000000000000\n    /* \"#utility.yul\":52:53   */\n  0x00\n    /* \"#utility.yul\":45:133   */\n  mstore\n    /* \"#utility.yul\":152:156   */\n  0x21\n    /* \"#utility.yul\":149:150   */\n  0x04\n    /* \"#utility.yul\":142:157   */\n  mstore\n    /* \"#utility.yul\":176:180   */\n  0x24\n    /* \"#utility.yul\":173:174   */\n  0x00\n    /* \"#utility.yul\":166:181   */\n  revert\n    /* \"contracts/14_Enum.sol\":79:874  contract Enum\r... */\ntag_5:\n  dataSize(sub_0)\n  dup1\n  dataOffset(sub_0)\n  0x00\n  codecopy\n  0x00\n  return\nstop\n\nsub_0: assembly {\n        /* \"contracts/14_Enum.sol\":79:874  contract Enum\r... */\n      mstore(0x40, 0x80)\n      callvalue\n      dup1\n      iszero\n      tag_1\n      jumpi\n      0x00\n      dup1\n      revert\n    tag_1:\n      pop\n      jumpi(tag_2, lt(calldatasize, 0x04))\n      shr(0xe0, calldataload(0x00))\n      dup1\n      0x4f8632ba\n      eq\n      tag_3\n      jumpi\n      dup1\n      0xc7304d07\n      eq\n      tag_4\n      jumpi\n    tag_2:\n      0x00\n      dup1\n      revert\n        /* \"contracts/14_Enum.sol\":242:289  permission public user = permission.not_allowed */\n    tag_3:\n      tag_5\n      tag_6\n      jump\t// in\n    tag_5:\n      mload(0x40)\n      tag_7\n      swap2\n      swap1\n      tag_8\n      jump\t// in\n    tag_7:\n      mload(0x40)\n      dup1\n      swap2\n      sub\n      swap1\n      return\n        /* \"contracts/14_Enum.sol\":324:865  function change_user_permission(uint val) public returns(string memory)\r... */\n    tag_4:\n      tag_9\n      0x04\n      dup1\n      calldatasize\n      sub\n      dup2\n      add\n      swap1\n      tag_10\n      swap2\n      swap1\n      tag_11\n      jump\t// in\n    tag_10:\n      tag_12\n      jump\t// in\n    tag_9:\n      mload(0x40)\n      tag_13\n      swap2\n      swap1\n      tag_14\n      jump\t// in\n    tag_13:\n      mload(0x40)\n      dup1\n      swap2\n      sub\n      swap1\n      return\n        /* \"contracts/14_Enum.sol\":242:289  permission public user = permission.not_allowed */\n    tag_6:\n      0x00\n      dup1\n      sload\n      swap1\n      0x0100\n      exp\n      swap1\n      div\n      0xff\n      and\n      dup2\n      jump\t// out\n        /* \"contracts/14_Enum.sol\":324:865  function change_user_permission(uint val) public returns(string memory)\r... */\n    tag_12:\n        /* \"contracts/14_Enum.sol\":381:394  string memory */\n      0x60\n        /* \"contracts/14_Enum.sol\":412:433  string memory message */\n      0x00\n        /* \"contracts/14_Enum.sol\":412:456  string memory message = \"Permission Changed\" */\n      mload(0x40)\n      dup1\n      0x40\n      add\n      0x40\n      mstore\n      dup1\n      0x12\n      dup2\n      mstore\n      0x20\n      add\n      0x5065726d697373696f6e204368616e6765640000000000000000000000000000\n      dup2\n      mstore\n      pop\n      swap1\n      pop\n        /* \"contracts/14_Enum.sol\":479:480  0 */\n      0x00\n        /* \"contracts/14_Enum.sol\":472:475  val */\n      dup4\n        /* \"contracts/14_Enum.sol\":472:480  val == 0 */\n      eq\n        /* \"contracts/14_Enum.sol\":469:831  if(val == 0)\r... */\n      iszero\n      tag_16\n      jumpi\n        /* \"contracts/14_Enum.sol\":513:535  permission.not_allowed */\n      0x00\n        /* \"contracts/14_Enum.sol\":506:510  user */\n      dup1\n      0x00\n        /* \"contracts/14_Enum.sol\":506:535  user = permission.not_allowed */\n      0x0100\n      exp\n      dup2\n      sload\n      dup2\n      0xff\n      mul\n      not\n      and\n      swap1\n      dup4\n      0x02\n      dup2\n      gt\n      iszero\n      tag_17\n      jumpi\n      tag_18\n      tag_19\n      jump\t// in\n    tag_18:\n    tag_17:\n      mul\n      or\n      swap1\n      sstore\n      pop\n        /* \"contracts/14_Enum.sol\":469:831  if(val == 0)\r... */\n      jump(tag_20)\n    tag_16:\n        /* \"contracts/14_Enum.sol\":572:573  1 */\n      0x01\n        /* \"contracts/14_Enum.sol\":565:568  val */\n      dup4\n        /* \"contracts/14_Enum.sol\":565:573  val == 1 */\n      eq\n        /* \"contracts/14_Enum.sol\":562:831  if(val == 1)\r... */\n      iszero\n      tag_21\n      jumpi\n        /* \"contracts/14_Enum.sol\":606:634  permission.sometimes_allowed */\n      0x01\n        /* \"contracts/14_Enum.sol\":599:603  user */\n      0x00\n      dup1\n        /* \"contracts/14_Enum.sol\":599:634  user = permission.sometimes_allowed */\n      0x0100\n      exp\n      dup2\n      sload\n      dup2\n      0xff\n      mul\n      not\n      and\n      swap1\n      dup4\n      0x02\n      dup2\n      gt\n      iszero\n      tag_22\n      jumpi\n      tag_23\n      tag_19\n      jump\t// in\n    tag_23:\n    tag_22:\n      mul\n      or\n      swap1\n      sstore\n      pop\n        /* \"contracts/14_Enum.sol\":562:831  if(val == 1)\r... */\n      jump(tag_24)\n    tag_21:\n        /* \"contracts/14_Enum.sol\":671:672  2 */\n      0x02\n        /* \"contracts/14_Enum.sol\":664:667  val */\n      dup4\n        /* \"contracts/14_Enum.sol\":664:672  val == 2 */\n      eq\n        /* \"contracts/14_Enum.sol\":661:831  if(val == 2)\r... */\n      iszero\n      tag_25\n      jumpi\n        /* \"contracts/14_Enum.sol\":705:730  permission.always_allowed */\n      0x02\n        /* \"contracts/14_Enum.sol\":698:702  user */\n      0x00\n      dup1\n        /* \"contracts/14_Enum.sol\":698:730  user = permission.always_allowed */\n      0x0100\n      exp\n      dup2\n      sload\n      dup2\n      0xff\n      mul\n      not\n      and\n      swap1\n      dup4\n      0x02\n      dup2\n      gt\n      iszero\n      tag_26\n      jumpi\n      tag_27\n      tag_19\n      jump\t// in\n    tag_27:\n    tag_26:\n      mul\n      or\n      swap1\n      sstore\n      pop\n        /* \"contracts/14_Enum.sol\":661:831  if(val == 2)\r... */\n      jump(tag_28)\n    tag_25:\n        /* \"contracts/14_Enum.sol\":781:819  message = \"Invalid Permission Request\" */\n      mload(0x40)\n      dup1\n      0x40\n      add\n      0x40\n      mstore\n      dup1\n      0x1a\n      dup2\n      mstore\n      0x20\n      add\n      0x496e76616c6964205065726d697373696f6e2052657175657374000000000000\n      dup2\n      mstore\n      pop\n      swap1\n      pop\n        /* \"contracts/14_Enum.sol\":661:831  if(val == 2)\r... */\n    tag_28:\n        /* \"contracts/14_Enum.sol\":562:831  if(val == 1)\r... */\n    tag_24:\n        /* \"contracts/14_Enum.sol\":469:831  if(val == 0)\r... */\n    tag_20:\n        /* \"contracts/14_Enum.sol\":850:857  message */\n      dup1\n        /* \"contracts/14_Enum.sol\":843:857  return message */\n      swap2\n      pop\n      pop\n        /* \"contracts/14_Enum.sol\":324:865  function change_user_permission(uint val) public returns(string memory)\r... */\n      swap2\n      swap1\n      pop\n      jump\t// out\n        /* \"#utility.yul\":7:146   */\n    tag_30:\n        /* \"#utility.yul\":53:58   */\n      0x00\n        /* \"#utility.yul\":91:97   */\n      dup2\n        /* \"#utility.yul\":78:98   */\n      calldataload\n        /* \"#utility.yul\":69:98   */\n      swap1\n      pop\n        /* \"#utility.yul\":107:140   */\n      tag_32\n        /* \"#utility.yul\":134:139   */\n      dup2\n        /* \"#utility.yul\":107:140   */\n      tag_33\n      jump\t// in\n    tag_32:\n        /* \"#utility.yul\":7:146   */\n      swap3\n      swap2\n      pop\n      pop\n      jump\t// out\n        /* \"#utility.yul\":152:481   */\n    tag_11:\n        /* \"#utility.yul\":211:217   */\n      0x00\n        /* \"#utility.yul\":260:262   */\n      0x20\n        /* \"#utility.yul\":248:257   */\n      dup3\n        /* \"#utility.yul\":239:246   */\n      dup5\n        /* \"#utility.yul\":235:258   */\n      sub\n        /* \"#utility.yul\":231:263   */\n      slt\n        /* \"#utility.yul\":228:347   */\n      iszero\n      tag_35\n      jumpi\n        /* \"#utility.yul\":266:345   */\n      tag_36\n      tag_37\n      jump\t// in\n    tag_36:\n        /* \"#utility.yul\":228:347   */\n    tag_35:\n        /* \"#utility.yul\":386:387   */\n      0x00\n        /* \"#utility.yul\":411:464   */\n      tag_38\n        /* \"#utility.yul\":456:463   */\n      dup5\n        /* \"#utility.yul\":447:453   */\n      dup3\n        /* \"#utility.yul\":436:445   */\n      dup6\n        /* \"#utility.yul\":432:454   */\n      add\n        /* \"#utility.yul\":411:464   */\n      tag_30\n      jump\t// in\n    tag_38:\n        /* \"#utility.yul\":401:464   */\n      swap2\n      pop\n        /* \"#utility.yul\":357:474   */\n      pop\n        /* \"#utility.yul\":152:481   */\n      swap3\n      swap2\n      pop\n      pop\n      jump\t// out\n        /* \"#utility.yul\":487:638   */\n    tag_39:\n        /* \"#utility.yul\":584:631   */\n      tag_41\n        /* \"#utility.yul\":625:630   */\n      dup2\n        /* \"#utility.yul\":584:631   */\n      tag_42\n      jump\t// in\n    tag_41:\n        /* \"#utility.yul\":579:582   */\n      dup3\n        /* \"#utility.yul\":572:632   */\n      mstore\n        /* \"#utility.yul\":487:638   */\n      pop\n      pop\n      jump\t// out\n        /* \"#utility.yul\":644:1008   */\n    tag_43:\n        /* \"#utility.yul\":732:735   */\n      0x00\n        /* \"#utility.yul\":760:799   */\n      tag_45\n        /* \"#utility.yul\":793:798   */\n      dup3\n        /* \"#utility.yul\":760:799   */\n      tag_46\n      jump\t// in\n    tag_45:\n        /* \"#utility.yul\":815:886   */\n      tag_47\n        /* \"#utility.yul\":879:885   */\n      dup2\n        /* \"#utility.yul\":874:877   */\n      dup6\n        /* \"#utility.yul\":815:886   */\n      tag_48\n      jump\t// in\n    tag_47:\n        /* \"#utility.yul\":808:886   */\n      swap4\n      pop\n        /* \"#utility.yul\":895:947   */\n      tag_49\n        /* \"#utility.yul\":940:946   */\n      dup2\n        /* \"#utility.yul\":935:938   */\n      dup6\n        /* \"#utility.yul\":928:932   */\n      0x20\n        /* \"#utility.yul\":921:926   */\n      dup7\n        /* \"#utility.yul\":917:933   */\n      add\n        /* \"#utility.yul\":895:947   */\n      tag_50\n      jump\t// in\n    tag_49:\n        /* \"#utility.yul\":972:1001   */\n      tag_51\n        /* \"#utility.yul\":994:1000   */\n      dup2\n        /* \"#utility.yul\":972:1001   */\n      tag_52\n      jump\t// in\n    tag_51:\n        /* \"#utility.yul\":967:970   */\n      dup5\n        /* \"#utility.yul\":963:1002   */\n      add\n        /* \"#utility.yul\":956:1002   */\n      swap2\n      pop\n        /* \"#utility.yul\":736:1008   */\n      pop\n        /* \"#utility.yul\":644:1008   */\n      swap3\n      swap2\n      pop\n      pop\n      jump\t// out\n        /* \"#utility.yul\":1014:1256   */\n    tag_8:\n        /* \"#utility.yul\":1117:1121   */\n      0x00\n        /* \"#utility.yul\":1155:1157   */\n      0x20\n        /* \"#utility.yul\":1144:1153   */\n      dup3\n        /* \"#utility.yul\":1140:1158   */\n      add\n        /* \"#utility.yul\":1132:1158   */\n      swap1\n      pop\n        /* \"#utility.yul\":1168:1249   */\n      tag_54\n        /* \"#utility.yul\":1246:1247   */\n      0x00\n        /* \"#utility.yul\":1235:1244   */\n      dup4\n        /* \"#utility.yul\":1231:1248   */\n      add\n        /* \"#utility.yul\":1222:1228   */\n      dup5\n        /* \"#utility.yul\":1168:1249   */\n      tag_39\n      jump\t// in\n    tag_54:\n        /* \"#utility.yul\":1014:1256   */\n      swap3\n      swap2\n      pop\n      pop\n      jump\t// out\n        /* \"#utility.yul\":1262:1575   */\n    tag_14:\n        /* \"#utility.yul\":1375:1379   */\n      0x00\n        /* \"#utility.yul\":1413:1415   */\n      0x20\n        /* \"#utility.yul\":1402:1411   */\n      dup3\n        /* \"#utility.yul\":1398:1416   */\n      add\n        /* \"#utility.yul\":1390:1416   */\n      swap1\n      pop\n        /* \"#utility.yul\":1462:1471   */\n      dup2\n        /* \"#utility.yul\":1456:1460   */\n      dup2\n        /* \"#utility.yul\":1452:1472   */\n      sub\n        /* \"#utility.yul\":1448:1449   */\n      0x00\n        /* \"#utility.yul\":1437:1446   */\n      dup4\n        /* \"#utility.yul\":1433:1450   */\n      add\n        /* \"#utility.yul\":1426:1473   */\n      mstore\n        /* \"#utility.yul\":1490:1568   */\n      tag_56\n        /* \"#utility.yul\":1563:1567   */\n      dup2\n        /* \"#utility.yul\":1554:1560   */\n      dup5\n        /* \"#utility.yul\":1490:1568   */\n      tag_43\n      jump\t// in\n    tag_56:\n        /* \"#utility.yul\":1482:1568   */\n      swap1\n      pop\n        /* \"#utility.yul\":1262:1575   */\n      swap3\n      swap2\n      pop\n      pop\n      jump\t// out\n        /* \"#utility.yul\":1662:1761   */\n    tag_46:\n        /* \"#utility.yul\":1714:1720   */\n      0x00\n        /* \"#utility.yul\":1748:1753   */\n      dup2\n        /* \"#utility.yul\":1742:1754   */\n      mload\n        /* \"#utility.yul\":1732:1754   */\n      swap1\n      pop\n        /* \"#utility.yul\":1662:1761   */\n      swap2\n      swap1\n      pop\n      jump\t// out\n        /* \"#utility.yul\":1767:1936   */\n    tag_48:\n        /* \"#utility.yul\":1851:1862   */\n      0x00\n        /* \"#utility.yul\":1885:1891   */\n      dup3\n        /* \"#utility.yul\":1880:1883   */\n      dup3\n        /* \"#utility.yul\":1873:1892   */\n      mstore\n        /* \"#utility.yul\":1925:1929   */\n      0x20\n        /* \"#utility.yul\":1920:1923   */\n      dup3\n        /* \"#utility.yul\":1916:1930   */\n      add\n        /* \"#utility.yul\":1901:1930   */\n      swap1\n      pop\n        /* \"#utility.yul\":1767:1936   */\n      swap3\n      swap2\n      pop\n      pop\n      jump\t// out\n        /* \"#utility.yul\":1942:2077   */\n    tag_61:\n        /* \"#utility.yul\":1991:1998   */\n      0x00\n        /* \"#utility.yul\":2020:2025   */\n      dup2\n        /* \"#utility.yul\":2009:2025   */\n      swap1\n      pop\n        /* \"#utility.yul\":2026:2071   */\n      tag_63\n        /* \"#utility.yul\":2065:2070   */\n      dup3\n        /* \"#utility.yul\":2026:2071   */\n      tag_64\n      jump\t// in\n    tag_63:\n        /* \"#utility.yul\":1942:2077   */\n      swap2\n      swap1\n      pop\n      jump\t// out\n        /* \"#utility.yul\":2083:2160   */\n    tag_65:\n        /* \"#utility.yul\":2120:2127   */\n      0x00\n        /* \"#utility.yul\":2149:2154   */\n      dup2\n        /* \"#utility.yul\":2138:2154   */\n      swap1\n      pop\n        /* \"#utility.yul\":2083:2160   */\n      swap2\n      swap1\n      pop\n      jump\t// out\n        /* \"#utility.yul\":2166:2301   */\n    tag_42:\n        /* \"#utility.yul\":2226:2235   */\n      0x00\n        /* \"#utility.yul\":2259:2295   */\n      tag_68\n        /* \"#utility.yul\":2289:2294   */\n      dup3\n        /* \"#utility.yul\":2259:2295   */\n      tag_61\n      jump\t// in\n    tag_68:\n        /* \"#utility.yul\":2246:2295   */\n      swap1\n      pop\n        /* \"#utility.yul\":2166:2301   */\n      swap2\n      swap1\n      pop\n      jump\t// out\n        /* \"#utility.yul\":2307:2614   */\n    tag_50:\n        /* \"#utility.yul\":2375:2376   */\n      0x00\n        /* \"#utility.yul\":2385:2498   */\n    tag_70:\n        /* \"#utility.yul\":2399:2405   */\n      dup4\n        /* \"#utility.yul\":2396:2397   */\n      dup2\n        /* \"#utility.yul\":2393:2406   */\n      lt\n        /* \"#utility.yul\":2385:2498   */\n      iszero\n      tag_72\n      jumpi\n        /* \"#utility.yul\":2484:2485   */\n      dup1\n        /* \"#utility.yul\":2479:2482   */\n      dup3\n        /* \"#utility.yul\":2475:2486   */\n      add\n        /* \"#utility.yul\":2469:2487   */\n      mload\n        /* \"#utility.yul\":2465:2466   */\n      dup2\n        /* \"#utility.yul\":2460:2463   */\n      dup5\n        /* \"#utility.yul\":2456:2467   */\n      add\n        /* \"#utility.yul\":2449:2488   */\n      mstore\n        /* \"#utility.yul\":2421:2423   */\n      0x20\n        /* \"#utility.yul\":2418:2419   */\n      dup2\n        /* \"#utility.yul\":2414:2424   */\n      add\n        /* \"#utility.yul\":2409:2424   */\n      swap1\n      pop\n        /* \"#utility.yul\":2385:2498   */\n      jump(tag_70)\n    tag_72:\n        /* \"#utility.yul\":2516:2522   */\n      dup4\n        /* \"#utility.yul\":2513:2514   */\n      dup2\n        /* \"#utility.yul\":2510:2523   */\n      gt\n        /* \"#utility.yul\":2507:2608   */\n      iszero\n      tag_73\n      jumpi\n        /* \"#utility.yul\":2596:2597   */\n      0x00\n        /* \"#utility.yul\":2587:2593   */\n      dup5\n        /* \"#utility.yul\":2582:2585   */\n      dup5\n        /* \"#utility.yul\":2578:2594   */\n      add\n        /* \"#utility.yul\":2571:2598   */\n      mstore\n        /* \"#utility.yul\":2507:2608   */\n    tag_73:\n        /* \"#utility.yul\":2356:2614   */\n      pop\n        /* \"#utility.yul\":2307:2614   */\n      pop\n      pop\n      pop\n      jump\t// out\n        /* \"#utility.yul\":2620:2800   */\n    tag_19:\n        /* \"#utility.yul\":2668:2745   */\n      0x4e487b7100000000000000000000000000000000000000000000000000000000\n        /* \"#utility.yul\":2665:2666   */\n      0x00\n        /* \"#utility.yul\":2658:2746   */\n      mstore\n        /* \"#utility.yul\":2765:2769   */\n      0x21\n        /* \"#utility.yul\":2762:2763   */\n      0x04\n        /* \"#utility.yul\":2755:2770   */\n      mstore\n        /* \"#utility.yul\":2789:2793   */\n      0x24\n        /* \"#utility.yul\":2786:2787   */\n      0x00\n        /* \"#utility.yul\":2779:2794   */\n      revert\n        /* \"#utility.yul\":2929:3046   */\n    tag_37:\n        /* \"#utility.yul\":3038:3039   */\n      0x00\n        /* \"#utility.yul\":3035:3036   */\n      dup1\n        /* \"#utility.yul\":3028:3040   */\n      revert\n        /* \"#utility.yul\":3052:3154   */\n    tag_52:\n        /* \"#utility.yul\":3093:3099   */\n      0x00\n        /* \"#utility.yul\":3144:3146   */\n      0x1f\n        /* \"#utility.yul\":3140:3147   */\n      not\n        /* \"#utility.yul\":3135:3137   */\n      0x1f\n        /* \"#utility.yul\":3128:3133   */\n      dup4\n        /* \"#utility.yul\":3124:3138   */\n      add\n        /* \"#utility.yul\":3120:3148   */\n      and\n        /* \"#utility.yul\":3110:3148   */\n      swap1\n      pop\n        /* \"#utility.yul\":3052:3154   */\n      swap2\n      swap1\n      pop\n      jump\t// out\n        /* \"#utility.yul\":3160:3277   */\n    tag_64:\n        /* \"#utility.yul\":3245:3246   */\n      0x03\n        /* \"#utility.yul\":3238:3243   */\n      dup2\n        /* \"#utility.yul\":3235:3247   */\n      lt\n        /* \"#utility.yul\":3225:3271   */\n      tag_80\n      jumpi\n        /* \"#utility.yul\":3251:3269   */\n      tag_81\n      tag_19\n      jump\t// in\n    tag_81:\n        /* \"#utility.yul\":3225:3271   */\n    tag_80:\n        /* \"#utility.yul\":3160:3277   */\n      pop\n      jump\t// out\n        /* \"#utility.yul\":3283:3405   */\n    tag_33:\n        /* \"#utility.yul\":3356:3380   */\n      tag_83\n        /* \"#utility.yul\":3374:3379   */\n      dup2\n        /* \"#utility.yul\":3356:3380   */\n      tag_65\n      jump\t// in\n    tag_83:\n        /* \"#utility.yul\":3349:3354   */\n      dup2\n        /* \"#utility.yul\":3346:3381   */\n      eq\n        /* \"#utility.yul\":3336:3399   */\n      tag_84\n      jumpi\n        /* \"#utility.yul\":3395:3396   */\n      0x00\n        /* \"#utility.yul\":3392:3393   */\n      dup1\n        /* \"#utility.yul\":3385:3397   */\n      revert\n        /* \"#utility.yul\":3336:3399   */\n    tag_84:\n        /* \"#utility.yul\":3283:3405   */\n      pop\n      jump\t// out\n\n    auxdata: 0xa2646970667358221220928bfe56ee0d08dcd37e7cf8749a1f4d5a4ab5a272b3062ae7f2da9f6f1076ef64736f6c63430008070033\n}\n",
				"bytecode": {
					"linkReferences": {},
					"object": "608060405260008060006101000a81548160ff0219169083600281111561002957610028610046565b5b02179055506103e860015534801561004057600080fd5b50610075565b7f4e487b7100000000000000000000000000000000000000000000000000000000600052602160045260246000fd5b6103ad806100846000396000f3fe608060405234801561001057600080fd5b50600436106100365760003560e01c80634f8632ba1461003b578063c7304d0714610059575b600080fd5b610043610089565b604051610050919061024c565b60405180910390f35b610073600480360381019061006e91906101d7565b61009a565b6040516100809190610267565b60405180910390f35b60008054906101000a900460ff1681565b606060006040518060400160405280601281526020017f5065726d697373696f6e204368616e67656400000000000000000000000000008152509050600083141561010e5760008060006101000a81548160ff0219169083600281111561010457610103610307565b5b02179055506101b9565b60018314156101465760016000806101000a81548160ff0219169083600281111561013c5761013b610307565b5b02179055506101b8565b600283141561017e5760026000806101000a81548160ff0219169083600281111561017457610173610307565b5b02179055506101b7565b6040518060400160405280601a81526020017f496e76616c6964205065726d697373696f6e205265717565737400000000000081525090505b5b5b80915050919050565b6000813590506101d181610360565b92915050565b6000602082840312156101ed576101ec610336565b5b60006101fb848285016101c2565b91505092915050565b61020d816102c2565b82525050565b600061021e82610289565b6102288185610294565b93506102388185602086016102d4565b6102418161033b565b840191505092915050565b60006020820190506102616000830184610204565b92915050565b600060208201905081810360008301526102818184610213565b905092915050565b600081519050919050565b600082825260208201905092915050565b60008190506102b38261034c565b919050565b6000819050919050565b60006102cd826102a5565b9050919050565b60005b838110156102f25780820151818401526020810190506102d7565b83811115610301576000848401525b50505050565b7f4e487b7100000000000000000000000000000000000000000000000000000000600052602160045260246000fd5b600080fd5b6000601f19601f8301169050919050565b6003811061035d5761035c610307565b5b50565b610369816102b8565b811461037457600080fd5b5056fea2646970667358221220928bfe56ee0d08dcd37e7cf8749a1f4d5a4ab5a272b3062ae7f2da9f6f1076ef64736f6c63430008070033",
					"opcodes": "PUSH1 0x80 PUSH1 0x40 MSTORE PUSH1 0x0 DUP1 PUSH1 0x0 PUSH2 0x100 EXP DUP2 SLOAD DUP2 PUSH1 0xFF MUL NOT AND SWAP1 DUP4 PUSH1 0x2 DUP2 GT ISZERO PUSH2 0x29 JUMPI PUSH2 0x28 PUSH2 0x46 JUMP JUMPDEST JUMPDEST MUL OR SWAP1 SSTORE POP PUSH2 0x3E8 PUSH1 0x1 SSTORE CALLVALUE DUP1 ISZERO PUSH2 0x40 JUMPI PUSH1 0x0 DUP1 REVERT JUMPDEST POP PUSH2 0x75 JUMP JUMPDEST PUSH32 0x4E487B7100000000000000000000000000000000000000000000000000000000 PUSH1 0x0 MSTORE PUSH1 0x21 PUSH1 0x4 MSTORE PUSH1 0x24 PUSH1 0x0 REVERT JUMPDEST PUSH2 0x3AD DUP1 PUSH2 0x84 PUSH1 0x0 CODECOPY PUSH1 0x0 RETURN INVALID PUSH1 0x80 PUSH1 0x40 MSTORE CALLVALUE DUP1 ISZERO PUSH2 0x10 JUMPI PUSH1 0x0 DUP1 REVERT JUMPDEST POP PUSH1 0x4 CALLDATASIZE LT PUSH2 0x36 JUMPI PUSH1 0x0 CALLDATALOAD PUSH1 0xE0 SHR DUP1 PUSH4 0x4F8632BA EQ PUSH2 0x3B JUMPI DUP1 PUSH4 0xC7304D07 EQ PUSH2 0x59 JUMPI JUMPDEST PUSH1 0x0 DUP1 REVERT JUMPDEST PUSH2 0x43 PUSH2 0x89 JUMP JUMPDEST PUSH1 0x40 MLOAD PUSH2 0x50 SWAP2 SWAP1 PUSH2 0x24C JUMP JUMPDEST PUSH1 0x40 MLOAD DUP1 SWAP2 SUB SWAP1 RETURN JUMPDEST PUSH2 0x73 PUSH1 0x4 DUP1 CALLDATASIZE SUB DUP2 ADD SWAP1 PUSH2 0x6E SWAP2 SWAP1 PUSH2 0x1D7 JUMP JUMPDEST PUSH2 0x9A JUMP JUMPDEST PUSH1 0x40 MLOAD PUSH2 0x80 SWAP2 SWAP1 PUSH2 0x267 JUMP JUMPDEST PUSH1 0x40 MLOAD DUP1 SWAP2 SUB SWAP1 RETURN JUMPDEST PUSH1 0x0 DUP1 SLOAD SWAP1 PUSH2 0x100 EXP SWAP1 DIV PUSH1 0xFF AND DUP2 JUMP JUMPDEST PUSH1 0x60 PUSH1 0x0 PUSH1 0x40 MLOAD DUP1 PUSH1 0x40 ADD PUSH1 0x40 MSTORE DUP1 PUSH1 0x12 DUP2 MSTORE PUSH1 0x20 ADD PUSH32 0x5065726D697373696F6E204368616E6765640000000000000000000000000000 DUP2 MSTORE POP SWAP1 POP PUSH1 0x0 DUP4 EQ ISZERO PUSH2 0x10E JUMPI PUSH1 0x0 DUP1 PUSH1 0x0 PUSH2 0x100 EXP DUP2 SLOAD DUP2 PUSH1 0xFF MUL NOT AND SWAP1 DUP4 PUSH1 0x2 DUP2 GT ISZERO PUSH2 0x104 JUMPI PUSH2 0x103 PUSH2 0x307 JUMP JUMPDEST JUMPDEST MUL OR SWAP1 SSTORE POP PUSH2 0x1B9 JUMP JUMPDEST PUSH1 0x1 DUP4 EQ ISZERO PUSH2 0x146 JUMPI PUSH1 0x1 PUSH1 0x0 DUP1 PUSH2 0x100 EXP DUP2 SLOAD DUP2 PUSH1 0xFF MUL NOT AND SWAP1 DUP4 PUSH1 0x2 DUP2 GT ISZERO PUSH2 0x13C JUMPI PUSH2 0x13B PUSH2 0x307 JUMP JUMPDEST JUMPDEST MUL OR SWAP1 SSTORE POP PUSH2 0x1B8 JUMP JUMPDEST PUSH1 0x2 DUP4 EQ ISZERO PUSH2 0x17E JUMPI PUSH1 0x2 PUSH1 0x0 DUP1 PUSH2 0x100 EXP DUP2 SLOAD DUP2 PUSH1 0xFF MUL NOT AND SWAP1 DUP4 PUSH1 0x2 DUP2 GT ISZERO PUSH2 0x174 JUMPI PUSH2 0x173 PUSH2 0x307 JUMP JUMPDEST JUMPDEST MUL OR SWAP1 SSTORE POP PUSH2 0x1B7 JUMP JUMPDEST PUSH1 0x40 MLOAD DUP1 PUSH1 0x40 ADD PUSH1 0x40 MSTORE DUP1 PUSH1 0x1A DUP2 MSTORE PUSH1 0x20 ADD PUSH32 0x496E76616C6964205065726D697373696F6E2052657175657374000000000000 DUP2 MSTORE POP SWAP1 POP JUMPDEST JUMPDEST JUMPDEST DUP1 SWAP2 POP POP SWAP2 SWAP1 POP JUMP JUMPDEST PUSH1 0x0 DUP2 CALLDATALOAD SWAP1 POP PUSH2 0x1D1 DUP2 PUSH2 0x360 JUMP JUMPDEST SWAP3 SWAP2 POP POP JUMP JUMPDEST PUSH1 0x0 PUSH1 0x20 DUP3 DUP5 SUB SLT ISZERO PUSH2 0x1ED JUMPI PUSH2 0x1EC PUSH2 0x336 JUMP JUMPDEST JUMPDEST PUSH1 0x0 PUSH2 0x1FB DUP5 DUP3 DUP6 ADD PUSH2 0x1C2 JUMP JUMPDEST SWAP2 POP POP SWAP3 SWAP2 POP POP JUMP JUMPDEST PUSH2 0x20D DUP2 PUSH2 0x2C2 JUMP JUMPDEST DUP3 MSTORE POP POP JUMP JUMPDEST PUSH1 0x0 PUSH2 0x21E DUP3 PUSH2 0x289 JUMP JUMPDEST PUSH2 0x228 DUP2 DUP6 PUSH2 0x294 JUMP JUMPDEST SWAP4 POP PUSH2 0x238 DUP2 DUP6 PUSH1 0x20 DUP7 ADD PUSH2 0x2D4 JUMP JUMPDEST PUSH2 0x241 DUP2 PUSH2 0x33B JUMP JUMPDEST DUP5 ADD SWAP2 POP POP SWAP3 SWAP2 POP POP JUMP JUMPDEST PUSH1 0x0 PUSH1 0x20 DUP3 ADD SWAP1 POP PUSH2 0x261 PUSH1 0x0 DUP4 ADD DUP5 PUSH2 0x204 JUMP JUMPDEST SWAP3 SWAP2 POP POP JUMP JUMPDEST PUSH1 0x0 PUSH1 0x20 DUP3 ADD SWAP1 POP DUP2 DUP2 SUB PUSH1 0x0 DUP4 ADD MSTORE PUSH2 0x281 DUP2 DUP5 PUSH2 0x213 JUMP JUMPDEST SWAP1 POP SWAP3 SWAP2 POP POP JUMP JUMPDEST PUSH1 0x0 DUP2 MLOAD SWAP1 POP SWAP2 SWAP1 POP JUMP JUMPDEST PUSH1 0x0 DUP3 DUP3 MSTORE PUSH1 0x20 DUP3 ADD SWAP1 POP SWAP3 SWAP2 POP POP JUMP JUMPDEST PUSH1 0x0 DUP2 SWAP1 POP PUSH2 0x2B3 DUP3 PUSH2 0x34C JUMP JUMPDEST SWAP2 SWAP1 POP JUMP JUMPDEST PUSH1 0x0 DUP2 SWAP1 POP SWAP2 SWAP1 POP JUMP JUMPDEST PUSH1 0x0 PUSH2 0x2CD DUP3 PUSH2 0x2A5 JUMP JUMPDEST SWAP1 POP SWAP2 SWAP1 POP JUMP JUMPDEST PUSH1 0x0 JUMPDEST DUP4 DUP2 LT ISZERO PUSH2 0x2F2 JUMPI DUP1 DUP3 ADD MLOAD DUP2 DUP5 ADD MSTORE PUSH1 0x20 DUP2 ADD SWAP1 POP PUSH2 0x2D7 JUMP JUMPDEST DUP4 DUP2 GT ISZERO PUSH2 0x301 JUMPI PUSH1 0x0 DUP5 DUP5 ADD MSTORE JUMPDEST POP POP POP POP JUMP JUMPDEST PUSH32 0x4E487B7100000000000000000000000000000000000000000000000000000000 PUSH1 0x0 MSTORE PUSH1 0x21 PUSH1 0x4 MSTORE PUSH1 0x24 PUSH1 0x0 REVERT JUMPDEST PUSH1 0x0 DUP1 REVERT JUMPDEST PUSH1 0x0 PUSH1 0x1F NOT PUSH1 0x1F DUP4 ADD AND SWAP1 POP SWAP2 SWAP1 POP JUMP JUMPDEST PUSH1 0x3 DUP2 LT PUSH2 0x35D JUMPI PUSH2 0x35C PUSH2 0x307 JUMP JUMPDEST JUMPDEST POP JUMP JUMPDEST PUSH2 0x369 DUP2 PUSH2 0x2B8 JUMP JUMPDEST DUP2 EQ PUSH2 0x374 JUMPI PUSH1 0x0 DUP1 REVERT JUMPDEST POP JUMP INVALID LOG2 PUSH5 0x6970667358 0x22 SLT KECCAK256 SWAP3 DUP12 INVALID JUMP 0xEE 0xD ADDMOD 0xDC 0xD3 PUSH31 0x7CF8749A1F4D5A4AB5A272B3062AE7F2DA9F6F1076EF64736F6C6343000807 STOP CALLER "
				},
				"gasEstimates": {
					"creation": {
						"codeDepositCost": "188200",
						"executionCost": "46637",
						"totalCost": "234837"
					},
					"external": {
						"change_user_permission(uint256)": "infinite",
						"user()": "2535"
					}
				},
				"methodIdentifiers": {
					"change_user_permission(uint256)": "c7304d07",
					"user()": "4f8632ba"
				}
			},
			"storageLayout": {
				"storage": [
					{
						"astId": 10,
						"contract": "contracts/14_Enum.sol:Enum",
						"label": "user",
						"offset": 0,
						"slot": "0",
						"type": "t_enum(permission)5"
					},
					{
						"astId": 13,
						"contract": "contracts/14_Enum.sol:Enum",
						"label": "lottery",
						"offset": 0,
						"slot": "1",
						"type": "t_uint256"
					}
				],
				"types": {
					"t_enum(permission)5": {
						"encoding": "inplace",
						"label": "enum Enum.permission",
						"numberOfBytes": "1"
					},
					"t_uint256": {
						"encoding": "inplace",
						"label": "uint256",
						"numberOfBytes": "32"
					}
				}
			},
			"userdoc": {
				"kind": "user",
				"methods": {},
				"version": 1
			}
		}
	}
}