{
	"contracts/18_Payable.sol": {
		"Payable": {
			"abi": [
				{
					"inputs": [],
					"name": "add_ether_to_contract_wallet",
					"outputs": [],
					"stateMutability": "payable",
					"type": "function"
				}
			],
			"devdoc": {
				"kind": "dev",
				"methods": {},
				"version": 1
			},
			"evm": {
				"assembly": "    /* \"contracts/18_Payable.sol\":79:177  contract Payable\r... */\n  mstore(0x40, 0x80)\n  callvalue\n  dup1\n  iszero\n  tag_1\n  jumpi\n  0x00\n  dup1\n  revert\ntag_1:\n  pop\n  dataSize(sub_0)\n  dup1\n  dataOffset(sub_0)\n  0x00\n  codecopy\n  0x00\n  return\nstop\n\nsub_0: assembly {\n        /* \"contracts/18_Payable.sol\":79:177  contract Payable\r... */\n      mstore(0x40, 0x80)\n      jumpi(tag_1, lt(calldatasize, 0x04))\n      shr(0xe0, calldataload(0x00))\n      dup1\n      0xd88b8bef\n      eq\n      tag_2\n      jumpi\n    tag_1:\n      0x00\n      dup1\n      revert\n        /* \"contracts/18_Payable.sol\":104:174  function add_ether_to_contract_wallet() public payable\r... */\n    tag_2:\n      tag_3\n      tag_4\n      jump\t// in\n    tag_3:\n      stop\n    tag_4:\n      jump\t// out\n\n    auxdata: 0xa2646970667358221220e1f80f3df6343e425f3adf8baca4ee29212dc53d352c34e3b58723cd008a16ca64736f6c63430008070033\n}\n",
				"bytecode": {
					"linkReferences": {},
					"object": "6080604052348015600f57600080fd5b50606180601d6000396000f3fe608060405260043610601c5760003560e01c8063d88b8bef146021575b600080fd5b60276029565b005b56fea2646970667358221220e1f80f3df6343e425f3adf8baca4ee29212dc53d352c34e3b58723cd008a16ca64736f6c63430008070033",
					"opcodes": "PUSH1 0x80 PUSH1 0x40 MSTORE CALLVALUE DUP1 ISZERO PUSH1 0xF JUMPI PUSH1 0x0 DUP1 REVERT JUMPDEST POP PUSH1 0x61 DUP1 PUSH1 0x1D PUSH1 0x0 CODECOPY PUSH1 0x0 RETURN INVALID PUSH1 0x80 PUSH1 0x40 MSTORE PUSH1 0x4 CALLDATASIZE LT PUSH1 0x1C JUMPI PUSH1 0x0 CALLDATALOAD PUSH1 0xE0 SHR DUP1 PUSH4 0xD88B8BEF EQ PUSH1 0x21 JUMPI JUMPDEST PUSH1 0x0 DUP1 REVERT JUMPDEST PUSH1 0x27 PUSH1 0x29 JUMP JUMPDEST STOP JUMPDEST JUMP INVALID LOG2 PUSH5 0x6970667358 0x22 SLT KECCAK256 0xE1 0xF8 0xF RETURNDATASIZE 0xF6 CALLVALUE RETURNDATACOPY TIMESTAMP 0x5F GASPRICE 0xDF DUP12 0xAC LOG4 0xEE 0x29 0x21 0x2D 0xC5 RETURNDATASIZE CALLDATALOAD 0x2C CALLVALUE 0xE3 0xB5 DUP8 0x23 0xCD STOP DUP11 AND 0xCA PUSH5 0x736F6C6343 STOP ADDMOD SMOD STOP CALLER "
				},
				"deployedBytecode": {
					"immutableReferences": {},
					"linkReferences": {},
					"object": "608060405260043610601c5760003560e01c8063d88b8bef146021575b600080fd5b60276029565b005b56fea2646970667358221220e1f80f3df6343e425f3adf8baca4ee29212dc53d352c34e3b58723cd008a16ca64736f6c63430008070033",
					"opcodes": "PUSH1 0x80 PUSH1 0x40 MSTORE PUSH1 0x4 CALLDATASIZE LT PUSH1 0x1C JUMPI PUSH1 0x0 CALLDATALOAD PUSH1 0xE0 SHR DUP1 PUSH4 0xD88B8BEF EQ PUSH1 0x21 JUMPI JUMPDEST PUSH1 0x0 DUP1 REVERT JUMPDEST PUSH1 0x27 PUSH1 0x29 JUMP JUMPDEST STOP JUMPDEST JUMP INVALID LOG2 PUSH5 0x6970667358 0x22 SLT KECCAK256 0xE1 0xF8 0xF RETURNDATASIZE 0xF6 CALLVALUE RETURNDATACOPY TIMESTAMP 0x5F GASPRICE 0xDF DUP12 0xAC LOG4 0xEE 0x29 0x21 0x2D 0xC5 RETURNDATASIZE CALLDATALOAD 0x2C CALLVALUE 0xE3 0xB5 DUP8 0x23 0xCD STOP DUP11 AND 0xCA PUSH5 0x736F6C6343 STOP ADDMOD SMOD STOP CALLER "
				},
				"gasEstimates": {
					"creation": {
						"codeDepositCost": "19400",
						"executionCost": "75",
						"totalCost": "19475"
					},
					"external": {
						"add_ether_to_contract_wallet()": "98"
					}
				},
				"methodIdentifiers": {
					"add_ether_to_contract_wallet()": "d88b8bef"
				}
			},
			"storageLayout": {
				"storage": [],
				"types": null
			},
			"userdoc": {
				"kind": "user",
				"methods": {},
				"version": 1
			}
		}
	}
}