{
	"lottery_contract.sol": {
		"Lottery": {
			"abi": [
				{
					"inputs": [],
					"stateMutability": "nonpayable",
					"type": "constructor"
				},
				{
					"inputs": [],
					"name": "Participants",
					"outputs": [
						{
							"internalType": "uint256",
							"name": "",
							"type": "uint256"
						}
					],
					"stateMutability": "view",
					"type": "function"
				},
				{
					"inputs": [],
					"name": "lottery_pool",
					"outputs": [
						{
							"internalType": "uint256",
							"name": "",
							"type": "uint256"
						}
					],
					"stateMutability": "view",
					"type": "function"
				},
				{
					"inputs": [],
					"name": "manager",
					"outputs": [
						{
							"internalType": "address payable",
							"name": "",
							"type": "address"
						}
					],
					"stateMutability": "view",
					"type": "function"
				},
				{
					"inputs": [],
					"name": "select_winner",
					"outputs": [],
					"stateMutability": "nonpayable",
					"type": "function"
				},
				{
					"inputs": [],
					"name": "winner",
					"outputs": [
						{
							"internalType": "address payable",
							"name": "",
							"type": "address"
						}
					],
					"stateMutability": "view",
					"type": "function"
				},
				{
					"stateMutability": "payable",
					"type": "receive"
				}
			],
			"devdoc": {
				"kind": "dev",
				"methods": {},
				"version": 1
			},
			"evm": {
				"assembly": "    /* \"lottery_contract.sol\":76:2869  contract Lottery... */\n  mstore(0x40, 0x80)\n    /* \"lottery_contract.sol\":296:443  constructor()... */\n  callvalue\n  dup1\n  iszero\n  tag_1\n  jumpi\n  0x00\n  dup1\n  revert\ntag_1:\n  pop\n    /* \"lottery_contract.sol\":344:354  msg.sender */\n  caller\n    /* \"lottery_contract.sol\":326:333  manager */\n  0x00\n  dup1\n    /* \"lottery_contract.sol\":326:355  manager = payable(msg.sender) */\n  0x0100\n  exp\n  dup2\n  sload\n  dup2\n  0xffffffffffffffffffffffffffffffffffffffff\n  mul\n  not\n  and\n  swap1\n  dup4\n  0xffffffffffffffffffffffffffffffffffffffff\n  and\n  mul\n  or\n  swap1\n  sstore\n  pop\n    /* \"lottery_contract.sol\":76:2869  contract Lottery... */\n  dataSize(sub_0)\n  dup1\n  dataOffset(sub_0)\n  0x00\n  codecopy\n  0x00\n  return\nstop\n\nsub_0: assembly {\n        /* \"lottery_contract.sol\":76:2869  contract Lottery... */\n      mstore(0x40, 0x80)\n      jumpi(tag_1, lt(calldatasize, 0x04))\n      shr(0xe0, calldataload(0x00))\n      dup1\n      0x1bef21d6\n      eq\n      tag_3\n      jumpi\n      dup1\n      0x481c6a75\n      eq\n      tag_4\n      jumpi\n      dup1\n      0x7f244dd3\n      eq\n      tag_5\n      jumpi\n      dup1\n      0x941c9275\n      eq\n      tag_6\n      jumpi\n      dup1\n      0xdfbf53ae\n      eq\n      tag_7\n      jumpi\n      jump(tag_2)\n    tag_1:\n      jumpi(tag_2, calldatasize)\n        /* \"lottery_contract.sol\":1421:1428  5 ether */\n      0x4563918244f40000\n        /* \"lottery_contract.sol\":1408:1417  msg.value */\n      callvalue\n        /* \"lottery_contract.sol\":1408:1428  msg.value == 5 ether */\n      eq\n        /* \"lottery_contract.sol\":1400:1429  require(msg.value == 5 ether) */\n      tag_10\n      jumpi\n      0x00\n      dup1\n      revert\n    tag_10:\n        /* \"lottery_contract.sol\":1481:1493  participants */\n      0x02\n        /* \"lottery_contract.sol\":1499:1509  msg.sender */\n      caller\n        /* \"lottery_contract.sol\":1481:1510  participants.push(msg.sender) */\n      swap1\n      dup1\n      0x01\n      dup2\n      sload\n      add\n      dup1\n      dup3\n      sstore\n      dup1\n      swap2\n      pop\n      pop\n      0x01\n      swap1\n      sub\n      swap1\n      0x00\n      mstore\n      keccak256(0x00, 0x20)\n      add\n      0x00\n      swap1\n      swap2\n      swap1\n      swap2\n      swap1\n      swap2\n      0x0100\n      exp\n      dup2\n      sload\n      dup2\n      0xffffffffffffffffffffffffffffffffffffffff\n      mul\n      not\n      and\n      swap1\n      dup4\n      0xffffffffffffffffffffffffffffffffffffffff\n      and\n      mul\n      or\n      swap1\n      sstore\n      stop\n        /* \"lottery_contract.sol\":76:2869  contract Lottery... */\n    tag_2:\n      0x00\n      dup1\n      revert\n        /* \"lottery_contract.sol\":2285:2864  function select_winner() public // function to select winner and transfer money... */\n    tag_3:\n      callvalue\n      dup1\n      iszero\n      tag_12\n      jumpi\n      0x00\n      dup1\n      revert\n    tag_12:\n      pop\n      tag_13\n      tag_14\n      jump\t// in\n    tag_13:\n      stop\n        /* \"lottery_contract.sol\":101:131  address payable public manager */\n    tag_4:\n      callvalue\n      dup1\n      iszero\n      tag_15\n      jumpi\n      0x00\n      dup1\n      revert\n    tag_15:\n      pop\n      tag_16\n      tag_17\n      jump\t// in\n    tag_16:\n      mload(0x40)\n      tag_18\n      swap2\n      swap1\n      tag_19\n      jump\t// in\n    tag_18:\n      mload(0x40)\n      dup1\n      swap2\n      sub\n      swap1\n      return\n        /* \"lottery_contract.sol\":608:851  function Participants() public view returns(uint) // function returning number of participants... */\n    tag_5:\n      callvalue\n      dup1\n      iszero\n      tag_20\n      jumpi\n      0x00\n      dup1\n      revert\n    tag_20:\n      pop\n      tag_21\n      tag_22\n      jump\t// in\n    tag_21:\n      mload(0x40)\n      tag_23\n      swap2\n      swap1\n      tag_24\n      jump\t// in\n    tag_23:\n      mload(0x40)\n      dup1\n      swap2\n      sub\n      swap1\n      return\n        /* \"lottery_contract.sol\":451:600  function lottery_pool() public view returns(uint) // function to return current contract balance... */\n    tag_6:\n      callvalue\n      dup1\n      iszero\n      tag_25\n      jumpi\n      0x00\n      dup1\n      revert\n    tag_25:\n      pop\n      tag_26\n      tag_27\n      jump\t// in\n    tag_26:\n      mload(0x40)\n      tag_28\n      swap2\n      swap1\n      tag_24\n      jump\t// in\n    tag_28:\n      mload(0x40)\n      dup1\n      swap2\n      sub\n      swap1\n      return\n        /* \"lottery_contract.sol\":169:198  address payable public winner */\n    tag_7:\n      callvalue\n      dup1\n      iszero\n      tag_29\n      jumpi\n      0x00\n      dup1\n      revert\n    tag_29:\n      pop\n      tag_30\n      tag_31\n      jump\t// in\n    tag_30:\n      mload(0x40)\n      tag_32\n      swap2\n      swap1\n      tag_19\n      jump\t// in\n    tag_32:\n      mload(0x40)\n      dup1\n      swap2\n      sub\n      swap1\n      return\n        /* \"lottery_contract.sol\":2285:2864  function select_winner() public // function to select winner and transfer money... */\n    tag_14:\n        /* \"lottery_contract.sol\":2412:2419  manager */\n      0x00\n      dup1\n      sload\n      swap1\n      0x0100\n      exp\n      swap1\n      div\n      0xffffffffffffffffffffffffffffffffffffffff\n      and\n        /* \"lottery_contract.sol\":2389:2419  payable(msg.sender) == manager */\n      0xffffffffffffffffffffffffffffffffffffffff\n      and\n        /* \"lottery_contract.sol\":2397:2407  msg.sender */\n      caller\n        /* \"lottery_contract.sol\":2389:2419  payable(msg.sender) == manager */\n      0xffffffffffffffffffffffffffffffffffffffff\n      and\n      eq\n        /* \"lottery_contract.sol\":2381:2420  require(payable(msg.sender) == manager) */\n      tag_34\n      jumpi\n      0x00\n      dup1\n      revert\n    tag_34:\n        /* \"lottery_contract.sol\":2478:2495  uint winner_index */\n      0x00\n        /* \"lottery_contract.sol\":2498:2512  random_index() */\n      tag_35\n        /* \"lottery_contract.sol\":2498:2510  random_index */\n      tag_36\n        /* \"lottery_contract.sol\":2498:2512  random_index() */\n      jump\t// in\n    tag_35:\n        /* \"lottery_contract.sol\":2478:2512  uint winner_index = random_index() */\n      swap1\n      pop\n        /* \"lottery_contract.sol\":2572:2584  participants */\n      0x02\n        /* \"lottery_contract.sol\":2585:2597  winner_index */\n      dup2\n        /* \"lottery_contract.sol\":2572:2598  participants[winner_index] */\n      dup2\n      sload\n      dup2\n      lt\n      tag_37\n      jumpi\n      tag_38\n      tag_39\n      jump\t// in\n    tag_38:\n    tag_37:\n      swap1\n      0x00\n      mstore\n      keccak256(0x00, 0x20)\n      add\n      0x00\n      swap1\n      sload\n      swap1\n      0x0100\n      exp\n      swap1\n      div\n      0xffffffffffffffffffffffffffffffffffffffff\n      and\n        /* \"lottery_contract.sol\":2555:2561  winner */\n      0x01\n      0x00\n        /* \"lottery_contract.sol\":2555:2599  winner = payable(participants[winner_index]) */\n      0x0100\n      exp\n      dup2\n      sload\n      dup2\n      0xffffffffffffffffffffffffffffffffffffffff\n      mul\n      not\n      and\n      swap1\n      dup4\n      0xffffffffffffffffffffffffffffffffffffffff\n      and\n      mul\n      or\n      swap1\n      sstore\n      pop\n        /* \"lottery_contract.sol\":2620:2636  uint prize_money */\n      0x00\n        /* \"lottery_contract.sol\":2639:2653  lottery_pool() */\n      tag_41\n        /* \"lottery_contract.sol\":2639:2651  lottery_pool */\n      tag_27\n        /* \"lottery_contract.sol\":2639:2653  lottery_pool() */\n      jump\t// in\n    tag_41:\n        /* \"lottery_contract.sol\":2620:2653  uint prize_money = lottery_pool() */\n      swap1\n      pop\n        /* \"lottery_contract.sol\":2664:2670  winner */\n      0x01\n      0x00\n      swap1\n      sload\n      swap1\n      0x0100\n      exp\n      swap1\n      div\n      0xffffffffffffffffffffffffffffffffffffffff\n      and\n        /* \"lottery_contract.sol\":2664:2679  winner.transfer */\n      0xffffffffffffffffffffffffffffffffffffffff\n      and\n        /* \"lottery_contract.sol\":2664:2697  winner.transfer(prize_money*8/10) */\n      0x08fc\n        /* \"lottery_contract.sol\":2694:2696  10 */\n      0x0a\n        /* \"lottery_contract.sol\":2692:2693  8 */\n      0x08\n        /* \"lottery_contract.sol\":2680:2691  prize_money */\n      dup5\n        /* \"lottery_contract.sol\":2680:2693  prize_money*8 */\n      tag_42\n      swap2\n      swap1\n      tag_43\n      jump\t// in\n    tag_42:\n        /* \"lottery_contract.sol\":2680:2696  prize_money*8/10 */\n      tag_44\n      swap2\n      swap1\n      tag_45\n      jump\t// in\n    tag_44:\n        /* \"lottery_contract.sol\":2664:2697  winner.transfer(prize_money*8/10) */\n      swap1\n      dup2\n      iszero\n      mul\n      swap1\n      mload(0x40)\n      0x00\n      mload(0x40)\n      dup1\n      dup4\n      sub\n      dup2\n      dup6\n      dup9\n      dup9\n      call\n      swap4\n      pop\n      pop\n      pop\n      pop\n      iszero\n      dup1\n      iszero\n      tag_47\n      jumpi\n      returndatasize\n      0x00\n      dup1\n      returndatacopy\n      revert(0x00, returndatasize)\n    tag_47:\n      pop\n        /* \"lottery_contract.sol\":2743:2750  manager */\n      0x00\n      dup1\n      sload\n      swap1\n      0x0100\n      exp\n      swap1\n      div\n      0xffffffffffffffffffffffffffffffffffffffff\n      and\n        /* \"lottery_contract.sol\":2743:2759  manager.transfer */\n      0xffffffffffffffffffffffffffffffffffffffff\n      and\n        /* \"lottery_contract.sol\":2743:2775  manager.transfer(prize_money/10) */\n      0x08fc\n        /* \"lottery_contract.sol\":2772:2774  10 */\n      0x0a\n        /* \"lottery_contract.sol\":2760:2771  prize_money */\n      dup4\n        /* \"lottery_contract.sol\":2760:2774  prize_money/10 */\n      tag_48\n      swap2\n      swap1\n      tag_45\n      jump\t// in\n    tag_48:\n        /* \"lottery_contract.sol\":2743:2775  manager.transfer(prize_money/10) */\n      swap1\n      dup2\n      iszero\n      mul\n      swap1\n      mload(0x40)\n      0x00\n      mload(0x40)\n      dup1\n      dup4\n      sub\n      dup2\n      dup6\n      dup9\n      dup9\n      call\n      swap4\n      pop\n      pop\n      pop\n      pop\n      iszero\n      dup1\n      iszero\n      tag_50\n      jumpi\n      returndatasize\n      0x00\n      dup1\n      returndatacopy\n      revert(0x00, returndatasize)\n    tag_50:\n      pop\n        /* \"lottery_contract.sol\":2854:2855  0 */\n      0x00\n        /* \"lottery_contract.sol\":2840:2856  new address[](0) */\n      0xffffffffffffffff\n      dup2\n      gt\n      iszero\n      tag_51\n      jumpi\n      tag_52\n      tag_53\n      jump\t// in\n    tag_52:\n    tag_51:\n      mload(0x40)\n      swap1\n      dup1\n      dup3\n      mstore\n      dup1\n      0x20\n      mul\n      0x20\n      add\n      dup3\n      add\n      0x40\n      mstore\n      dup1\n      iszero\n      tag_54\n      jumpi\n      dup2\n      0x20\n      add\n      0x20\n      dup3\n      mul\n      dup1\n      calldatasize\n      dup4\n      calldatacopy\n      dup1\n      dup3\n      add\n      swap2\n      pop\n      pop\n      swap1\n      pop\n    tag_54:\n      pop\n        /* \"lottery_contract.sol\":2825:2837  participants */\n      0x02\n        /* \"lottery_contract.sol\":2825:2856  participants = new address[](0) */\n      swap1\n      dup1\n      mload\n      swap1\n      0x20\n      add\n      swap1\n      tag_55\n      swap3\n      swap2\n      swap1\n      tag_56\n      jump\t// in\n    tag_55:\n      pop\n        /* \"lottery_contract.sol\":2370:2864  {... */\n      pop\n      pop\n        /* \"lottery_contract.sol\":2285:2864  function select_winner() public // function to select winner and transfer money... */\n      jump\t// out\n        /* \"lottery_contract.sol\":101:131  address payable public manager */\n    tag_17:\n      0x00\n      dup1\n      sload\n      swap1\n      0x0100\n      exp\n      swap1\n      div\n      0xffffffffffffffffffffffffffffffffffffffff\n      and\n      dup2\n      jump\t// out\n        /* \"lottery_contract.sol\":608:851  function Participants() public view returns(uint) // function returning number of participants... */\n    tag_22:\n        /* \"lottery_contract.sol\":652:656  uint */\n      0x00\n        /* \"lottery_contract.sol\":750:757  manager */\n      dup1\n      0x00\n      swap1\n      sload\n      swap1\n      0x0100\n      exp\n      swap1\n      div\n      0xffffffffffffffffffffffffffffffffffffffff\n      and\n        /* \"lottery_contract.sol\":727:757  payable(msg.sender) == manager */\n      0xffffffffffffffffffffffffffffffffffffffff\n      and\n        /* \"lottery_contract.sol\":735:745  msg.sender */\n      caller\n        /* \"lottery_contract.sol\":727:757  payable(msg.sender) == manager */\n      0xffffffffffffffffffffffffffffffffffffffff\n      and\n      eq\n        /* \"lottery_contract.sol\":719:758  require(payable(msg.sender) == manager) */\n      tag_58\n      jumpi\n      0x00\n      dup1\n      revert\n    tag_58:\n        /* \"lottery_contract.sol\":824:836  participants */\n      0x02\n        /* \"lottery_contract.sol\":824:843  participants.length */\n      dup1\n      sload\n      swap1\n      pop\n        /* \"lottery_contract.sol\":817:843  return participants.length */\n      swap1\n      pop\n        /* \"lottery_contract.sol\":608:851  function Participants() public view returns(uint) // function returning number of participants... */\n      swap1\n      jump\t// out\n        /* \"lottery_contract.sol\":451:600  function lottery_pool() public view returns(uint) // function to return current contract balance... */\n    tag_27:\n        /* \"lottery_contract.sol\":495:499  uint */\n      0x00\n        /* \"lottery_contract.sol\":571:592  address(this).balance */\n      selfbalance\n        /* \"lottery_contract.sol\":564:592  return address(this).balance */\n      swap1\n      pop\n        /* \"lottery_contract.sol\":451:600  function lottery_pool() public view returns(uint) // function to return current contract balance... */\n      swap1\n      jump\t// out\n        /* \"lottery_contract.sol\":169:198  address payable public winner */\n    tag_31:\n      0x01\n      0x00\n      swap1\n      sload\n      swap1\n      0x0100\n      exp\n      swap1\n      div\n      0xffffffffffffffffffffffffffffffffffffffff\n      and\n      dup2\n      jump\t// out\n        /* \"lottery_contract.sol\":1554:2277  function random_index() internal view returns(uint) // returns a random number... */\n    tag_36:\n        /* \"lottery_contract.sol\":1600:1604  uint */\n      0x00\n        /* \"lottery_contract.sol\":2024:2041  uint large_random */\n      dup1\n        /* \"lottery_contract.sol\":2070:2086  block.difficulty */\n      difficulty\n        /* \"lottery_contract.sol\":2087:2102  block.timestamp */\n      timestamp\n        /* \"lottery_contract.sol\":2103:2115  participants */\n      0x02\n        /* \"lottery_contract.sol\":2103:2122  participants.length */\n      dup1\n      sload\n      swap1\n      pop\n        /* \"lottery_contract.sol\":2059:2123  abi.encode(block.difficulty,block.timestamp,participants.length) */\n      add(0x20, mload(0x40))\n      tag_61\n      swap4\n      swap3\n      swap2\n      swap1\n      tag_62\n      jump\t// in\n    tag_61:\n      mload(0x40)\n      0x20\n      dup2\n      dup4\n      sub\n      sub\n      dup2\n      mstore\n      swap1\n      0x40\n      mstore\n        /* \"lottery_contract.sol\":2049:2124  keccak256(abi.encode(block.difficulty,block.timestamp,participants.length)) */\n      dup1\n      mload\n      swap1\n      0x20\n      add\n      keccak256\n        /* \"lottery_contract.sol\":2044:2125  uint(keccak256(abi.encode(block.difficulty,block.timestamp,participants.length))) */\n      0x00\n      shr\n        /* \"lottery_contract.sol\":2024:2125  uint large_random = uint(keccak256(abi.encode(block.difficulty,block.timestamp,participants.length))) */\n      swap1\n      pop\n        /* \"lottery_contract.sol\":2136:2146  uint index */\n      0x00\n        /* \"lottery_contract.sol\":2164:2176  participants */\n      0x02\n        /* \"lottery_contract.sol\":2164:2183  participants.length */\n      dup1\n      sload\n      swap1\n      pop\n        /* \"lottery_contract.sol\":2149:2161  large_random */\n      dup3\n        /* \"lottery_contract.sol\":2149:2183  large_random % participants.length */\n      tag_63\n      swap2\n      swap1\n      tag_64\n      jump\t// in\n    tag_63:\n        /* \"lottery_contract.sol\":2136:2183  uint index = large_random % participants.length */\n      swap1\n      pop\n        /* \"lottery_contract.sol\":2264:2269  index */\n      dup1\n        /* \"lottery_contract.sol\":2257:2269  return index */\n      swap3\n      pop\n      pop\n      pop\n        /* \"lottery_contract.sol\":1554:2277  function random_index() internal view returns(uint) // returns a random number... */\n      swap1\n      jump\t// out\n    tag_56:\n      dup3\n      dup1\n      sload\n      dup3\n      dup3\n      sstore\n      swap1\n      0x00\n      mstore\n      keccak256(0x00, 0x20)\n      swap1\n      dup2\n      add\n      swap3\n      dup3\n      iszero\n      tag_65\n      jumpi\n      swap2\n      0x20\n      mul\n      dup3\n      add\n    tag_66:\n      dup3\n      dup2\n      gt\n      iszero\n      tag_67\n      jumpi\n      dup3\n      mload\n      dup3\n      exp(0x0100, 0x00)\n      dup2\n      sload\n      dup2\n      0xffffffffffffffffffffffffffffffffffffffff\n      mul\n      not\n      and\n      swap1\n      dup4\n      0xffffffffffffffffffffffffffffffffffffffff\n      and\n      mul\n      or\n      swap1\n      sstore\n      pop\n      swap2\n      0x20\n      add\n      swap2\n      swap1\n      0x01\n      add\n      swap1\n      jump(tag_66)\n    tag_67:\n    tag_65:\n      pop\n      swap1\n      pop\n      tag_68\n      swap2\n      swap1\n      tag_69\n      jump\t// in\n    tag_68:\n      pop\n      swap1\n      jump\t// out\n    tag_69:\n    tag_70:\n      dup1\n      dup3\n      gt\n      iszero\n      tag_71\n      jumpi\n      0x00\n      dup2\n      0x00\n      swap1\n      sstore\n      pop\n      0x01\n      add\n      jump(tag_70)\n    tag_71:\n      pop\n      swap1\n      jump\t// out\n        /* \"#utility.yul\":7:133   */\n    tag_72:\n        /* \"#utility.yul\":44:51   */\n      0x00\n        /* \"#utility.yul\":84:126   */\n      0xffffffffffffffffffffffffffffffffffffffff\n        /* \"#utility.yul\":77:82   */\n      dup3\n        /* \"#utility.yul\":73:127   */\n      and\n        /* \"#utility.yul\":62:127   */\n      swap1\n      pop\n        /* \"#utility.yul\":7:133   */\n      swap2\n      swap1\n      pop\n      jump\t// out\n        /* \"#utility.yul\":139:243   */\n    tag_73:\n        /* \"#utility.yul\":184:191   */\n      0x00\n        /* \"#utility.yul\":213:237   */\n      tag_82\n        /* \"#utility.yul\":231:236   */\n      dup3\n        /* \"#utility.yul\":213:237   */\n      tag_72\n      jump\t// in\n    tag_82:\n        /* \"#utility.yul\":202:237   */\n      swap1\n      pop\n        /* \"#utility.yul\":139:243   */\n      swap2\n      swap1\n      pop\n      jump\t// out\n        /* \"#utility.yul\":249:391   */\n    tag_74:\n        /* \"#utility.yul\":352:384   */\n      tag_84\n        /* \"#utility.yul\":378:383   */\n      dup2\n        /* \"#utility.yul\":352:384   */\n      tag_73\n      jump\t// in\n    tag_84:\n        /* \"#utility.yul\":347:350   */\n      dup3\n        /* \"#utility.yul\":340:385   */\n      mstore\n        /* \"#utility.yul\":249:391   */\n      pop\n      pop\n      jump\t// out\n        /* \"#utility.yul\":397:651   */\n    tag_19:\n        /* \"#utility.yul\":506:510   */\n      0x00\n        /* \"#utility.yul\":544:546   */\n      0x20\n        /* \"#utility.yul\":533:542   */\n      dup3\n        /* \"#utility.yul\":529:547   */\n      add\n        /* \"#utility.yul\":521:547   */\n      swap1\n      pop\n        /* \"#utility.yul\":557:644   */\n      tag_86\n        /* \"#utility.yul\":641:642   */\n      0x00\n        /* \"#utility.yul\":630:639   */\n      dup4\n        /* \"#utility.yul\":626:643   */\n      add\n        /* \"#utility.yul\":617:623   */\n      dup5\n        /* \"#utility.yul\":557:644   */\n      tag_74\n      jump\t// in\n    tag_86:\n        /* \"#utility.yul\":397:651   */\n      swap3\n      swap2\n      pop\n      pop\n      jump\t// out\n        /* \"#utility.yul\":657:734   */\n    tag_75:\n        /* \"#utility.yul\":694:701   */\n      0x00\n        /* \"#utility.yul\":723:728   */\n      dup2\n        /* \"#utility.yul\":712:728   */\n      swap1\n      pop\n        /* \"#utility.yul\":657:734   */\n      swap2\n      swap1\n      pop\n      jump\t// out\n        /* \"#utility.yul\":740:858   */\n    tag_76:\n        /* \"#utility.yul\":827:851   */\n      tag_89\n        /* \"#utility.yul\":845:850   */\n      dup2\n        /* \"#utility.yul\":827:851   */\n      tag_75\n      jump\t// in\n    tag_89:\n        /* \"#utility.yul\":822:825   */\n      dup3\n        /* \"#utility.yul\":815:852   */\n      mstore\n        /* \"#utility.yul\":740:858   */\n      pop\n      pop\n      jump\t// out\n        /* \"#utility.yul\":864:1086   */\n    tag_24:\n        /* \"#utility.yul\":957:961   */\n      0x00\n        /* \"#utility.yul\":995:997   */\n      0x20\n        /* \"#utility.yul\":984:993   */\n      dup3\n        /* \"#utility.yul\":980:998   */\n      add\n        /* \"#utility.yul\":972:998   */\n      swap1\n      pop\n        /* \"#utility.yul\":1008:1079   */\n      tag_91\n        /* \"#utility.yul\":1076:1077   */\n      0x00\n        /* \"#utility.yul\":1065:1074   */\n      dup4\n        /* \"#utility.yul\":1061:1078   */\n      add\n        /* \"#utility.yul\":1052:1058   */\n      dup5\n        /* \"#utility.yul\":1008:1079   */\n      tag_76\n      jump\t// in\n    tag_91:\n        /* \"#utility.yul\":864:1086   */\n      swap3\n      swap2\n      pop\n      pop\n      jump\t// out\n        /* \"#utility.yul\":1092:1272   */\n    tag_39:\n        /* \"#utility.yul\":1140:1217   */\n      0x4e487b7100000000000000000000000000000000000000000000000000000000\n        /* \"#utility.yul\":1137:1138   */\n      0x00\n        /* \"#utility.yul\":1130:1218   */\n      mstore\n        /* \"#utility.yul\":1237:1241   */\n      0x32\n        /* \"#utility.yul\":1234:1235   */\n      0x04\n        /* \"#utility.yul\":1227:1242   */\n      mstore\n        /* \"#utility.yul\":1261:1265   */\n      0x24\n        /* \"#utility.yul\":1258:1259   */\n      0x00\n        /* \"#utility.yul\":1251:1266   */\n      revert\n        /* \"#utility.yul\":1278:1458   */\n    tag_77:\n        /* \"#utility.yul\":1326:1403   */\n      0x4e487b7100000000000000000000000000000000000000000000000000000000\n        /* \"#utility.yul\":1323:1324   */\n      0x00\n        /* \"#utility.yul\":1316:1404   */\n      mstore\n        /* \"#utility.yul\":1423:1427   */\n      0x11\n        /* \"#utility.yul\":1420:1421   */\n      0x04\n        /* \"#utility.yul\":1413:1428   */\n      mstore\n        /* \"#utility.yul\":1447:1451   */\n      0x24\n        /* \"#utility.yul\":1444:1445   */\n      0x00\n        /* \"#utility.yul\":1437:1452   */\n      revert\n        /* \"#utility.yul\":1464:1812   */\n    tag_43:\n        /* \"#utility.yul\":1504:1511   */\n      0x00\n        /* \"#utility.yul\":1527:1547   */\n      tag_95\n        /* \"#utility.yul\":1545:1546   */\n      dup3\n        /* \"#utility.yul\":1527:1547   */\n      tag_75\n      jump\t// in\n    tag_95:\n        /* \"#utility.yul\":1522:1547   */\n      swap2\n      pop\n        /* \"#utility.yul\":1561:1581   */\n      tag_96\n        /* \"#utility.yul\":1579:1580   */\n      dup4\n        /* \"#utility.yul\":1561:1581   */\n      tag_75\n      jump\t// in\n    tag_96:\n        /* \"#utility.yul\":1556:1581   */\n      swap3\n      pop\n        /* \"#utility.yul\":1749:1750   */\n      dup2\n        /* \"#utility.yul\":1681:1747   */\n      0xffffffffffffffffffffffffffffffffffffffffffffffffffffffffffffffff\n        /* \"#utility.yul\":1677:1751   */\n      div\n        /* \"#utility.yul\":1674:1675   */\n      dup4\n        /* \"#utility.yul\":1671:1752   */\n      gt\n        /* \"#utility.yul\":1666:1667   */\n      dup3\n        /* \"#utility.yul\":1659:1668   */\n      iszero\n        /* \"#utility.yul\":1652:1669   */\n      iszero\n        /* \"#utility.yul\":1648:1753   */\n      and\n        /* \"#utility.yul\":1645:1776   */\n      iszero\n      tag_97\n      jumpi\n        /* \"#utility.yul\":1756:1774   */\n      tag_98\n      tag_77\n      jump\t// in\n    tag_98:\n        /* \"#utility.yul\":1645:1776   */\n    tag_97:\n        /* \"#utility.yul\":1804:1805   */\n      dup3\n        /* \"#utility.yul\":1801:1802   */\n      dup3\n        /* \"#utility.yul\":1797:1806   */\n      mul\n        /* \"#utility.yul\":1786:1806   */\n      swap1\n      pop\n        /* \"#utility.yul\":1464:1812   */\n      swap3\n      swap2\n      pop\n      pop\n      jump\t// out\n        /* \"#utility.yul\":1818:1998   */\n    tag_78:\n        /* \"#utility.yul\":1866:1943   */\n      0x4e487b7100000000000000000000000000000000000000000000000000000000\n        /* \"#utility.yul\":1863:1864   */\n      0x00\n        /* \"#utility.yul\":1856:1944   */\n      mstore\n        /* \"#utility.yul\":1963:1967   */\n      0x12\n        /* \"#utility.yul\":1960:1961   */\n      0x04\n        /* \"#utility.yul\":1953:1968   */\n      mstore\n        /* \"#utility.yul\":1987:1991   */\n      0x24\n        /* \"#utility.yul\":1984:1985   */\n      0x00\n        /* \"#utility.yul\":1977:1992   */\n      revert\n        /* \"#utility.yul\":2004:2189   */\n    tag_45:\n        /* \"#utility.yul\":2044:2045   */\n      0x00\n        /* \"#utility.yul\":2061:2081   */\n      tag_101\n        /* \"#utility.yul\":2079:2080   */\n      dup3\n        /* \"#utility.yul\":2061:2081   */\n      tag_75\n      jump\t// in\n    tag_101:\n        /* \"#utility.yul\":2056:2081   */\n      swap2\n      pop\n        /* \"#utility.yul\":2095:2115   */\n      tag_102\n        /* \"#utility.yul\":2113:2114   */\n      dup4\n        /* \"#utility.yul\":2095:2115   */\n      tag_75\n      jump\t// in\n    tag_102:\n        /* \"#utility.yul\":2090:2115   */\n      swap3\n      pop\n        /* \"#utility.yul\":2134:2135   */\n      dup3\n        /* \"#utility.yul\":2124:2159   */\n      tag_103\n      jumpi\n        /* \"#utility.yul\":2139:2157   */\n      tag_104\n      tag_78\n      jump\t// in\n    tag_104:\n        /* \"#utility.yul\":2124:2159   */\n    tag_103:\n        /* \"#utility.yul\":2181:2182   */\n      dup3\n        /* \"#utility.yul\":2178:2179   */\n      dup3\n        /* \"#utility.yul\":2174:2183   */\n      div\n        /* \"#utility.yul\":2169:2183   */\n      swap1\n      pop\n        /* \"#utility.yul\":2004:2189   */\n      swap3\n      swap2\n      pop\n      pop\n      jump\t// out\n        /* \"#utility.yul\":2195:2375   */\n    tag_53:\n        /* \"#utility.yul\":2243:2320   */\n      0x4e487b7100000000000000000000000000000000000000000000000000000000\n        /* \"#utility.yul\":2240:2241   */\n      0x00\n        /* \"#utility.yul\":2233:2321   */\n      mstore\n        /* \"#utility.yul\":2340:2344   */\n      0x41\n        /* \"#utility.yul\":2337:2338   */\n      0x04\n        /* \"#utility.yul\":2330:2345   */\n      mstore\n        /* \"#utility.yul\":2364:2368   */\n      0x24\n        /* \"#utility.yul\":2361:2362   */\n      0x00\n        /* \"#utility.yul\":2354:2369   */\n      revert\n        /* \"#utility.yul\":2381:2823   */\n    tag_62:\n        /* \"#utility.yul\":2530:2534   */\n      0x00\n        /* \"#utility.yul\":2568:2570   */\n      0x60\n        /* \"#utility.yul\":2557:2566   */\n      dup3\n        /* \"#utility.yul\":2553:2571   */\n      add\n        /* \"#utility.yul\":2545:2571   */\n      swap1\n      pop\n        /* \"#utility.yul\":2581:2652   */\n      tag_107\n        /* \"#utility.yul\":2649:2650   */\n      0x00\n        /* \"#utility.yul\":2638:2647   */\n      dup4\n        /* \"#utility.yul\":2634:2651   */\n      add\n        /* \"#utility.yul\":2625:2631   */\n      dup7\n        /* \"#utility.yul\":2581:2652   */\n      tag_76\n      jump\t// in\n    tag_107:\n        /* \"#utility.yul\":2662:2734   */\n      tag_108\n        /* \"#utility.yul\":2730:2732   */\n      0x20\n        /* \"#utility.yul\":2719:2728   */\n      dup4\n        /* \"#utility.yul\":2715:2733   */\n      add\n        /* \"#utility.yul\":2706:2712   */\n      dup6\n        /* \"#utility.yul\":2662:2734   */\n      tag_76\n      jump\t// in\n    tag_108:\n        /* \"#utility.yul\":2744:2816   */\n      tag_109\n        /* \"#utility.yul\":2812:2814   */\n      0x40\n        /* \"#utility.yul\":2801:2810   */\n      dup4\n        /* \"#utility.yul\":2797:2815   */\n      add\n        /* \"#utility.yul\":2788:2794   */\n      dup5\n        /* \"#utility.yul\":2744:2816   */\n      tag_76\n      jump\t// in\n    tag_109:\n        /* \"#utility.yul\":2381:2823   */\n      swap5\n      swap4\n      pop\n      pop\n      pop\n      pop\n      jump\t// out\n        /* \"#utility.yul\":2829:3005   */\n    tag_64:\n        /* \"#utility.yul\":2861:2862   */\n      0x00\n        /* \"#utility.yul\":2878:2898   */\n      tag_111\n        /* \"#utility.yul\":2896:2897   */\n      dup3\n        /* \"#utility.yul\":2878:2898   */\n      tag_75\n      jump\t// in\n    tag_111:\n        /* \"#utility.yul\":2873:2898   */\n      swap2\n      pop\n        /* \"#utility.yul\":2912:2932   */\n      tag_112\n        /* \"#utility.yul\":2930:2931   */\n      dup4\n        /* \"#utility.yul\":2912:2932   */\n      tag_75\n      jump\t// in\n    tag_112:\n        /* \"#utility.yul\":2907:2932   */\n      swap3\n      pop\n        /* \"#utility.yul\":2951:2952   */\n      dup3\n        /* \"#utility.yul\":2941:2976   */\n      tag_113\n      jumpi\n        /* \"#utility.yul\":2956:2974   */\n      tag_114\n      tag_78\n      jump\t// in\n    tag_114:\n        /* \"#utility.yul\":2941:2976   */\n    tag_113:\n        /* \"#utility.yul\":2997:2998   */\n      dup3\n        /* \"#utility.yul\":2994:2995   */\n      dup3\n        /* \"#utility.yul\":2990:2999   */\n      mod\n        /* \"#utility.yul\":2985:2999   */\n      swap1\n      pop\n        /* \"#utility.yul\":2829:3005   */\n      swap3\n      swap2\n      pop\n      pop\n      jump\t// out\n\n    auxdata: 0xa26469706673582212204a4d58fce12b90c077dc04d8b5333a886c1484111a4706d72366c2e3d6ba324464736f6c63430008100033\n}\n",
				"bytecode": {
					"linkReferences": {},
					"object": "608060405234801561001057600080fd5b50336000806101000a81548173ffffffffffffffffffffffffffffffffffffffff021916908373ffffffffffffffffffffffffffffffffffffffff160217905550610803806100606000396000f3fe60806040526004361061004e5760003560e01c80631bef21d6146100d0578063481c6a75146100e75780637f244dd314610112578063941c92751461013d578063dfbf53ae14610168576100cb565b366100cb57674563918244f40000341461006757600080fd5b6002339080600181540180825580915050600190039060005260206000200160009091909190916101000a81548173ffffffffffffffffffffffffffffffffffffffff021916908373ffffffffffffffffffffffffffffffffffffffff1602179055005b600080fd5b3480156100dc57600080fd5b506100e5610193565b005b3480156100f357600080fd5b506100fc6103da565b60405161010991906105cf565b60405180910390f35b34801561011e57600080fd5b506101276103fe565b6040516101349190610603565b60405180910390f35b34801561014957600080fd5b50610152610464565b60405161015f9190610603565b60405180910390f35b34801561017457600080fd5b5061017d61046c565b60405161018a91906105cf565b60405180910390f35b60008054906101000a900473ffffffffffffffffffffffffffffffffffffffff1673ffffffffffffffffffffffffffffffffffffffff163373ffffffffffffffffffffffffffffffffffffffff16146101eb57600080fd5b60006101f5610492565b90506002818154811061020b5761020a61061e565b5b9060005260206000200160009054906101000a900473ffffffffffffffffffffffffffffffffffffffff16600160006101000a81548173ffffffffffffffffffffffffffffffffffffffff021916908373ffffffffffffffffffffffffffffffffffffffff1602179055506000610280610464565b9050600160009054906101000a900473ffffffffffffffffffffffffffffffffffffffff1673ffffffffffffffffffffffffffffffffffffffff166108fc600a6008846102cd919061067c565b6102d79190610705565b9081150290604051600060405180830381858888f19350505050158015610302573d6000803e3d6000fd5b5060008054906101000a900473ffffffffffffffffffffffffffffffffffffffff1673ffffffffffffffffffffffffffffffffffffffff166108fc600a8361034a9190610705565b9081150290604051600060405180830381858888f19350505050158015610375573d6000803e3d6000fd5b50600067ffffffffffffffff81111561039157610390610736565b5b6040519080825280602002602001820160405280156103bf5781602001602082028036833780820191505090505b50600290805190602001906103d59291906104e7565b505050565b60008054906101000a900473ffffffffffffffffffffffffffffffffffffffff1681565b60008060009054906101000a900473ffffffffffffffffffffffffffffffffffffffff1673ffffffffffffffffffffffffffffffffffffffff163373ffffffffffffffffffffffffffffffffffffffff161461045957600080fd5b600280549050905090565b600047905090565b600160009054906101000a900473ffffffffffffffffffffffffffffffffffffffff1681565b60008044426002805490506040516020016104af93929190610765565b6040516020818303038152906040528051906020012060001c90506000600280549050826104dd919061079c565b9050809250505090565b828054828255906000526020600020908101928215610560579160200282015b8281111561055f5782518260006101000a81548173ffffffffffffffffffffffffffffffffffffffff021916908373ffffffffffffffffffffffffffffffffffffffff16021790555091602001919060010190610507565b5b50905061056d9190610571565b5090565b5b8082111561058a576000816000905550600101610572565b5090565b600073ffffffffffffffffffffffffffffffffffffffff82169050919050565b60006105b98261058e565b9050919050565b6105c9816105ae565b82525050565b60006020820190506105e460008301846105c0565b92915050565b6000819050919050565b6105fd816105ea565b82525050565b600060208201905061061860008301846105f4565b92915050565b7f4e487b7100000000000000000000000000000000000000000000000000000000600052603260045260246000fd5b7f4e487b7100000000000000000000000000000000000000000000000000000000600052601160045260246000fd5b6000610687826105ea565b9150610692836105ea565b9250817fffffffffffffffffffffffffffffffffffffffffffffffffffffffffffffffff04831182151516156106cb576106ca61064d565b5b828202905092915050565b7f4e487b7100000000000000000000000000000000000000000000000000000000600052601260045260246000fd5b6000610710826105ea565b915061071b836105ea565b92508261072b5761072a6106d6565b5b828204905092915050565b7f4e487b7100000000000000000000000000000000000000000000000000000000600052604160045260246000fd5b600060608201905061077a60008301866105f4565b61078760208301856105f4565b61079460408301846105f4565b949350505050565b60006107a7826105ea565b91506107b2836105ea565b9250826107c2576107c16106d6565b5b82820690509291505056fea26469706673582212204a4d58fce12b90c077dc04d8b5333a886c1484111a4706d72366c2e3d6ba324464736f6c63430008100033",
					"opcodes": "PUSH1 0x80 PUSH1 0x40 MSTORE CALLVALUE DUP1 ISZERO PUSH2 0x10 JUMPI PUSH1 0x0 DUP1 REVERT JUMPDEST POP CALLER PUSH1 0x0 DUP1 PUSH2 0x100 EXP DUP2 SLOAD DUP2 PUSH20 0xFFFFFFFFFFFFFFFFFFFFFFFFFFFFFFFFFFFFFFFF MUL NOT AND SWAP1 DUP4 PUSH20 0xFFFFFFFFFFFFFFFFFFFFFFFFFFFFFFFFFFFFFFFF AND MUL OR SWAP1 SSTORE POP PUSH2 0x803 DUP1 PUSH2 0x60 PUSH1 0x0 CODECOPY PUSH1 0x0 RETURN INVALID PUSH1 0x80 PUSH1 0x40 MSTORE PUSH1 0x4 CALLDATASIZE LT PUSH2 0x4E JUMPI PUSH1 0x0 CALLDATALOAD PUSH1 0xE0 SHR DUP1 PUSH4 0x1BEF21D6 EQ PUSH2 0xD0 JUMPI DUP1 PUSH4 0x481C6A75 EQ PUSH2 0xE7 JUMPI DUP1 PUSH4 0x7F244DD3 EQ PUSH2 0x112 JUMPI DUP1 PUSH4 0x941C9275 EQ PUSH2 0x13D JUMPI DUP1 PUSH4 0xDFBF53AE EQ PUSH2 0x168 JUMPI PUSH2 0xCB JUMP JUMPDEST CALLDATASIZE PUSH2 0xCB JUMPI PUSH8 0x4563918244F40000 CALLVALUE EQ PUSH2 0x67 JUMPI PUSH1 0x0 DUP1 REVERT JUMPDEST PUSH1 0x2 CALLER SWAP1 DUP1 PUSH1 0x1 DUP2 SLOAD ADD DUP1 DUP3 SSTORE DUP1 SWAP2 POP POP PUSH1 0x1 SWAP1 SUB SWAP1 PUSH1 0x0 MSTORE PUSH1 0x20 PUSH1 0x0 KECCAK256 ADD PUSH1 0x0 SWAP1 SWAP2 SWAP1 SWAP2 SWAP1 SWAP2 PUSH2 0x100 EXP DUP2 SLOAD DUP2 PUSH20 0xFFFFFFFFFFFFFFFFFFFFFFFFFFFFFFFFFFFFFFFF MUL NOT AND SWAP1 DUP4 PUSH20 0xFFFFFFFFFFFFFFFFFFFFFFFFFFFFFFFFFFFFFFFF AND MUL OR SWAP1 SSTORE STOP JUMPDEST PUSH1 0x0 DUP1 REVERT JUMPDEST CALLVALUE DUP1 ISZERO PUSH2 0xDC JUMPI PUSH1 0x0 DUP1 REVERT JUMPDEST POP PUSH2 0xE5 PUSH2 0x193 JUMP JUMPDEST STOP JUMPDEST CALLVALUE DUP1 ISZERO PUSH2 0xF3 JUMPI PUSH1 0x0 DUP1 REVERT JUMPDEST POP PUSH2 0xFC PUSH2 0x3DA JUMP JUMPDEST PUSH1 0x40 MLOAD PUSH2 0x109 SWAP2 SWAP1 PUSH2 0x5CF JUMP JUMPDEST PUSH1 0x40 MLOAD DUP1 SWAP2 SUB SWAP1 RETURN JUMPDEST CALLVALUE DUP1 ISZERO PUSH2 0x11E JUMPI PUSH1 0x0 DUP1 REVERT JUMPDEST POP PUSH2 0x127 PUSH2 0x3FE JUMP JUMPDEST PUSH1 0x40 MLOAD PUSH2 0x134 SWAP2 SWAP1 PUSH2 0x603 JUMP JUMPDEST PUSH1 0x40 MLOAD DUP1 SWAP2 SUB SWAP1 RETURN JUMPDEST CALLVALUE DUP1 ISZERO PUSH2 0x149 JUMPI PUSH1 0x0 DUP1 REVERT JUMPDEST POP PUSH2 0x152 PUSH2 0x464 JUMP JUMPDEST PUSH1 0x40 MLOAD PUSH2 0x15F SWAP2 SWAP1 PUSH2 0x603 JUMP JUMPDEST PUSH1 0x40 MLOAD DUP1 SWAP2 SUB SWAP1 RETURN JUMPDEST CALLVALUE DUP1 ISZERO PUSH2 0x174 JUMPI PUSH1 0x0 DUP1 REVERT JUMPDEST POP PUSH2 0x17D PUSH2 0x46C JUMP JUMPDEST PUSH1 0x40 MLOAD PUSH2 0x18A SWAP2 SWAP1 PUSH2 0x5CF JUMP JUMPDEST PUSH1 0x40 MLOAD DUP1 SWAP2 SUB SWAP1 RETURN JUMPDEST PUSH1 0x0 DUP1 SLOAD SWAP1 PUSH2 0x100 EXP SWAP1 DIV PUSH20 0xFFFFFFFFFFFFFFFFFFFFFFFFFFFFFFFFFFFFFFFF AND PUSH20 0xFFFFFFFFFFFFFFFFFFFFFFFFFFFFFFFFFFFFFFFF AND CALLER PUSH20 0xFFFFFFFFFFFFFFFFFFFFFFFFFFFFFFFFFFFFFFFF AND EQ PUSH2 0x1EB JUMPI PUSH1 0x0 DUP1 REVERT JUMPDEST PUSH1 0x0 PUSH2 0x1F5 PUSH2 0x492 JUMP JUMPDEST SWAP1 POP PUSH1 0x2 DUP2 DUP2 SLOAD DUP2 LT PUSH2 0x20B JUMPI PUSH2 0x20A PUSH2 0x61E JUMP JUMPDEST JUMPDEST SWAP1 PUSH1 0x0 MSTORE PUSH1 0x20 PUSH1 0x0 KECCAK256 ADD PUSH1 0x0 SWAP1 SLOAD SWAP1 PUSH2 0x100 EXP SWAP1 DIV PUSH20 0xFFFFFFFFFFFFFFFFFFFFFFFFFFFFFFFFFFFFFFFF AND PUSH1 0x1 PUSH1 0x0 PUSH2 0x100 EXP DUP2 SLOAD DUP2 PUSH20 0xFFFFFFFFFFFFFFFFFFFFFFFFFFFFFFFFFFFFFFFF MUL NOT AND SWAP1 DUP4 PUSH20 0xFFFFFFFFFFFFFFFFFFFFFFFFFFFFFFFFFFFFFFFF AND MUL OR SWAP1 SSTORE POP PUSH1 0x0 PUSH2 0x280 PUSH2 0x464 JUMP JUMPDEST SWAP1 POP PUSH1 0x1 PUSH1 0x0 SWAP1 SLOAD SWAP1 PUSH2 0x100 EXP SWAP1 DIV PUSH20 0xFFFFFFFFFFFFFFFFFFFFFFFFFFFFFFFFFFFFFFFF AND PUSH20 0xFFFFFFFFFFFFFFFFFFFFFFFFFFFFFFFFFFFFFFFF AND PUSH2 0x8FC PUSH1 0xA PUSH1 0x8 DUP5 PUSH2 0x2CD SWAP2 SWAP1 PUSH2 0x67C JUMP JUMPDEST PUSH2 0x2D7 SWAP2 SWAP1 PUSH2 0x705 JUMP JUMPDEST SWAP1 DUP2 ISZERO MUL SWAP1 PUSH1 0x40 MLOAD PUSH1 0x0 PUSH1 0x40 MLOAD DUP1 DUP4 SUB DUP2 DUP6 DUP9 DUP9 CALL SWAP4 POP POP POP POP ISZERO DUP1 ISZERO PUSH2 0x302 JUMPI RETURNDATASIZE PUSH1 0x0 DUP1 RETURNDATACOPY RETURNDATASIZE PUSH1 0x0 REVERT JUMPDEST POP PUSH1 0x0 DUP1 SLOAD SWAP1 PUSH2 0x100 EXP SWAP1 DIV PUSH20 0xFFFFFFFFFFFFFFFFFFFFFFFFFFFFFFFFFFFFFFFF AND PUSH20 0xFFFFFFFFFFFFFFFFFFFFFFFFFFFFFFFFFFFFFFFF AND PUSH2 0x8FC PUSH1 0xA DUP4 PUSH2 0x34A SWAP2 SWAP1 PUSH2 0x705 JUMP JUMPDEST SWAP1 DUP2 ISZERO MUL SWAP1 PUSH1 0x40 MLOAD PUSH1 0x0 PUSH1 0x40 MLOAD DUP1 DUP4 SUB DUP2 DUP6 DUP9 DUP9 CALL SWAP4 POP POP POP POP ISZERO DUP1 ISZERO PUSH2 0x375 JUMPI RETURNDATASIZE PUSH1 0x0 DUP1 RETURNDATACOPY RETURNDATASIZE PUSH1 0x0 REVERT JUMPDEST POP PUSH1 0x0 PUSH8 0xFFFFFFFFFFFFFFFF DUP2 GT ISZERO PUSH2 0x391 JUMPI PUSH2 0x390 PUSH2 0x736 JUMP JUMPDEST JUMPDEST PUSH1 0x40 MLOAD SWAP1 DUP1 DUP3 MSTORE DUP1 PUSH1 0x20 MUL PUSH1 0x20 ADD DUP3 ADD PUSH1 0x40 MSTORE DUP1 ISZERO PUSH2 0x3BF JUMPI DUP2 PUSH1 0x20 ADD PUSH1 0x20 DUP3 MUL DUP1 CALLDATASIZE DUP4 CALLDATACOPY DUP1 DUP3 ADD SWAP2 POP POP SWAP1 POP JUMPDEST POP PUSH1 0x2 SWAP1 DUP1 MLOAD SWAP1 PUSH1 0x20 ADD SWAP1 PUSH2 0x3D5 SWAP3 SWAP2 SWAP1 PUSH2 0x4E7 JUMP JUMPDEST POP POP POP JUMP JUMPDEST PUSH1 0x0 DUP1 SLOAD SWAP1 PUSH2 0x100 EXP SWAP1 DIV PUSH20 0xFFFFFFFFFFFFFFFFFFFFFFFFFFFFFFFFFFFFFFFF AND DUP2 JUMP JUMPDEST PUSH1 0x0 DUP1 PUSH1 0x0 SWAP1 SLOAD SWAP1 PUSH2 0x100 EXP SWAP1 DIV PUSH20 0xFFFFFFFFFFFFFFFFFFFFFFFFFFFFFFFFFFFFFFFF AND PUSH20 0xFFFFFFFFFFFFFFFFFFFFFFFFFFFFFFFFFFFFFFFF AND CALLER PUSH20 0xFFFFFFFFFFFFFFFFFFFFFFFFFFFFFFFFFFFFFFFF AND EQ PUSH2 0x459 JUMPI PUSH1 0x0 DUP1 REVERT JUMPDEST PUSH1 0x2 DUP1 SLOAD SWAP1 POP SWAP1 POP SWAP1 JUMP JUMPDEST PUSH1 0x0 SELFBALANCE SWAP1 POP SWAP1 JUMP JUMPDEST PUSH1 0x1 PUSH1 0x0 SWAP1 SLOAD SWAP1 PUSH2 0x100 EXP SWAP1 DIV PUSH20 0xFFFFFFFFFFFFFFFFFFFFFFFFFFFFFFFFFFFFFFFF AND DUP2 JUMP JUMPDEST PUSH1 0x0 DUP1 DIFFICULTY TIMESTAMP PUSH1 0x2 DUP1 SLOAD SWAP1 POP PUSH1 0x40 MLOAD PUSH1 0x20 ADD PUSH2 0x4AF SWAP4 SWAP3 SWAP2 SWAP1 PUSH2 0x765 JUMP JUMPDEST PUSH1 0x40 MLOAD PUSH1 0x20 DUP2 DUP4 SUB SUB DUP2 MSTORE SWAP1 PUSH1 0x40 MSTORE DUP1 MLOAD SWAP1 PUSH1 0x20 ADD KECCAK256 PUSH1 0x0 SHR SWAP1 POP PUSH1 0x0 PUSH1 0x2 DUP1 SLOAD SWAP1 POP DUP3 PUSH2 0x4DD SWAP2 SWAP1 PUSH2 0x79C JUMP JUMPDEST SWAP1 POP DUP1 SWAP3 POP POP POP SWAP1 JUMP JUMPDEST DUP3 DUP1 SLOAD DUP3 DUP3 SSTORE SWAP1 PUSH1 0x0 MSTORE PUSH1 0x20 PUSH1 0x0 KECCAK256 SWAP1 DUP2 ADD SWAP3 DUP3 ISZERO PUSH2 0x560 JUMPI SWAP2 PUSH1 0x20 MUL DUP3 ADD JUMPDEST DUP3 DUP2 GT ISZERO PUSH2 0x55F JUMPI DUP3 MLOAD DUP3 PUSH1 0x0 PUSH2 0x100 EXP DUP2 SLOAD DUP2 PUSH20 0xFFFFFFFFFFFFFFFFFFFFFFFFFFFFFFFFFFFFFFFF MUL NOT AND SWAP1 DUP4 PUSH20 0xFFFFFFFFFFFFFFFFFFFFFFFFFFFFFFFFFFFFFFFF AND MUL OR SWAP1 SSTORE POP SWAP2 PUSH1 0x20 ADD SWAP2 SWAP1 PUSH1 0x1 ADD SWAP1 PUSH2 0x507 JUMP JUMPDEST JUMPDEST POP SWAP1 POP PUSH2 0x56D SWAP2 SWAP1 PUSH2 0x571 JUMP JUMPDEST POP SWAP1 JUMP JUMPDEST JUMPDEST DUP1 DUP3 GT ISZERO PUSH2 0x58A JUMPI PUSH1 0x0 DUP2 PUSH1 0x0 SWAP1 SSTORE POP PUSH1 0x1 ADD PUSH2 0x572 JUMP JUMPDEST POP SWAP1 JUMP JUMPDEST PUSH1 0x0 PUSH20 0xFFFFFFFFFFFFFFFFFFFFFFFFFFFFFFFFFFFFFFFF DUP3 AND SWAP1 POP SWAP2 SWAP1 POP JUMP JUMPDEST PUSH1 0x0 PUSH2 0x5B9 DUP3 PUSH2 0x58E JUMP JUMPDEST SWAP1 POP SWAP2 SWAP1 POP JUMP JUMPDEST PUSH2 0x5C9 DUP2 PUSH2 0x5AE JUMP JUMPDEST DUP3 MSTORE POP POP JUMP JUMPDEST PUSH1 0x0 PUSH1 0x20 DUP3 ADD SWAP1 POP PUSH2 0x5E4 PUSH1 0x0 DUP4 ADD DUP5 PUSH2 0x5C0 JUMP JUMPDEST SWAP3 SWAP2 POP POP JUMP JUMPDEST PUSH1 0x0 DUP2 SWAP1 POP SWAP2 SWAP1 POP JUMP JUMPDEST PUSH2 0x5FD DUP2 PUSH2 0x5EA JUMP JUMPDEST DUP3 MSTORE POP POP JUMP JUMPDEST PUSH1 0x0 PUSH1 0x20 DUP3 ADD SWAP1 POP PUSH2 0x618 PUSH1 0x0 DUP4 ADD DUP5 PUSH2 0x5F4 JUMP JUMPDEST SWAP3 SWAP2 POP POP JUMP JUMPDEST PUSH32 0x4E487B7100000000000000000000000000000000000000000000000000000000 PUSH1 0x0 MSTORE PUSH1 0x32 PUSH1 0x4 MSTORE PUSH1 0x24 PUSH1 0x0 REVERT JUMPDEST PUSH32 0x4E487B7100000000000000000000000000000000000000000000000000000000 PUSH1 0x0 MSTORE PUSH1 0x11 PUSH1 0x4 MSTORE PUSH1 0x24 PUSH1 0x0 REVERT JUMPDEST PUSH1 0x0 PUSH2 0x687 DUP3 PUSH2 0x5EA JUMP JUMPDEST SWAP2 POP PUSH2 0x692 DUP4 PUSH2 0x5EA JUMP JUMPDEST SWAP3 POP DUP2 PUSH32 0xFFFFFFFFFFFFFFFFFFFFFFFFFFFFFFFFFFFFFFFFFFFFFFFFFFFFFFFFFFFFFFFF DIV DUP4 GT DUP3 ISZERO ISZERO AND ISZERO PUSH2 0x6CB JUMPI PUSH2 0x6CA PUSH2 0x64D JUMP JUMPDEST JUMPDEST DUP3 DUP3 MUL SWAP1 POP SWAP3 SWAP2 POP POP JUMP JUMPDEST PUSH32 0x4E487B7100000000000000000000000000000000000000000000000000000000 PUSH1 0x0 MSTORE PUSH1 0x12 PUSH1 0x4 MSTORE PUSH1 0x24 PUSH1 0x0 REVERT JUMPDEST PUSH1 0x0 PUSH2 0x710 DUP3 PUSH2 0x5EA JUMP JUMPDEST SWAP2 POP PUSH2 0x71B DUP4 PUSH2 0x5EA JUMP JUMPDEST SWAP3 POP DUP3 PUSH2 0x72B JUMPI PUSH2 0x72A PUSH2 0x6D6 JUMP JUMPDEST JUMPDEST DUP3 DUP3 DIV SWAP1 POP SWAP3 SWAP2 POP POP JUMP JUMPDEST PUSH32 0x4E487B7100000000000000000000000000000000000000000000000000000000 PUSH1 0x0 MSTORE PUSH1 0x41 PUSH1 0x4 MSTORE PUSH1 0x24 PUSH1 0x0 REVERT JUMPDEST PUSH1 0x0 PUSH1 0x60 DUP3 ADD SWAP1 POP PUSH2 0x77A PUSH1 0x0 DUP4 ADD DUP7 PUSH2 0x5F4 JUMP JUMPDEST PUSH2 0x787 PUSH1 0x20 DUP4 ADD DUP6 PUSH2 0x5F4 JUMP JUMPDEST PUSH2 0x794 PUSH1 0x40 DUP4 ADD DUP5 PUSH2 0x5F4 JUMP JUMPDEST SWAP5 SWAP4 POP POP POP POP JUMP JUMPDEST PUSH1 0x0 PUSH2 0x7A7 DUP3 PUSH2 0x5EA JUMP JUMPDEST SWAP2 POP PUSH2 0x7B2 DUP4 PUSH2 0x5EA JUMP JUMPDEST SWAP3 POP DUP3 PUSH2 0x7C2 JUMPI PUSH2 0x7C1 PUSH2 0x6D6 JUMP JUMPDEST JUMPDEST DUP3 DUP3 MOD SWAP1 POP SWAP3 SWAP2 POP POP JUMP INVALID LOG2 PUSH5 0x6970667358 0x22 SLT KECCAK256 0x4A 0x4D PC 0xFC 0xE1 0x2B SWAP1 0xC0 PUSH24 0xDC04D8B5333A886C1484111A4706D72366C2E3D6BA324464 PUSH20 0x6F6C634300081000330000000000000000000000 "
				},
				"gasEstimates": {
					"creation": {
						"codeDepositCost": "410200",
						"executionCost": "24715",
						"totalCost": "434915"
					},
					"external": {
						"Participants()": "4637",
						"lottery_pool()": "383",
						"manager()": "2511",
						"select_winner()": "infinite",
						"winner()": "2580"
					},
					"internal": {
						"random_index()": "infinite"
					}
				},
				"methodIdentifiers": {
					"Participants()": "7f244dd3",
					"lottery_pool()": "941c9275",
					"manager()": "481c6a75",
					"select_winner()": "1bef21d6",
					"winner()": "dfbf53ae"
				}
			},
			"storageLayout": {
				"storage": [
					{
						"astId": 3,
						"contract": "lottery_contract.sol:Lottery",
						"label": "manager",
						"offset": 0,
						"slot": "0",
						"type": "t_address_payable"
					},
					{
						"astId": 5,
						"contract": "lottery_contract.sol:Lottery",
						"label": "winner",
						"offset": 0,
						"slot": "1",
						"type": "t_address_payable"
					},
					{
						"astId": 8,
						"contract": "lottery_contract.sol:Lottery",
						"label": "participants",
						"offset": 0,
						"slot": "2",
						"type": "t_array(t_address)dyn_storage"
					}
				],
				"types": {
					"t_address": {
						"encoding": "inplace",
						"label": "address",
						"numberOfBytes": "20"
					},
					"t_address_payable": {
						"encoding": "inplace",
						"label": "address payable",
						"numberOfBytes": "20"
					},
					"t_array(t_address)dyn_storage": {
						"base": "t_address",
						"encoding": "dynamic_array",
						"label": "address[]",
						"numberOfBytes": "32"
					}
				}
			},
			"userdoc": {
				"kind": "user",
				"methods": {},
				"version": 1
			}
		}
	}
}